:020000040002F8
:10700000B05D01207975020081750200F9720200FD
:107010008575020087750200897502000000000076
:10702000000000000000000000000000D974020011
:107030008D750200000000001D75020091750200B0
:10704000919202009375020031990200819602002C
:107050009196020093750200ED8C0200B594020037
:10706000B9980200D1980200E99802000D9402003C
:1070700093750200E5930200937502009375020078
:10708000219B020021940200ED920200DD8C02009F
:10709000C5960200CF960200D996020093750200B1
:1070A000937502009375020001990200199902007C
:1070B0009D9202002D9102000000000000000000DF
:1070C00093750200B1920200C5920200A1960200DF
:1070D000A1940200818F0200937502004199020081
:1070E00093750200B1930200B17602000000000027
:1070F00000000000D992020000000000B1960200DA
:10710000000000000000000000000000000000007F
:10711000000000000000000000000000000000006F
:10712000000000000000000000000000000000005F
:10713000000000000000000000000000000000004F
:10714000000000000000000000000000000000003F
:10715000000000000000000000000000000000002F
:10716000000000000000000000000000000000001F
:10717000000000000000000000000000000000000F
:1071800000000000000000000000000000000000FF
:1071900000000000000000000000000000000000EF
:1071A00000000000000000000000000000000000DF
:1071B00000000000000000000000000000000000CF
:1071C00000000000000000000000000000000000BF
:1071D00000000000000000000000000000000000AF
:1071E000000000000000000000000000000000009F
:1071F000000000000000000000000000000000008F
:10720000DFF80CD000F024FA0048004725D1020036
:10721000B05D012030B4044654E8000F0D4644E848
:107220000053002BF8D1156030BC704730B40446D1
:1072300054E8000F40EA010544E80053002BF7D161
:10724000156030BC704730B4044654E8000F00EAC3
:10725000010544E80053002BF7D1156030BC70479E
:1072600030B4044654E8000F80EA010544E80053B6
:10727000002BF7D1156030BC704730B4044654E899
:10728000000F00EB010544E80053002BF7D1156017
:1072900030BC704730B4044654E8000FA0EB010541
:1072A00044E80053002BF7D1156030BC704770B430
:1072B00004464FF0000054E8006F0D68AE4207BF6F
:1072C00044E80023012044E800630E60002B1CBF4B
:1072D0000020F0E770BC704730B4044654E8000F5B
:1072E00088422CBF451A054644E80053002BF5D1CF
:1072F000156030BC70470000094B1EF0040F1CBF26
:10730000EFF309801847EFF308800649064A8842E0
:1073100001D8904202D88D464FF000001847000077
:10732000198F0200B05D0120B03D012030B450E85B
:10733000012F93B2C48923448489A34228BF1B1B15
:107340000489A34202BFBFF32F8F002007E0C3EAE6
:10735000020340E80134002CE9D14FF001000A603B
:1073600030BC704750E8012FC2EA024240E80121D8
:107370000029F7D1704730B450E8022F1FFAA2F36A
:10738000C488A34202BFBFF32F8F00200DE0C48941
:1073900023448489A34228BF1B1BC2EA034340E85D
:1073A0000234002CE8D14FF001000A6030BC704775
:1073B00050E8022FC2EA224240E802210029F7D118
:1073C0007047034653E8022FD988B2EB324F4FF093
:1073D000000017BF92B241EA014142EA014104E0D4
:1073E0005A68B2EB324F08BF012043E80212002A6C
:1073F000E8D1704730B4044654E8000F0D4644E825
:107400000053002BF8D1156030BC704730B40446EF
:1074100054E8000F40EA010544E80053002BF7D17F
:10742000156030BC704730B4044654E8000F00EAE1
:10743000010544E80053002BF7D1156030BC7047BC
:1074400030B4044654E8000F80EA010544E80053D4
:10745000002BF7D1156030BC704730B4044654E8B7
:10746000000F00EB010544E80053002BF7D1156035
:1074700030BC704730B4044654E8000FA0EB01055F
:1074800044E80053002BF7D1156030BC704770B44E
:1074900004464FF0000054E8006F0D68AE4207BF8D
:1074A00044E80023012044E800630E60002B1CBF69
:1074B0000020F0E770BC704730B4044654E8000F79
:1074C00088422CBF451A054644E80053002BF5D1ED
:1074D000156030BC70470000264B19680868B0E89A
:1074E000F04F80F30988BFF36F8F4FF0000080F3F7
:1074F00011887047000000000748006880F3088882
:1075000062B661B6BFF34F8FBFF36F8F4FF4F07069
:1075100080F3118800DF000000700200EFF30980A3
:10752000BFF36F8F134B1A681EF0100F08BF20EDCA
:10753000108A20E9F04F106008B44FF0400080F34B
:107540001188BFF34F8FBFF36F8F0CF05FFA4FF0CE
:10755000000080F3118808BC19680868B0E8F04F93
:107560001EF0100F08BFB0EC108A80F30988BFF33B
:107570006F8F70471CE90020064880470648004787
:10758000FEE7FEE7FEE7FEE7FEE7FEE7FEE7FEE7D3
:10759000FEE7FEE7359702000172020000487047DF
:1075A000304F030010B5441A0346944209D28418A0
:1075B000114403E011F8013D04F8013D521EF9D2D7
:1075C00010BD40EA0104A40703D009E010C9121F4E
:1075D00010C3042AFAD203E011F8014B03F8014B5F
:1075E000521EF9D210BDD2B201E000F8012B491EA3
:1075F000FBD270470022F6E710B513460A46044650
:107600001946FFF7F0FF204610BD421C10F8011B81
:107610000029FBD1801A704710B5002200E0521CEF
:10762000835C8C5CA34201D1002BF8D1D8B2E1B2CB
:10763000401A10BD30B504460020034600E05B1C34
:10764000934203D2E05CCD5C401BF8D030BD00001B
:10765000064C074D06E0E06840F0010394E807009F
:1076600098471034AC42F6D3FFF7CEFDC455030063
:10767000E455030030B58C1810F8012B12F00F03FD
:1076800001D110F8013B120906D110F8012B03E0DB
:1076900010F8015B01F8015B5B1EF9D101E001F814
:1076A000013B521EFBD1A142E6D3002030BD0000B9
:1076B0000B490C4B0C4A4FF0FF3008601B68BFF3BE
:1076C0005B8F52E8001F42E800300028F9D1BFF379
:1076D0005B8F9942F3D1BFF35F8F044A1360704709
:1076E00004BA025000BA0250AC3D012008BA025060
:1076F0002DE9F0478EB0002800F0C680002900F088
:10770000B68004460D46E42101F02EF907A9204673
:1077100000F0ECFE20B1614E30460EB0BDE8F087BF
:107720005F4F4FF0FF31386801F03EF9002840F01C
:10773000A7802A4607A9204600F0DAFC06463868EA
:1077400001F054F9002840F09780002EE3D1E421A5
:10775000204601F009F94FF0FF31386801F024F9B3
:10776000002840F0968007A9204600F0BFFE0028C0
:1077700074D1D4F8D030042B01D0082B6ED1D4F8BA
:10778000C4200C2A6AD803F1040A0EAB4FEA4A124D
:1077900043F8242D06A804AACDE90020029507A9E4
:1077A0000022204600F028FB00284ED1069B0498BA
:1077B000D4F8C42023F00303083304F184081844E8
:1077C0009200414601F0CCF8D4F8C420069B0499FD
:1077D00003EB82064FEA8A0ACDF800A03246434600
:1077E0002046069601F044F9814670BB514620467A
:1077F00001F0BAF84B4622464146204601F030FAE5
:10780000064610BBD4F8D430C4F8C40023F4803347
:1078100043F001030122C4F8D430224BC4F8CC2039
:107820004046C4F8DC30402101F09EF828464FF471
:10783000BF5101F099F8386801F0D8F800283FF4FA
:107840006BAF194801F038F866E72046E42101F0F3
:107850008BF828464FF4BF5101F086F8386801F0E4
:10786000C5F810B1104801F027F8104E54E7104E3B
:1078700030460EB0BDE8F0870B4801F01DF864E714
:107880000C4801F019F854E70B4E30460EB0BDE835
:10789000F087084801F010F865E700BF110CF00010
:1078A000B45D0120CDAB230148540300120CF0005D
:1078B000200CF00030540300250CF000F0B583B02C
:1078C000002800F037811D46036A072B0E46044648
:1078D0000AD01746002D40F08780032B00F09480DB
:1078E0000024204603B0F0BD436B002B00F08780DE
:1078F000012B02D1B5F5803F7DD215B9236B002B4A
:1079000079D14FF0FF319C4801F04EF8002840F04B
:10791000CE819A4B01221A60236A072B00F217814D
:1079200002FA03F313F08F0F00F01181636A9342A0
:1079300000F21F81636B934200F2E381A36B9342D9
:1079400000F2FD818E4B8F491A600B68002BFCD131
:107950008D4A1368002BFCD18C4A1368002BFCD194
:107960008B4A1368002BFCD18A4B1F68002FFCD177
:107970004FF0FF3000F024FF236A23F00403032BB1
:1079800014BF4020802000F027FF834B1F60236A34
:1079900023F00402032A18BF676A804A4FEA830370
:1079A00018BF07F0010703F01C031F431760236A89
:1079B000072B02D17A4B01221A60A36A012B00F037
:1079C000A881C0F0A081022B00F09D81236A013BB9
:1079D000062B00F23F81DFE813F034015601340139
:1079E0003D013D013D013401436B002B40F0A78078
:1079F000B5F5805F13D36B4C204603B0F0BDB5F5F1
:107A0000805FFFF47AAFF6E7036B002B7FF468AF7B
:107A1000C0E90F55C0E9115500F13C0610254FF0A3
:107A2000FF31554800F0C0FF002840F09E80534BC6
:107A300001221A60236A072B6AD802FA03F313F0B3
:107A40008F0F65D0636A934262D8636B93425FD8AD
:107A5000A36B93425CD84A4B4A491A600B68002BCF
:107A6000FCD1494A1368002BFCD1484A1368002B0B
:107A7000FCD1474A1368002BFCD1464A1368002BFF
:107A8000FCD14FF0FF30019300F09AFE226A22F001
:107A90000402032A14BF4020802000F09DFE3E4ACD
:107AA000019B1360226A22F00401032918BF636A54
:107AB0003A494FEA820218BF03F0010302F01C02A8
:107AC00013430B60236A072B02D1354B01221A6046
:107AD000A36A012B00F00B81C0F00381022B00F0A0
:107AE0000081236A5A1E062A76D8DFE802F06BA5C9
:107AF0006B7575756B002C4A2C4B126822601A68E6
:107B000062605A68A26008331B68E3600123236344
:107B1000274B1C68002CFCD1184B17481C6000F048
:107B200065FF00283FF4DCAE224800F0C5FE204689
:107B300003B0F0BD4FF47104204603B0F0BD012B3B
:107B40007FF46DAFB5F5803FBFF455AF67E71A4CD2
:107B5000174A1368002BFCD1084A0748136000F04D
:107B600045FF00283FF4BDAEDEE7144800F0A4FE58
:107B70005DE7134CECE700BFC05D012010B8025078
:107B800000B9025070B4025020BD025020BC025017
:107B900038BD025038BC0250BCB40250C0B40250D0
:107BA0007CB402500500F10060B4025064B402508D
:107BB00010B90250905403000100F1007854030002
:107BC0000200F1005F4B22681A6062685A60A26886
:107BD0009A60E268DA60236A23F00403032B6AD018
:107BE000A36B012B00F0A580574A584B176020204B
:107BF0001D60636B012B6FD0554A564B16601D609C
:107C000000F0F2FD544A1368002BFCD1236A013BBB
:107C1000062B3FF67BAF01A252F823F03D7C020019
:107C2000F77A02003D7C02000D7B02000D7B020012
:107C30000D7B02003D7C0200484BC4E7414A484BA3
:107C40005BE7404B22681A6062685A60A2689A60DB
:107C5000E268DA604349444A01230B601560002D55
:107C60002ED1226B0AB9414A13603B4A1368002B9C
:107C7000FCD1236A013B062B07D8DFE803F0150887
:107C8000150606061500354BDCE7002460E7334A8D
:107C9000374B126822601A6862605A68A260083323
:107CA0001B68E360002453E7264A2D4BF1E7314877
:107CB00000F002FE2DE6636B012B0CD010209BE739
:107CC000636B012B2FD0224A224B166010201D60BF
:107CD00000F08AFDC9E74020274A284B16601D6046
:107CE0008EE72749274A0B6001231360F9E6264BEC
:107CF00022691A6062695A60A2699A60E269DA6070
:107D0000EFE6224C24E71E491E4A0B600123136054
:107D10005CE61D4B22691A6062695A60A2699A602A
:107D2000E269DA6052E6144A144B166040201D6086
:107D3000CEE7174A174B176080201D6059E7164C95
:107D400006E700BF40B4025030BD025034BD0250BF
:107D500030BC025034BC025010B9025060B4025022
:107D600044B402507CB40250BCB4025024B502505A
:107D700064B402507854030028BC02502CBC02505A
:107D800038BA025078B4025000B402500300F10037
:107D900028BD02502CBD02500400F1000B6802E027
:107DA000082B0B6006D8426813424FEA4303F7D012
:107DB0000020704700487047310CF1000138072857
:107DC00015D8DFE800F0100C1408141414048B69A3
:107DD0008B60002070474B698B60002070470B69F7
:107DE0008B6000207047CB688B6000207047014893
:107DF000704700BF310CF1002DE9F04F93B0804681
:107E00000C46164606A830220021DDE91C59FFF772
:107E1000F3FB1E9B03F5C16200232A60C9F8003002
:107E2000D8F8D43013F4407F13D02B681B68C9F8FE
:107E30000030002B00F0AE80D8F8D40010F40070B1
:107E400040F08880039000F0DBF9039813B0BDE8A0
:107E5000F08F002E00F088809349944A0868A1684A
:107E60001268914240F09A80002840F0978098F87C
:107E7000DB3004938E4E8F4DDFF848B24FF0040A8A
:107E80000023059301270CE09A0700F18980DB06A7
:107E900000F19A80A36803EB43031B049B09336042
:107EA0002F6005A800F0C8F9059BD907ECD54FF065
:107EB000FF33CBF80030804B1B6806937F4B1A686A
:107EC00007925A68089208337D4A1B680993A36891
:107ED00011680A9103EB430351680B91203A1B048C
:107EE0009B0912683360012700232F6005930AE085
:107EF000990755D4DA0667D4A36803EB43031B0440
:107F00009B0933602F6005A800F096F9059BD80700
:107F1000EED56C4A684B4FF0FF3111601A680C9235
:107F20005A680D929A680E92DA680F921A69109246
:107F30005A691192103B1B681E9B06A903F5C2608B
:107F4000302200F00DFD3023C9F80030D8F8D430CD
:107F5000002019E02B685C485A685C4B002A08BF77
:107F6000184613B0BDE8F08F23F00F03C8F8D430E3
:107F70000122009604AB2146404600F0BBF80028E1
:107F80003FF478AFD8F8D4309B057FF55BAF13B0E2
:107F9000BDE8F08F4D4813B0BDE8F08F4C48F3E7D3
:107FA0004FF0FF33CBF80030049B082B72D05B00FE
:107FB0000493E4B183B9D8F8D43061684548464A9F
:107FC000002918BF1046DFE710224FF0FF33CBF82F
:107FD0000020CBF80030E7E704A92046FFF7DEFEDB
:107FE00048B13C4AD8F8D4309042CDD1E5E7D8F832
:107FF000D4303A48C8E721460498FFF7DFFE00284E
:10800000EFD1049B082B49D0042B4AD0A3F1020ED8
:10801000BEFA8EFE4FEA5E1E3148324F234A0123DC
:10802000036019463B6084461F46CCF80070A36885
:1080300013601368A0688342F7D100231A4A2A4FBD
:108040002A482B604FF0FF3CCBF800C06FF0130CB8
:10805000C7F800C0C0F800E01360A36803EB430357
:108060001B049B0933602960049AD8F8D8101302C6
:1080700043EA026321F07F421A43130A03F47F03A9
:10808000134323F07F43BAF1010AC8F8D8307FF4D4
:10809000F7AE51E7D8F8D4300F4875E74FF0030E2C
:1080A000BAE74FF0020EB7E738B1025030B10250D4
:1080B000D8B102502CB1025014B1025018B1025084
:1080C00024B1025008B10250340CF000330CF0001F
:1080D000300CF100310CF100320CF100350CF100E4
:1080E000C4B1025040B1025000B102500CB1025074
:1080F00000207047002867D0002965D0002B63D08E
:108100002DE9F04722B1012400221C60C0F8D820DC
:108110001A68002A55D00D460646194628461C46C0
:10812000FFF73CFE00284DD129462068FFF746FEA8
:10813000002847D12368082B48D0042B49D0A3F14D
:108140000208B8FA88F84FEA5818234F2349244BFD
:1081500001223A6094460A609646C7F800E0A96892
:1081600019601968AA689142F7D11E4ADFF8889011
:108170001D49DFF888E01D4F00234FF0FF3A1360E0
:10818000C9F800A06FF01309CEF80090C7F800807E
:108190000B60AB6803EB43031B049B09C1F8A030E1
:1081A000C2F800C0D6F8D830226823F07F4343EAF3
:1081B0000263C6F8D830226843EA0223C6F8D830F2
:1081C00000E00B48BDE8F0870A4870474FF003080D
:1081D000BBE74FF00208B8E7C4B1025040B102500B
:1081E00030B102502CB1025038B102500CB10250E3
:1081F000310CF100350CF10008B1025000B1025011
:10820000084B094A002119601368002BFCD107486C
:108210000749084A03604FF480604FF0FF3308605D
:10822000136070472CB1025010B90250C4B1025013
:1082300008BA025008B1025038B504464FF48060C5
:1082400000F0D2FA054D06480649074A00232B6084
:1082500003600B682360136038BD00BFC8B10250D3
:108260002CB1025004B1025008B10250002800F0B5
:10827000A080F0B5446B83B0002C72D0012C02D1E9
:10828000B3F5803F70D204460E467A484FF0FF3176
:108290001D46174600F088FB002840F08680764B8C
:1082A00001221A60236A072B6ED802FA03F313F037
:1082B0008F0F69D0636A934266D8636B934263D829
:1082C000A36B934260D86D4B6D491A600B68002B0D
:1082D000FCD16C4A1368002BFCD16B4A1368002B4D
:1082E000FCD16A4A1368002BFCD1694A1368002B41
:1082F000FCD14FF0FF30019300F062FA226A22F0C5
:108300000402032A14BF4020802000F065FA614A6D
:10831000019B1360226A22F00401032918BF636ADB
:108320005D494FEA820218BF03F0010302F01C020C
:1083300013430B60236A072B02D1584B01221A60AA
:10834000A36A012B00F086807ED3022B7CD0236AA7
:108350005A1E062A3AD8DFE802F02F672F3939393A
:108360002F00B3F5805F8ED34D4803B0F0BD4D4A6A
:108370004D4B126822601A6862605A68A260083326
:108380001B68E36001232363484B1C68002CFCD16D
:10839000394B38481C6000F029FB0028E5D04448E0
:1083A00000F08AFA204603B0F0BD424800F084FA9B
:1083B00075E74FF4710070473F4B22681A6062689E
:1083C0005A60A2689A60E268DA60236A23F00403C4
:1083D000032B2ED0A36B012B46D0384A384B1760A5
:1083E00020201D60636B012B29D0364A364B166066
:1083F0001D6000F0F9F92D4A1368002BFCD1236AA7
:10840000013B062BBED801A252F823F02D840200B6
:108410006F8302002D8402008583020085830200A1
:10842000858302002D8402001E4BC6E7224A274B9B
:108430009FE7636B012B01D01020D6E74020244A30
:10844000244B16601D60D4E72349244A0B600123A6
:1084500013607CE7224B22691A6062695A60A26944
:108460009A60E269DA6072E71E4A1F4B176080204B
:108470001D60B7E7C05D012010B8025000B902507E
:1084800070B4025020BD025020BC025038BD0250D2
:1084900038BC0250BCB40250C0B402507CB402508C
:1084A0000500F10060B4025064B4025010B90250EB
:1084B000905403007854030040B4025030BD025081
:1084C00034BD025030BC025034BC025044B402509F
:1084D00028BC02502CBC025038BA025078B402506A
:1084E00000B4025028BD02502CBD025030B5042308
:1084F00085B00122C0F8D03000230A6068460C46DF
:10850000CDE90033CDE9023300F0A6FA0546C8B93B
:10851000DDE90030DDE90212E360003318BF01231A
:10852000C4E90401A26108B143F0020309B143F0B8
:1085300004030AB143F00803002228466360A260E6
:1085400005B030BD014800F0B7F9E1E7A8540300D9
:1085500020B331B3C2B138B512F00F041CD1056A93
:1085600025F00405032D01D0FBB11C46134622461D
:10857000FFF77CFE124B98421FD007D8B0F5710F61
:1085800018D010D898B938BD0E4870470E4B984295
:1085900009D9013398420AD10A4838BD4FF4700016
:1085A00070470A4870470A4838BD0A4838BD4FF43A
:1085B000750038BD4FF4700038BD074838BD00BFA6
:1085C0000200F1000A00F0000400F1000800F000D1
:1085D0000200F0000900F0000600F00000284AD078
:1085E000AAB1994211D870B5059B002B38D0036A07
:1085F00023F00404032C049C0DD0002C32D0059CE5
:1086000024688C420CD2274870BD27487047002947
:10861000E9D0264870473CB3059C24680F2CF2D95A
:108620000C0703D0012B21D9032B1FD00E46334654
:108630001146049A0446FFF741F9054638B9236A02
:1086400023F00403032B20D0059B1E6070BDA0F512
:108650007100052823D8DFE800F013111611110C62
:10866000134870BD0029E1D0124870BDC36A002BC9
:10867000DCD1114870BD4FF4700070470F4870BDD9
:108680004FF4700070BD0E4870BD04982146102252
:1086900000F066F9059A10231360284670BD4FF468
:1086A000750070BD0D00F0000C00F0000800F00037
:1086B0001100F0000900F0000A00F0000200F000D4
:1086C0000600F00060B1032A01D9052A06D101296C
:1086D00002D843B11648704716487047164870478D
:1086E0004FF470007047022A70B5044615460E46D6
:1086F00012D0052A10D04C2100F036F9052D88BF84
:108700004FF0FF320DD900200123C4E90826C4E947
:108710000B00C4E90D3370BD3EB94C21204600F07A
:1087200023F9064B53F82520EDE7054870BD00BF3F
:108730000E00F0000600F0000200F000605403009C
:108740001200F00070B108B5036A013B022B05D896
:1087500031B1102200F004F9002008BD034808BD23
:10876000034808BD4FF47000704700BF0200F000DE
:108770000100F000D0B1AAB191B9082B12D1536811
:10878000102B11D113686BB110B513460122826210
:108790000C461030D3E9001200F0E2F8204610BD7C
:1087A0000448704704487047044870474FF470000D
:1087B000704700BF0500F0000400F0000300F00067
:1087C000014B1860704700BF08BA0250014B0020EF
:1087D00018607047AC3D0120014B1860704700BF26
:1087E00004BA02500020704710B5044682B0C0B1F0
:1087F0001249134AC3430B6013680193019B18424B
:108800000AD1104A20BFBFF35B8F1368BFF35B8FA1
:108810000193019B2342F5D00B4B1C60019802B0E1
:1088200010BD0A4800F048F8044A054B4FF0FF31EC
:1088300011601B680193019BE3E700BF04BA02507B
:1088400000BA0250AC3D012008BA0250D8540300CF
:1088500008B5FFF7C7FFBDE8084000F0D9B800BF72
:1088600010B500F03FF898B9FFF7B0FF98B90E4B7C
:108870001B681B0EF02B10D10C4A0D4B12689A424C
:108880000DD00624FFF7AEFF00F0C2F8204610BD61
:108890000424204610BD0324F6E70524F2E7054B27
:1088A00004461860F5E700BF28B9025024BA025008
:1088B0000000E0200CBA0250BFF34F8F0549064B71
:1088C000CA6802F4E0621343CB60BFF34F8F00BF6E
:1088D000FDE700BF00ED00E00400FA05002070474E
:1088E000704700BF08B500214FF40040FFF7F6FFC6
:1088F00008B1012008BD124800F03AF878B91148D3
:1089000000F036F898B9104B0E4A10481A6000F083
:108910002FF880B90E4B0D4A1A60002008BD0D4893
:10892000FFF7CAFF074800F023F80028EBD00A48F9
:10893000FFF7C2FFE7E70948FFF7BEFFEAE700BF1E
:10894000C05D0120B85D0120B45D0120BC5D012047
:10895000B05D012008550300245503004055030075
:10896000FEF720BEFEF748BE0A460021FEF744BED1
:1089700010B5044610B10020206010BD0248FFF77A
:108980009BFF0020206010BD6055030010B5044619
:1089900010B10020206010BD0248FFF78DFF0020BD
:1089A000206010BD6055030010B50446B8B1BFF398
:1089B0005B8F2368BFF35B8F012BF8D00122BFF3DD
:1089C0005B8F54E8003F44E800210029F9D1BFF350
:1089D0005B8F012BF3D1BFF35F8F002010BD0248E6
:1089E000FFF76AFFE3E700BF8455030010B50446B4
:1089F00020B1BFF35F8F0020206010BD0348FFF758
:108A00005BFFBFF35F8F0020206010BDA455030003
:108A100070B50E4E0E4D0F4CFFF762FF3046FFF75C
:108A2000B5FF30460421FFF79FFF2846FFF7AEFF52
:108A300028460421FFF798FF2046FFF7A7FF2046AE
:108A40000421BDE87040FFF78FBF00BFC05D01206B
:108A5000B85D0120BC5D012003464FF4FA714FF46C
:108A60007A7200209960C3E90022D860704700BF85
:108A70002DE9F04F764C8046894694469E460FCCB1
:108A8000B7B007AF3D460FC594E80F0004F11006DC
:108A900085E80F000FCE0FAD0FC596E80F003034FC
:108AA00085E80F000FCC17AD0FC50FCC0FC594E8AC
:108AB0000F00D8F8D040042C85E80F0001D0082C16
:108AC00008D1251D409BAD009D4207D0614837B0BD
:108AD000BDE8F08F604837B0BDE8F08F09EB0C01BE
:108AE0009CFA8CF30CF118080CF10900C9F800305D
:108AF0002EBA802328F00F08A8EB0002C9F8046002
:108B000048440B720021CDF80CE0FFF72BFF409B8F
:108B10001B09A5F1100508BF23AC6DD0042CDDF8AE
:108B20000CA04FF0000623ACAB461FD153E020460B
:108B3000CDE9057BFFF71EFE294630BB2046FFF737
:108B400001FE36AD4FF0100C43464A464146E0B9AF
:108B500045F8C8CD2046CDE900A5FFF73FFD0AF155
:108B6000100A90B9409BB6EB131F44D2002319465C
:108B700002222046FFF7A6FD014617A800EB0615C6
:108B8000082305AA01360029D1D0344837B0BDE802
:108B9000F08F2046CDE9057BFFF7ECFD2946002844
:108BA000F3D12046FFF7CEFD36AD4FF0100C434613
:108BB0004A4641460028E8D145F8C8CD2046CDE9CF
:108BC00000A5FFF70BFD0AF1100A0028DDD1409B3C
:108BD000B6EB131F0FD20023194602222046FFF7DF
:108BE00071FD01460FA800EB0615082305AA013602
:108BF0000029CED0C9E75D460023039E1946012215
:108C00002046CDE90565FFF75DFD0028BDD1014691
:108C1000082305AA2046FFF7ADFD0028B5D171193C
:108C20002046FFF78FFD0028AFD10146409A30461D
:108C3000FFF798FE409B009640A9019132462046DE
:108C40001946FFF7CBFC00283FF441AF9DE700BF7A
:108C5000C0530300230CF000210CF000360CF00090
:108C6000F0B51F4699B000230E461546D0F8D04007
:108C7000194605A80322FFF725FD48BBA4000146BD
:108C8000082303AA05A8CDE90354FFF773FDF8B93B
:108C9000291905A8FFF756FDD0B937B92B46102280
:108CA000314605A8FFF754FC90B918A904F1100348
:108CB00041F8583D324601910095194605A8FFF745
:108CC0008DFC054B002814BF1846002019B0F0BDDC
:108CD000014819B0F0BD00BF360CF00010B50249D4
:108CE0000868804710BD00008CE800202DE9F04F97
:108CF0008DB0002700200B900C904FF480700A90EC
:108D00000126002412E00A9806F0A4F840B100BF42
:108D10007E480068304018B10A9806F08DF8374355
:108D200076000A98001D80B20A90641C082CEAD3D1
:108D30004FF4BE7006F08EF850B14FF4BE7006F0DE
:108D40007BF847F000470BAA0221002006F058F8F4
:108D5000F8B200B3012600241BE006EA0700B0B118
:108D600000BF6B4850F82400C0F30520804600BFC8
:108D7000674850F82400C0F301408146204601F0C6
:108D800077FF054615B149464046A84700BF760023
:108D9000641C082CE1D307F0004000287DD04FF080
:108DA000000B002008900990002505E04FF0FF30EF
:108DB00006A941F825006D1C022DF7D300BF4FF026
:108DC000000B002463E05348005D0590059820F0F7
:108DD000C00004904F480057401C002856D006A9F8
:108DE000049804F055FD002850D005984FEA9019DA
:108DF000049801F045FF804601F03AFF0390039884
:108E000010B9B9F1030F40D1B9F1030F03D108A98B
:108E1000049804F048FD0498029002A805F0B6FFFB
:108E20000190019800F5E060029950F82100C0F32C
:108E3000014800BF0BA9049804F02AFD8246BAF14C
:108E4000000F02D0B8F1020F05D0BAF1000F1BD10C
:108E5000B8F1030F18D1B9F1030F0FD1B8F1020F18
:108E600001D1032000E0022002900299049805F04D
:108E700045FF0BF1010000F0FF0B00BF039818B194
:108E80004946DDE90320904700BF00BF641C042C65
:108E900099D3BBF1000F31D000E034E04FF001086E
:108EA00004AA0221002005F0ABFF00250BE004A876
:108EB00050F825000BA951F82510884202D04FF038
:108EC000000802E06D1C022DF1D300BFB8F1000FC5
:108ED00002D04FF0000B10E000250CE004A850F881
:108EE00025000BA941F8250008A850F8250006A97F
:108EF00041F825006D1C022DF0D300BFBBF1000F1F
:108F00007FF45DAF00BF0DB0BDE8F08F046300409B
:108F10001065004080040120044600BF0648006838
:108F20000548001D0068002000E0401C1A28FCD302
:108F3000204600F003F8000028ED00E000BF00BF6D
:108F400000BF00BF00BFBFF34F8F00BF00BF00BF17
:108F50000948006800F4E06008490843001D06491C
:108F6000086000BF00BF00BFBFF34F8F00BF00BF4E
:108F700000BF00BF00BFFDE70CED00E00000FA05F8
:108F80001CB54FF48A71664805F06FFFD8B14FF4F5
:108F90008A71634805F070FF6248407920F008004C
:108FA00008306049487108464079C0F3400050B12C
:108FB00008464079C0F3001028B10846407920F0F7
:108FC0002000203048714FF48271554805F04DFF64
:108FD000D8B14FF48271524805F04EFF51484079A4
:108FE00020F00400001D4F4948710846407900F008
:108FF000010050B108464079C0F3001028B108467E
:10900000407920F02000203048714FF484714448AA
:1090100005F02BFFD8B14FF48471414805F02CFFC7
:1090200004213F4805F02FFF00BF00203E490860A3
:1090300000BF3C48002102681030904739480021A9
:1090400002680830904701203649087166E03548CB
:109050004079C0F3400070B13248407900F001001F
:1090600048B130484079C0F3C00020B12D48407964
:10907000C0F38000A0B92B48407900F0010020B96E
:1090800028484079C0F3C00050B926484079C0F361
:109090004000002842D123484079C0F38000F8B155
:1090A0002048407920F008001E4948710846407960
:1090B00020F00400487108464079C0F3401080B1A8
:1090C0000846407920F0200048710846407920F099
:1090D00010001030487108460121026800209047B6
:1090E0001CE01049D1E90401CDE900010D48024618
:1090F000D2E90212C0E9041200200A498860002166
:109100000848C160407920F01000103005494871CE
:109110000846012102686846904700BF1CBD000058
:10912000005002408C040120005502403EB54FF42F
:10913000807005F0C7FE00284BD04FF4807005F01A
:10914000CBFE5048847C817C012020EA01054D48FB
:10915000001D50F8250018B94A48407C022821D14A
:1091600000208DF808004749C8740846407C022852
:1091700004D100200190012048740BE04148001DFB
:1091800050F82400019000213E48001D40F82410B2
:10919000001F857401208DF800003A480168684678
:1091A00088470EE03748C07C58B9374A07CA8DE86F
:1091B000070001203349C87408460168684688479B
:1091C00000BF3048407C022802D101202D4948745C
:1091D00046E04FF4827005F075FE002840D04FF451
:1091E000827005F079FE00BF00202849086000BFAA
:1091F000244948748DF808008DF800000846817CE9
:10920000001D50F8210078B11E48817C001D50F8E7
:109210002100019000211B48827C001D40F8221093
:10922000001F0168684688471648817C012020EAB3
:1092300001041448001D50F8240068B11148001DB5
:1092400050F82400019000210E48001D40F8241021
:10925000001F01686846884700200A49887400BFDB
:109260000848007D60B1084A0C3207CA8DE8070043
:10927000002004490875084601686846884700BF11
:109280003EBD0000A40401204C49030000D501406C
:1092900010B506F071FC06F05DFB10BD10B502497B
:1092A000024803F08EFC10BDBC04012000C0014048
:1092B00010B50249024803F084FC10BDC40401202B
:1092C0000010024010B50249024803F07AFC10BDBC
:1092D000CC0401200020024010B50249024803F0EE
:1092E00070FC10BDD404012000D002401CB500BFAA
:1092F0004FF480702B494058B0B1012005F034FE86
:1093000090B14FF4807005F023FE4FF48070ADF8FB
:10931000000000BF2448006840B28DF80200234AD4
:10932000DDE900011268904700BF4FF482701D49CB
:109330004058F0B1022005F017FED0B14FF4827012
:1093400005F006FE4FF48270ADF8000000BF16482D
:109350000C30006800B2ADF8020000BF12483C308B
:10936000006881B2ADF80410104ADDE9000112680E
:10937000904700BF4FF484700A49405880B10420E0
:1093800005F0F2FD60B14FF4847005F0E1FD4FF49B
:109390008470ADF80000054ADDE9000112689047CD
:1093A0001CBD0000002001400C2501409CE800206D
:1093B00010B54FF48071094805F0DEFD60B1002062
:1093C000074948714FF48071044805F0DCFD0448FA
:1093D000816802680020904710BD000000900240A4
:1093E000DC04012010B54FF4807005F0E1FE00BFF1
:1093F00004480068C0B2044620460349096888470B
:1094000010BD000008D50040A8E8002010B50322D8
:109410000021024803F028FC10BD000000B000400D
:109420002DE9F0414FF4A0711A4805F0DAFE00244E
:1094300000BF00BFEFF311800546402000F0D0FBD5
:1094400000BF2E4600BF1448006807464FF48071E5
:10945000104805F0C6FE0BF055F8381A20F07F458D
:10946000012D04D90BF03EF8022800D0012502E0BE
:109470000BF054F80443281EA5F10105F8D124B1DE
:109480004FF080500549086040BF304600F0A8FB0F
:10949000BDE8F081001001400415014004ED00E03A
:1094A00010B504220121024803F0DEFB10BD0000CC
:1094B00000400240FEB54FF4827005F0B9FE00286E
:1094C00037D04FF4827005F0BDFE6C4890F82E0046
:1094D00018B16A4890F82F0058B300208DF80000AA
:1094E00066484068019065480189ADF80810C06879
:1094F00018B900206149087412E06048008B5F4988
:1095000048830846C06848600846008B08810020F0
:10951000C860084690F82E0010B9002005F09EFEA5
:1095200056480168684688470020544981F82F0052
:1095300000BF524890F82E00002852D04FF480709F
:1095400005F076FE00284CD04FF4807005F07AFECE
:109550004A48408B494991F82D10884216DD47480A
:10956000408B464991F82D10401A444948830A46D9
:1095700012890B465B8BD21A0B465B6803EB4200E9
:109580000A4692F82D1005F04BFE23E03B48408B35
:109590003A4991F82D1088420FD13848C06860B11F
:1095A0000120364981F82F00002048830A4692F8AE
:1095B0002D10D06805F034FE0CE03048408B2F4968
:1095C00091F82D10884205D101202C4981F82F00F7
:1095D000002048834FF4827005F034FE042005F02B
:1095E0003DFE4FF4887005F023FE70B14FF4887093
:1095F00005F028FE00202149087402208DF80000A3
:10960000084601686846884700BF4FF48A7005F035
:109610000FFE38B14FF48A7005F014FE0020174990
:1096200008742AE01548456924E0B5FA85F64FF03C
:109630000040F0408543B00000F58C74204605F0F2
:10964000F7FDB8B1204605F0FDFD01208DF80000C2
:10965000A4F58C70C0F3C7008DF80400A4F58C70DD
:10966000012121EA90018DF805100448016868463F
:10967000884700BF002DD8D100BFFEBDE8040120FF
:1096800010B502490868804710BD000074E800204A
:1096900010B502490868804710BD00007CE8002032
:1096A00010B502490868804710BD000084E800201A
:1096B00010B50249024803F033FB10BD84050120B8
:1096C00000F0024010B5002009F0F0F910BD10B50F
:1096D000012009F0EBF910BD08B5002000906946A3
:1096E0000E4800680AF0E0F80098B0B100BF4FF0F3
:1096F00080500B49086040BF00BF00BF00BFBFF3F0
:109700004F8F00BF00BF00BF00BF00BF00BFBFF34F
:109710006F8F00BF00BF00BF00BF08BD8CE90020F5
:1097200004ED00E001480249086070470090D00352
:1097300000E8002010B501F0A3FE40B1002052491E
:1097400008604FF08041C1F810015049086001F0F5
:10975000B9FE002855D04E4800684E4908604C4874
:10976000001D0068091D0860494808300068091D8F
:10977000086047480C300068091D086044481030F4
:109780000068091D0860424814300068091D08601F
:109790003F48183000683F49203108603C481C3081
:1097A0000068091D08603A4820300068091D0860FB
:1097B000374824300068091D0860354828300068A3
:1097C000091D086032482C300068091D08603048C7
:1097D000303000682F49403108602D48343000682F
:1097E000091D08602A4838300068091D08602848AB
:1097F0003C300068091D0860254840300068091D9C
:10980000086001F081FE10B123482449086001F08E
:10981000EBFD10B1FB202249086001F0F3FD38B1E7
:10982000204801782048006861F303001E49086061
:1098300001F0F6FD18B14FF400701C49086001F00A
:10984000FDFD40B11A48006800F0010018B16FF04A
:109850000100174908601748006840F47000154976
:10986000086000BF00BF00BFBFF34F8F00BF00BF45
:1098700000BF00BF00BF00BFBFF36F8F00BF00BFBE
:1098800000BFFFF74FFF10BD0C010040380500403E
:109890000404001020C50040488103008C5600409D
:1098A00018F5004058020010E40E004040960240B7
:1098B0000004004088ED00E010B50422024903488E
:1098C00003F040FA10BD0000CC05012000800040EC
:1098D00010B504220249034803F034FA10BD000019
:1098E000D80501200090004010B504220249034829
:1098F00003F028FA10BD0000E405012000A000409C
:1099000010B506220249034803F01CFA10BD0000FE
:10991000F005012000A0014010B5062202490348CD
:1099200003F010FA10BD0000FC05012000B001405A
:1099300010B502490868804710BD000094E8002077
:109940002DE9F04700BF71480068064637460024FD
:1099500014E097FAA7F0B0FA80F528464FF480712A
:1099600001EB80018946484605F082FF10B10120D5
:10997000A84004430120A840874300BF002FE8D13E
:1099800006F05AFA00287CD061480078002878D187
:1099900004F400100028F6D040F2A9735D4D2B604E
:1099A0002B1D1B68DAB212B12B1D1B681A4040F246
:1099B000AA73584D2B602B1D1B68D9B211B12B1DFA
:1099C0001B68194040F2AB73524D2B602B1D1B6876
:1099D000D8B210B12B1D1B68184040F2AC734D4D2E
:1099E0002B602B1D1B681A40A2B14B4D2D681543EF
:1099F000DFF824C1CCF8005040F2A975DFF814C19B
:109A0000CCF800500CF104052A602D68EBB200BFC1
:109A100000BF00BF40F2AD733E4D2B602B1D1B6895
:109A20001940A9B13C4D2D6845EA0145DFF8E8C071
:109A3000CCF8005040F2AA75DFF8D8C0CCF800503E
:109A40000CF1040529602D68EBB200BF00BF00BF18
:109A500040F2AE732F4D2B602B1D1B681840C8B110
:109A600000F001050DB144F4000400F010050DB143
:109A700044F0010440F2AB75DFF898C0CCF8005018
:109A800000E020E00CF1040528602D68EBB200BF77
:109A900000BF00BF204B1B6823F0011313B106F079
:109AA00080731C431C4B1B6803F0011353B106F475
:109AB00080633BB1184B1B6823F00113164D2B60DC
:109AC00044F4806400BF04F4000008B1012000E009
:109AD0000020804624F400040BE094FAA4F0B0FACD
:109AE00080F50E4951F8250080470120A8408443A5
:109AF00000BF002CF1D109F069FAB8F1000F02D0D3
:109B00000649C86D8047BDE8F08700000473024035
:109B1000D0E8002000780240D4E8002090490300FB
:109B200008B500BF4FF480700B49405808B10120C0
:109B300000E0002078B109480068804700BF00209D
:109B40004FF48071044A88500846114640580090EE
:109B500000BF00BF00BF08BD00000140DCE80020DE
:109B600002E008C8121F08C1002AFAD170477047E6
:109B7000002001E001C1121F002AFBD17047000044
:109B80000146202908DA012088400A4A104008B11D
:109B9000012070470020FCE7402909DAA1F12000EC
:109BA000012202FA00F008B10120F2E70020F0E7FC
:109BB0000120EEE7FC06FFBD00BFEFF31081084671
:109BC00072B6704700BFEFF31081084672B6704757
:109BD000C1B281F311887047C1B281F31188704717
:109BE000C1B281F311887047C1B281F31188704707
:109BF00070B505460C4605B10CB9002070BD28783B
:109C000040082178B0EB510F01D00020F6E7062282
:109C1000611C681CFDF70EFD08B90120EEE700206D
:109C2000ECE7014601F0030008B90120704700206D
:109C3000FCE7024650680068401E084008B9012051
:109C400070470020FCE710B50346D868884206D864
:109C50008818401E1C69A04201D8012010BD0020B8
:109C6000FCE7000010B504466CB10848C068A0428B
:109C700009D806480069A04205D3204603F0E6F85B
:109C800008B1012010BD0020FCE700001CEA002004
:109C90002DE9F04106460C4604F12207292010F870
:109CA000048000250BE0C5EBC500C119304601F06A
:109CB000E0FF10B10120BDE8F081681CC5B2454548
:109CC000F1DB0020F7E72DE9F04704460D462F466B
:109CD00095F82080B4F81C9000260BE007EB4612A4
:109CE0004946A06900F090FB10B10120BDE8F08763
:109CF000701CC6B24645F1DB0020F7E72DE9F05FA6
:109D000006460C4604F12C0A94F83250302010F824
:109D100004904FF00008B6F81CB0002710E00AEBE2
:109D200087025946B06900F0D1FB28B108F1010063
:109D300000F0FF0815B905E005B103E0781CC7B2D3
:109D40004F45ECDB00BF0DB1C84503D02DB9B8F1CC
:109D5000000F02DD0120BDE8F09F0020FBE70000BE
:109D600070B592B004265920ADF800002649029142
:109D70001820ADF804003C2103A8FDF73BFC0020AF
:109D80008DF80C008DF80F60CDF830D018211F48E9
:109D9000FDF730FC05201D4908700020486008755B
:109DA00040208860002088811948021D016803A8AE
:109DB00000F074FA044600BF254625B100BF2846CE
:109DC00000F094F800BF00BF104A1149114872DF3B
:109DD000044600BF254625B100BF284600F086F89E
:109DE00000BF00BF6FF013020A480178012077DF3F
:109DF000044600BF254625B100BF284600F076F88E
:109E000000BF00BF12B070BD24E8002030EA00207F
:109E100014E8002010E8002010B50446002007F0E8
:109E2000D7FF10BD70B58CB004460D461646002015
:109E300005E0C0F10F01615C0DF80010401C102816
:109E4000F7D30D2104A8FDF7D5FB002005E02A5C1F
:109E5000C0F10F0304A9CA54401C0328F7D3684675
:109E600046DF002005E0C0F10F0208A9895C3154EB
:109E7000401C0328F7D30CB070BD000010B5044699
:109E800002480178204600F0F9FB10BDE7E9002008
:109E900072B600BF1348006800F0010000B100BEB8
:109EA00000BF00BF00BF00BF00BF00BFBFF34F8FA8
:109EB00000BF00BF00BF0B48E438006800F4E0605A
:109EC00009490843001D0749E439086000BF00BF85
:109ED00000BFBFF34F8F00BF00BF00BF00BF00BF78
:109EE000FDE70000F0ED00E00000FA053EB5044695
:109EF000002000900190029002946A46002144F2F2
:109F00000100FFF7C5FF3EBD2DE9FC4705460E46A3
:109F100017462C46D4F80480B8F1000F02D108206F
:109F2000BDE8FC87207B002801D00020F8E72760EF
:109F300000BFEFF30580A8B30020019001AB3246CB
:109F40000921009040460AF091FC012801D004202C
:109F5000E6E70AF0DDFA8146002001AB4A46062119
:109F6000009040460AF082FC012801D00420D7E787
:109F70000198B0B100BF4FF080501D49086040BF4C
:109F800000BF00BF00BFBFF34F8F00BF00BF00BFC7
:109F900000BF00BF00BFBFF36F8F00BF00BF00BF97
:109FA00000BF21E0FFE740460AF096FC08B1002020
:109FB000B6E70220002332460421009040460AF012
:109FC00055FC012801D00420AAE70AF09BFA81463B
:109FD000022000234A460121009040460AF046FC38
:109FE000012801D004209BE701202073002097E77F
:109FF00004ED00E07CB5044625466E68002E01D1D4
:10A0000008207CBD00BFEFF3058030B30020019035
:10A0100001AB02460821009030460AF027FC0128D7
:10A0200001D00420EDE70198B0B100BF4FF080509F
:10A030001249086040BF00BF00BF00BFBFF34F8F91
:10A0400000BF00BF00BF00BF00BF00BFBFF36F8FE6
:10A0500000BF00BF00BF00BF0BE0022000231A4674
:10A060000321009030460AF001FC012801D00420B1
:10A07000C7E70020287300BFC3E7000004ED00E03D
:10A0800010B50446204607F011FF10BD70B5044618
:10A0900025460E488068B0B1ADB9FFF78DFD064684
:10A0A0000A4800680A490860084840684FF0E02103
:10A0B000C1F804010020054988601EB900BF62B6DE
:10A0C00000BF00BF00BF00BF70BD000040080120FE
:10A0D00000E100E0F8B505460C4617462088001D53
:10A0E000B84201D90C20F8BD684679DF064600BFAA
:10A0F000304600B1F7E700BF03202188685420886C
:10A10000401C20801920218868542088401C208011
:10A1100020884119BDF8000008F054FE2188084449
:10A1200020800020DFE770B504460D46204602F08F
:10A130007BFF70BD10B50446637903F003022179FB
:10A14000208802F029FF10BD10B50446207918B907
:10A15000204600F007F803E02046FFF7EBFF00BFC2
:10A1600000BF10BD2DE9FC41064637884FF00008BE
:10A17000002244480178384600F096FA7079C0F31E
:10A18000800028B90021304606F02EF8BDE8FC8199
:10A1900007F5807188B26B460122072106F0D2F8DC
:10A1A000054645B12946384608F00CF900213046ED
:10A1B00006F01AF8EAE7384602F0B6FB04464FF616
:10A1C000FF718C421BD1019802F0FEFA04464FF653
:10A1D000FF70844213D02146384602F083FB384694
:10A1E000FFF74CFE58B9384608F080F83846FFF7BC
:10A1F00045FE20B90021304605F0F6FFC6E74FF6D0
:10A20000FF70844215D106F02BFA04464FF6FF701A
:10A21000844208D10421384608F0D4F800213046A1
:10A2200005F0E2FFB2E72146384602F05BFB4FF053
:10A23000010807F5807188B22246072106F0F8F878
:10A24000054625B90121304605F0CEFF17E0862DE1
:10A2500007D1384608F07CF80121304605F0C4FFEC
:10A260000DE02946384608F0ADF80021304605F0EB
:10A27000BBFFB8F1000F02D0204602F03DFB00BF4B
:10A2800084E70000E4E900200146102903DBA1F186
:10A290001000C0B2704741F08000FBE72DE9FC419F
:10A2A000054688461646002437880020308095F8F9
:10A2B0002D0058B13A463146404600F019FA04469E
:10A2C00000BF204608B1BDE8FC8100BFA87850B1AE
:10A2D0003A4631464046FFF7FDFE044600BF2046A1
:10A2E00000B1F0E700BFE87860B1E97848B23B46DA
:10A2F0003246414601F0F6FC044600BF204600B15C
:10A30000E1E700BF686868B1696891F900003B4601
:10A310003246414608F035FD044600BF204600B1F4
:10A32000D1E700BF288900280EDD4346062202211E
:10A3300005F10800CDE9006709F018F8044600BFF0
:10A34000204600B1BFE700BF288A00280EDD434643
:10A350000722032105F11000CDE9006709F006F896
:10A36000044600BF204600B1ADE700BF288B00289F
:10A370000EDD43461522142105F11800CDE90067D2
:10A3800008F0F4FF044600BF204600B19BE700BF81
:10A39000286A58B13B4632464146286A00F0CFFD54
:10A3A000044600BF204600B18DE700BF686A58B17F
:10A3B0003B4632464146686A02F082FF044600BFCF
:10A3C000204600B17FE700BF95F82C0000280BDD88
:10A3D0003B4632464146284608F00AF9044600BF8B
:10A3E000204600B16FE700BF287858B13B4632469F
:10A3F0004146284603F037F8044600BF204600B126
:10A4000061E700BF20465EE72DE9F843064688462F
:10A410001546002000900DB9BDE8F88309236A466F
:10A420004146304600F02BF80446BDF800003718CE
:10A43000BDF8000068B164B12846FDF7E6F8A04217
:10A4400007D1224639462846FDF7F4F808B901201D
:10A45000E2E70020E0E7F8B504460E461546002086
:10A4600000902B466A463146204600F008F8074621
:10A470000FB90020F8BDBDF800002044FAE7F0B5A0
:10A4800004460D4604B10AB90020F0BD002103E0E6
:10A49000605C401C084481B21088884203DC481C80
:10A4A000205C984201D0A942F2DBA94201DB0020E6
:10A4B000EBE7881C86B2605C401E87B2F019A842A8
:10A4C00001DD0020E1E716803846DEE72DE9F047A0
:10A4D00088B004460E4617460020079010200690CC
:10A4E000B24602AA06A9384664DF814614B1B9F122
:10A4F000000F03D0002008B0BDE8F0879DF81800D9
:10A50000022804D0042809D0102815D10DE003201A
:10A510008DF8040002208DF805000FE005208DF86D
:10A52000040004208DF8050008E007208DF80400E1
:10A5300006208DF8050001E00020DCE700BF0025C3
:10A5400009E001A8435D07AA31462046FFF797FFBF
:10A550008246681CC5B2022D03DABDF81C00002833
:10A56000EFD0BDF81C0008B90020C4E7BDF81C00FE
:10A5700004EB000800250DE008EB05009DF818200D
:10A5800002A9FDF757F808B90120B4E79DF81800B3
:10A59000284485B25545EFDB0020ACE710B50446F2
:10A5A000204600F097F820B12146034803F091F8C7
:10A5B00010BD0020FCE700005C3A012070B50446A5
:10A5C0000D461646204608F0C7FE08B9002070BDAB
:10A5D000034951F824003246294601F0C5FBF6E74D
:10A5E000683A012010B50446204600F073F820B107
:10A5F0002146034803F06DF810BD0020FCE7000081
:10A60000643A012010B50446204600F063F820B1FA
:10A610002146034803F05DF810BD0020FCE7000070
:10A62000603A012070B504460025204600F052F83B
:10A6300050B12146054803F04CF806460EB1022001
:10A6400000E00120054600BF284670BD583A0120B1
:10A6500070B504460025204600F03CF850B1214674
:10A66000054803F036F806460EB1022000E001204E
:10A67000054600BF284670BD543A012070B5054616
:10A680000C46204608F068FE50B1284600F022F83B
:10A6900030B1044901EB8400294603F01AF870BD7B
:10A6A0000020FCE7683A012070B505460C461646C6
:10A6B000204608F051FE50B1284600F00BF830B1AA
:10A6C000034901EB84003246294601F0FCFA70BDD3
:10A6D000683A012010B50446142C01DB002010BD9F
:10A6E0002146024802F0F5FFF9E70000503A012048
:10A6F0002DE9FC4105460C46174620880930B84232
:10A7000002D90C20BDE8FC8168466DDF064600BF1B
:10A71000304600B1F6E700BF082021886854208841
:10A72000401C20801B20218868542088401C2080E9
:10A7300020882844DDF801100160BDF805108180F3
:10A740002088801D20809DF80000400818B9002056
:10A750002188685402E00120218868542088401C28
:10A7600020800020CEE700002DE9F047054689460D
:10A770002F1D28881B287DD01D287CD107F10408B7
:10A7800008F11806B188FF223068FFF764FE04461E
:10A79000002C76D02079012835D16079122832D169
:10A7A000A07923282FD1E07934282CD1207A45288C
:10A7B00029D1607A562826D1A07A672823D1E07A59
:10A7C000782820D1207B89281DD1607B9A281AD136
:10A7D000A07BAB2817D1E07BBC2814D1207CCD28EE
:10A7E00011D1607CDE280ED1A07CEF280BD1E07C5B
:10A7F000F02808D1607E00F0010026490860607EE4
:10A80000C0F300104860207901283AD160791228FD
:10A8100037D1A079232834D1E079342831D1207A76
:10A8200045282ED1607A56282BD1A07A672828D1C6
:10A83000E07A782825D1207B892822D1607B9A284C
:10A840001FD1A07BAB281CD1E07BBC2819D1207C78
:10A85000CD2816D1607CDE2813D1A07CEF2810D142
:10A86000E07C02280DD1607E00F00100094988607B
:10A87000607E02E006E009E003E0C0F30011054855
:10A88000C16004E0002007F0A3FA00E000BF00BFB1
:10A89000BDE8F087E4EA002070B504460D46208844
:10A8A000102806D0112808D012280ED0502810D118
:10A8B00007E0204605F078FB0CE0204605F0ACFBF5
:10A8C00008E0204605F0C2FB04E0204605F054FBFA
:10A8D00000E000BF00BF70BD2DE9F04104460F4607
:10A8E000A6882088102806D0112817D019283DD016
:10A8F0001A2848D116E007F049F9304606F0CAFF99
:10A9000020B900BF0420FFF7F1FA06E0E07B012840
:10A9100003D031461D4802F0EBFE34E0304607F02C
:10A9200059F930E0207A0509042D01DB012000E00F
:10A9300000200246314615480C3001F0C4F9032DC1
:10A9400001DB012000E00020024631460F480830BC
:10A9500001F0B9F9022D01DB012000E000200246E0
:10A9600031460A48001D01F0AEF90CE0207A48B9E2
:10A97000607AC0F3C0052A46314604480C3001F025
:10A98000A2F900BF00BF00BFBDE8F081583A012026
:10A9900070B504460D4600BF0748007800B970BD89
:10A9A00000BF204601F07AFE204607F06DFE2046EB
:10A9B00001F00EFC00BFF2E7D4E9002070B50446B8
:10A9C000204608F0F9F9054605F0010070BD38B5DC
:10A9D00004F0F2FC044600BF254625B100BF28461E
:10A9E000FFF784FA00BF00BF0020009069460120F5
:10A9F00004F046FC044600BF254625B100BF2846AA
:10AA0000FFF774FA00BF00BF684604F08BFC0446F1
:10AA100000BF254625B100BF2846FFF767FA00BFF3
:10AA200000BF012032DF044600BF254625B100BF2C
:10AA30002846FFF75BFA00BF00BF01203FDF044656
:10AA400000BF254625B100BF2846FFF74FFA00BFDB
:10AA500000BF38BD70B504460D460A2D03D10D2147
:10AA60002046FFF7F7FFA168481CA0602068455406
:10AA7000D4E90110884202D3204603F097FF70BD4D
:10AA80007CB50446204601F04FFF054600236A4688
:10AA9000092105F04BFD052805D101220248017866
:10AAA0002046FFF701FE7CBDB0E900207CB50446DE
:10AAB0000E460020019042F6A620ADF804000120C9
:10AAC0008DF806000748006800906A4601A92046F4
:10AAD000A0DF05462DB90122034801782046FFF783
:10AAE000E3FD7CBDC04D0300B1E900200B480068C8
:10AAF000401E0A4908600846006868B900200849F5
:10AB000008602A2000F01F0201219140054A4309F4
:10AB100042F8231000BF00BF7047000050E800203B
:10AB200000A5025080E100E00C480068401C0B4981
:10AB300008600846006801280ED1094908602A20EB
:10AB400000F01F02012191404209920002F1E0222F
:10AB5000C2F8001100BF00BF7047000050E800209D
:10AB600000A5025070B500BF00BF00201549086065
:10AB700000BF00BF00BF00BF00BFBFF35F8F00BFBB
:10AB800000BF00BF00BF00BF01200F490860FDF7F4
:10AB900067FE054600200C490860284601F092FF38
:10ABA000044600BF204600B170BD00BF002108462A
:10ABB00003F06CFD044600BF204600B1F4E700BF7F
:10ABC0002046F1E74CE8002000A5025070B50A4C81
:10ABD0000121204602F0C7FD054600BF00BF00BFAF
:10ABE00000BFBFF35F8F00BF00BF00BF0DB90120E2
:10ABF00070BD0020FCE700004CE8002000BF00BF53
:10AC000000BF00BF00BFBFF35F8F00BF00BF00BF2A
:10AC100000200249086000BF704700004CE8002097
:10AC200010B50021084603F031FD044600BF204660
:10AC300000B110BD00BF012004490860FDF708FE07
:10AC400000200249086000BFF3E7000000A50250A1
:10AC500001468879012809D10879012806D1488858
:10AC600042F60212904201D1012070470020FCE719
:10AC70000146024850F821007047000020040120DE
:10AC80000146014840567047500401202DE9F0412B
:10AC900004460D464FF6FF76304684420AD14FF403
:10ACA0008071284602F0E5FC86B2B6F5807F10D1AF
:10ACB00026460EE0FF2C0CDC2146284602F0C2FCA2
:10ACC00080F001070FB1204601E04FF6FF70064605
:10ACD00000BF3046BDE8F08101468868D0F84801E1
:10ACE000C0F3C0007047000070B504460D462A4608
:10ACF00002A1206903F045FE70BD0000256300003D
:10AD00002DE9F04104460D4616461F46606801686D
:10AD10003B463246D1F810C02946E0478046BDE8A0
:10AD2000F08110B504460CB9002010BD2046FCF798
:10AD30006CFCFAE72DE9F84304460F4615461E461B
:10AD40004FF0000824E007EB0801606802686B46DA
:10AD5000D2F80CC02A46E04781460098804400980B
:10AD60002D1A009898B9A068007803280FD000BF6A
:10AD7000A068D0F84801C0F340100028F8D0A068BF
:10AD8000D0F8480120F02000A168C1F8480100BFB8
:10AD9000002DD8D10EB100983060BDE8F8830000D6
:10ADA00070B505460DB9094C01E0084C083409E0BE
:10ADB000204602F053F8064606B904E028467168BA
:10ADC000884700BFF4E700BF70BD0000C403012046
:10ADD00010B504462CB90120064948700020FFF741
:10ADE000DFFF012C04D1012002498870FFF7D8FF52
:10ADF00010BD0000BC0301202DE9F05F0546894627
:10AE000016461C460A9FB9F1000F27D12348244952
:10AE1000401AB6EBD00F1ED24FF0000ADFF884B014
:10AE2000D04611E01E4800EBC80ADAF804205BF8AF
:10AE300026001168FCF7F0FB20B9DAF80400206066
:10AE4000BDE8F09F08F1010814481549401AB8EB15
:10AE5000D00FE7D300BF00202060F1E715B9002034
:10AE60002060EDE7287850B1394630466A6890474F
:10AE7000386810B9002020600DE027600BE068689A
:10AE800000EB0610006820B1686800EB0610206037
:10AE900001E00020206000BFD2E700001C56030044
:10AEA000E455030000EA002033B58BB005460020CE
:10AEB00000900C9878B100240BE021460CA802F019
:10AEC00008FC28B1009A501C009001A820F81240FC
:10AED000641C142CF1D32C2269462846FCF762FB33
:10AEE0000DB030BD01460888062808DB0888B0F59B
:10AEF000486F06DD08884FF6FF72904201D00720A8
:10AF000070474888062808DB4888B0F5486F06DD9A
:10AF100048884FF6FF72904201D00720F0E708887A
:10AF20004FF6FF72904208D04888904205D00888BA
:10AF30004A88904201DD0720E2E70020E0E72DE9A2
:10AF4000F04107460D46144698462088801D40452E
:10AF500002D90C20BDE8F0813846FFF7C3FF064652
:10AF600000BF304600B1F5E700BF052021886854D6
:10AF70002088401C20801220218868542088401C92
:10AF8000208022885119388807F01CFF2188084446
:10AF9000208022885119788807F014FF21880844FE
:10AFA00020800020D6E70000F8B505460C46607A00
:10AFB00088B9207A10B91048476801E00E488768C0
:10AFC0002A4639466068FEF79FFF064616B13046AE
:10AFD00007F09EF90EE0002020720748406948B152
:10AFE00001208DF80000ADF8025003484169684621
:10AFF000884700BFF8BD0000303A0120F0B585B0A9
:10B0000004460D4617461E4614220B496846FCF7B7
:10B01000C9FAADF802408DF80850ADF80A708DF805
:10B020000C600022054801782046FFF73DFB68468A
:10B0300000F018FD05B0F0BD704E0300E4E90020FB
:10B0400010B586B00446208805F09AF800BB208829
:10B05000FFF7A4FA30B92088012241F2060100F07E
:10B060009BF915E0208800220A490978FFF71CFBAC
:10B0700002208DF804002088ADF8060000208DF82D
:10B080000C0000218DF80D1001A800F0EBFC00BFB2
:10B0900006B010BDE4E9002070B505460C46002C52
:10B0A00004DD224602A1286903F06BFC70BD00009C
:10B0B0001B5B25644200000070B505460C46002C61
:10B0C00004DD224602A1286903F05BFC70BD00008C
:10B0D0001B5B25644400000010B5044602A12069F2
:10B0E00003F04FFC10BD00000A0000002DE9FC5FDA
:10B0F000044600260027002000900025A16801F1E9
:10B10000A0008021FCF776FA5249206903F039FC4F
:10B11000204607F030FEA94696E000BF01AB0122B1
:10B1200069462046FFF7ECFD019868B940F2E73820
:10B13000B8F1000F00D106E0DFF81CA14FEA881B30
:10B140005846D04700BF77E09DF800001B2805D087
:10B15000A06890F8A0001B2800D06DE09DF80000CA
:10B16000522858D10021A068A0304155A06890F81D
:10B17000A1005B2806D00020A16881F8A0000B2068
:10B18000BDE8FC9F02250FE0A068A03029466A1C9C
:10B19000D5B2405C303807EB870100EB410087B245
:10B1A000802D01DB0C20EBE7A068A030405D3B2840
:10B1B000EAD1681CC0B20546802801DB0C20DFE71D
:10B1C0000FE0A068A03029466A1CD5B2405C303838
:10B1D00006EB860100EB410086B2802D01DB0C20DE
:10B1E000CEE7A068A030405D0028EAD1FA2E03D94E
:10B1F000FA20A168087501E0A1680E75FA2F03D93D
:10B20000FA21A068817501E0A06887750020A16817
:10B2100081F8A000B4E79DF80010A068A030415567
:10B22000681CC0B20546092805D90020A16881F82C
:10B23000A0000420A4E700BF019800287FF46EAFAF
:10B2400009F101001FFA80F9B9F57A7FFFF665AFC1
:10B250000D2095E7204C0300114C030070B5054606
:10B260000C46002C04DD224602A1286903F089FB6C
:10B2700070BD00001B5B25644300000070B50546EF
:10B280000C46002C04DD224602A1286903F079FB5C
:10B2900070BD00001B5B2564410000002DE9F041FA
:10B2A00005460F460F4C0121204602F05CFA064687
:10B2B00000BF00BF00BF00BFBFF35F8F00BF00BF74
:10B2C00000BF0EB9012000E0002040B1284601F087
:10B2D000F7FE08B1BDE8F081024803F0E8FD00BFC9
:10B2E000F8E70000A8E9002070B506460D4616B143
:10B2F0004FF4064070BD287920B1012809D00228FA
:10B3000015D111E002202871284606F021FB0446E1
:10B3100010E0284600F08EFC044648F209608442A2
:10B3200001D141F61D5405E041F61D5402E048F2FA
:10B330000E6400BF00BF2046DCE770B504462079EC
:10B340003D2802D141F23D0001E04FF4885005460E
:10B3500020880022294601F01FFE70BD0121012036
:10B36000094A12680AB100200CE0084A12680AB1C2
:10B37000002007E0064A1368064A1268521E9342EC
:10B3800000D10220704700009819012040E90020F8
:10B39000C01901202CE9002070B506460C46154660
:10B3A0002B46224600213046FFF728FE70BD01469D
:10B3B00001F08000802801D1002000E0102001F081
:10B3C0000F021044C0B27047014601F0800080288F
:10B3D00001D1044801E00348903801F00F0200EB6E
:10B3E000021070479806012005480068082805D11A
:10B3F0000348001D006808B9012070470020FCE7E1
:10B400003001001005480068082805D10348001DD8
:10B41000006808B9012070470020FCE730010010E7
:10B4200005480068082805D10348001D006808B9D0
:10B43000012070470020FCE7300100100F48006831
:10B44000082819D10D48001D006808B9012070476F
:10B450000A48001D0068012800D1F8E70748001DD0
:10B460000068022801D10120F1E70448001D0068AE
:10B47000032801D10120EAE70120E8E730010010AC
:10B480000F480068082819D10D48001D006808B948
:10B49000012070470A48001D0068012800D1F8E724
:10B4A0000748001D0068022801D10120F1E7044887
:10B4B000001D0068032801D10120EAE70120E8E728
:10B4C000300100100F480068082819D10D48001DF0
:10B4D000006808B9012070470A48001D006801286B
:10B4E00000D1F8E70748001D0068022801D10120BB
:10B4F000F1E70448001D0068032801D10120EAE7B4
:10B500000120E8E73001001005480068082805D14F
:10B510000348001D006808B9012070470020FCE7BF
:10B520003001001010B504F05DF810BD10B5812099
:10B5300004F0EAF810BD10B5822004F0E5F810BD63
:10B5400010B5832004F0E0F810BD10B5842004F09D
:10B55000DBF810BD10B5852004F0D6F810BD10B58D
:10B56000862004F0D1F810BD10B5872004F0CCF887
:10B5700010BD10B5882004F0EDF810BD10B504F032
:10B5800057F810BD10B5012004F018F910BD10B522
:10B59000022004F013F910BD10B5032004F00EF9D9
:10B5A00010BD10B5042004F009F910BD10B5052038
:10B5B00004F004F910BD10B5062004F0FFF810BD2A
:10B5C00010B5072004F0FAF810BD0000F8B5082403
:10B5D00007F0D2FC2046FFF7F7FE0546A87B0328BC
:10B5E00015D0286898B92046FFF7E1FE0121814077
:10B5F000CE433146074804F081F9074800680090BF
:10B600008DF80240684605490968884700BF00BFB9
:10B61000F8BD0000CCE80020404A0300C0E800204C
:10B6200070B500BF00BF1F490968084601461D4AA2
:10B63000116000BF00BF00BF00BF00BFBFF36F8F2E
:10B6400000BF00BF00BF00BF00BF00BFBFF34F8FF0
:10B6500000BF00BF00BF00BF044604F0EDFB50B1C7
:10B660001148006820F0011004430F48006800F002
:10B6700001100D4908600FE094FAA4F0B0FA80F5CB
:10B680002846FEF701FE06460120A84084432946CD
:10B69000304607F019FE00BF002CEDD107F096FCF4
:10B6A00070BD00006C740240D4E8002010B505485D
:10B6B0000078FFF77CFE044621460248007807F038
:10B6C00003FE10BDC5E80020F8B500BF21480068A2
:10B6D000C0B2044620480078FFF769FE012101FA54
:10B6E00000F01E490988C94389B21D4A12681143F6
:10B6F000084018B11848007807F044FD04F08000B5
:10B7000008B9002000E08020134908700020FFF7EE
:10B710004EFE012686408020FFF749FE0121814030
:10B720000E43F54329460E4804F0E8F88020FFF761
:10B730003EFE012101FA00F0084909680843074963
:10B74000086008480068009068460749096888470B
:10B75000F8BD000080740240C5E80020C8E8002061
:10B76000CCE800204C4A0300C0E8002038B5002097
:10B77000009000BF1648006880B2ADF80200882033
:10B78000FFF715FE012101FA00F400BF10496039EE
:10B79000086810B94FF0FF3005E000F48031B1F5D2
:10B7A000803F00D1002000BF401C30B10820FFF7CF
:10B7B000FEFD012101FA00F0044306480068204321
:10B7C00004490860684604490968884738BD000094
:10B7D00020750240C8E80020C0E800207047000043
:10B7E00038B500BF04F066F80546284604F04CF86A
:10B7F00000BF00BF00BF00BFBFF36F8F00BF00BF1F
:10B8000000BF00BF00BF00BFBFF34F8F00BF00BF2E
:10B8100000BF2C4604F4807050B101201949087013
:10B82000194800680090684618490968884700BFB1
:10B8300004F4007058B10020124908701248001D2D
:10B8400000680090684611490968884700BF04F401
:10B850008060A8B10B48007890B1002009490870B9
:10B8600001200B49086000BF582004F02FF806485B
:10B87000083000680090684604490968884700BF9E
:10B8800038BD0000C4E80020504A0300C0E8002092
:10B890000875024008B50020054908700549087080
:10B8A000054800680090684604490968884708BD53
:10B8B000C4E80020C5E80020304A0300C0E80020AA
:10B8C0000278072A38D2DFE802F037040712222B69
:10B8D000340000220A7030E001220A7003898B8153
:10B8E0008388CB81C2688A6000230B7425E0022222
:10B8F0000A7003898B818388CB81C2688A60827DCC
:10B90000062A01D1012300E000230B7415E0032275
:10B910000A70C3888B810389CB81C2688A600CE07E
:10B9200004220A70C3888B810023CB8100228A60A5
:10B9300003E005220A7000E000BF00BF704700006E
:10B9400070B50546002409E0064850F8240020B1EF
:10B95000044850F8241028468847641C042CF3D36C
:10B9600070BD00004C08012070B586B006460C463C
:10B9700015461CB3112C21D0082C1FD00D2C19D129
:10B980003246032101A801F0E3FD2DB1287800F033
:10B99000010008B1012000E002208DF80C00002118
:10B9A0008DF8101041F20111ADF80E1001A800F051
:10B9B0006DF803E02146304606F018FD06B070BD74
:10B9C00010B50446204600F061F810BD70B504467D
:10B9D000608800F0A9FFA080002505E0044850F829
:10B9E0002510204688476D1C002DF7D070BD000043
:10B9F000A0E9002070B50446A08800F0C5FE608074
:10BA0000002505E0044850F82510204688476D1CA5
:10BA1000002DF7D070BD0000B4E9002070B50546D8
:10BA2000002405E0044850F8241028468847641C88
:10BA3000022CF7D370BD0000004E030070B5054620
:10BA4000002405E0054850F8241028468847641C67
:10BA5000034800788442F5DB70BD0000203D0120E2
:10BA6000E2E9002070B50446608800F05DFFA08028
:10BA7000002505E0044850F82510204688476D1C35
:10BA8000002DF7D070BD0000304E030070B50546A4
:10BA9000002405E0044850F8241028468847641C18
:10BAA000002CF7D070BD0000A84E030038B5054645
:10BAB0001048007810B948F2016038BD4FF6FF70A9
:10BAC000854202D148F20360F7E7684605F0CEFDF3
:10BAD000044614B948F20760EFE705202070012002
:10BAE0002071E580684605F0D1FD05F05BFE002081
:10BAF000E3E70000E0E8002038B5044614B948F256
:10BB0000046038BD6946204605F040FF08B3BDF823
:10BB1000000000EB8000114901EB8000C068A8B173
:10BB2000A07A98B1BDF8000000EB800001EB800026
:10BB3000C068401EBDF8001001EB8101074A02EB0E
:10BB40008101C8600020A072002504E048F205656C
:10BB500001E048F209652846D3E70000F808012013
:10BB60007FB514461D462B46224601A9684605F0BE
:10BB7000A5FE04B070BD37B50C4615462B462246CF
:10BB80006946002005F09AFE3EBD37B50C461546C5
:10BB90002B4622460021684605F090FE3EBD024637
:10BBA00002B111B948F204607047106808600020C3
:10BBB000FAE70000F8B504460D4604B115B948F29D
:10BBC0000460F8BD6946204605F0E0FEA0B1666855
:10BBD000BDF8001001EB8101094A02EB810101F17E
:10BBE0000C00012101F093FD2E6060680C3068604C
:10BBF0000120A0720020E4E748F20960E1E70000BC
:10BC0000F808012070B504460D4614B948F20460E6
:10BC100070BD032300222946204608F0ADF8F7E75F
:10BC200070B504460D46022300222946204608F03E
:10BC3000A3F870BD3EB504460A4B6A460021A01D1C
:10BC400005F03CFE054635B9064A9188019805F095
:10BC500017FF054603E003480021016041602846C4
:10BC60003EBD0000FCE800200146A1F5404080B246
:10BC7000704770B504460D4628784008A178B0EBAF
:10BC8000510F07D10622E11C681CFBF7D3FC08B951
:10BC9000012070BD0020FCE710B50446E07FFF28BE
:10BCA00008D0A07F18B1E07F03F052F802E0E07FF7
:10BCB00003F099F800206077207204F10800D4E9BD
:10BCC0000021904710BD70B505460E46144624B1BC
:10BCD0003146284601F00CFD03E03146284601F0CC
:10BCE000A2FC70BD30B504461088C01C984201D932
:10BCF0000C2030BD0220158848551088401C10804B
:10BD00000120158848551088401C108015884C5516
:10BD10001088401C10800020EBE700002DE9F04166
:10BD200006460C4615460027112C01D1012700E0DC
:10BD3000002765B13A460A4801783046FEF7B4FC60
:10BD40000022084801783046FEF7AEFC05E03A468E
:10BD5000044801783046FEF7A7FCBDE8F0810000FA
:10BD6000FFE90020FCE90020F7B50D4617460DB9A4
:10BD70000020FEBD0026009868B1002409E021469D
:10BD8000684601F0A6FC18B1A0B23946A847761C57
:10BD9000641C142CF3D33046EBE72DE9F0478046C2
:10BDA0000D4617469A460DB9BDE8F087BAF1000F67
:10BDB00003D0F9B24046FFF751FA002400E0641CBA
:10BDC000FBF7ECFB0068295D405C00F001000028F7
:10BDD000F5D16AE000262846FEF7A3FFA0EB040990
:10BDE000D8F80800407EC01B484522D300BF17E0AA
:10BDF0002819805D0A2812D1404606F0BCFF291997
:10BE0000002332464046FEF795FF701C044440462E
:10BE1000FFF762F9F9B24046FFF720FA02E0761C1C
:10BE20004E45E5D300BF2919D8F8100002F0A9FD4E
:10BE30003CE0D8F80800407EA0EB070916E0FBF7CD
:10BE4000ADFB00682919895D405C00F0010028B154
:10BE5000B1462819805D0A2800D108E0F119D8F808
:10BE60000800407E814200D301E0761CE7E700BF76
:10BE7000404606F080FF291900234A464046FEF757
:10BE800059FF4C4400E0641CFBF788FB0068295D07
:10BE9000405C00F001000028F5D14046FFF71CF996
:10BEA000F9B24046FFF7DAF900BF93E700BF40461A
:10BEB000FFF712F900BF77E710B50446606805F098
:10BEC0000FFC10BD70B5054615B14FF4064070BDAE
:10BED0001848007B18B100201649087301E000F0F3
:10BEE000DFF81448007808281DD2DFE800F01C04B1
:10BEF000080C101C141800F03FF8044616E000F07F
:10BF0000BDF8044612E000F099F804460EE000F097
:10BF100047F804460AE000F02DF9044606E000F078
:10BF20003BF9044602E048F20E6400BF00BF204621
:10BF3000CDE70000200901200D480089401C0C4974
:10BF4000088100204880087300BF0DE000EB8001ED
:10BF5000084A12F8211009B9012200E00022044920
:10BF60000A310A54411C88B20228EFDB70470000F6
:10BF700020090120F808012010B5084800F036F823
:10BF800040B900200549891E08704880486041F684
:10BF90001D5010BD00F072F8FBE7000022090120DF
:10BFA00070B50F48458805EB85000E4901EB800010
:10BFB000C06878B904200A49087005EB8500094A71
:10BFC00002EB8000002301224168074802F0F4FDE3
:10BFD000044602E000F090F80446204670BD0000E0
:10BFE00020090120F80801201CEA002010B50146B4
:10BFF0000022002018E00F4B1B5C9BB100240D4B6E
:10C000001C5400EB80030C4C04EB8303DB684BB93E
:10C0100000EB800304EB83031B7C012B02D108801F
:10C02000012203E0431C98B20228E4DB00BF104663
:10C0300010BD00002A090120F8080120F8B50C48BD
:10C0400044680C4800680B49898800EB81056088CA
:10C05000C01C86B20320064908700020B30000907F
:10C06000084629464268044802F0DCFDF8BD00009D
:10C0700020090120F4E800201CEA002010B507493F
:10C080004888091D05F0C0FC18B1FFF7D7FF04462A
:10C0900002E0FFF785FF0446204610BD200901207D
:10C0A00010B514480078082820D2DFE800F0041FFB
:10C0B0001F0A1016171BFFF73FFF01200D490870DC
:10C0C00015E000F075F802200A4908700FE000F052
:10C0D00029F806200749087009E000BF0720054934
:10C0E000087004E001200349087000E000BF00BFB1
:10C0F00010BD00002009012010B505200649087078
:10C10000022006498880084600230122016804486D
:10C1100002F052FD10BD000020090120F4E80020CB
:10C120001CEA0020104908681049498801EB810188
:10C130000F4A02EB810149680B4A11600B4949889B
:10C1400001EB81010A4A02EB8101486006498988B6
:10C15000064A528802EB8202054B03EB82021181F0
:10C160000221014A91807047F4E800202009012053
:10C17000F808012010B5062005490870498801EB30
:10C180008101044A02EB8101486803F0D7FF10BD2A
:10C1900020090120F808012010B507200349087084
:10C1A0000020486003F0DAFF10BD000020090120E4
:10C1B000054A50684288D21C91B2044A92880A44C7
:10C1C000024B9A807047000020090120F4E800200B
:10C1D0002DE9F04186B00446A588208850282ED04D
:10C1E00004DC352836D0362808D163E0522802D046
:10C1F0005428F9D103E0284600F016FF7BE0142212
:10C20000444901A8FBF7CEF9ADF80650284600F0E6
:10C210008BFBADF80800BDF8080000F0EBF8002239
:10C220003D4801782846FEF73FFA00223B48017856
:10C230002846FEF739FA01A8FFF7C8FB5BE0A01D0E
:10C24000FEF706FD28B10121284600F02DFF06F07B
:10C2500079FE50E00027A58804F10A0630480178ED
:10C260002846FEF70BFA00B945E000222C48017879
:10C270002846FEF719FAE088B0F5857F14D0E088EB
:10C2800090B9708801280FD1B18800222846A1DF1B
:10C290008046B8F1000F06D101270122214801781C
:10C2A0002846FEF701FA00BF1FB90021284606F014
:10C2B0009DFB20E00027A58804F10A0619480178B3
:10C2C0002846FEF7DBF900B915E000221548017891
:10C2D0002846FEF7E9F9E08840B9B088012805D181
:10C2E000B07908B1012000E0002007463946284611
:10C2F00006F07CFB00BF00BF00BF00220A490B48CC
:10C300000078FEF75BF900BF06F0CAF806B0BDE89A
:10C31000F0810000D44D0300AFE90020AEE9002019
:10C32000B1E90020B2E9002027A10200ADE9002018
:10C3300010B50446207858B9608800F075FE608812
:10C3400006F09EF86088FEF79BFB06F0FBFD00E020
:10C3500000BF00BF10BD00007CB50446207808284F
:10C3600040D1607A00283DD1207A012814D00728D6
:10C3700002D0082834D12BE0A08800F005FA054649
:10C380004FF6FF70854206D00121284600F08CFE52
:10C390002846FEF775FB24E0A0886A46012103F0D9
:10C3A0009DFF06469EB90198007880B1A08800F0F4
:10C3B000EBF905464FF6FF70854207D001220B4886
:10C3C00001782846FEF770F906F06AF800BF08E029
:10C3D00007480068012802D1054802F068FD00E026
:10C3E00000BF00BF06F0AEFD7CBD0000AEE900203E
:10C3F000A8E900201CB50446044903C9CDE90001A1
:10C4000000226946204604F0DEF81CBDF84D03000A
:10C410002DE9FC478146484600F086FA054600268D
:10C4200000274FF003084FF0010A4FF6FF708542D6
:10C430000CD06A460821284603F050FF04462CB968
:10C440000198861D8788D0F8008000BF00BF434652
:10C450003A4631464846B1DF0446042C01D1112446
:10C4600015E0082C01D1002411E00B2C0FD14FF066
:10C47000000A08F0020010B14FF0010807E006B909
:10C4800027B1002600274FF0030800E003240B2CFF
:10C49000DDD0BAF1000F00D10B242046BDE8FC87A7
:10C4A0002DE9FC478046404600F03EFA06464FF62E
:10C4B000FF70864203D143F20200BDE8FC874FF0D3
:10C4C00001094FF0000A00BF4FF0000A4A46511C14
:10C4D0001FFA81F96B460821304603F033FF04460A
:10C4E0000CBB019D032028602A1DA91D40462B6816
:10C4F000B2DF044634B932460821304603F098FFD3
:10C5000004460FE00C2C02D14FF0010A02E0052C8A
:10C5100000D100240821304603F07AFF074607B116
:10C52000032400BF02E0072C00D10C24BAF1000F55
:10C53000CAD100BF2046C0E710B5044604480088B1
:10C540004FF6FF71884201D005F0B6FF10BD000024
:10C55000BAE90020FEB5044602A80190204600F08A
:10C56000E3F906466A460121304603F0B7FE054668
:10C570000DB10020FEBD01980078FBE770B50546BF
:10C580004FF6FF760E48B3DF04460CB1032070BDB2
:10C5900000BF4FF6FF720A4801882846AFDF044605
:10C5A00043F20300844204D105480088401C04493A
:10C5B000088043F203008442EBD02046E7E7000006
:10C5C000BCE9002070B504460D46204600F01DF879
:10C5D000A84201D9022070BDA0884FF6FF718842A1
:10C5E00004D0208810B1A068401C08B90120F2E7EF
:10C5F0000020F0E7024613468B4204D21868401C24
:10C6000008B1012070470020FCE701464A8801F18B
:10C610000C0000EB820070473EB504460D462078C2
:10C620000221B1EB500F01D000203EBDB4F8010053
:10C63000ADF80800E0788DF80A00A188ADF8001088
:10C64000A0798DF8020001AA69462846FDF7EAFBA9
:10C65000032201A902A8FAF7EDFF08B90120E4E7D7
:10C660000020E2E770B504460D46142C03DA20469C
:10C67000FEF730F810B943F2020070BD04EB8400FD
:10C68000054901EB4000D0F802102960C188A9805B
:10C69000007AA8710020F0E7C83A012030B591B0C7
:10C6A00005462888102801D011B030BD2C22291D44
:10C6B00006A8FAF777FF4FF6FF749DF81C000321D8
:10C6C000B1EB500F35D003F029FF9DF81C00400856
:10C6D00020B1012803D0022828D114E000BF09E0CE
:10C6E000049800F1110107A8FDF782FA10B1BDF816
:10C6F000144006E003AA05A9072003F0D9FE00288C
:10C70000EED100BF13E008E00498411C07A8FFF732
:10C7100083FF10B1BDF8144006E003AA05A9072065
:10C7200003F0C6FE0028EFD100BF00E000BF00BF4D
:10C7300000BFBDF8180000EB8000124921F810403E
:10C74000BDF8180000EB800001EB40000799C0F82D
:10C750000210BDF82010C1809DF8221001724FF622
:10C76000FF7084420CD0BDF81800ADF80600ADF89B
:10C77000084000208DF8040001A8FFF74FF900BF22
:10C7800000BF91E7C83A012070B505464FF6FF702B
:10C79000854200D170BD00240EE004EB84000949FD
:10C7A00031F81000A84205D12046FDF793FF08B1EB
:10C7B0002046EFE7601C84B2142CEEDB4FF6FF70CE
:10C7C000E8E70000C83A01203EB505460C4603F0F4
:10C7D000A5FE0BE0BDF80800A04207D0284601994D
:10C7E00000F00EF810B1BDF808003EBD6A4602A97F
:10C7F000072003F05DFE0028ECD14FF6FF70F4E750
:10C800002DE9F04704460D4604F1110605F1110724
:10C810001022691C601CFAF70DFF48B9601C00F07B
:10C82000F8FA28B1681C00F0F4FA08B1012000E021
:10C830000020824639463046FDF7DAF980463078E6
:10C840000221B1EB500F10D030780321B1EB500F23
:10C850000BD038780221B1EB500F06D03878032185
:10C86000B1EB500F01D0012000E000208146B8F16B
:10C87000000F02D0B9F1000F05D1BAF1000F05D0B9
:10C88000B9F1000F02D10120BDE8F0870020FBE7DD
:10C890000246108808B101207047002105E0901C75
:10C8A000405C08B10120F7E7491C0829F7D30020B4
:10C8B000F2E770B505460C462846FFF7E9FF08B9D0
:10C8C000002070BD28882188884201D00020F8E728
:10C8D0000822A11CA81CFAF7ADFE08B90120F0E758
:10C8E0000020EEE7142804DA00EB8002014B23F865
:10C8F00012107047C83A012070B506463046FFF75F
:10C9000043FF0446304603F0F4FC054645B9142CB9
:10C9100006DA4FF6FF7004EB8401024A22F8110098
:10C92000284670BDC83A012010B50446142C03DA1D
:10C930002046FDF7CFFE10B94FF6FF7010BD04EB97
:10C940008400024931F81000F8E70000C83A0120DD
:10C950003EB5044603F0E2FD10E0019800F1460107
:10C960002046FFF7A6FF30B9019800F12A012046C2
:10C97000FFF79FFF10B1BDF808003EBD6A4602A94F
:10C98000072003F095FD0028E7D14FF6FF70F4E78C
:10C990002DE9F04106460C4648F20E6736B10020FC
:10C9A000434948604FF40640BDE8F081207930B13A
:10C9B00001280AD0022835D003286DD140E001209B
:10C9C000207103F0CBFB074667E04FF0000800251D
:10C9D00019E005EB8500374911F82000022810D135
:10C9E000002005EB8501334A02F821004FF00108D1
:10C9F00005EB850102EB8101486803F09FFB0746C8
:10CA000003E0681C85B2022DE3DB00BFB8F1000F24
:10CA100007D10120264908700020486041F61D50CA
:10CA2000C2E73AE0002020710220234988800846AE
:10CA3000002301220168214802F0BEF807462CE0DD
:10CA4000002020711C49086803F078FB07461C4849
:10CA500045881948D0F8008005EB8500154901EBA1
:10CA6000800040681449086005EB8500114901EB1E
:10CA70008000C0F804801048808805EB85010D4ACD
:10CA800002EB8101088102200B498880002005EB20
:10CA9000850102F8210000E000BF00BF2FB1002097
:10CAA0000349486048F20D607EE700207CE7000003
:10CAB000E0E80020F8080120F4E800201CEA00204B
:10CAC000200901200146032009B9002001E00320CC
:10CAD00000BF00BF70470000024600210CE001EBE0
