:020000022000DC
:1060000000000420756302005D6302005F6302000C
:106010006163020063630200656302000000000028
:1060200000000000000000000000000067630200A4
:1060300069630200000000006B6302006D630200F0
:10604000858902006F630200358E02006F630200D3
:106050006F6302006F630200898C02006F630200AD
:106060006F6302006F6302006F6302006F630200E0
:106070006F630200598F02006F6302006F630200BA
:106080006F630200E16802006F6302006F63020049
:106090007D6902006F63020099DD02006F630200F8
:1060A0006F6302006F6302006F6302006F630200A0
:1060B0006F6302006F630200000000000000000038
:1060C0006F6302006F6302006F6302006F63020080
:1060D0006F6302006F6302006F6302006F63020070
:1060E0006F6302006F630200A1F102000000000074
:1060F000000000006F630200000000006F630200F8
:10610000000000000000000000000000000000008F
:10611000000000000000000000000000000000007F
:10612000000000000000000000000000000000006F
:10613000000000000000000000000000000000005F
:10614000000000000000000000000000000000004F
:10615000000000000000000000000000000000003F
:10616000000000000000000000000000000000002F
:10617000000000000000000000000000000000001F
:10618000000000000000000000000000000000000F
:1061900000000000000000000000000000000000FF
:1061A00000000000000000000000000000000000EF
:1061B00000000000000000000000000000000000DF
:1061C00000000000000000000000000000000000CF
:1061D00000000000000000000000000000000000BF
:1061E00000000000000000000000000000000000AF
:1061F000000000000000000000000000000000009F
:10620000354936480A1A02D0072291438D4634494F
:1062100034480A1A06D00722914381F309880222E2
:1062200082F3148830483149314A00F044F831484B
:106230003149324A00F03FF831483249324A00F0E1
:106240003AF832483249334A00F035F83248334997
:10625000334A00F030F833483349344A00F02BF821
:1062600033483449344A00F026F83448344900228F
:1062700000F02CF833483449002200F027F8334866
:106280003349091A082902DB002202604160314AC1
:1062900090471F481F49884205D00268043003B464
:1062A000904703BCF7E700208646EC46002000211B
:1062B000294A9047FEE7884207D0521A05D0037852
:1062C00001300B700131013AF9D17047884202D098
:1062D00002700130FAE770470000042000E003205C
:1062E0000000042000000420F8190300EC2A00201C
:1062F000342B0020D4630200D463020020F8020093
:10630000F8190300EC2A0020EC2A0020C4F902004E
:10631000C4F90200C4F90200C4F90200C4F9020081
:10632000C4F90200C4F90200C4F90200F51903001F
:10633000401A0300342B0020342B0020342B002083
:10634000885400208854002088540020885400205D
:10635000887400209D630200BDA70200FEE7FEE7EF
:10636000FEE7FEE7FEE7FEE7FEE7FEE7FEE7FEE705
:10637000704700BF1048804710484FF0070188431E
:1063800085460F4880470F48016841F4700101605D
:10639000BFF34F8FBFF36F8FFFF732BF0A480B4930
:1063A0000B4A884207D0521A05D0037801300B708F
:1063B0000131013AF9D170477163020000000420F5
:1063C00059A9020088ED00E0B0F90200D82A0020A7
:0463D000EC2A002093
:1063D400002810B54FF0000014BF0324002403F07C
:1063E4006AFA1F288ABF0A4B4FF0A04300F01F002F
:1063F40003EB8000D0F8002722F44032C0F80027D5
:10640400D0F8003743EA0443C0F80037002010BD39
:106414000003005038B9012A07D101290AD00246E5
:10642400022909D059B1072070470129F8D1054B39
:106434001A7070470E22FAE7024B5A707047014BEC
:106444009A707047342B002010B90120FFF7C0BFA9
:106454000620704708B5012202210020FFF7DAFF69
:1064640008B1072810D1072202210120FFF7D2FF2B
:1064740008B1072808D100210A220846FFF7CAFFFD
:1064840010B1072808BF002008BD00000388102BA6
:1064940010B502D0112B1ED010BD1A4C2168B1B911
:1064A40001220846FFF7B6FF08B1072824D10722C6
:1064B40002210120FFF7AEFF08B107281CD10422F6
:1064C40002210020FFF7A6FF08B1072814D1236892
:1064D40001332360E0E70B4A1368013B1360002B90
:1064E400DAD1FFF7B7FF0028D6D0074B1B68002B83
:1064F400D2D0BDE810401847034B1B68002BE6D0F0
:106504009847E4E73C2B0020382B002008B50020F6
:10651400FFF79AFF08B1062806D10120FFF794FF80
:1065240010B1062808BF002008BD00002DE9F04F77
:10653400364E87B04FF00009354B1B785FFA89F56A
:10654400AB4202D807B0BDE8F08F324BD3F800A0BD
:106554001AF835000124D6E9001EA0F12002C0F18A
:10656400200304FA02F224FA03F3134304FA00FCAE
:10657400059301EA0C030093059B0EEA03030193C0
:10658400DDE9002313430AEBC50B3BD0059B21EA4D
:106594000C012EEA0303C6E9001302F065FB014671
:1065A4001AF835001C4DA0F12002C0F1200304FAB2
:1065B40002F224FA03F31343D5E900C284401340E2
:1065C40004EA0C040393A0F12002C0F1200321FA91
:1065D40003F3029401FA02F848EA0308DDE90234FD
:1065E40001FA00F7444508BFBB420BD1DBF8043085
:1065F40043B19BF80120541E62426241551A69421C
:106604006941984709F1010996E700BF702B002002
:10661400402B0020782B0020682B0020F8B506467C
:106624001E4800F091FBC0BB0125A6F12004C6F171
:10663400200325FA03F305FA04F41C43184BD3E9A9
:1066440000C2B5400CEA050002EA040101431F46FA
:106654001DD1304602F008FB124BD3E9001288B179
:1066640029432243C3E90012D7E900231C430E4BFC
:106674000A4819681543C7E900540022BDE8F840E8
:1066840000F01ABB21EA050122EA0402EAE72CEA37
:10669400050522EA0404C3E90054F8BD482B002090
:1066A400702B0020682B0020442B0020042A2DE9A5
:1066B400F34105460C46164639D902F005FAD8B11D
:1066C4001C4B1D491D601D4BDFF884801C701C4B46
:1066D40000221E600023C1E900231A49C1E90023F6
:1066E400013CE4B200260327FF2C0CD1164A1748BC
:1066F400002100F0CFFA03E002F0ACF90028DFD06B
:1067040002B0BDE8F08105EBC40315F834009B78B2
:106714008DF80660424601A98DF804708DF80530A5
:1067240002F0DCF9013CE4B20028DDD0E8E7072000
:10673400E6E700BF782B0020682B0020402B0020C8
:10674400442B0020702B002031650200C4F90200A4
:106754002166020070B5084D084E00242B789C4237
:1067640001D3002070BD3368012113F8340002F016
:1067740031FA0134F2E700BF402B0020782B0020CF
:106784001FB50021039001AA44F20100CDE90111D3
:1067940000F004F805B05DF804FB000010B572B613
:1067A40003F08CFC03F0E8FA0028FBD1104B114CE9
:1067B4001149E41AE408240444F0010003F038FC0D
:1067C4000E4B1B68DB0700D500BE0D4944F00200E8
:1067D40003F02EFCBFF34F8F0A490B4BCA6802F437
:1067E400E0621343CB60BFF34F8F00BFFDE700BFF0
:1067F40074F80200A4F80200C8F90200F0ED00E009
:10680400D4F9020000ED00E00400FA05094A5378C7
:1068140091780133DBB2994208BF00231178994281
:106824001FBF03705078182303FB002014BF0430EB
:10683400002070477C2B002073B5054600240DF121
:1068440007000E468DF8074000F08EFA0DF10600A1
:10685400FFF7DCFF90B10670094B9DF806204560F8
:106864005A709DF8070000F0A3FA24B9054B4FF4C1
:106874008012C3F80021204602B070BD0424F0E762
:106884007C2B002000E100E0024B4FF43C6043F01D
:1068940001031847F0F9020038B50C4B0C4C4FF4C7
:1068A4000032C3F8802001254FF48033C4F8483304
:1068B400C4F808336560FFF7E7FF064BA5600024C2
:1068C4001C60FFF7E1FF044B1C7038BD00E100E0E1
:1068D40000100140982C0020892C0020F8B51F4B93
:1068E4001F491B680025C1F84051C1F84451C1F843
:1068F4004851C1F84C51C1F80051C1F804514BB38F
:10690400D1F8044517490968641A24F07F442F46D6
:106914001A68A24209D8A41A15441A7CDE691AB16D
:10692400D3E905201F749047AEB90F4A0F4B117875
:106934001B788B4205D10133DBB2022B08BF002345
:10694400137012780A4B43F822500A4B4FF480120A
:10695400C3F80021F8BD3346DAE700BF9C2C0020C1
:1069640000100140982C0020952C0020942C00202D
:106974008C2C002000E100E02DE9F04FA24AA3494D
:1069840013780978A24D994285B03CD00133DBB22B
:10699400022B08BF002313709E4912789E4B0F6888
:1069A40053F822003B1823F07F4300220B602B682E
:1069B40016461446944613B942B12B6006E0196892
:1069C40081420ED902B12B60091A196001272B6884
:1069D400DFF84CA201934FF00008BEB9DFF848B2CB
:1069E40062E0401A0C44D968D3F81CE0C3F800C034
:1069F40031B13A1922F07F42C3E90121DE611E461A
:106A040073460122D7E700263746E0E73446F669A5
:106A1400804A63681268DFF814C2A068991A21F0EA
:106A24007F41614500F2A880014421600122227463
:106A34002A680023C4E90133E361002A40F0A580F9
:106A44002C60CAE79BF802105A1CD2B291428BF810
:106A5400002004BF00228BF80020182202FB03B39D
:106A64002A6819799C68022977D0032900F081806B
:106A7400012919D1207CB8B9D3E90312A2605A695B
:106A8400E2609A69654BA2611B78002B0CBF0B4630
:106A940003466360BCE78C4200F094808946C96970
:106AA4000029F8D1002323749BF800309BF80120BF
:106AB4009A42C7D12B68B8F1000F04D1019A9A42C7
:106AC40001D1002F43D0002B79D0D3F800A0544D2E
:106AD400504BD5F804751C68DFF854813E1B98F8B8
:106AE400003026F07F4603369BB94FF48033C5F857
:106AF4004433C5F804334B4B4FF400324FF00109D3
:106B0400C3F880211A60C5F80090FFF7BDFE88F82D
:106B14000090B2452CBF5444A41924F07F44C5F816
:106B24004045D5F80435DB1B23F07F43E41B0333D6
:106B340024F07F44A3420AD9D5F80435C5F840357A
:106B4400FFF7A2FE374B4FF40032C3F80021334B5A
:106B540000221A7005B0BDE8F08F114691469FE7F8
:106B64001174D2690123002AFAD1002B9CD02A6027
:106B74009AE700231946F6E7D31A23F07F438342AA
:106B840034BFC31A0023236050E721681368994275
:106B940013D8591A1160E26152E7091AD8691A46E2
:106BA40038B1034618688842F7D3401A186018466B
:106BB40013462160E061DC610FE71346F2E7FFF75B
:106BC4006BFEC4E74C4511D1D3692B6073B9DFF870
:106BD40044E00120CDE90212CAF80800CEF80030E2
:106BE4000E4B1870FFF750FEDDE902120B68C969FD
:106BF400C9F81C1011B1086803440B602B68934258
:106C040018BF4FF001084DE7942C0020952C00206C
:106C14009C2C0020982C00208C2C0020882C0020F8
:106C24000010014000E100E07C2B0020FEFF7F000B
:106C3400892C002008B5FFF72FFE104B00200B22F3
:106C440018809A700E4B18600E4B18700E4B18700B
:106C54000E4B4FF48012C021C3F8802183F8141323
:106C64001A6002F18042A2F56F22C2F8080583F887
:106C74001113074BD2F804251A6008BD7C2B0020A1
:106C84009C2C0020942C0020952C002000E100E096
:106C9400982C0020074B9B784BB132B128B1036884
:106CA400187C20B959745A6170470720704708202E
:106CB400704700BF7C2B00202DE9F743DFF8848068
:106CC40098F8023005460E461746ABB3A0B3042924
:106CD40030D9436983B3437C0024012B0DF10700B1
:106CE4000CBF8946A1468DF8074000F03DF80DF130
:106CF4000600FFF78BFDD8B1012303700F4B4560ED
:106D0400D3F80435C0E90497C0E902369DF806308B
:106D140088F801309DF8070000F04AF824B9084BC0
:106D24004FF48012C3F80021204603B0BDE8F0837D
:106D34000424EFE70724F7E70824F5E700100140EF
:106D440000E100E07C2B0020064A92783AB130B191
:106D5400426922B1002202740221FFF76DBD0820AE
:106D6400704700BF7C2B002070B5EFF3108672B61D
:106D74000C4A946801239CB993600B4B0B4DD3F8D8
:106D8400801029401160C3F88050D3F884105160FA
:106D94004FF0FF32C3F88420047006B962B670BDA8
:106DA4000370FAE7A02C002000E100E0FC06FFBD20
:106DB400084B9A6810B55AB150B9EFF3108172B606
:106DC400054A1C6814605C685460986001B962B636
:106DD40010BD00BFA02C002000E100E070B5064DFE
:106DE4000646002455F8043B0BB13046984701345D
:106DF400042CF7D170BD00BFB82C0020033080B242
:106E040040F2FD33984230B51FD8124B1A783AB984
:106E14001C895D892C440444A4B2B4F5806F0AD360
:106E24001A7DA2B99A8BDC8B2244024492B2B2F549
:106E3400806F0CD201220A801446142202FB043310
:106E44005A8910445881002030BD0920FCE70720EE
:106E5400FAE700BFEC2C00200B4A0C4B518814209D
:106E640000FB0131CB6833B904204968107001225A
:106E7400074801F0E5B807490523137002238B8006
:106E8400012209680023F3E7D02C0020EC2C002019
:106E9400D82A0020282D002007B500230549009397
:106EA400054A09680548082301F034F803B05DF881
:106EB40004FB00BF282D002004FA0200D82A002079
:106EC40007B5002301460093034A0448082301F050
:106ED40021F803B05DF804FBFCF90200D82A002075
:106EE40013B500230C4600930146084A08480423BE
:106EF40001F010F838B90749142303FB04140123E3
:106F0400237402B010BD0E20FBE700BFF8F90200A5
:106F1400D82A0020EC2C002037B50A480A4B4268D6
:106F24009C88196853880325033305709BB200209D
:106F340000909B0001EB8401044800F0EBFF03B0D8
:106F440030BD00BFD02C0020282D0020D82A0020DE
:106F540010B50146044800F086FC1C2204460021BA
:106F640007F047F9204610BD142D00204388033351
:106F740000EB8303994209D382884FF6FF739A4248
:106F840006D00088B0FA80F04009704702207047AC
:106F94000120704738B5144B14220D4602FB003013
:106FA4002B68446804F58051A3B15C88033403EB77
:106FB40084048C4215D22368013312D02046FFF793
:106FC400D5FF012808D002280BD00028F1D12C606D
:106FD400012038BD0834ECE76388033304EB8304F1
:106FE400E7E70020F5E700BFEC2C0020426873B50A
:106FF40004460D4662B3234BD9688A4228D31B69E1
:107004009A4225D812F0030322D11F490089098925
:1070140088421DD120689168884219D11B4948686B
:10702400824203D900F5805082420DD389698A4295
:107034000CD901F580518A4208D201222A80B3FA80
:1070440083F0400902B070BD1A46F7E70A23F6E759
:1070540000232B801E460196288801A9FFF79AFF7A
:1070640030B92B8801339BB2012B2B80F3D9E9E78C
:10707400019B226899689142EED16360024B1B899F
:107084002381DFE7D82A0020D02C0020EC2C00201C
:107094002DE9F8431C461C4B1B7806460F46154643
:1070A4006BB372B36CB3DFF868804FF01409A38834
:1070B400012B01D90A2020E009FB03F318F803305F
:1070C4002BB9A0882146FFF765FF20B92060A3886B
:1070D4000133A380EBE723681EB19988328891427B
:1070E400EFD11FB119883A889142EAD19A68C5E96B
:1070F4000023064B1B892B810020BDE8F883022066
:10710400FBE70520F9E700BFC82C0020D02C0020A5
:10711400EC2C002008B5074B5888191DFFF73AFFDF
:1071240018B1BDE80840FFF7F7BEBDE80840FFF717
:1071340093BE00BFD02C00202DE9F04FA14FDFF803
:10714400A89289B00646B8463B6823B99E4849468A
:1071540000F0C3FB3860D8F8005029784B1E052B8B
:1071640007D8DFE813F0210079007900090109014B
:107174005E010F241422002103A807F03AF841F617
:107184001D539C4208BF0024D8F8003004941A7898
:10719400013A052A00F2EF81DFE812F0DB01DF019A
:1071A400FF010F021B02250226B1884B00225A6000
:1071B4000124DFE72B79032B1DD8DFE803F0150248
:1071C4002A3583490B78022B084619D00B7D022BF4
:1071D4004FF0010316D114225343C2180020C8549F
:1071E4005068FFF76DFE03E001232B71FFF754FE97
:1071F400002800F0BC80754B00225A600E24B9E7C9
:107204000023E8E7714A13700023536041F61D54CC
:10721400B0E770497048002302222B718A80096804
:10722400012200F00DFFE3E76A4C00262E7120686E
:10723400674DFFF745FE694BD4F800C05A88142304
:107244005343EA18EE5451682160A188C2F804C07F
:1072540011810222A280CBE7B5F814A0AA7DDFF841
:1072640070B1AEB1022AEB8806D9142101FB0AB130
:10727400DA1C088902440A81142202FB0ABAC3F503
:107284007F43BAF80A20FD331344AAF80A308FE783
:10729400142303FB0AB318895C6804EB8004062AF0
:1072A40068D8DFE802F0274D35431D59040041F644
:1072B4001D54AA7DEB88022A06D9142101FB0AB1C8
:1072C400DA1C088902440A81142202FB0ABAC3F5B3
:1072D4007F43BAF80A20FD331344AAF80A3049E779
:1072E4003F48404900234360AB690360FFF77EFEDB
:1072F400002859D00223AB75002300930423EA1815
:107304002146354800F006FE002830D00E24D0E790
:107314002B69002B14BF03230123AB7500230093B7
:1073240005F10C02042304F10801EAE70123AB751B
:107334000022EB8800922A699B0004F10C01E0E72B
:1073440003290CBF05230623AB75002300930423F4
:1073540005F10802E118D4E70623AB75214B19881F
:107364001F4B5868FFF7BCFD04460028A1D109B0A3
:10737400BDE8F08F0F249CE7002E7FF419AF2B7922
:10738400012B33D0022B3FF441AF002B7FF4F1AE3D
:1073940002232B710DF10A01EB68039303A8CDE9D5
:1073A4000466FFF723FE08B90A24E3E60498BDF84F
:1073B4000A108388EB8003882B81FFF791FD044634
:1073C40025E000BFE82C0020142D0020C82C00204C
:1073D400EC2C0020282D0020D82A0020D02C0020BE
:1073E400AC2C0020302D0020E02C00207F4B03AA81
:1073F4003146A81DFFF74CFE7C4B044658B99988CA
:107404000498FFF76DFD04460A2C3FF4FFAE002CF0
:107414007FF4B0AEABE708223146184606F0E9FE29
:10742400F2E7002E7FF4C4AE714B1A7BB2B11E7327
:107434001A78013A062A3FF69CAE01A151F822F0CF
:10744400EB740200117502002F75020035750200FD
:10745400777102003B7502004D7502001A78072A05
:10746400E6D801A151F822F08D74020035740200AF
:1074740035740200B3740200C7740200E77402009A
:10748400E7740200AF7402001A895A4901321A8162
:1074940000225A801A730A78B2FA82F252099A7256
:1074A4000A7DB2FA82F25209DA72012207E05249E5
:1074B40058688A884088033202448A8002221A70FB
:1074C400B6E74C4C5A884C49142505FB024208681F
:1074D400546850608888108102228A800C600622D9
:1074E400EDE70722EBE79A7A32B9DA7A8AB9002211
:1074F4001A705A805A6089E63E4900229A72CA6814
:10750400002AF2D1097C0029EFD05A80FFF702FE4D
:1075140055E70022DA72374A116A0029E7D192F856
:107524002420002AE3D00122EFE7FFF7F5FC46E729
:10753400FFF792FC43E72F4A5B88142101FB0323E6
:107544005868FFF7BDFC3AE700225A60FFF7A4FC35
:1075540035E700238DF80C300DE001228DF80C2066
:107564001A89ADF818209A88DB680593ADF81A20BB
:1075740000238DF81C3003A8FFF730FC0026494691
:107584001E48C8F8006000F0D3F91D48012100F03E
:1075940089FA00287FF4D8ADE9E602228DF80C20A0
:1075A4001A89ADF818209A88ADF81A20DA689B7DFC
:1075B40005929A1F53425341DBE703228DF80C20B6
:1075C400DA88ADF818201A89DB68ADF81A2005931B
:1075D400D1E704228DF80C20DB88ADF818300023A5
:1075E400ADF81A30F3E70523B4E700BF342D0020CB
:1075F400D02C0020EC2C0020282D0020142D00205D
:10760400242D00204068FFF797BD000008B5054809
:10761400012100F02FFA18B9BDE80840FFF78CBD2E
:1076240008BD00BF242D00202DE9F3419846354BB9
:107634001B7806460D46002B5BD000295BD00988D9
:107644004FF6FF73994258D06B88002B55D06B6866
:107654009B0754D14AB92F890DF102013846FFF72F
:10766400CDFB30B102B0BDE8F08113885788ADF886
:10767400023001A8FFF76CFC044658B9BDF802308B
:10768400214A142101FB032358890338C01B588164
:107694000820E7E780F8008000238375BDF80230F6
:1076A40083826B6803610121184800F0EFF92B888D
:1076B4002381B8F1030F6B88A38004BF0423A3754F
:1076C4004FF0000508BF3368E06008BFA3611048AD
:1076D400E780658101A900F0F0F836B1E368336012
:1076E4000C4B75601B89B5723381FFF78FFF002047
:1076F400B8E70220B6E70520B4E70420B2E7032088
:10770400B0E700BFC82C0020EC2C0020E42C0020A3
:10771400142D0020D02C002073B50D460446C8B1AA
:10772400C1B10DF10601FFF761FCA8B10B4BBDF827
:1077340006006668142202FB003001210C3000F0C0
:10774400A5F963682E600C336B600123A3720020DB
:1077540002B070BD0520FBE70A20F9E7EC2C0020FD
:1077640013B50446A8B10DF10601FFF73FFC90B133
:107774000B4ABDF80630142101FB0323DA6862B119
:10778400A27A52B1DA680020013ADA60A07202B03B
:1077940010BD0520FBE70A20F9E70620F7E700BF44
:1077A400EC2C002002230022FFF73EBF18B1032374
:1077B4000022FFF739BF052070470000104B1B78EB
:1077C40013B50446ABB14FF6FF73984213D001A82A
:1077D400FFF7BEFB88B10523037001230371C48046
:1077E40001A9084800F069F8FFF710FF002002B073
:1077F40010BD0220FBE70420F9E70820F7E700BFEB
:10780400C82C0020142D002007B5ADF80600ADF8F3
:1078140004100DF1060001A9FFF73AFC03B05DF86E
:1078240004FB07B51346ADF806000A4600200DF127
:107834000601FFF72DFC03B05DF804FB07B5134602
:10784400ADF806000A460DF106000021FFF720FC02
:1078540003B05DF804FB20B119B103680B6000208C
:1078640070470520704737B550E8013F9DB2C48981
:1078740025448489A54228BF2D1B0489A54202BF43
:10788400BFF32F8F002207E0C5EA030540E8015447
:10789400002CE9D14FF001028DF803200193019BE4
:1078A4009DF803200B6002F0FF0322B10B880068EF
:1078B400184403B030BD1846FBE70A884B889A4247
:1078C40009D150E8012FC2EA024240E80123002B0B
:1078D400F7D1012070470020704737B550E8023FC8
:1078E4001FFAA3F5C488A54202BFBFF32F8F00225D
:1078F4000DE0C48925448489A54228BF2D1BC3EA11
:10790400054540E80254002CE8D14FF001028DF8FF
:1079140003200193019B9DF803200B6002F0FF03F9
:1079240022B14B880068184403B030BD1846FBE709
:107934000A884B889A4209D150E8022FC2EA2242AF
:1079440040E80223002BF7D1012070470020704744
:1079540001F01F024B090121914000EB830000F06C
:1079640065B84B0910B501F01F040121A14000EBDB
:10797400830000F04FF8E04000F0010010BD01F07A
:107984001F0301229A404B0900EB8300D14300F00E
:1079940065B84B0901F01F0150F82300C84000F0FE
:1079A400010070472DE9F0474F1E7F0980460E46BF
:1079B4000137002558F8254008EB8509E44394FA7B
:1079C400A4F4B4FA84F44FEA451A202C06D1013504
:1079D400AF42EFD834462046BDE8F0875444A6426F
:1079E400F5D921464046FFF7BCFF0028F3D0D9F86B
:1079F4000040E44394FAA4F4B4FA84F4E5E710B53F
:107A0400034653E8000F0A4643E8002494F0000FAD
:107A1400F7D110BD10B5034653E8000F40EA010248
:107A240043E8002494F0000FF6D110BD10B50346CE
:107A340053E8002F42EA010043E8000494F0000FE9
:107A4400F6D110BD10B5034653E8000F00EA010259
:107A540043E8002494F0000FF6D110BD10B503469E
:107A640053E8002F02EA010043E8000494F0000FF9
:107A7400F6D110BD10B5034653E8000F00EB010228
:107A840043E8002494F0000FF6D110BD10B503466E
:107A940053E8002F02EB010043E8000494F0000FC8
:107AA400F6D110BD10B5034653E8002FA2EB010038
:107AB40043E8000494F0000FF6D110BD0121FFF754
:107AC400B5BF0021FFF7BEBF10B590B1D0E90123C7
:107AD40001689B1ADBB20A60013BDBB2FF2B026830
:107AE40002D10020107110BD11684C1C14600B7081
:107AF400F2E70E20F7E737B5054600240DF107003D
:107B04008DF80740FFF730F92A686B6811689942CD
:107B14000ED9481E106011F8014CEB68298A01FB4C
:107B24000434AB6811791B1ADBB2994238BF137164
:107B34009DF80700FFF73CF9204603B030BD37B588
:107B4400054600230DF107000C468DF80730FFF7BA
:107B54000BF92A681368591C1160E968641A298AA8
:107B6400B4FBF1F41C709DF80700FFF721F903B092
:107B740030BD826810B504462AB1436901680069C2
:107B840098470023A36010BD0EB403B5039921B137
:107B940004AB01AA019300F06FF802B05DF804EBA6
:107BA40003B07047826830B40468551C8560A154E2
:107BB400D0E901329A4202D330BCFFF7DABF30BCBD
:107BC400704700002DE9F84F9846DDE90A43154651
:107BD40082460F460A464FF00109AA420FD2C14518
:107BE40038BFC14613F0010B01D16CB90024012642
:107BF400B8F1010F1BD908F1FF386E43F8E709F11A
:107C04000109B2FBF5F2E8E79B070ED5B8F1000FC6
:107C14000CBF30262026A145E9D2013C314650460E
:107C2400FFF7C0FF002CF6D1E0E72026F3E7B7FB0F
:107C3400F6F39D42E1D9DFF83C80B7FBF6F35046FA
:107C440018F8031006FB1377FFF7ACFF3346AB427B
:107C5400B6FBF5F6F1D2BBF1000F02D00CB1A14591
:107C640001D3BDE8F88F20215046013CFFF79AFF6D
:107C7400F4E700BF15FA02002DE9F74F0546174651
:107C84008846002900F0428118F8011B49B92B7B72
:107C9400002B00F03B81284603B0BDE8F04FFFF70E
:107CA40068BF252940F0B780002698F800302D2BB6
:107CB400424608F1010823D0302B24D02B2B25D0A9
:107CC40000242A2B02F1010123D13B681A1D1B68F1
:107CD4003A601C440A4613782E2B26D101324FF009
:107CE400000A104610F8011BA1F1300CBCF1090F79
:107CF4001DD80A2303FB0A13A3F1300A0246F0E756
:107D040046F00106D1E746F00206CEE746F0040647
:107D1400CBE711F8013CA3F130000928DBD80A2293
:107D240002FB0434303C0A46CBE74FF0000A12F859
:107D3400011B01F0FB0068289046F8D0782909D887
:107D44006F290CD8632962D022D8252963D05829F9
:107D540000F0888098F80030002B95D197E77039AF
:107D64000829F7D801A353F821F000BFEB7E0200E5
:107D7400597D0200597D0200797E0200597D02007E
:107D8400577E0200597D0200597D0200697E02007F
:107D9400642901D06929DDD13A68D2F80090111D17
:107DA40089EAE9723960A2EBE9724FF0010B092A02
:107DB40035DCD34538BFD3462CB1B9F1000F01DB14
:107DC400720700D5013CB30702D5BAF1000F03D006
:107DD400F00701D44CBB0024B9F1000F2DDAC9F12E
:107DE40000092D212846FFF7DDFE06F00302022AD2
:107DF40004D1BAF1000F01D11CBB0024CDE9004627
:107E040053460A2249462846FFF7DCFEA2E73B68B0
:107E14001A1D19783A602846FFF7C4FE9AE70A2328
:107E24000BF1010BB2FBF3F2C1E7A345D4D220213D
:107E34002846013CFFF7B6FECCE77107D5D52B21C8
:107E4400D0E7A345DAD230212846013CFFF7AAFE49
:107E5400D2E73968CDE900460A1D3A6053460A2242
:107E64000968D0E739680A1D3A60CDE900465346EF
:107E74001022F5E73B681A1D3A6016F00106D3F8A4
:107E8400009028D1B9F1000F03D0484606F00BFA50
:107E94000646B44200D904BB09F1FF3919F8011FA1
:107EA40000293FF457AF2846FFF77CFEF6E7284643
:107EB4000136FFF777FE19F806100029F7D1A6421C
:107EC400BFF448AF002C3FF445AF20212846013CC5
:107ED400FFF768FEF3E70026EDE720212846013C82
:107EE400FFF760FED5E73B681A1D3A60302128464B
:107EF4001C68FFF757FE78212846FFF753FE00223F
:107F04000823CDE90032214610227CE703B0BDE806
:107F1400F08F00BF2DE9F34188B93D4B3D483E4AFF
:107F2400C01AC0080E243D4B009400043C4940F0A4
:107F3400010002F094F8204602B0BDE8F0814AB98D
:107F4400334B3448374AC01AC0080E24334B0094CC
:107F54000004EBE7D0F800E0BEF1000F09D12C4B90
:107F64002C48314AC01AC00808242C4B0094000441
:107F7400DCE74BB9264B27482C4AC01AC008092411
:107F8400264B00940004D1E74568D5F80480B3FB80
:107F9400F8F508FB15354DB11D4B1E48244AC01A8F
:107FA400C00809241D4B00940004BFE78D0709D0C5
:107FB400174B18481F4AC01AC0081024174B0094C6
:107FC4000004B3E712F0030F09D0114B11481A4A09
:107FD400C01AC0081024114B00940004A6E7C56819
:107FE400A9420BD34D1EEC180569AC4206D8DEF845
:107FF4000C40A44602B0BDE8F0416047044B05487C
:108004000E4AC01AC0081024044B009400048DE7E3
:1080140074F80200DCF8020025FA0200BBFB02003F
:108024002AFA0200A7FA020053FA020066FA0200D2
:10803400ADFA0200D7FA0200EFFA020012FB0200C6
:10804400F7B580B92A4B2B482B4AC01AC0080E2416
:108054002A4B009400042A4940F0010001F0FFFF7C
:10806400204603B0F0BDD0F800C0BCF1000F09D128
:108074001F4B2048234AC01AC00808241F4B0094F1
:108084000004E8E74AB91A4B1A481F4AC01AC00844
:1080940009241A4B00940004DDE74768D7F800E090
:1080A4000EF1FF370F4209D0114B1248174AC01A7C
:1080B400C0081024114B00940004CCE7C768B942EF
:1080C4000CD304694D1E0EFB0255A54206D8DCF8FC
:1080D4001040A44603B0BDE8F0406047044B054897
:1080E4000B4AC01AC0081024044B00940004B2E7E1
:1080F40074F80200DCF8020025FA0200CEFB02004C
:108104002AFA020053FA020066FA020039FB02005E
:108114005FFB020070B550B90E4D0F4C0026641B76
:108124001423B4FBF3F4B44208D1002010E0036834
:10813400002BF1D0BDE87040DB6918472B6813B9F8
:1081440001361435EFE7DB69284698470028F7D055
:1081540070BD00BFD82A0020EC2A002029DF704718
:1081640028DF704770B503689E6886B004460D46E4
:108174006EB114220021684606F03BF8A36805930B
:10818400237901952BB1012B0DD06846B04706B079
:1081940070BD01238DF8003023690293E3680393D3
:1081A40063690493F1E702238DF80030E3681B034D
:1081B4000293F5E7034B187A0122B0FA80F05A745F
:1081C400400970474C2D002070B5244C244E237A6E
:1081D40025463BB923492448FFF77FFB306008B9A3
:1081E400606070BD022334682B72237973B1012B54
:1081F40024D020460321FFF7B5FF00232B726B60C8
:1082040018491948BDE87040FFF792BBD4E905232B
:10821400D21AB2F5805FD4E9031028BF4FF480521C
:108224009208012A38BF012219441844FFF796FF27
:1082340050B11128DDD101232B72D2E7D4E9030315
:108244001844FFF78DFFF3E72B7C002BC9D10146BF
:10825400BDE87040022000F009B800BF4C2D00209A
:10826400642D0020602D00203C2D002038B5831E95
:10827400012B45D8234C237A002B41D0022B09D162
:10828400032830D0204B00221B68E2601A793AB1EF
:10829400012A22D0637C7BBBBDE83840FFF794BF42
:1082A400D3E905128D1AB5F5805F94BF521902F512
:1082B40080529A619142EDD102284FF0000308BF29
:1082C40019462372104B18BF0D211868FFF74AFF97
:1082D4000E490F48FFF72CFBDCE71A6901321A61DB
:1082E4005B699A42E7E7E3680133082B01D8E3604E
:1082F400D0E70023E360DFE7BDE8384005F020BDA8
:1083040038BD00BF4C2D0020642D0020602D0020BE
:108314003C2D002000F0FD03012B08D1044B00226A
:108324005A74421E504250411874FFF74DBF7047B3
:108334004C2D00202DE9F84FB0F806A04579D2F86D
:1083440000B09DF828900AFB05F5043D88460BEB28
:108354000301A94203F1040488BFA5EB030BB4FB9A
:10836400FAF607460AFB1644C2F800B04EB9AAEB67
:1083740004055D4528BF5D46BBF1000F04D1BDE88F
:10838400F88F3F68013EF1E7043408EB06003C44F3
:108394002A46B9F1000F0DD02146ABEB050B05F0D1
:1083A400FFFEDA452E443F6855464FF0000428BFCF
:1083B4005D46E1E701462046EFE7FFF785BBF8B5E8
:1083C40046790146721E0546002393422D6803D365
:1083D4000024A64202D8F8BD0133F6E70F68284608
:1083E400FFF7ADFB01343946F3E72DE9F843068A7C
:1083F400CD1C0746FFF77FFB043E35440446B5FB1E
:10840400F6F5F0B14FF48073EDB28380C680013D80
:10841400076081464FF00008A84512D23846FFF79E
:108424006AFB064648B163790133637108F10108B8
:10843400C9F8000007608146EEE72046FFF7BFFF5A
:1084440034462046BDE8F88301210430FFF71EBB03
:1084540010B5012104460430FFF724FB10F0FF0F90
:1084640004D12046BDE81040FFF7A9BF10BD1FB5D9
:1084740003920022009203AAFFF75CFF05B05DF8A7
:1084840004FB1FB503920122009203AAFFF752FFD7
:1084940005B05DF804FB41DF70470000064B10B5E2
:1084A40000241C70054B1C60BFF35F8F0449054812
:1084B40000F0A7F8204610BD702D0020742D002078
:1084C400ECFB0200682D002007B500230DF1070026
:1084D4008DF80730FEF748FCF1EE103A23F09F03C5
:1084E400E1EE103ABFF35F8F094B4022C3F88421B9
:1084F4009DF80700FEF75CFC05F032FC20B1FFF7A5
:10850400CAFF03B05DF804FB20BF40BF20BFF8E7FB
:1085140000E100E0026813685268934291BFD01AE8
:1085240080680130801888BFC01A7047036881686A
:108534001A685B688B4234BF01330023D31A584254
:1085440058417047F7B5002304460DF107000D4666
:108554008DF80730FEF708FC2046FFF7E7FF10B15F
:10856400237C002B3CD12268A66853685168B14231
:1085740034BF01310021516030B11168A0688142DB
:1085840034BF013100211160E2686068511E07297F
:1085940020D8DFE801F004101F141F1F1F182A78C9
:1085A400C2542046FFF7B6FF23689A68824200D27D
:1085B4009860002415E02A8820F81320F1E72A683F
:1085C40040F82320EDE7D5E9006700EBC300C0E9DC
:1085D4000067E6E7294602FB030005F0E1FDE0E75A
:1085E40004249DF80700FEF7E3FB204603B0F0BD2A
:1085F400836800225A60C3E904229A60DA601A6030
:1086040070470B684A684360934208BF00230160C7
:1086140008BF43607047436843B102689168526879
:108624000B449342436004BF00234360704700003F
:1086340010B50D49A1F59472914201D800200FE0C4
:108644008C1AE30F03EBE4035B1002EBC30452F850
:108654003330834205D802D204F10802ECE76068A3
:1086640010BD2146E8E700BFF000030008B5FFF79E
:10867400DFFF024B002808BF184608BDB2FF020006
:1086840038B5074C051E04F1080318BF1C462368BF
:108694002BB11A6822605B6828469847F7E738BD13
:1086A400802D002020B9054B01225A70FFF7E8BF46
:1086B400012802D1014A9070F8E77047782D002014
:1086C40020B9034B01225A70FFF7DABF704700BF8D
:1086D400782D002038B50B4C237883B90A486360A1
:1086E400A3602361E36000F01FF9054605F038FB41
:1086F40008B900F025F901232370284638BD8525E3
:10870400FBE700BF782D0020A986020037B50B4C8B
:1087140000230DF107008DF80730FEF725FBE36811
:10872400013BE360E56815B900F01EF9A5709DF8FA
:108734000700FEF73DFB03B030BD00BF782D0020DD
:10874400012813B508D003281CD018B9104B0122F6
:10875400C3F8802002B010BD0E4C00230DF10700B9
:108764008DF80730FEF700FB23780BB9FFF7B2FF53
:10877400E3689DF807000133E3600123A370FEF76B
:1087840017FBE7E700F0DCF8FFF7C0FFE2E700BF04
:1087940000E100E0782D00201FB500238DF80700CC
:1087A4000DF10F008DF80F30FEF7DEFA05F0D8FA60
:1087B40050B909480DF10701FFF7C4FE0648FFF759
:1087C400B5FE08B100F0AAFB9DF80F00FEF7F0FA21
:1087D40005B05DF804FB00BF60F8020007B520B1E6
:1087E40003280BD003B05DF804FB0F4B1B78012B5F
:1087F400F8D100F093FB00F099FBF3E700230DF1AF
:1088040007008DF80730FEF7AFFA07480378012B0D
:1088140005D10649013000F03FFB00F06DFB9DF8E7
:108824000700FEF7C5FADDE7DC2D00209D87020076
:108834001FB503788DF8003043680193037A8DF8EF
:108844000830C368054A0393054B684653F8213042
:1088540052F82110984705B05DF804FBE02D002084
:10886400E82D00201FB503788DF80030436801938C
:1088740083688DF80830C368054A0393054B68463E
:1088840053F8213052F82110984705B05DF804FBE5
:10889400E02D0020E82D0020F0B5194B90F800C021
:1088A400DFF86CE043F82C20164B16460A6943F8AF
:1088B4002C204B7F0EF80C300C4607460FCC89B0A9
:1088C4006D460FC594E80F0085E80F001EF80C30C4
:1088D400CDF810C04BB1002E0B4A694608BF324692
:1088E400381D00F04BFE09B0F0BD002E074A694662
:1088F40008BF324607F10C0000F02CFCF3E700BF80
:10890400E82D0020E02D002035880200698802004F
:10891400F02D002000F18040002382B00360036842
:108924000193019B02B07047044A137923B90121D2
:10893400106091801846704785207047F42D002000
:10894400084B1A68D20706D4C02283F800230122F8
:10895400C3F880211A604FF080430122C3F8182520
:10896400704700BF00E100E0044B01221A604FF0A1
:108974008042D2F81834DB03FBD470470C0000406B
:10898400124B1B6810B573B14FF48070FFF7C2FF30
:108994004FF080430122C3F808230D4B587910B9D6
:1089A4005A711B6898470B4B1B6873B14FF4827064
:1089B400FFF7B0FF4FF080430222C3F80823044BB3
:1089C400BDE810401B680120184710BD000100409D
:1089D400F42D00200401004000F1804000F5C04067
:1089E400002382B0036003680193019B02B07047C7
:1089F40003681F2B83BF03F01F03036001484FF07C
:108A0400A04070470003005007B5019001A8FFF78C
:108A1400EFFF019B00EB8300D0F8003723F44033D1
:108A2400C0F80037D0F8003743EA0141C0F8001716
:108A340003B05DF804FB0000054B4FF0FF3207283C
:108A440043F8202084BFC01880F85820704700BF26
:108A5400FC2D002010B5184C94F86A3053BB04F177
:108A640030033021FF22013911F0FF0103F8012BFB
:108A7400F9D1C8B2FFF7E0FF01310C29F9D1062280
:108A840000210E4805F0B5FB0D4BC02283F80623E8
:108A94004022C3F880214FF4BE701A60FFF79CFF98
:108AA400084B4FF00042C3F80423012384F86A30D2
:108AB400002010BD0820FCE7FC2D0020602E0020C3
:108AC40000E100E000600040034B93F86A000038C6
:108AD40018BF0120704700BFFC2D0020F7B53B4EA6
:108AE4003318054693F93030002B6CDA8B78C3F3D6
:108AF4004003002B0BBF082400240C2008208442D0
:108B040002D1042003B0F0BD56F82470013743D1DC
:108B1400701946F8242080F8304013B9331983F8CB
:108B240058508B785A0717D4D80737D501A8019520
:108B3400FFF75EFF019B00EB8300D0F8003723F0C2
:108B44000203C0F800372248EA0805F007070123AA
:108B5400BB40875C3B4383548B780A7813F0020351
:108B640028D0A40004F1804404F5C0442D02D4F8B4
:108B7400103523F44F3323F44073C4F81035120432
:108B8400D4F8103505F47C5502F4403215431D43E6
:108B9400C4F810550020B5E70134B0E701A84A78BD
:108BA4000195FFF725FF019B03F5E073920040F860
:108BB4002320C8E7083C344494F8605045EA821204
:108BC40084F86020E6E708209CE700BFFC2D002025
:108BD400602E002073B5224C2618054696F93020E5
:108BE400072A1ADD224492F858309B09032B0FD12F
:108BF400019001A8FFF7FCFE019BD0F81015D940A5
:108C040001F0010102312846FFF7FEFE02B070BDFB
:108C1400012B0CBF02210321F5E7D3B2072BF5D8B2
:108C2400930003F1804303F5C043D3F8100540F0EB
:108C34000100C3F8100502F14000800080B2FFF784
:108C4400CBFE0029E2D096F9303054F82330002BC3
:108C5400DCD0012303FA02F2024BC3F80423D5E764
:108C6400FC2D00200060004007B5019001A8FFF72B
:108C7400BFFE019BD0F81005D84000F0010003B0FE
:108C84005DF804FB2DE9F04F002489B0CDE90244DE
:108C9400624D4FF48072012102F1804303F5C04319
:108CA40090B21B68012B06D1D5F804330B4202D0D5
:108CB400FFF792FE0C430432B2F5907F4FEA410174
:108CC400EAD1574B1B68012B0ED14FF4BE70FFF74E
:108CD40083FE4FF0A04344F00044D3F810350293D0
:108CE400504BD3F81035039314F0FF0F1AD04E4FA6
:108CF40000250126344210D0AB0003F1804303F574
:108D0400C043D3F81005D3F8101557F8253023B114
:108D1400C1F30141C0F3052098470135082D4FEAFE
:108D24004606E7D1002C75DA04AF002304937B6078
:108D34004FF0FF33CDE90633DFF8EC90DFF8EC8039
:108D44000026354618F9012B531C4AD0C2F3C20041
:108D54000123D4B202F03F0B02F0070203FA02F23D
:108D640008AB191811F8083C13423AD009EB0B036D
:108D7400A40993F9303059F823A0BAF1000F08D1AF
:108D8400032C2ED117F800C04CEA020C07F800C0DF
:108D940001E0032CF6D001A8CDF804B0FFF728FEBB
:108DA400019B11F8181C03F5E07C114250F82C00CB
:108DB400C0F3014005D0022813D1032C0BD1214666
:108DC40004E003280DD1032C05D102215846FFF7F6
:108DD4001BFE0135EDB2BAF1000F02D02146584610
:108DE400D0470136042EADD1A5B14FF0A04302996E
:108DF400D3F8102503F540739142D3F8103502D10E
:108E04000399994206D002920393049A059B069211
:108E1400079393E709B0BDE8F08F00BF00600040FE
:108E24007C61004000030050FC2D00205C2E0020DB
:108E3400014B1B68184700BF682E00200E4B984258
:108E440037B50C4602D0002003B030BD00230DF12D
:108E540007008DF80730FDF787FF084B1D7915B91A
:108E640001221C601A719DF80700FDF7A1FF002D77
:108E7400E9D01120E8E700BF00200040682E002060
:108E8400034B984201BF034B00221A601A717047CA
:108E940000200040682E002010B5134C22780ABB35
:108EA400124B1960037813F0010F114B1EBFD3F856
:108EB400042542F00102C3F80425D3F8002222F06D
:108EC4000102C3F8002243780A4A5B01DBB282F84C
:108ED4000D334FF40053C2F8803113600123237023
:108EE400002010BD8520FCE7742E0020702E002089
:108EF40000D0004000E100E0064B00221A6082B07E
:108F04001B680193019B044B0122C3F804231A60DC
:108F140002B0704700D1004000D00040024A012353
:108F2400C2F808335360704700D00040064A01235A
:108F3400C2F808335360054B4FF40052C3F8802045
:108F4400034B00221A70704700D0004000E100E09B
:108F5400742E0020074B00221A6082B01B68019314
:108F6400019B054BD3F80805044B1B68C0B202B043
:108F7400184700BF00D1004000D00040702E0020F0
:108F84000023435082B043580193019B02B07047C1
:108F94000A4610B54FF48E71FFF7F2FF136A916819
:108FA400C95C136A01331362C0F81C1510BD8B69C8
:108FB4000A4610B54FF4847123B9FFF7E1FFD0F8E6
:108FC400183510BDFFF7DCFF536AD168D0F81805D7
:108FD400C854536A01335362F3E700001FB50123F9
:108FE4008DF80030044BCDE90110D3E90012684636
:108FF400904705B05DF804FB782E002030B54B484F
:10900400D0F8043313F4007F85B005464DD0D0F872
:109014002431002B49D04FF49271FFF7B1FF4FF484
:109024000173C0F80833424B93F829200AB901228E
:1090340042603E4902228DF80020D1F88024C1F814
:10904400802403929A690292DA6801920022C3E9A9
:1090540006226846D3E9001290473448D0F81C3100
:109064005BB133490A6A4B699A420A464AD291F87B
:109074002830002B46D1FFF78BFF2C48D0F8443121
:109084008BB14FF4A271FFF77BFF294B93F8292092
:109094000AB1012202609A692AB10022586AD96889
:1090A4009A61FFF79BFF05B030BDD5F804335B0729
:1090B400D3D5D5F80831002BCFD01D4C1B48214601
:1090C400FFF775FF636AA2699A422346C5D1E26934
:1090D400E1684AB12369E3600023606AA261E36145
:1090E4006362FFF77BFFB8E794F829200AB90122ED
:1090F4006A600E4A4FF40170C2F808030022586AED
:109104009A61EEE74FF48E710848FFF739FF516911
:109114000029B2D00023029191688DF800300191AA
:1091240053616846D2E900139847A6E7002000403F
:10913400782E00201F2886BF00F01F00044B4FF03C
:10914400A04300F5E070022243F82020704700BFDE
:10915400000300502DE9F843674B057991462C2212
:1091640002FB0532064692F82A200C469846002A4D
:1091740040F0BD8061490068FFF760FE07460028A3
:1091840040F0B78021684A1C10D01F2987BF5C4A71
:1091940001F01F030B464FF0A0420120984003F555
:1091A400E073C2F80805032042F823006068431CFA
:1091B4000DD01F288BBF00F01F030346504A4FF009
:1091C400A04203F5E0734FF0000C42F823C033686B
:1091D400A269C3F8242594F814C0627DBCF1010F80
:1091E4004CEA0202C3F86C25C3F81405C3F80C1545
:1091F4002BD1A168481C0DD01F298BBF01F01F0281
:109204000A463F484FF0A04002F5E0724FF0000CD0
:1092140040F822C0E068421C13D01F2887BF384A98
:1092240000F01F0C84464FF0A0424FF0010E0EFADE
:109234000CFE0CF5E07CC2F808E54FF0030E42F892
:109244002CE0C3F80805C3F810152C236B4308EB76
:109254000302C2F80490226948F80320B9F1000F10
:1092640032D03068227F4FF48E71FFF789FE306868
:109274004FF4A271FFF784FE33682249C3F8041344
:10928400190B43F30733002BA8BF03F160404FEAE7
:109294005313BCBF01F00F041B484FEA4212A8BF8E
:1092A40000F561404FEA8303D2B203F16043B4BFD7
:1092B400025580F8002303F5614301F01F010122E8
:1092C4008A40C3F880211A6033680422C3F8002559
:1092D4002C2303FB05830022C3E9062283F82920FB
:1092E4005A61012283F82A203846BDE8F88308270A
:1092F400FAE71127F8E700BF782E0020019002005A
:10930400000300508000020014ED00E02DE9F0415C
:1093140003680479244D0022C3F800252C2202FBA3
:109324000452014652686AB1204AC3F8082343F341
:109334000732C3F3043652090120B04020321C4ED8
:1093440046F82200D3F80C05D3F81485D3F8086541
:10935400D3F810754FF0FF329042C3F81425C3F8C8
:109364000C25C3F80825C3F8102501D0FFF7E2FE49
:10937400B8F1FF3F02D04046FFF7DCFE7A1C02D072
:109384003846FFF7D7FE731C02D03046FFF7D2FEF3
:109394000868FFF775FD2C2303FB0454002384F8AD
:1093A4002A306360BDE8F081782E00208402020038
:1093B40000E100E02DE9F843204B07794FF02C0938
:1093C40009FB0734054666699846002E33D10068C8
:1093D4006261A16026624FF48E7184F82860FFF701
:1093E400CFFD2868012383602146FFF7D1FD636820
:1093F400A14683B92868226A63699A4211D32B680B
:10940400D3F81C21002AFBD00122DA602C2303FBB1
:10941400078300225A613046BDE8F88394F8283067
:109424003BB9D0F81C31002BF8D04946FFF7B0FD0A
:10943400E1E70F26EAE71126EDE700BF782E0020CA
:109444000023435082B043580193019B02B07047FC
:109454001FB501238DF80030054B8DF808000191EC
:109464006846D3E90012904705B05DF804FB00BFDD
:10947400A42E00207FB5374AD2F82461002E47D0AD
:1094840010464FF49271FFF7DBFF02238DF8003092
:10949400D2F88034C2F880340393D2F83C358DF886
:1094A40008302D4BDA6801920022C3E9062268468F
:1094B400D3E9001290472748D0F844316BB14FF4F8
:1094C400A271FFF7BDFF244B9A6932B100229A6161
:1094D400D0F83C05D968FFF7BBFF1E48D0F820310F
:1094E400A3B14FF49071FFF7ABFF1B4B5A696AB1FC
:1094F400D0F84C158DF80810002299688DF80020DA
:1095040001915A616846D3E90012904704B070BDD6
:10951400D2F81031002BCED04FF488711046FFF7EB
:109524008FFF0D4BD2F83C0599698842C3D1DC69A1
:10953400D96864B1D2F8005225F02005C2F800526F
:109544001A699C61DA60DE61FFF782FFB3E79C6110
:10955400FAE700BF00200040A42E00201F2886BF89
:1095640000F01F00044B4FF0A04300F5E07002220E
:1095740043F82020704700BF000300502DE9F84352
:109584006B4B06799146242202FB0632044692F87C
:1095940020200D469846002A40F0C58065490068A1
:1095A400FFF74CFC0746002840F0BF802868421CA7
:1095B40010D01F2887BF604A00F01F0303464FF0F6
:1095C400A0420121994003F5E073C2F80815032174
:1095D40042F8231069684B1C0DD01F298BBF01F082
:1095E4001F030B46544A4FF0A04203F5E0734FF0BB
:1095F400000C42F823C02368AA69C3F8242595F80F
:1096040014C06A7DBCF1010F4CEA0202C3F86C2558
:10961400C3F80C05C3F814152BD1A968481C0DD048
:109624001F298BBF01F01F020A4643484FF0A04098
:1096340002F5E0724FF0000C40F822C0E868421CCA
:1096440013D01F2887BF3C4A00F01F0C84464FF0FC
:10965400A0424FF0010E0EFA0CFE0CF5E07CC2F8AD
:1096640008E54FF0030E42F82CE0C3F80805C3F8F0
:1096740010152423734308EB0302C2F804902A69EB
:1096840048F80320B9F1000F3CD020682A7F4FF43A
:109694008871FFF7D5FE20684FF49071FFF7D0FE74
:1096A40020684FF49271FFF7CBFE20684FF4A2714B
:1096B400FFF7C6FE23682149C3F80413190B43F3CB
:1096C4000733002BA8BF03F160404FEA5313BCBF1C
:1096D40001F00F051A484FEA4212A8BF00F5614095
:1096E4004FEA8303D2B203F16043B4BF425580F81A
:1096F400002303F5614301F01F0101228A40C3F8EE
:1097040080211A6023680822C3F80025242303FB60
:1097140006830022C3E906225A61012283F820202D
:109724003846BDE8F8830827FAE71127F8E700BFB1
:10973400A42E0020799402000003005010030200BC
:1097440014ED00E02DE9F04103680479244D002272
:10975400C3F80025242202FB0452014652686AB170
:10976400204AC3F8082343F30732C3F304365209EB
:109774000120B04020321C4E46F82200D3F80C05DC
:10978400D3F81485D3F80865D3F810754FF0FF3279
:109794009042C3F80C25C3F81425C3F80825C3F870
:1097A400102501D0FFF7DAFEB8F1FF3F02D04046A2
:1097B400FFF7D4FE7A1C02D03846FFF7CFFE731CA5
:1097C40002D03046FFF7CAFE0868FFF759FB24238E
:1097D40003FB0454002384F820306360BDE8F08167
:1097E400A42E00201003020000E100E001F0604319
:1097F400B3F1005F2DE9F041064632D11B4B0779E6
:10980400242505FB073598466C6964BB6A610068CA
:10981400A9604FF49071FFF713FE4FF4AC713068F8
:10982400FFF70EFE33686A69A968C3F84415C3F8E4
:10983400482501229A606A6862B9D3F82021D3F8D6
:10984400584152B9002CF8D00F24242303FB078776
:1098540000237B612046BDE8F081002C18BF0F2453
:10986400F3E71024F6E71124F4E700BFA42E002048
:10987400074B1B5C1F2B86BF064903F01F034FF0E9
:10988400A041012202FA03F3C1F80835704700BF72
:109894001A0103000003005008B50020FFF7E8FF99
:1098A4000120FFF7E5FF0220FFF7E2FFBDE80840D3
:1098B4000320FFF7DDBF262070470000C10710B565
:1098C400044642D54FF08043D3F84036DA072ED50C
:1098D4004FF01023D3F8043303F00703072B26D1EA
:1098E4001D4B0122C3F80425D3F80024002AFBD021
:1098F4004FF01021D1F8042322F0070242F00402B1
:10990400C1F804230022C3F80425134AD2F8003412
:10991400002BFBD0BFF34F8F1049114BCA6802F4E0
:10992400E0621343CB60BFF34F8F00BFFDE74FF0FE
:10993400A0420C490323C2F81837C2F82037C1F8F3
:109944002437C2F83037FFF7A7FFA30742BF054B00
:109954000C22C3F8182710BD00E0014000ED00E020
:109964000400FA0500030050F0B595B01D461646F4
:1099740008460C46FEF768FD1A9B0D93CDE9086571
:1099840000252B46082205A920460A958DF82C505F
:109994000C95FEF776FD079B0293069B03939DF8B7
:1099A40014308DF8115003F00302012A1DD1BDF8C3
:1099B4001420059DC3F3C203C2F383168DF810303F
:1099C400B20008230EA92046FEF75BFDC5F39525DA
:1099D40008AB0093324602AB0EA9284600F0E4FB24
:1099E4002046FEF735FD15B0F0BD022AF8D1BDF8CA
:1099F4001650C3F3C203C5F389158DF81030082738
:109A0400082D2E4628BF08263B4632460EA920467E
:109A1400FEF737FDAD1B08AB02AA31460EA837444A
:109A240000F026FC002DEBD1DAE70000014B012207
:109A34001A707047092F00207047000070B5124D4E
:109A440006460FCD88B06C460FC495E80F00002E73
:109A540084E80F004FF0FF334FF00602CDE90023F6
:109A6400CDE90233094A0A484FF0EB7308BF0022DC
:109A740069460693FEF710FF08B1FCF781FE054B1B
:109A84001E7008B070BD00BF20010300319A0200AF
:109A9400EC2A0020C82E002007B5044B0093044A8A
:109AA4004023FFF761FF03B05DF804FBB99A02009D
:109AB400C92E002038B50D4B0D4D002018700D48EF
:109AC40004782D5DD2B21C4665B10430FFF78EFEDA
:109AD40008B1FCF755FE084B1A7812B12378002B15
:109AE400FBD038BD0C30FFF765FCF1E7092F0020EF
:109AF400F02D0020EC2A0020C82E002008B50848CC
:109B0400084A0378D35C3BB10430FFF71BFEBDE881
:109B140008400020FFF792BF0C30FFF7F7FBF6E791
:109B2400EC2A0020F02D00200120FFF787BF000061
:109B340008B5FFF7F9FF0448042100F09DFA034B30
:109B440001225A7108BD00BFA0F90200002B0020B9
:109B5400037813F0040216D003F00303012B03D09F
:109B6400022B09D0012070470A6800880232C0F332
:109B7400831002440A60F5E70B684288023303EB62
:109B840092130B60EEE71046704700002DE9F04F8A
:109B940087B000230446861C0DF107000F461546C6
:109BA4008DF80730FDF7E0F8454801683960D0E9E1
:109BB4000132134401335B1A824600F21C4700F55C
:109BC400836900F21448B3421CD30020002D73D0E3
:109BD40004F00F039B0143F0050363F30F00DAF86D
:109BE4000020DAF808301340033316444AF82300FF
:109BF4009DF80700CAF80060FDF7DAF8012007B005
:109C0400BDE8F08F01213846FDF740FF4846FDF7D7
:109C140055FF4046FDF752FFDAF80400DAF808B0C1
:109C2400029000EA0B0003300AEB800002A9FFF760
:109C34008FFF029B50BB0BEA03020AEB820203F183
:109C4400020CD2680392013303EA0B0B0AEB8B0B71
:109C540002F00302012ADBF80C10CDF808C023D06F
:109C6400022A16D083464046FDF72BFF10B1029B13
:109C7400CAF8043059463846FDF708FFDAE90123EB
:109C84001344DAF8002001339B1A9CE70BEA030023
:109C9400C9E7BDF80E30C3F3891303334FEA114B00
:109CA4000CEB93030293DEE7BDF80C30C3F383138C
:109CB4004FEA114B6344F5E7A40544F006008EE730
:109CC400DC2F00200B4B0C48FF2210B59A600022B9
:109CD400C3F81824C3E90022C3F8142483F8202409
:109CE400FEF76BFB044610B90448FEF781FC2046DE
:109CF40010BD00BFDC2F002054F9020074010300E2
:109D040030B50A4C71B10A4A0A49121BD208002321
:109D14009A4201D1002030BD31F82350854202D04F
:109D24000133F5E7034654F83300F4E774F802000E
:109D340054F90200D82A0020094B013903EBC00072
:109D4400032909D8DFE801F00A0204060420704759
:109D540000797047407970470020704702207047AF
:109D640074F80200034BD3E90030C31A5842584137
:109D7400704700BFDC2F00202DE9F04387B0FFF7C8
:109D8400F1FF0646002840F0F9807D4DC5F818041F
:109D9400BFF34F8F6B68AC6802932340033305EB2A
:109DA400830002A9FFF7D4FE029B18B1D5F818244A
:109DB400002A5FD004EA0302991C013305EB8202F6
:109DC400234005EB8303D268DB68049302F00303AA
:109DD400022B0392029160D1BDF80E306948C3F39F
:109DE4008917502FB84628BF4FF0500868F38F13D7
:109DF40008F10801ADF80E30FEF7F7FA0646002820
:109E040000F0A780FEF720FB0023082203A93046B8
:109E1400FEF72DFB029924EA01020132B8EB820F0E
:109E24004FEA820332D95FFA88F85BB32140DCB28F
:109E3400A8EB040803315FFA88F9A046524C05EBFD
:109E44008101082342463046FEF711FB34B108F184
:109E540008034A4621463046FEF709FB029B0337B6
:109E640003EB97070297D5F81834002B49D1D5F89E
:109E7400104459E02A689A428FD86A60304607B085
:109E8400BDE8F08340491C469946DAE70C40E11CE2
:109E94000823424605EB8101DDE7012B59D1BDF8CA
:109EA4000C303848C3F38311062928BF062161F317
:109EB400891302318900ADF80C30FEF796FA064694
:109EC400002846D0FEF7C0FA0023082203A9304632
:109ED400FEF7CDFA0027BDF80C20C2F38312BB00B5
:109EE400974203F10803BED202994A1C2140033170
:109EF400029205EB810104223046FEF7B8FA0137DD
:109F0400E9E73046FEF7A4FAFFF72CFF80F00100E2
:109F1400C6B2B3E7E3685B7923B1236831461B68B3
:109F240020469847E3681C68002CF3D13046FEF7BE
:109F34008FFA0DF107008DF80740FCF715FFD5F8EF
:109F440018340BB9029B6B609DF80700FCF730FFD7
:109F5400DAE7D5F8104454B90C4B0D480D49C01A32
:109F6400C008000440F0020000F062F8CCE7236867
:109F740020469B689847E3681C68ECE700267DE769
:109F8400DC2F002054F90200E82F002074F80200AE
:109F9400A4F802005D0103002DE9F74F224D0446A9
:109FA4000F46924601A901221846D5F808909B460F
:109FB400FFF7ECFD20B3019E4FF00008B21CD8451A
:109FC40008EB020126D119480021FDF718FD80F3A2
:109FD4001000000440EA1440E400731C04F0380448
:109FE40003EA090306EA090644F0010405EB8303C6
:109FF400033644EA881444EA8724D86045F82640A6
:10A0040095F820341BB1FFF7B7FE0028FBD103B04D
:10A01400BDE8F08F09EA010105EB81015AF8283007
:10A02400CB6008F10108CAE7DC2F0020F8330020D8
:10A0340000231A46FFF7B0BF07B50123019201AA16
:10A04400FFF7AAFF03B05DF804FB07B5CDE90023D1
:10A0540002236A46FFF7A0FF03B05DF804FB1FB5B7
:10A06400CDE90123069B039301AA0323FFF794FF81
:10A0740005B05DF804FB000030B50F49D1F8102499
:10A0840003460020144634B9DC6820714AB9C1F88B
:10A094001034226030BDE4682579854206D02468F6
:10A0A400F1E7D268116821601360F3E701300A28F0
:10A0B400E8D14FF0FF30EDE7DC2F0020094A38B536
:10A0C4000123D2F8104482F820341D4604B938BD67
:10A0D400E3685D71236820465B689847E3681C6801
:10A0E400F4E700BFDC2F002007B503460846197AC1
:10A0F400052911D05B7A2BB1094A0A490190FDF771
:10A1040043FD019808490190FDF73EFD019803B015
:10A114005DF804EBFDF72DBD002AF8D0F2E700BF8F
:10A124008001030085010300A501030030B5C38845
:10A1340085B004460D4633B1144A00921449154AB9
:10A144002846FDF721FD217A05291DD0637A4BB1FC
:10A15400A088FFF7F1FD104B104953F82020284642
:10A16400FDF712FD227A0E4BA08853F822200392A9
:10A174000021FFF7C5FD039A0A490346284605B0A6
:10A18400BDE83040FDF700BD05B030BD80010300DF
:10A1940090010300880103000C0203008501030001
:10A1A40030020300A80103002DE9F04385B01F46E7
:10A1B4000C9D002395F80C902B7306460C46904694
:10A1C40029463846FFF7B2FFB8F1060F09D8DFE891
:10A1D40008F00412181F2833400031462846FDF7C2
:10A1E400D3FC002229463846FFF77EFF85F80C9001
:10A1F40005B0BDE8F083226831462846FDF7C4FC6B
:10A20400EFE7D4E9002331462846FDF7BDFCE8E733
:10A21400A36800933146D4E900232846FDF7B4FC33
:10A22400DFE7E3680193A36800933146D4E9002390
:10A234002846FDF7A9FCD4E723690293E368019358
:10A24400A36800933146D4E900232846FDF79CFC1B
:10A25400C7E76369039323690293E3680193A368DF
:10A2640000933146D4E900232846FDF78DFCB8E776
:10A2740008292DE9F74F80460E4617461C4639D863
:10A28400002593F80C901D7319461046FFF74EFFF6
:10A29400DFF880A0DFF880B0AE422ED918F8052090
:10A2A40059462046FDF770FC0135082DF4D11849B4
:10A2B400DFF868A0DFF868B02046FDF765FC0025EC
:10A2C400AE421FD918F805200192104603F030FF62
:10A2D4000028019A594608BF2E222046FDF754FC57
:10A2E4000135082DECD1012221463846FFF7FCFE4A
:10A2F40084F80C9003B0BDE8F08F51462046FDF77A
:10A3040043FCD1E751462046FDF73EFCE8E700BF99
:10A31400BC010300B8010300B2010300BA01030049
:10A32400BE01030028B139B10023C1E90030184649
:10A33400704748F21050704748F2135070470000BD
:10A3440070B505460C461E46FFF7ECFF70B9AB79B5
:10A354006AB1B3420ED12979094B53F8213063B164
:10A3640011462046984708B9064B236070BD48F251
:10A374001050FBE748F21150F8E748F20350F5E7B4
:10A38400440203007052464DF0B528B14079D9B16A
:10A394008AB948F2135315E01846F8E7441E00251D
:10A3A4004E5D0F5D575516550135013CA542F7D951
:10A3B4001B1A014402448342F0D2002B48F211528A
:10A3C40018BF13461846F0BD48F21053FAE70000D0
:10A3D400054B1A78022A04D01878431E5842584173
:10A3E40070470120704700BF9834002070B51B4BA4
:10A3F4006A469A4206460D4605D3FFF7E9FF78B947
:10A404004FF4054070BD164B16481749C01AC008D2
:10A41400000440F00100FFF70BFE48F21950F1E789
:10A42400124C236823B1124B1A68124B9A420FD074
:10A4340086B97DB910481149206000F003FC00285A
:10A44400E0D10B4B0B4A1A6023680D4A1A60D9E716
:10A454000020D7E748F21750D4E700BF00E00320FC
:10A4640074F80200A4F8020078020300684D00208A
:10A47400843500206572E54B9C340020883500202B
:10A484006169614D33DF704775DF704776DF704770
:10A494008FDF70471F2886BF054A00F01F004FF06A
:10A4A400A042012303FA00F0C2F80C05704700BF74
:10A4B40000030050704700000B8840F67722934257
:10A4C40004D04DF67A2293420CD070470A4B0B48C5
:10A4D4004A88C01AC0088B880949000440F0030068
:10A4E400FFF7B3BD044B05484A88C01AC0080B796E
:10A4F40004490004F2E700BF74F80200A4F8020063
:10A5040091020300C002030008B50020FDF702FE1B
:10A51400D0B90E4B0E480F49C01AC008000440F0D1
:10A524000300FFF785FD0C4801F060FE08B1FCF75D
:10A5340027F90A4800224FF48041FCF7BDFB18B10B
:10A54400BDE80840FCF71CB908BD00BF74F8020060
:10A55400A4F80200EF020300C84D0020744D00204F
:10A564000388212B07B50FD80F2B11D9103B112BC2
:10A574000ED8DFE803F010300D0D0D0D0D646B0DDA
:10A584000D3F0D0D0D4D0D573B2B53D0562B51D078
:10A5940003B05DF804FB314B31483249C01AC0089E
:10A5A400000440F00300FFF743FD2F4B2F48012226
:10A5B4001A70FCF7C9FB08B1FCF7E2F80C20FFF7AE
:10A5C40069FF0A20FFF766FF00F0F2FC0028DFD1E4
:10A5D400FFF79AFFDCE7214A214B25499B1ADB0848
:10A5E4001B04027A43F00300FFF726FD1E4B0022F2
:10A5F4001A70E9E7037A022BCAD11948174B1D498F
:10A60400C01AC008000440F00300FFF711FDBFE7C3
:10A6140000F108018088FFF737FF0028B8D0FCF765
:10A62400AFF8B5E7002301A98088ADF80430FFF73F
:10A634002FFFF2E713218088FFF728FFEDE7084892
:10A64400064B0D49C01AC0080004DCE70448034B5C
:10A654000A49C01AC0080004D5E700BF74F8020014
:10A66400A4F80200FE020300714D0020744D002086
:10A674000903030024030300420303005F030300F0
:10A6840008B50378042B07D0062B13D1406888B192
:10A69400BDE80840FCF774B8074B08480849C01ADD
:10A6A400C008000440F00300FFF7C2FCBDE8084006
:10A6B400FFF72ABF08BD00BF74F80200A4F8020027
:10A6C4007E03030000F5E0704FF0A043032243F83B
:10A6D400202070471F2886BF054A00F01F004FF056
:10A6E400A042012303FA00F0C2F80805704700BF36
:10A6F40000030050074A08B513680133062B1360A2
:10A7040007DD0820FFF7C6FEBDE808400C20FFF770
:10A71400E1BF08BD6C4D0020262808B526D10129CB
:10A7240005D1144B1B780BB9134B197008BD0029C4
:10A73400FCD1104B1B78002BF8D10F4B1B78002B4E
:10A74400F4D00820FFF7C6FF0C20FFF7C3FF0A2050
:10A75400FFF7C0FF0820FFF7BDFFFBF7D7FE08B1E6
:10A76400FCF70EF8FFF78EFE0028DFD0BDE80840A6
:10A77400FCF706B8714D0020704D00200D490A68A1
:10A78400012A14BF0122002208B54FF00C000A6010
:10A7940008D1FFF77FFE0B680A2033B9BDE80840F3
:10A7A400FFF778BEFFF796FFF5E7BDE80840FFF72F
:10A7B40091BF00BF102B00201FB54FF400410020B3
:10A7C400FFF780FA08B1FBF7DBFFFFF7B1F9FCF7FD
:10A7D40031FA08B1FBF7D4FF474A48480121FCF796
:10A7E40059FA08B1FBF7CCFF454A46480121FCF76A
:10A7F40051FA08B1FBF7C4FFFDF750FE08B1FBF7AF
:10A80400BFFF0120FFF75AF80820FFF75BFF08207D
:10A81400FFF760FF0C20FFF755FF0C20FFF75AFFEE
:10A824000A20FFF74FFF0A20FFF754FF364840F293
:10A8340066620121FBF73AFF08B1FBF7A1FFFBF7C2
:10A8440089FF08B1FBF79CFF03F00CFA08B1FBF792
:10A8540097FF002369460120009303F0D1FA08B161
:10A86400FBF78EFF684603F09FFB08B1FBF788FFF8
:10A874002649274801F034FA08B1FBF781FF25483F
:10A8840000F0F6FB08B1FBF77BFF102200216846BD
:10A8940003F0AFFC204B0093204A21480123694672
:10A8A4008DF804308DF80C3001F043FC08B1FBF74F
:10A8B40067FF1C4A1A48002101F08CFB08B1FBF722
:10A8C4005FFF174800221F2101F010FC08B1FBF7BD
:10A8D40057FF154B15481649C01AC008000440F02C
:10A8E4000300FFF7A5FBFFF70FFEFFF745FA00286B
:10A8F400FBD1FDF7E9FDF8E781A70200A4030300FB
:10A90400F9A60200A8030300082B0020BDA402003E
:10A91400944D0020B9A40200AC03030085A60200F4
:10A92400C84D0020BA03030074F80200A4F8020022
:10A934008E030300054B1B68082B01BF044B1868EA
:10A94400B0FA80F0400918BF0020704730010010B1
:10A954003401001008B54FF080430022C3F80C21E5
:10A96400C3F81021C3F838254FF0805203F5404353
:10A97400D2F80414C3F82015D2F80814C3F8241527
:10A98400D2F80C14C3F82815D2F81014C3F82C15F7
:10A99400D2F81414C3F83015D2F81814C3F83415C7
:10A9A400D2F81C14C3F84015D2F82014C3F8441587
:10A9B400D2F82414C3F84815D2F82814C3F84C1557
:10A9C400D2F82C14C3F85015D2F83014C3F8541527
:10A9D400D2F83414C3F86015D2F83814C3F86415E7
:10A9E400D2F83C14C3F86815D2F84014C3F86C15B7
:10A9F400D2F84424C3F87025FFF79CFF10B1384BFC
:10AA0400384A1A60FFF796FF18B1374BFB22C3F898
:10AA14001825FFF78FFF48B13449354B0A681B6886
:10AA240022F00F0203F00F0313430B60FFF782FFC2
:10AA340018B1304B4FF400721A604FF08043D3F8D2
:10AA44000024D20744BF6FF00102C3F800242A4A4D
:10AA5400D2F8883043F47003C2F88830BFF34F8FC4
:10AA6400BFF36F8F4FF01023D3F80022002A03DBCB
:10AA7400D3F80432002B2FDA204B0122C3F804252B
:10AA8400D3F80024002AFBD04FF010221221C2F880
:10AA94000012D3F80024002AFBD04FF01023122216
:10AAA400C3F80422154B1A46D3F800140029FBD02E
:10AAB4000021C3F80415D2F80034002BFBD0BFF3F7
:10AAC4004F8F0D490E4BCA6802F4E0621343CB600A
:10AAD400BFF34F8F00BFFDE70A4B0B4A1A6008BD56
:10AAE4008C5600404881030000F00040E40E004012
:10AAF400580200104096024000ED00E000E00140E2
:10AB04000400FA05142B00200090D00310B543680C
:10AB140004469A790C3003F043FB0020207210BDE8
:10AB240008B52022083003F03BFB002008BD08B51F
:10AB34002022083003F034FB002008BD002138B582
:10AB44000846FFF753FC044638B9054D0123C5F800
:10AB5400003504F003FAC5F80045204638BD00BFAF
:10AB640000A0025038B50A4B00251D60BFF35F8F6B
:10AB7400084C0123C4F8003504F0C4F9C4F80055A6
:10AB8400014618B9BDE83840FFF730BC032038BD92
:10AB9400444E002000A00250002844D0A0F57000CC
:10ABA400A0F54060352839D8352837D8DFE800F0DB
:10ABB400211E362427272A3330363636361E361ED3
:10ABC4003939393636363636363636363636363618
:10ABD400242A24271B2D362D36363636363636367D
:10ABE400212A27361E1E48F21750704748F2035098
:10ABF400704748F21350704748F21050704748F2BB
:10AC04001150704748F21450704748F20150704791
:10AC140048F20250704748F27150704748F216509B
:10AC2400704748F27050704708B501210448FCF79A
:10AC3400E6FEBFF35F8FB0FA80F0400908BD00BFA5
:10AC4400444E002038B502680F4B9A4204460D4624
:10AC540014D0FFF7E9FF98B100F01AF82946201D37
:10AC640003F032FDFFF798FF044600F025F8BFF328
:10AC74005F8F064B00221A60204638BD0024FBE794
:10AC840048F20454F8E700BF6169614D444E002066
:10AC9400064A13680133012B136006D1044AC2F833
:10ACA4000035044B4FF480625A607047484E0020D0
:10ACB40000A0025000E100E0064A1368013B136063
:10ACC4003BB9054AC2F80035044B4FF48062C3F81F
:10ACD40084207047484E002000A0025000E100E0AC
:10ACE40064DF704770B5C0B14AB116880024B4421D
:10ACF40003D305196D789D4208D0A14201D80020E4
:10AD04000BE0055D01352C44A4B2F0E7A142F6D96D
:10AD1400A31C1380005D013880B270BDF7B5002319
:10AD24000646ADF80630144612B9002003B0F0BD53
:10AD340009230DF10602FFF7D5FFBDF8067005469D
:10AD4400002FF2D00028F0D0204603F0ACFAA8423D
:10AD54000246EAD1F119204603F0EFF9B0FA80F087
:10AD64004009E3E7F0B587B0002306460C461046D9
:10AD7400ADF8063002AA10230DF105018DF8053057
:10AD8400FFF7AEFF16B9002007B0F0BD0028FAD1D6
:10AD94009DF80550042D2BD0102D2BD0022DF3D16E
:10ADA4000323BDF806207AB90DF106022146304688
:10ADB400FFF798FFBDF806302BB92B460DF10602BC
:10ADC4003046FFF78FFF0446BDF80670002FDAD037
:10ADD4000025AC42D7D9E8199DF8052002A93044D2
:10ADE40003F0ABF948B19DF805301D44ADB2F0E76E
:10ADF4000523D6E706250723D3E70120C4E7F7B5E3
:10AE0400174601900E4691B1019C6CB100252C4669
:10AE1400294601A8FCF7BDFD18B13946A8B2B047D0
:10AE240001340135142DF3D1204603B0F0BD0C4696
:10AE3400FAE773B50191019C06466CB100252C46D6
:10AE4400294601A8FCF7A5FD18B106EB440301341B
:10AE54009D800135142DF3D13046346002B070BDAD
:10AE64002DE9F04703888488112B8CB005463CD02B
:10AE74001A2B3FD0102B17D1284EB368DB43009315
:10AE840071686846FCF7EAFD009901A8FFF7D1FF55
:10AE94000DF108094FF00008019B984507D3132CC6
:10AEA40013D90420FBF76CFC0CB0BDE8F08739F82B
:10AEB40002AB00270137514606EB8700FCF75FFD24
:10AEC4001D2FF7D108F10108E6E715482146FCF7E4
:10AED4003FFD14482146FCF73BFDEB7B012BE3D0FF
:10AEE40011482146FCF734FDDEE70D482146FCF706
:10AEF40046FDD9E7037A0D481F2B4FEA1315214667
:10AF040006D9FCF725FD022D09482146EAD1EEE7D2
:10AF1400FCF735FD06482146E9E700BF4C4E00200A
:10AF2400544E0020504E0020584E00205C4E00200D
:10AF3400604E002037B5002401902546214601A823
:10AF4400FCF727FD00B101350134142CF6D1284655
:10AF540003B030BD1328014602D80248FCF719BDDE
:10AF640000207047504E002007B50190FFF7F2FF14
:10AF7400019930B10448FCF70CFD002814BF0220ED
:10AF8400012003B05DF804FB584E002007B5019082
:10AF9400FFF7E0FF019928B1044803B05DF804EB22
:10AFA400FCF7F7BC03B05DF804FB00BF5C4E002067
:10AFB40007B5064BDA680192996801A8FCF74EFDC3
:10AFC4000198FFF7B7FF03B05DF804FB4C4E002077
:10AFD40070B50A4E054630460C46FCF7DAFC58B10B
:10AFE4002846FFF7B7FF38B10634294606EB84003C
:10AFF400BDE87040FCF7CDBC002070BD4C4E002075
:10B00400F8B50D4C054620460E461746FCF7C1FC24
:10B0140080B12846FFF79EFF60B1B01D04EB8000AD
:10B0240029461FB1BDE8F840FCF792BCBDE8F840E2
:10B03400FCF7A5BCF8BD00BF4C4E002073B50B4D0A
:10B04400019204460E4601462846FCF7A2FC50B184
:10B05400043405EB8404019AA068314602B0BDE8CB
:10B064007040FFF7CCBE02B070BD00BF4C4E002054
:10B0740058B1074A00231360064A01211170064A99
:10B084001360064A1060184670470E20704700BFD0
:10B09400CC4E0020C84E0020D04E0020C44E0020CC
:10B0A400A0DF704710B50446408800F06DFCA08016
:10B0B4002046BDE8104001F057BE30B587B00546C4
:10B0C4000C4618220021684603F093F807236846CB
:10B0D4008DF80030ADF802500294FFF7E3FF07B09B
:10B0E40030BD000070B586B00546182200216846C0
:10B0F40003F07FF84FF6FF739D42ADF802503FD046
:10B10400284600F031FB1128044633D016D8D8B1B4
:10B114000B2820D02046FDF7A9FA1A4E1A490246F8
:10B124001A48361AF608360446F001002B46FEF794
:10B134008CFF21462846FFF7C0FF03E043F20203D9
:10B144009842E7D1002216E00E238DF800306846BD
:10B15400FFF7A8FFF6E70F238DF8003009480B4BE3
:10B164000B49C01AC00800042A4640F00200FEF74A
:10B1740063FFECE70122074B28461978FFF740FFED
:10B1840006B070BD04F902006004030074F8020004
:10B19400E0030300D94E0020FFF7A4BF024B03498C
:10B1A40018780022FFF74ABFDB4E0020E9B1020005
:10B1B40013B5042204460021684603F01AF842F647
:10B1C400A623ADF8003001238DF80230044B186833
:10B1D400019001AA69462046FFF762FF02B010BD44
:10B1E400800603002DE9F0412C4D86B029780446F1
:10B1F400FFF7EEFEA846064600284CD1204600F094
:10B2040017FB1128054633D018D8062832D0082851
:10B2140030D0F8B12846FDF729FA214F21490246DA
:10B2240021483F1AFF083F0447F001002346FEF778
:10B234000CFF29462046FFF740FF19E043F20203C2
:10B24400984215D043F201439842E3D12046FFF7D8
:10B2540049FF0DE031461822684602F0CAFF102368
:10B2640068468DF80030ADF80240FFF71BFF012659
:10B27400012205E0204600F087FB00F005FB0022D8
:10B284000A4B20461978FFF7BBFE98F800103246A7
:10B294002046FFF7B5FE06B0BDE8F081DC4E002085
:10B2A40004F90200B104030074F80200DB4E00202C
:10B2B40013B5044600F068FB00236A46092101F037
:10B2C40077F9052805D1044B012219782046FFF7A8
:10B2D40097FE02B010BD00BFD84E002008B5084B41
:10B2E400084918780022FFF7A9FE024630B9064B38
:10B2F40006491878BDE80840FFF7A0BE08BD00BFA6
:10B30400DA4E002015B30200D84E0020B5B1020079
:10B3140070B5012186B006462A48FCF770FB044646
:10B32400BFF35F8F002849D1304600F0C1F9862869
:10B3340005461ED017D8A8B3112841D02846FDF7DA
:10B3440095F9214C214902462148241AE408240491
:10B3540044F001003346FEF778FE29463046FFF7F5
:10B36400ACFE002403E043F202039842E6D12246F5
:10B374001AE021461822684602F03BFF06238DF8A6
:10B3840000301148124B1349ADF80260C01AC008CE
:10B394000004324640F00200FEF74EFE6846FFF716
:10B3A40081FEE4E7012402460B4B30461978FFF78F
:10B3B40027FE1CB9BFF35F8F024B1C6006B070BD43
:10B3C4000122F1E7D44E002004F90200260503000F
:10B3D40074F80200F1040300DA4E002038B5037853
:10B3E4000446A3B94088FFF77DFE6588284600F02F
:10B3F4000DFA28B1064B012219782846FFF700FE02
:10B404006088FFF755FFBDE83840FFF767BF38BDD8
:10B41400DB4E002037B50378082B044630D1427A3E
:10B4240072BB057A072D1BD0082D2DD0012D27D1F5
:10B4340080886A46294601F0F3FA08BB019B1B7811
:10B44400F3B1A08800F0CEFA4FF6FF73984217D0FC
:10B45400114B2A461978FFF7D3FDFFF79FFE0FE043
:10B46400808800F0BFFA4FF6FF739842044607D075
:10B474000A4B01221978FFF7C3FD2046FFF718FF96
:10B48400FFF72CFF03B030BD054B19680129F7D134
:10B49400BFF35F8F1A60F3E7DB4E0020DA4E002023
:10B4A400D44E002013B50123ADF800300923114A0E
:10B4B4008DF80230104B0024A14214BF19461146E6
:10B4C40001918DF8034000F05FFA2246694601F0CD
:10B4D400DBF860B1FDF7CAF8084B09490246094890
:10B4E4001B1ADB081B0443F00200FEF7A5FD02B0A3
:10B4F40010BD00BF840603008806030004F902009F
:10B504006305030074F8020030B503888588522B64
:10B5140087B0044631D00DD8352B45D0502B30D0D0
:10B524003C4B3D4918780022FFF788FDFFF736FEB3
:10B5340007B030BD542BF3D118220021684602F025
:10B5440058FE112328468DF80030ADF8025000F063
:10B554001BFAADF8040000F097F9304B284619782F
:10B564000022FFF74DFD2E4B284619780022FFF7E5
:10B5740047FD6846FFF796FDD2E72846FFF7B2FD80
:10B58400CEE7037B012BCBD1827A012AC8D1018972
:10B5940042F602139942C3D1224B28461978FFF789
:10B5A4002FFDFFF79BFEBBE71F4B002219782846AF
:10B5B400FFF726FDE288B2F5857F0AD05AB11B4811
:10B5C4001B4B1C49C01AC008000440F00200FEF7DF
:10B5D40033FD00211AE06289012A09D01348144B73
:10B5E4001549C01AC008000440F00200FEF724FD0B
:10B5F400A289012A06D00D480D4B1049C01AC00873
:10B604000004E2E7A17B003918BF01212846FFF7B7
:10B6140049FF85E7D94E00209DB10200DC4E002091
:10B62400DB4E0020DA4E0020D84E002004F9020040
:10B6340074F80200C0050300FA0503003406030091
:10B64400AFDF7047B1DF7047B2DF7047B3DF7047D9
:10B6540073B50F4B0F4C93E803006D4685E8030068
:10B6640000222088294601F00FF84FF6FF76238840
:10B67400B34201D0112801D102B070BD184601F0C7
:10B6840066F800222946208000F0FEFFEFE700BFA5
:10B69400E4070300DE4E0020044B1A884FF6FF73C4
:10B6A4009A4201D0FFF7D4BF704700BFDE4E00209E
:10B6B4002DE9F347804600F067F94FF6FF7398428F
:10B6C400074648D0254E264BDFF898A0F61AF60810
:10B6D400360446F001064FF001094A466B4608213C
:10B6E400384601F0A1F909F101091FFA89F9054663
:10B6F40060BB01990A46032342F8043B06314046E5
:10B70400FFF7A2FF044648B93A460821384601F03B
:10B714004FFA0446204602B0BDE8F0870C2813D047
:10B72400052800D12C460821384601F0EFF940B134
:10B73400FCF79CFF3A46034651463046FEF785FC2B
:10B744000324002DC9D1E5E70125ECE7072814BF40
:10B7540004460C24DEE743F20204DBE70CF90200A2
:10B7640074F802008C0603002DE9F341054600F04D
:10B774000BF94FF6FF73984222D100240326274683
:10B784004FF001083346224639462846FFF75AFF50
:10B7940004282BD0082830D00B2828D116F0020317
:10B7A40019D1E7B9FCB91648164B17491B1ADB081F
:10B7B4001B042A4643F00100FEF73EFC0B2019E06F
:10B7C4006A46082101F02CF90028D6D1019B9C88F7
:10B7D4001E689F1DD4E701264FF00008D2E7032618
:10B7E4001C461F46F8E703263C46F5E71120B8F14E
:10B7F400000FE3D002B0BDE8F0810020F7E700BFFE
:10B8040074F802000CF902000B0703001FB50DF1D8
:10B814000703039300F0B8F802AA012101F000F92C
:10B8240020B9039B187805B05DF804FB0020FAE703
:10B8340070B505461048FFF709FF70B90E4C43F286
:10B84400030621884FF6FF722846FFF7F9FEB0423F
:10B8540011D1238801332380F3E7FCF707FF074B5B
:10B864000749024607481B1ADB081B0443F0010082
:10B87400FEF7E2FB032070BDE04E00200CF902004D
:10B884008307030074F8020013B5074A044692E8DC
:10B8940003006B4683E8030000221946204600F0AB
:10B8A400F3FE02B010BD00BFEC07030046DF704793
:10B8B400421E00F10F0312F8010F10B99A42FAD197
:10B8C40070470120704708B570B171B103780A78E8
:10B8D400534013F0FE0F08D106220131013002F06B
:10B8E4002CFCB0FA80F0400908BD0020FCE72DE9EB
:10B8F400F04700F101084F1C06460D4600F11109FE
:10B9040001F1110A10223946404602F016FC0446A1
:10B91400D0B94046FFF7CCFF18B13846FFF7C8FF4F
:10B92400044651464846FFF7CEFF737C03F0FC0300
:10B93400042B05D06B7C03F0FC03042B18BF0446D6
:10B9440004F00100BDE8F0870024EAE730B585B0D3
:10B9540004460D4600F062FE02AA0DF1060107201E
:10B9640000F064FE10B94FF6FF700BE0BDF806302E
:10B97400AB42F1D003992046FFF7B9FF0028EBD082
:10B98400BDF8060005B030BD132810B5044602D931
:10B994004FF6FF7010BDFFF7DDFA0028F8D00A203B
:10B9A400014B4443185BF5E7E24E0020132838B5F9
:10B9B40004460D4602D943F2020038BDFFF7CAFA25
:10B9C4000028F8D006480A2303FB040050F8023F7D
:10B9D4002B608388AB808379AB710020EDE700BFD7
:10B9E400E24E00204FF6FF7398422DE9F0410546E0
:10B9F4000CD00C4F00244FF00A0808FB04F3A6B245
:10BA0400DB5BAB4205D00134142CF6D14FF6FF7644
:10BA140004E03046FFF79EFA0028F4D03046BDE833
:10BA2400F08100BFE24E0020038843B9821C00F17C
:10BA34000A0312F8010B10B99A42FAD17047012097
:10BA4400704710B50446FFF7EFFF58B122880B8802
:10BA54009A4208D108220231A01C02F06EFBB0FA0F
:10BA640080F0400910BD0020FCE71FB5044600F03B
:10BA7400D5FD02AA0DF10601072000F0D7FD10B98B
:10BA84004FF6FF7007E0039920464631FFF7D9FFD0
:10BA940018B1BDF8060004B010BD039920462A3140
:10BAA400FFF7CFFF0028E4D0F3E7000013289FBF7F
:10BAB4000A235843014B1952704700BFE24E00203D
:10BAC40038B50546FFF78EFF0446284601F028F8EE
