:020000022000DC
:1060000000000420756302005D6302005F6302000C
:106010006163020063630200656302000000000028
:1060200000000000000000000000000067630200A4
:1060300069630200000000006B6302006D630200F0
:10604000A18802006F630200518D02006F6302009D
:106050006F6302006F630200A58B02006F63020092
:106060006F6302006F6302006F6302006F630200E0
:106070006F6302006F6302006F6302006F630200D0
:106080006F630200756C02006F6302006F630200B1
:10609000116D02006F63020075CE02006F63020093
:1060A0006F6302006F6302006F6302006F630200A0
:1060B0006F6302006F630200000000000000000038
:1060C0006F6302006F6302006F6302006F63020080
:1060D0006F6302006F6302006F6302006F63020070
:1060E0006F6302006F6302006F6302000000000034
:1060F000000000006F630200000000006F630200F8
:10610000000000000000000000000000000000008F
:10611000000000000000000000000000000000007F
:10612000000000000000000000000000000000006F
:10613000000000000000000000000000000000005F
:10614000000000000000000000000000000000004F
:10615000000000000000000000000000000000003F
:10616000000000000000000000000000000000002F
:10617000000000000000000000000000000000001F
:10618000000000000000000000000000000000000F
:1061900000000000000000000000000000000000FF
:1061A00000000000000000000000000000000000EF
:1061B00000000000000000000000000000000000DF
:1061C00000000000000000000000000000000000CF
:1061D00000000000000000000000000000000000BF
:1061E00000000000000000000000000000000000AF
:1061F000000000000000000000000000000000009F
:10620000354936480A1A02D0072291438D4634494F
:1062100034480A1A06D00722914381F309880222E2
:1062200082F3148830483149314A00F044F831484B
:106230003149324A00F03FF831483249324A00F0E1
:106240003AF832483249334A00F035F83248334997
:10625000334A00F030F833483349344A00F02BF821
:1062600033483449344A00F026F83448344900228F
:1062700000F02CF833483449002200F027F8334866
:106280003349091A082902DB002202604160314AC1
:1062900090471F481F49884205D00268043003B464
:1062A000904703BCF7E700208646EC46002000211B
:1062B000294A9047FEE7884207D0521A05D0037852
:1062C00001300B700131013AF9D17047884202D098
:1062D00002700130FAE770470000042000E003205C
:1062E000000004200000042070F00200542200206E
:1062F00074220020D4630200D4630200EAD20200B8
:1063000070F0020054220020542200204CD40200DD
:106310004CD402004CD402004CD402004CD40200F5
:106320004CD402004CD402004CD4020070F00200A5
:1063300090F00200742200207422002074220020B9
:1063400094300020943000209430002094300020BD
:10635000945000209D630200FD930200FEE7FEE7DB
:10636000FEE7FEE7FEE7FEE7FEE7FEE7FEE7FEE705
:10637000704700BF1048804710484FF0070188431E
:1063800085460F4880470F48016841F4700101605D
:10639000BFF34F8FBFF36F8FFFF732BF0A480B4930
:1063A0000B4A884207D0521A05D0037801300B708F
:1063B0000131013AF9D170477163020000000420F5
:1063C0006185020088ED00E038D402004022002000
:0463D0005422002033
:1063D4007047037813F0040216D003F00303012B73
:1063E40003D0022B09D0012070470A6800880232CA
:1063F400C0F3831002440A60F5E70B684288023355
:1064040003EB92130B60EEE7104670472DE9F04F53
:1064140087B000230446861C0DF107000F4615467D
:106424008DF8073000F06AFE454801683960D0E90C
:106434000132134401335B1A824600F21C4700F513
:10644400836900F21448B3421CD30020002D73D09A
:1064540004F00F039B0143F0050363F30F00DAF824
:106464000020DAF808301340033316444AF82300B6
:106474009DF80700CAF8006000F064FE012007B030
:10648400BDE8F08F0121384601F0CAFC484601F00E
:10649400DFFC404601F0DCFCDAF80400DAF808B06E
:1064A400029000EA0B0003300AEB800002A9FFF718
:1064B40090FF029B50BB0BEA03020AEB820203F13A
:1064C400020CD2680392013303EA0B0B0AEB8B0B29
:1064D40002F00302012ADBF80C10CDF808C023D027
:1064E400022A16D08346404601F0B5FC10B1029B47
:1064F400CAF804305946384601F092FCDAE901231F
:106504001344DAF8002001339B1A9CE70BEA0300DA
:10651400C9E7BDF80E30C3F3891303334FEA114BB7
:106524000CEB93030293DEE7BDF80C30C3F3831343
:106534004FEA114B6344F5E7A40544F006008EE7E7
:10654400442300200B4B0C48FF2210B59A60002214
:10655400C3F81824C3E90022C3F8142483F82024C0
:1065640001F001FF044610B9044801F09FFF2046E2
:1065740010BD00BF4423002074D3020064D4020081
:10658400034BD3E90030C31A58425841704700BF47
:10659400442300202DE9F04387B0FFF7F1FF0646BE
:1065A400002840F0F9807D4DC5F81804BFF34F8FE3
:1065B4006B68AC6802932340033305EB830002A9A4
:1065C400FFF707FF029B18B1D5F81824002A5FD003
:1065D40004EA0302991C013305EB8202234005EB14
:1065E4008303D268DB68049302F00303022B039253
:1065F400029160D1BDF80E306948C3F38917502F5A
:10660400B84628BF4FF0500868F38F1308F108010B
:10661400ADF80E3001F0BFFE0646002800F0A7805A
:1066240001F0E8FE0023082203A9304601F0F5FE3C
:10663400029924EA01020132B8EB820F4FEA820385
:1066440032D95FFA88F85BB32140DCB2A8EB0408C6
:1066540003315FFA88F9A046524C05EB8101082307
:106664004246304601F0D9FE34B108F108034A46E7
:106674002146304601F0D1FE029B033703EB970716
:106684000297D5F81834002B49D1D5F8104459E0B5
:106694002A689A428FD86A60304607B0BDE8F08312
:1066A40040491C469946DAE70C40E11C082342465F
:1066B40005EB8101DDE7012B59D1BDF80C303848D9
:1066C400C3F38311062928BF062161F3891302311C
:1066D4008900ADF80C3001F05EFE0646002846D075
:1066E40001F088FE0023082203A9304601F095FE3C
:1066F4000027BDF80C20C2F38312BB00974203F1BC
:106704000803BED202994A1C21400331029205EBD0
:1067140081010422304601F080FE0137E9E730466A
:1067240001F06CFEFFF72CFF80F00100C6B2B3E766
:10673400E3685B7923B1236831461B682046984798
:10674400E3681C68002CF3D1304601F057FE0DF1CC
:1067540007008DF8074000F0D1FCD5F818340BB9C8
:10676400029B6B609DF8070000F0ECFCDAE7D5F8BB
:10677400104454B90C4B0D480D49C01AC00800040C
:1067840040F0020000F062F8CCE7236820469B68E2
:106794009847E3681C68ECE700267DE74423002063
:1067A40074D302005023002088D30200B0D3020027
:1067B4004CD402002DE9F74F224D04460F46924671
:1067C40001A901221846D5F808909B46FFF71EFE42
:1067D40020B3019E4FF00008B21CD84508EB02011B
:1067E40026D11948002101F0D4FA80F310000004E6
:1067F40040EA1440E400731C04F0380403EA09037B
:1068040006EA090644F0010405EB8303033644EA6F
:10681400881444EA8724D86045F8264095F8203443
:106824001BB1FFF7B7FE0028FBD103B0BDE8F08F22
:1068340009EA010105EB81015AF82830CB6008F11F
:106844000108CAE7442300206027002000231A46D9
:10685400FFF7B0BF07B50123019201AAFFF7AAFF12
:1068640003B05DF804FB07B5CDE9002302236A46B3
:10687400FFF7A0FF03B05DF804FB1FB5CDE90123CA
:10688400069B039301AA0323FFF794FF05B05DF869
:1068940004FB0000094A38B50123D2F8104482F8F9
:1068A40020341D4604B938BDE3685D712368204671
:1068B4005B689847E3681C68F4E700BF4423002042
:1068C4002DE9F04F364E87B04FF00009354B1B7859
:1068D4005FFA89F5AB4202D807B0BDE8F08F324BBE
:1068E400D3F800A01AF835000124D6E9001EA0F15F
:1068F4002002C0F1200304FA02F224FA03F3134342
:1069040004FA00FC059301EA0C030093059B0EEACC
:1069140003030193DDE9002313430AEBC50B3BD0CA
:10692400059B21EA0C012EEA0303C6E9001302F0D9
:1069340029F901461AF835001C4DA0F12002C0F1D6
:10694400200304FA02F224FA03F31343D5E900C244
:106954008440134004EA0C040393A0F12002C0F124
:10696400200321FA03F3029401FA02F848EA030827
:10697400DDE9023401FA00F7444508BFBB420BD1FC
:10698400DBF8043043B19BF80120541E624262419B
:10699400551A69426941984709F1010996E700BF10
:1069A4003028002000280020382800202828002033
:1069B400F8B506461E4800F091FBC0BB0125A6F1C0
:1069C4002004C6F1200325FA03F305FA04F41C435A
:1069D400184BD3E900C2B5400CEA050002EA0401F1
:1069E40001431F461DD1304602F0CCF8124BD3E9C7
:1069F400001288B129432243C3E90012D7E90023D6
:106A04001C430E4B0A4819681543C7E90054002279
:106A1400BDE8F84000F01ABB21EA050122EA0402AD
:106A2400EAE72CEA050522EA0404C3E90054F8BDA8
:106A340008280020302800202828002004280020CE
:106A4400042A2DE9F34105460C46164639D901F0CE
:106A5400C9FFD8B11C4B1D491D601D4BDFF8848054
:106A64001C701C4B00221E600023C1E900231A493C
:106A7400C1E90023013CE4B200260327FF2C0CD11A
:106A8400164A1748002100F0CFFA03E001F070FF26
:106A94000028DFD002B0BDE8F08105EBC40315F88F
:106AA40034009B788DF80660424601A98DF8047085
:106AB4008DF8053001F0A0FF013CE4B20028DDD0E0
:106AC400E8E70720E6E700BF382800202828002050
:106AD400002800200428002030280020C568020077
:106AE40070D40200B569020070B5084D084E002448
:106AF4002B789C4201D3002070BD3368012113F828
:106B0400340001F0F5FF0134F2E700BF0028002053
:106B1400382800201FB50021039001AA44F2010087
:106B2400CDE9011100F004F805B05DF804FB0000A4
:106B340010B572B6FFF7AEFEFFF72CFD0028FBD1AF
:106B4400104B114C1149E41AE408240444F00100E8
:106B5400FFF77CFE0E4B1B68DB0700D500BE0D491A
:106B640044F00200FFF772FEBFF34F8F0A490B4B4C
:106B7400CA6802F4E0621343CB60BFF34F8F00BFD7
:106B8400FDE700BF88D30200B0D3020074D4020032
:106B9400F0ED00E080D4020000ED00E00400FA050E
:106BA400094A537891780133DBB2994208BF002334
:106BB400117899421FBF03705078182303FB0020FB
:106BC40014BF0430002070473C28002073B50546EC
:106BD40000240DF107000E468DF8074000F08EFAF0
:106BE4000DF10600FFF7DCFF90B10670094B9DF82C
:106BF400062045605A709DF8070000F0A3FA24B9F6
:106C0400054B4FF48012C3F80021204602B070BD3A
:106C14000424F0E73C28002000E100E0024B4FF49C
:106C24003C6043F00103184790D4020038B50C4B84
:106C34000C4C4FF40032C3F8802001254FF480330C
:106C4400C4F84833C4F808336560FFF7E7FF064B20
:106C5400A56000241C60FFF7E1FF044B1C7038BDE5
:106C640000E100E0001001405829002049290020DB
:106C7400F8B51F4B1F491B680025C1F84051C1F8E6
:106C84004451C1F84851C1F84C51C1F80051C1F800
:106C940004514BB3D1F8044517490968641A24F028
:106CA4007F442F461A68A24209D8A41A15441A7CB4
:106CB400DE691AB1D3E905201F749047AEB90F4AB3
:106CC4000F4B11781B788B4205D10133DBB2022BB9
:106CD40008BF0023137012780A4B43F822500A4B62
:106CE4004FF48012C3F80021F8BD3346DAE700BF41
:106CF4005C2900200010014058290020552900205B
:106D0400542900204C29002000E100E02DE9F04F37
:106D1400A24AA34913780978A24D994285B03CD080
:106D24000133DBB2022B08BF002313709E49127893
:106D34009E4B0F6853F822003B1823F07F43002238
:106D44000B602B6816461446944613B942B12B6067
:106D540006E0196881420ED902B12B60091A196044
:106D640001272B68DFF84CA201934FF00008BEB94D
:106D7400DFF848B262E0401A0C44D968D3F81CE04A
:106D8400C3F800C031B13A1922F07F42C3E90121AE
:106D9400DE611E4673460122D7E700263746E0E748
:106DA4003446F669804A63681268DFF814C2A06842
:106DB400991A21F07F41614500F2A88001442160C5
:106DC400012222742A680023C4E90133E361002A02
:106DD40040F0A5802C60CAE79BF802105A1CD2B27E
:106DE40091428BF8002004BF00228BF80020182267
:106DF40002FB03B32A6819799C68022977D0032916
:106E040000F08180012919D1207CB8B9D3E903129B
:106E1400A2605A69E2609A69654BA2611B78002BF3
:106E24000CBF0B4603466360BCE78C4200F09480C1
:106E34008946C9690029F8D1002323749BF80030DE
:106E44009BF801209A42C7D12B68B8F1000F04D1F6
:106E5400019A9A4201D1002F43D0002B79D0D3F864
:106E640000A0544D504BD5F804751C68DFF85481CC
:106E74003E1B98F8003026F07F4603369BB94FF44A
:106E84008033C5F84433C5F804334B4B4FF4003218
:106E94004FF00109C3F880211A60C5F80090FFF78C
:106EA400BDFE88F80090B2452CBF5444A41924F0C8
:106EB4007F44C5F84045D5F80435DB1B23F07F43F8
:106EC400E41B033324F07F44A3420AD9D5F80435E4
:106ED400C5F84035FFF7A2FE374B4FF40032C3F834
:106EE4000021334B00221A7005B0BDE8F08F114623
:106EF40091469FE71174D2690123002AFAD1002B2D
:106F04009CD02A609AE700231946F6E7D31A23F0A7
:106F14007F43834234BFC31A0023236050E72168B0
:106F24001368994213D8591A1160E26152E7091A99
:106F3400D8691A4638B1034618688842F7D3401A0C
:106F44001860184613462160E061DC610FE71346C0
:106F5400F2E7FFF76BFEC4E74C4511D1D3692B6010
:106F640073B9DFF844E00120CDE90212CAF8080041
:106F7400CEF800300E4B1870FFF750FEDDE9021218
:106F84000B68C969C9F81C1011B1086803440B6087
:106F94002B68934218BF4FF001084DE75429002095
:106FA400552900205C290020582900204C29002064
:106FB400482900200010014000E100E03C280020A6
:106FC400FEFF7F004929002008B5FFF72FFE104B74
:106FD40000200B2218809A700E4B18600E4B18700C
:106FE4000E4B18700E4B4FF48012C021C3F8802151
:106FF40083F814131A6002F18042A2F56F22C2F8DA
:10700400080583F81113074BD2F804251A6008BD4C
:107014003C2800205C290020542900205529002008
:1070240000E100E058290020074B9B784BB132B1B6
:1070340028B10368187C20B959745A617047072035
:1070440070470820704700BF3C2800202DE9F74313
:10705400DFF8848098F8023005460E461746ABB335
:10706400A0B3042930D9436983B3437C0024012BA2
:107074000DF107000CBF8946A1468DF8074000F0CA
:107084003DF80DF10600FFF78BFDD8B10123037025
:107094000F4B4560D3F80435C0E90497C0E90236C4
:1070A4009DF8063088F801309DF8070000F04AF892
:1070B40024B9084B4FF48012C3F80021204603B0D2
:1070C400BDE8F0830424EFE70724F7E70824F5E795
:1070D4000010014000E100E03C280020064A9278BC
:1070E4003AB130B1426922B1002202740221FFF7A1
:1070F4006DBD0820704700BF3C28002070B5EFF339
:10710400108672B60C4A946801239CB993600B4BA9
:107114000B4DD3F8801029401160C3F88050D3F888
:10712400841051604FF0FF32C3F88420047006B914
:1071340062B670BD0370FAE76029002000E100E048
:10714400FC06FFBD084B9A6810B55AB150B9EFF36D
:10715400108172B6054A1C6814605C6854609860BB
:1071640001B962B610BD00BF6029002000E100E053
:1071740070B5064D0646002455F8043B0BB1304665
:1071840098470134042CF7D170BD00BF7829002042
:10719400033080B240F2FD33984230B51FD8124B11
:1071A4001A783AB91C895D892C440444A4B2B4F514
:1071B400806F0AD31A7DA2B99A8BDC8B22440244D5
:1071C40092B2B2F5806F0CD201220A8014461422C6
:1071D40002FB04335A8910445881002030BD092031
:1071E400FCE70720FAE700BFAC2900200B4A0C4B50
:1071F4005188142000FB0131CB6833B9042049685D
:1072040010700122074800F015BF074905231370C9
:1072140002238B80012209680023F3E790290020D0
:10722400AC29002040220020E829002007B50023D3
:1072340005490093054A09680548082300F064FEDF
:1072440003B05DF804FB00BFE8290020A4D40200C9
:107254004022002007B5002301460093034A044856
:10726400082300F051FE03B05DF804FB9CD4020037
:107274004022002013B500230C4600930146084A1F
:107284000848042300F040FE38B90749142303FBDF
:1072940004140123237402B010BD0E20FBE700BFC9
:1072A40098D4020040220020AC29002037B50A48B7
:1072B4000A4B42689C881968538803250333057078
:1072C4009BB2002000909B0001EB8401044800F075
:1072D4001BFE03B030BD00BF90290020E829002028
:1072E4004022002010B50146044800F086FC1C2210
:1072F4000446002105F094FF204610BDD429002047
:107304004388033300EB8303994209D382884FF601
:10731400FF739A4206D00088B0FA80F040097047A3
:10732400022070470120704738B5144B14220D46D3
:1073340002FB00302B68446804F58051A3B15C88DB
:10734400033403EB84048C4215D22368013312D036
:107354002046FFF7D5FF012808D002280BD00028CB
:10736400F1D12C60012038BD0834ECE76388033385
:1073740004EB8304E7E70020F5E700BFAC29002015
:10738400426873B504460D4662B3234BD9688A42FA
:1073940028D31B699A4225D812F0030322D11F492E
:1073A4000089098988421DD120689168884219D1D1
:1073B4001B494868824203D900F5805082420DD3AC
:1073C40089698A420CD901F580518A4208D2012286
:1073D4002A80B3FA83F0400902B070BD1A46F7E779
:1073E4000A23F6E700232B801E460196288801A96C
:1073F400FFF79AFF30B92B8801339BB2012B2B8006
:10740400F3D9E9E7019B226899689142EED1636060
:10741400024B1B892381DFE74022002090290020B2
:10742400AC2900202DE9F8431C461C4B1B7806466A
:107434000F4615466BB372B36CB3DFF868804FF038
:107444001409A388012B01D90A2020E009FB03F3C6
:1074540018F803302BB9A0882146FFF765FF20B93F
:107464002060A3880133A380EBE723681EB19988C9
:1074740032889142EFD11FB119883A889142EAD1FA
:107484009A68C5E90023064B1B892B810020BDE8BF
:10749400F8830220FBE70520F9E700BF88290020D4
:1074A40090290020AC29002008B5074B5888191DE5
:1074B400FFF73AFF18B1BDE80840FFF7F7BEBDE893
:1074C4000840FFF793BE00BF902900202DE9F04F3C
:1074D400A14FDFF8A89289B00646B8463B6823B9A5
:1074E4009E48494600F0C3FB3860D8F8005029781C
:1074F4004B1E052B07D8DFE813F021007900790033
:10750400090109015E010F241422002103A805F0DA
:1075140087FE41F61D539C4208BF0024D8F8003072
:1075240004941A78013A052A00F2EF81DFE812F098
:10753400DB01DF01FF010F021B02250226B1884B8C
:1075440000225A600124DFE72B79032B1DD8DFE8E2
:1075540003F015022A3583490B78022B084619D00B
:107564000B7D022B4FF0010316D114225343C21892
:107574000020C8545068FFF76DFE03E001232B710F
:10758400FFF754FE002800F0BC80754B00225A60BF
:107594000E24B9E70023E8E7714A1370002353600F
:1075A40041F61D54B0E770497048002302222B7144
:1075B4008A800968012200F03DFDE3E76A4C002659
:1075C4002E712068674DFFF745FE694BD4F800C063
:1075D4005A8814235343EA18EE5451682160A18851
:1075E400C2F804C011810222A280CBE7B5F814A02E
:1075F400AA7DDFF870B1AEB1022AEB8806D9142156
:1076040001FB0AB1DA1C088902440A81142202FB34
:107614000ABAC3F57F43BAF80A20FD331344AAF823
:107624000A308FE7142303FB0AB318895C6804EB60
:107634008004062A68D8DFE802F0274D35431D5937
:10764400040041F61D54AA7DEB88022A06D91421B0
:1076540001FB0AB1DA1C088902440A81142202FBE4
:107664000ABAC3F57F43BAF80A20FD331344AAF8D3
:107674000A3049E73F48404900234360AB6903604F
:10768400FFF77EFE002859D00223AB750023009338
:107694000423EA182146354800F036FC002830D08F
:1076A4000E24D0E72B69002B14BF03230123AB75F1
:1076B4000023009305F10C02042304F10801EAE716
:1076C4000123AB750022EB8800922A699B0004F128
:1076D4000C01E0E703290CBF05230623AB75002347
:1076E4000093042305F10802E118D4E70623AB75DF
:1076F400214B19881F4B5868FFF7BCFD044600282E
:10770400A1D109B0BDE8F08F0F249CE7002E7FF4CF
:1077140019AF2B79012B33D0022B3FF441AF002B4F
:107724007FF4F1AE02232B710DF10A01EB68039390
:1077340003A8CDE90466FFF723FE08B90A24E3E6AB
:107744000498BDF80A108388EB8003882B81FFF727
:1077540091FD044625E000BFA8290020D42900207B
:1077640088290020AC290020E8290020402200209C
:10777400902900206C290020F0290020A029002055
:107784007F4B03AA3146A81DFFF74CFE7C4B0446F1
:1077940058B999880498FFF76DFD04460A2C3FF404
:1077A400FFAE002C7FF4B0AEABE70822314618469A
:1077B40005F036FDF2E7002E7FF4C4AE714B1A7B60
:1077C400B2B11E731A78013A062A3FF69CAE01A1A3
:1077D40051F822F07F780200A5780200C3780200F5
:1077E400C97802000B750200CF780200E17802002C
:1077F4001A78072AE6D801A151F822F0217802006C
:10780400C9770200C9770200477802005B7802005A
:107814007B7802007B780200437802001A895A4977
:1078240001321A8100225A801A730A78B2FA82F25B
:1078340052099A720A7DB2FA82F25209DA7201226C
:1078440007E0524958688A884088033202448A8093
:1078540002221A70B6E74C4C5A884C49142505FB91
:1078640002420868546850608888108102228A8025
:107874000C600622EDE70722EBE79A7A32B9DA7A4E
:107884008AB900221A705A805A6089E63E49002259
:107894009A72CA68002AF2D1097C0029EFD05A8072
:1078A400FFF702FE55E70022DA72374A116A00290F
:1078B400E7D192F82420002AE3D00122EFE7FFF772
:1078C400F5FC46E7FFF792FC43E72F4A5B88142157
:1078D40001FB03235868FFF7BDFC3AE700225A6016
:1078E400FFF7A4FC35E700238DF80C300DE00122EE
:1078F4008DF80C201A89ADF818209A88DB68059356
:10790400ADF81A2000238DF81C3003A8FFF730FCD3
:10791400002649461E48C8F8006000F0D3F91D4807
:10792400012100F089FA00287FF4D8ADE9E60222AB
:107934008DF80C201A89ADF818209A88ADF81A2011
:10794400DA689B7D05929A1F53425341DBE7032279
:107954008DF80C20DA88ADF818201A89DB68ADF8A8
:107964001A200593D1E704228DF80C20DB88ADF8AA
:1079740018300023ADF81A30F3E70523B4E700BF4D
:10798400F429002090290020AC290020E8290020B7
:10799400D4290020E42900204068FFF797BD0000A7
:1079A40008B50548012100F02FFA18B9BDE80840D0
:1079B400FFF78CBD08BD00BFE42900202DE9F34189
:1079C4009846354B1B7806460D46002B5BD00029A4
:1079D4005BD009884FF6FF73994258D06B88002B0F
:1079E40055D06B689B0754D14AB92F890DF1020118
:1079F4003846FFF7CDFB30B102B0BDE8F081138803
:107A04005788ADF8023001A8FFF76CFC044658B95A
:107A1400BDF80230214A142101FB0323588903389D
:107A2400C01B58810820E7E780F800800023837595
:107A3400BDF8023083826B6803610121184800F0AD
:107A4400EFF92B882381B8F1030F6B88A38004BF5F
:107A54000423A3754FF0000508BF3368E06008BF36
:107A6400A3611048E780658101A900F0F0F836B100
:107A7400E36833600C4B75601B89B5723381FFF783
:107A84008FFF0020B8E70220B6E70520B4E7042002
:107A9400B2E70320B0E700BF88290020AC2900200A
:107AA400A4290020D42900209029002073B50D4674
:107AB4000446C8B1C1B10DF10601FFF761FCA8B1DC
:107AC4000B4BBDF806006668142202FB003001214E
:107AD4000C3000F0A5F963682E600C336B60012351
:107AE400A372002002B070BD0520FBE70A20F9E76D
:107AF400AC29002013B50446A8B10DF10601FFF727
:107B04003FFC90B10B4ABDF80630142101FB03235E
:107B1400DA6862B1A27A52B1DA680020013ADA6016
:107B2400A07202B010BD0520FBE70A20F9E7062089
:107B3400F7E700BFAC29002002230022FFF73EBF75
:107B440018B103230022FFF739BF05207047000056
:107B5400104B1B7813B50446ABB14FF6FF73984234
:107B640013D001A8FFF7BEFB88B1052303700123DE
:107B74000371C48001A9084800F069F8FFF710FFF9
:107B8400002002B010BD0220FBE70420F9E7082022
:107B9400F7E700BF88290020D429002007B5ADF8F5
:107BA4000600ADF804100DF1060001A9FFF73AFC38
:107BB40003B05DF804FB07B51346ADF806000A46AA
:107BC40000200DF10601FFF72DFC03B05DF804FB66
:107BD40007B51346ADF806000A460DF1060000216C
:107BE400FFF720FC03B05DF804FB20B119B1036872
:107BF4000B60002070470520704737B550E8013FFF
:107C04009DB2C48925448489A54228BF2D1B0489BB
:107C1400A54202BFBFF32F8F002207E0C5EA030588
:107C240040E80154002CE9D14FF001028DF8032003
:107C34000193019B9DF803200B6002F0FF0322B126
:107C44000B880068184403B030BD1846FBE70A8867
:107C54004B889A4209D150E8012FC2EA024240E817
:107C64000123002BF7D1012070470020704737B55E
:107C740050E8023F1FFAA3F5C488A54202BFBFF330
:107C84002F8F00220DE0C48925448489A54228BF92
:107C94002D1BC3EA054540E80254002CE8D14FF0FF
:107CA40001028DF803200193019B9DF803200B60D2
:107CB40002F0FF0322B14B880068184403B030BDC2
:107CC4001846FBE70A884B889A4209D150E8022FEC
:107CD400C2EA224240E80223002BF7D10120704778
:107CE4000020704701F01F024B090121914000EB75
:107CF400830000F065B84B0910B501F01F040121A1
:107D0400A14000EB830000F04FF8E04000F00100D8
:107D140010BD01F01F0301229A404B0900EB8300C0
:107D2400D14300F065B84B0901F01F0150F823005E
:107D3400C84000F0010070472DE9F0474F1E7F094D
:107D440080460E460137002558F8254008EB850982
:107D5400E44394FAA4F4B4FA84F44FEA451A202CC8
:107D640006D10135AF42EFD834462046BDE8F0874E
:107D74005444A642F5D921464046FFF7BCFF0028EB
:107D8400F3D0D9F80040E44394FAA4F4B4FA84F4A8
:107D9400E5E710B5034653E8000F0A4643E800241C
:107DA40094F0000FF7D110BD10B5034653E8000F4F
:107DB40040EA010243E8002494F0000FF6D110BD1C
:107DC40010B5034653E8002F42EA010043E80004DB
:107DD40094F0000FF6D110BD10B5034653E8000F20
:107DE40000EA010243E8002494F0000FF6D110BD2C
:107DF40010B5034653E8002F02EA010043E80004EB
:107E040094F0000FF6D110BD10B5034653E8000FEF
:107E140000EB010243E8002494F0000FF6D110BDFA
:107E240010B5034653E8002F02EB010043E80004B9
:107E340094F0000FF6D110BD10B5034653E8002F9F
:107E4400A2EB010043E8000494F0000FF6D110BD4A
:107E54000121FFF7B5BF0021FFF7BEBF10B590B1F8
:107E6400D0E9012301689B1ADBB20A60013BDBB253
:107E7400FF2B026802D10020107110BD11684C1C48
:107E840014600B70F2E70E20F7E737B505460024BF
:107E94000DF107008DF80740FFF730F92A686B6889
:107EA400116899420ED9481E106011F8014CEB6814
:107EB400298A01FB0434AB6811791B1ADBB299429D
:107EC40038BF13719DF80700FFF73CF9204603B053
:107ED40030BD37B5054600230DF107000C468DF87B
:107EE4000730FFF70BF92A681368591C1160E96819
:107EF400641A298AB4FBF1F41C709DF80700FFF79B
:107F040021F903B030BD00002DE9F34188B93D4BA0
:107F14003D483E4AC01AC0080E243D4B009400045C
:107F24003C4940F00100FEF7A8FC204602B0BDE841
:107F3400F0814AB9334B3448374AC01AC0080E247A
:107F4400334B00940004EBE7D0F800E0BEF1000FDF
:107F540009D12C4B2C48314AC01AC00808242C4B98
:107F640000940004DCE74BB9264B27482C4AC01A7E
:107F7400C0080924264B00940004D1E74568D5F8CD
:107F84000480B3FBF8F508FB15354DB11D4B1E48B5
:107F9400244AC01AC00809241D4B00940004BFE7FA
:107FA4008D0709D0174B18481F4AC01AC00810245F
:107FB400174B00940004B3E712F0030F09D0114BE0
:107FC40011481A4AC01AC0081024114B0094000426
:107FD400A6E7C568A9420BD34D1EEC180569AC424F
:107FE40006D8DEF80C40A44602B0BDE8F041604774
:107FF400044B05480E4AC01AC0081024044B0094D0
:1080040000048DE788D30200C8D30200ACD4020078
:1080140042D60200B1D402002ED50200DAD4020006
:10802400EDD4020034D502005ED5020076D50200FC
:1080340099D50200F7B580B92A4B2B482B4AC01AB0
:10804400C0080E242A4B009400042A4940F0010081
:10805400FEF713FC204603B0F0BDD0F800C0BCF11D
:10806400000F09D11F4B2048234AC01AC008082416
:108074001F4B00940004E8E74AB91A4B1A481F4AF8
:10808400C01AC00809241A4B00940004DDE74768AD
:10809400D7F800E00EF1FF370F4209D0114B124818
:1080A400174AC01AC0081024114B00940004CCE7EE
:1080B400C768B9420CD304694D1E0EFB0255A54294
:1080C40006D8DCF81040A44603B0BDE8F040604791
:1080D400044B05480B4AC01AC0081024044B0094F2
:1080E4000004B2E788D30200C8D30200ACD4020073
:1080F40055D60200B1D40200DAD40200EDD4020055
:10810400C0D50200E6D5020029DF704728DF70479A
:1081140070B503689E6886B004460D466EB114229D
:108124000021684605F07CF8A3680593237901953E
:108134002BB1012B0DD06846B04706B070BD0123AA
:108144008DF8003023690293E36803936369049311
:10815400F1E702238DF80030E3681B030293F5E78F
:10816400034B187A0122B0FA80F05A744009704720
:108174000C2A002070B5244C244E237A25463BB9A2
:1081840023492448FFF773FD306008B9606070BD6F
:10819400022334682B72237973B1012B24D0204637
:1081A4000321FFF7B5FF00232B726B6018491948B0
:1081B400BDE87040FFF786BDD4E90523D21AB2F5B5
:1081C400805FD4E9031028BF4FF480529208012A3B
:1081D40038BF012219441844FFF796FF50B1112803
:1081E400DDD101232B72D2E7D4E903031844FFF74E
:1081F4008DFFF3E72B7C002BC9D10146BDE870400D
:10820400022000F009B800BF0C2A0020242A002014
:10821400202A0020FC29002038B5831E012B45D8D4
:10822400234C237A002B41D0022B09D1032830D0D0
:10823400204B00221B68E2601A793AB1012A22D04D
:10824400637C7BBBBDE83840FFF794BFD3E90512DC
:108254008D1AB5F5805F94BF521902F580529A6168
:108264009142EDD102284FF0000308BF1946237252
:10827400104B18BF0D211868FFF74AFF0E490F482D
:10828400FFF720FDDCE71A6901321A615B699A4243
:10829400E7E7E3680133082B01D8E360D0E7002364
:1082A400E360DFE7BDE8384004F0B8BD38BD00BF87
:1082B4000C2A0020242A0020202A0020FC29002047
:1082C40000F0FD03012B08D1044B00225A74421E16
:1082D400504250411874FFF74DBF70470C2A0020DC
:1082E4002DE9F84FB0F806A04579D2F800B09DF812
:1082F40028900AFB05F5043D88460BEB0301A942CF
:1083040003F1040488BFA5EB030BB4FBFAF607469C
:108314000AFB1644C2F800B04EB9AAEB04055D4549
:1083240028BF5D46BBF1000F04D1BDE8F88F3F685C
:10833400013EF1E7043408EB06003C442A46B9F157
:10834400000F0DD02146ABEB050B04F040FFDA45DE
:108354002E443F6855464FF0000428BF5D46E1E7D0
:1083640001462046EFE7FFF779BDF8B546790146A7
:10837400721E0546002393422D6803D30024A642AF
:1083840002D8F8BD0133F6E70F682846FFF7A1FDD0
:1083940001343946F3E72DE9F843068ACD1C074634
:1083A400FFF773FD043E35440446B5FBF6F5F0B122
:1083B4004FF48073EDB28380C680013D076081462F
:1083C4004FF00008A84512D23846FFF75EFD064676
:1083D40048B163790133637108F10108C9F80000F9
:1083E40007608146EEE72046FFF7BFFF344620468C
:1083F400BDE8F88301210430FFF712BD10B5012157
:1084040004460430FFF718FD10F0FF0F04D1204696
:10841400BDE81040FFF7A9BF10BD1FB503920022AD
:10842400009203AAFFF75CFF05B05DF804FB41DF8F
:1084340070470000064B10B500241C70054B1C60EF
:10844400BFF35F8F0449054800F039F8204610BD9A
:10845400302A0020342A002074D60200282A002062
:1084640007B500230DF107008DF80730FEF746FE2F
:10847400F1EE103A23F09F03E1EE103ABFF35F8F61
:10848400094B4022C3F884219DF80700FEF75AFEE9
:1084940004F0D4FC20B1FFF7CAFF03B05DF804FB7D
:1084A40020BF40BF20BFF8E700E100E0836800225E
:1084B4005A60C3E904229A60DA601A6070470B6854
:1084C4004A684360934208BF0023016008BF4360C9
:1084D4007047436843B10268916852680B44934201
:1084E400436004BF002343607047000010B50D498A
:1084F400A1F59472914201D800200FE08C1AE30F89
:1085040003EBE4035B1002EBC30452F83330834201
:1085140005D802D204F10802ECE7606810BD2146D8
:10852400E8E700BF78DB020008B5FFF7DFFF024B86
:10853400002808BF184608BD3ADA0200054B1B683C
:10854400082B01BF044B1868B0FA80F0400918BF2B
:1085540000207047300100103401001008B54FF0BE
:1085640080430022C3F80C21C3F81021C3F8382536
:108574004FF0805203F54043D2F80414C3F8201599
:10858400D2F80814C3F82415D2F80C14C3F828152B
:10859400D2F81014C3F82C15D2F81414C3F83015FB
:1085A400D2F81814C3F83415D2F81C14C3F84015C3
:1085B400D2F82014C3F84415D2F82414C3F848158B
:1085C400D2F82814C3F84C15D2F82C14C3F850155B
:1085D400D2F83014C3F85415D2F83414C3F8601523
:1085E400D2F83814C3F86415D2F83C14C3F86815EB
:1085F400D2F84014C3F86C15D2F84424C3F870259B
:10860400FFF79CFF10B1384B384A1A60FFF796FF0A
:1086140018B1374BFB22C3F81825FFF78FFF48B179
:108624003449354B0A681B6822F00F0203F00F032C
:1086340013430B60FFF782FF18B1304B4FF4007205
:108644001A604FF08043D3F80024D20744BF6FF080
:108654000102C3F800242A4AD2F8883043F4700394
:10866400C2F88830BFF34F8FBFF36F8F4FF01023E2
:10867400D3F80022002A03DBD3F80432002B2FDACC
:10868400204B0122C3F80425D3F80024002AFBD090
:108694004FF010221221C2F80012D3F80024002A4D
:1086A400FBD04FF010231222C3F80422154B1A46B4
:1086B400D3F800140029FBD00021C3F80415D2F824
:1086C4000034002BFBD0BFF34F8F0D490E4BCA680B
:1086D40002F4E0621343CB60BFF34F8F00BFFDE7AA
:1086E4000A4B0B4A1A6008BD8C56004048810300AF
:1086F40000F00040E40E0040580200104096024092
:1087040000ED00E000E001400400FA0554220020DE
:108714000090D0032620704738B5074C051E04F19D
:10872400080318BF1C4623682BB11A6822605B68D3
:1087340028469847F7E738BD402A002020B9054B62
:1087440001225A70FFF7E8BF012802D1014A907054
:10875400F8E77047382A002020B9034B01225A70E9
:10876400FFF7DABF704700BF382A002038B50B4C3A
:10877400237883B90A486360A3602361E36000F04F
:1087840061F8054604F05AFB08B900F067F80123C4
:108794002370284638BD8525FBE700BF382A002012
:1087A4004187020037B50B4C00230DF107008DF80B
:1087B4000730FEF7A3FCE368013BE360E56815B905
:1087C40000F060F8A5709DF80700FEF7BBFC03B04D
:1087D40030BD00BF382A0020012813B508D0032873
:1087E4001CD018B9104B0122C3F8802002B010BD70
:1087F4000E4C00230DF107008DF80730FEF77EFCC8
:1088040023780BB9FFF7B2FFE3689DF80700013343
:10881400E3600123A370FEF795FCE7E700F01EF880
:10882400FFF7C0FFE2E700BF00E100E0382A0020C4
:1088340000F18040002382B0036003680193019B30
:1088440002B07047044A137923B901211060918062
:1088540018467047852070474C2A0020084B1A6838
:10886400D20706D4C02283F800230122C3F8802152
:108874001A604FF080430122C3F81825704700BFE7
:1088840000E100E0044B01221A604FF08042D2F86C
:108894001834DB03FBD470470C000040124B1B68F8
:1088A40010B573B14FF48070FFF7C2FF4FF08043EF
:1088B4000122C3F808230D4B587910B95A711B686B
:1088C40098470B4B1B6873B14FF48270FFF7B0FFEE
:1088D4004FF080430222C3F80823044BBDE8104044
:1088E4001B680120184710BD000100404C2A0020DD
:1088F4000401004000F1804000F5C040002382B034
:10890400036003680193019B02B0704703681F2B47
:1089140083BF03F01F03036001484FF0A04070477A
:108924000003005007B5019001A8FFF7EFFF019B7A
:1089340000EB8300D0F8003723F44033C0F800374D
:10894400D0F8003743EA0141C0F8001703B05DF8DE
:1089540004FB0000054B4FF0FF32072843F82020AA
:1089640084BFC01880F85820704700BF542A0020E4
:1089740010B5184C94F86A3053BB04F1300330211D
:10898400FF22013911F0FF0103F8012BF9D1C8B21C
:10899400FFF7E0FF01310C29F9D1062200210E482E
:1089A40004F03EFC0D4BC02283F806234022C3F89A
:1089B40080214FF4BE701A60FFF79CFF084B4FF004
:1089C4000042C3F80423012384F86A30002010BD58
:1089D4000820FCE7542A0020B82A002000E100E027
:1089E40000600040034B93F86A00003818BF012070
:1089F400704700BF542A0020F7B53B4E3318054694
:108A040093F93030002B6CDA8B78C3F34003002BDE
:108A14000BBF082400240C200820844202D1042027
:108A240003B0F0BD56F82470013743D1701946F8ED
:108A3400242080F8304013B9331983F858508B78C8
:108A44005A0717D4D80737D501A80195FFF75EFF59
:108A5400019B00EB8300D0F8003723F00203C0F839
:108A640000372248EA0805F007070123BB40875C6A
:108A74003B4383548B780A7813F0020328D0A40074
:108A840004F1804404F5C0442D02D4F8103523F4D5
:108A94004F3323F44073C4F810351204D4F810355E
:108AA40005F47C5502F4403215431D43C4F81055B7
:108AB4000020B5E70134B0E701A84A780195FFF733
:108AC40025FF019B03F5E073920040F82320C8E7DB
:108AD400083C344494F8605045EA821284F86020DB
:108AE400E6E708209CE700BF542A0020B82A0020AB
:108AF40073B5224C2618054696F93020072A1ADD4C
:108B0400224492F858309B09032B0FD1019001A8FD
:108B1400FFF7FCFE019BD0F81015D94001F00101CC
:108B240002312846FFF7FEFE02B070BD012B0CBFD8
:108B340002210321F5E7D3B2072BF5D8930003F103
:108B4400804303F5C043D3F8100540F00100C3F897
:108B5400100502F14000800080B2FFF7CBFE00292F
:108B6400E2D096F9303054F82330002BDCD00123C6
:108B740003FA02F2024BC3F80423D5E7542A002077
:108B84000060004007B5019001A8FFF7BFFE019BFC
:108B9400D0F81005D84000F0010003B05DF804FBE4
:108BA4002DE9F04F002489B0CDE90244624D4FF421
:108BB4008072012102F1804303F5C04390B21B6827
:108BC400012B06D1D5F804330B4202D0FFF792FEF5
:108BD4000C430432B2F5907F4FEA4101EAD1574B7E
:108BE4001B68012B0ED14FF4BE70FFF783FE4FF0CC
:108BF400A04344F00044D3F810350293504BD3F80B
:108C04001035039314F0FF0F1AD04E4F00250126A0
:108C1400344210D0AB0003F1804303F5C043D3F8D2
:108C24001005D3F8101557F8253023B1C1F30141CD
:108C3400C0F3052098470135082D4FEA4606E7D1D1
:108C4400002C75DA04AF002304937B604FF0FF33EC
:108C5400CDE90633DFF8EC90DFF8EC8000263546EA
:108C640018F9012B531C4AD0C2F3C2000123D4B219
:108C740002F03F0B02F0070203FA02F208AB1918E4
:108C840011F8083C13423AD009EB0B03A40993F9F9
:108C9400303059F823A0BAF1000F08D1032C2ED19B
:108CA40017F800C04CEA020C07F800C001E0032CDE
:108CB400F6D001A8CDF804B0FFF728FE019B11F807
:108CC400181C03F5E07C114250F82C00C0F301405D
:108CD40005D0022813D1032C0BD1214604E003282C
:108CE4000DD1032C05D102215846FFF71BFE013597
:108CF400EDB2BAF1000F02D021465846D0470136F2
:108D0400042EADD1A5B14FF0A0430299D3F810259C
:108D140003F540739142D3F8103502D10399994277
:108D240006D002920393049A059B0692079393E755
:108D340009B0BDE8F08F00BF006000407C610040D6
:108D440000030050542A0020B42A0020014B1B6861
:108D5400184700BFC02A0020002810B54FF00000BB
:108D640014BF03240024FFF7D5FC1F288ABF0A4B35
:108D74004FF0A04300F01F0003EB8000D0F8002761
:108D840022F44032C0F80027D0F8003743EA044305
:108D9400C0F80037002010BD0003005038B9012A84
:108DA40007D101290AD00246022909D059B1072066
:108DB40070470129F8D1054B1A7070470E22FAE763
:108DC400024B5A707047014B9A707047C82A0020B2
:108DD40010B90120FFF7C0BF0620704708B5012273
:108DE40002210020FFF7DAFF08B1072810D107227B
:108DF40002210120FFF7D2FF08B1072808D1002182
:108E04000A220846FFF7CAFF10B1072808BF00204E
:108E140008BD00000388102B10B502D0112B1ED002
:108E240010BD1A4C2168B1B901220846FFF7B6FFFC
:108E340008B1072824D1072202210120FFF7AEFF41
:108E440008B107281CD1042202210020FFF7A6FF45
:108E540008B1072814D1236801332360E0E70B4AE3
:108E64001368013B1360002BDAD1FFF7B7FF00282A
:108E7400D6D0074B1B68002BD2D0BDE81040184752
:108E8400034B1B68002BE6D09847E4E7D02A002068
:108E9400CC2A002008B50020FFF79AFF08B1062865
:108EA40006D10120FFF794FF10B1062808BF002067
:108EB40008BD75DF704776DF704778DF70477ADF6B
:108EC40070477CDF70478FDF704790DF7047B1DFFA
:108ED400704733DF704700001F2886BF054A00F043
:108EE4001F004FF0A042012303FA00F0C2F80C0562
:108EF400704700BF000300507047000010B50B78A6
:108F04001BBB4C78012C0ED0022C1FD0ECB913489B
:108F1400134B1449C01AC0080004BDE8104040F0C7
:108F24000300FDF793BC0E4B0C480F49C01AC00850
:108F3400000440F00300FDF789FC0820FFF7CCFF94
:108F44000A20FFF7C9FF094B1C7010BD0348044BEE
:108F54000749C01AC0080004DFE700BFB0D302000D
:108F640088D302009ADB0200A4DB0200D92A002085
:108F7400B0DB0200FDF7CEBD08B5064B0648002263
:108F840003211A7000F0EDFE18B1BDE80840FDF7AA
:108F9400C1BD08BDD82A0020DC2A002010B5047801
:108FA4005CB9064B3B211888FFF785FF044B1C7006
:108FB40018B1BDE81040FDF7ADBD10BD642200201E
:108FC400D82A0020FDF7A6BD00F5E0704FF0A043BD
:108FD400032243F8202070471F2886BF054A00F06B
:108FE4001F004FF0A042012303FA00F0C2F8080565
:108FF400704700BF0003005008B50C20FFF7ECFFDA
:10900400014B00221A7008BDE82D00200A4A08B559
:1090140013680133062B13600DDD0820FFF7DCFF16
:109024000A20FFF759FF0548FEF758F8BDE8084045
:109034000C20FFF751BF08BDD42A0020342D002096
:1090440008B50C20FFF7C8FF0820FFF7C5FF0A206A
:10905400FFF7C2FFFFF71EFF08B1FDF75BFDFFF747
:1090640038FF18B1BDE80840FDF754BD08BD000045
:10907400262808B517D1244B1A884FF6FF739A4255
:109084001ED0012927D1214B1B782BB12048002267
:109094004FF48031FDF7DAFF1E4800224FF480417F
:1090A400FDF7D4FF78B1BDE80840FDF733BD0A20D1
:1090B4001970FFF711FF184B1970FFF7C1FF18E083
:1090C4000129E9D0A9B108BD1A60134B1A70BDE893
:1090D4000840FFF7B5BF0029F5D10C4B1B7843B10D
:1090E4000E4B1A78002AE2D101220C201A70FFF7E5
:1090F400F3FE0B4B1A68062A4FF00002E4DC054825
:109104001A60FDF7EBFFCDE764220020D82A002087
:10911400742D0020BC2D0020D92A0020E82D002029
:10912400D42A002008B5B0B103281FD1104B114830
:109134001149C01AC008000440F00300FDF786FB83
:109144000E4800224FF48041FDF780FF70B1BDE866
:109154000840FDF7DFBC0A4B1B781BB9BDE808408B
:10916400FFF76EBFBDE80840FFF706BF08BD00BFAC
:1091740088D30200B0D30200BCDB0200342D0020EF
:10918400D92A00200388232B13B5044610D80F2BAB
:1091940016D9103B132B13D8DFE803F02314531212
:1091A40012121212121212121212126012A09175DD
:1091B400522B73D0562B00F0B2803B2B00F0A080D2
:1091C40002B010BD594B5A48227A5A49C01AC008F5
:1091D400000440F00300FDF73DFB574B00221A70DA
:1091E400EEE7524B52485549C01AC008000440F0FB
:1091F4000300FDF72BFB5248FDF770FF08B1FDF7A4
:1092040089FC0C20FFF768FE0A20FFF7E5FE4D4BB2
:10921400A1884D48198002F0B7F9474A0123137019
:109224001C4608B1FDF776FC484B49481C600022F7
:109234004FF4C031FDF70AFF0028C1D0FDF76AFCE6
:10924400BEE73A4B3A4822894249C01AC0086389AA
:10925400000440F00300FDF706FBB1E7D0E902018A
:109264006B4683E80300A0881946FFF722FE08B185
:10927400FDF750FC2D4B2E4822893749C01AC008EF
:1092840063890004E5E708220021684603F0C8FF6B
:10929400A08800226946FFF718FECDE7234B244837
:1092A4002E49C01AC008000440F00400FDF7CEFAAD
:1092B4000023A0881A461946FFF709FEBCE7037A83
:1092C400232B7FF47DAF194B19482549C01AC008D8
:1092D400000440F00400FDF7B9FA71E7134B144899
:1092E4002049C01AC008000440F00400FDF7AEFA9B
:1092F4000023A088ADF800306946FFF7E4FD9BE742
:109304000B480A4B1849C01AC008000440F0040076
:10931400FDF79CFAA0881321FFF7CDFD8CE70448E4
:10932400024B1249C01AC0080004EFE788D30200B8
:10933400B0D30200CEDB0200D82A0020EBDB02000F
:10934400342D002064220020DC2D0020682200201F
:10935400542D0020F6DB02001FDC020057DC020063
:1093640076DC0200A2DC0200B6DC0200CBDC0200E8
:1093740008B50A4B1A68012A06D100221A600C208B
:10938400BDE80840FFF7A8BD01220C201A60FFF7D2
:1093940023FEBDE808400248FDF7A0BE6822002075
:1093A400542D002008B5124B12491B784BB10B68A1
:1093B40008209BB9FFF790FD0B680A208BB9FFF7D3
:1093C4008BFD0B68012B14BF012300234FF00C000D
:1093D4000B6009D1BDE80840FFF77EBDFFF7FCFD37
:1093E400EAE7FFF7F9FDECE7BDE80840FFF7F4BD55
:1093F400D92A00206822002000B54FF40041ADB006
:109404000020FDF79FF808B1FDF784FBFCF7E0FFAF
:10941400FDF7DAFD08B1FDF77DFB794A79480121B2
:10942400FDF702FE08B1FDF775FB774A7748012185
:10943400FDF7FAFD08B1FDF76DFB754A754801218A
:10944400FDF7F2FD08B1FDF765FB734A734800218F
:10945400FDF7EAFD08B1FDF75DFB0820FFF7B4FD59
:109464000820FFF7B9FD0C20FFF7AEFD0C20FFF735
:10947400B3FD0A20FFF7A8FD0A20FFF7ADFD6848F9
:1094840040F266620121FDF7DBFA08B1FDF742FB09
:10949400FDF72AFB08B1FDF73DFBFEF7CBFF08B152
:1094A400FDF738FB03F04CFC08B1FDF733FB002358
:1094B40001A90120019303F01FFD08B1FDF72AFB68
:1094C40001A803F0CBFD08B1FDF724FB1123554897
:1094D4008DF8003003F0D7FE524982B26846FFF798
:1094E400F0FC08B1FDF716FB4FF41070FFF7E5FC34
:1094F40008B1FDF70FFB0021082201A803F090FE3C
:1095040049494FF0C87301A8CDE90113FFF7D7FC0F
:1095140008B1FDF7FFFA4548002101F0A9FE08B1A2
:10952400FDF7F8FAAC22002101A803F079FE02232A
:109534008DF8043040F201633D4AADF80630012352
:10954400ADF8143006928DF880304FF496724FF4D3
:10955400FA73CDE923233748374B2A9301A900F046
:1095640089FB08B1FDF7D6FA3248012100F07FFBF0
:10957400324B33480093694601F0F4FF08B1FDF71C
:10958400C9FA304B019301238DF808302E482F4B34
:10959400039301A900F06AF808B1FDF7BBFA1C2295
:1095A400002101A803F03CFE00234FF42032CDE952
:1095B4000132ADF812304FF470228DF81430244B80
:1095C400039206930322234B8DF8102001A80793DE
:1095D40000F00CFE08B1FDF79DFA1F4B1F4820490F
:1095E400C01AC008000440F00300FDF72FF9FFF78C
:1095F400C3FCFCF7CFFF0028FBD1FEF731FFF8E7EF
:10960400A9930200FCDC02007593020000DD020055
:109614001190020008DD0200FD8F020004DD02004B
:1096240058220020E0DC02005000A000942D00200D
:1096340060220020DC2A002029910200798F020098
:10964400DC2D0020018F0200A82D0020FD8E0200D9
:10965400A18F0200C98F020088D30200B0D3020098
:10966400ECDC0200A8DF7047ADDF704770B58B6893
:1096740003610B688AB005460C467BB3024601269B
:1096840042F8043B01A941F6030330468DF8066015
:10969400ADF80430FFF7E6FFF0B90146202202A836
:1096A40003F0BEFD42F60623ADF808309DF81530F0
:1096B400A8888DF81A6023F00A0343F00A038DF892
:1096C400153004344FF00113AA1D02A98DF8196056
:1096D4000393049400F0F9FE0AB070BD0720FBE781
:1096E40037B50D46044678B171B1082200216846A9
:1096F40003F096FD0123E188E0896A46CDE900354F
:10970400FFF7B2FF03B030BD0E20FBE713B50C46E4
:1097140009B300B30388112B09D0192B18D0102BCF
:1097240019D18388CB810023ADF804300BE0037A90
:10973400082B10D100230DF1050120468DF80430CB
:10974400FFF7CEFF38B9236801A92046984702E005
:10975400037A002BE8D002B010BD6DDF704779DFCB
:1097640070477DDF704764DF70472DE9F04F85B0A7
:1097740000250E9CBDF83CB0B4F800A0019107464A
:1097840090461E46A9463A884A450DDC45B12388D1
:10979400013BA3EB0A039BB2FF2B3AD806F80A302D
:1097A400002005B0BDE8F08F7A6852F829000390D4
:1097B40000220DF10B0103A8FFF7D5FF0028F0D11B
:1097C4009DF80B20424521D12288002D14BF002092
:1097D400022002EB0801014459451ADC3DB901326B
:1097E40092B2019B2280B3542288013222802288C3
:1097F4000DF10B01324403A8FFF7B5FF0028D0D1C7
:1098040021889DF80B200A442280012509F10109D1
:10981400B9E70C20C5E72DE9F341089FBDF8248082
:109824001546CDE90078022204461E46FFF79DFF47
:1098340050B93346102229462046CDE9087802B0B3
:10984400BDE8F041FFF791BF02B0BDE8F0812DE91A
:10985400F04F00231788138090F82D3085B006460A
:109864000D46144653B3082F01D80C2027E102A853
:10987400FFF773FF002840F0228123880822EA546E
:10988400238801339BB21B222380EA5420880130B1
:1098940080B2208006220DF10901284403F097FCD0
:1098A40023889DF8082006339BB212F0FE0218BFED
:1098B40001222380EA54238801332380B378FBB147
:1098C40023880433BB42D0D802A8FFF748FF0028FE
:1098D40040F0F58023880322EA54238801339BB2A5
:1098E40019222380EA542388BDF8082001339BB24F
:1098F400E9182380EA54120A4A7023880233238029
:10990400F2789AB12388D91CB942AED80221E9541D
:10991400238801339BB201212380E95423880B441B
:109924009BB22380EA5423880B4423807268AAB133
:109934002388D91CB94298D8022192F90020E9540D
:10994400238801339BB20A212380E95423880133FD
:109954009BB22380EA542388013323803389002B6C
:1099640040F0A180338A5BB1CDE900472B46072242
:10997400032106F11000FFF74EFF002840F09F80FE
:10998400338B5BB1CDE900472B461522142106F138
:109994001800FFF740FF002840F09180326A002A47
:1099A40040F09080D6F82480B8F1000F30D0B8F899
:1099B40004302188981C8A1C0244BA423FF655AFF1
:1099C400FE283FF652AF03336B54238801339BB216
:1099D400FF222380EA54238801339BB22380B8F802
:1099E4000020EA54E918120A4A702088023080B232
:1099F4002080B8F804205AB1D8F8081000296BD098
:109A0400284403F0E4FB2388B8F80420134423809B
:109A140096F82C30002B40F09A80307800284ED0F5
:109A24003388012B58D0228802F1020CBC453FF642
:109A34001CAF012805D17378023313449F42FFF40D
:109A440014AF023FBF1ABFB202A905EB0C00ADF878
:109A54000870FFF786FE90BB3178BDF80830022904
:109A640000F0BA8072789A4202D3BB4240F2B280CC
:109A7400012940F0B380974293B2C0F0AF80ADF8B3
:109A840008300821BDF80830FE2B3FF6EEAE2288E0
:109A94000133AB542288013292B22280A954228825
:109AA400134423800BE0CDE900472B460622022114
:109AB40006F10800FFF7AFFE00283FF453AF05B0EE
:109AC400BDE8F08FB4F800C00CF10603BB423FF6CA
:109AD400CCAE1188052901D80720F0E76FF4486E51
:109AE40001EB0E039BB24FF27D3E7345F4D95388CC
:109AF400052BF1D96FF44860181880B27045EBD982
:109B04004FF6FF70814203D0834201D09942E3D8DB
:109B1400052305F80C30238801339BB212212380DE
:109B2400E954238801339BB223801188E954E8184F
:109B3400090A4170238802339BB223805288EA5475
:109B4400E918120A4A702388023323802AE7B36A89
:109B5400002BC1D04FF000094FF00C0A4FF0160B48
:109B640096F82C305FFA89F293427FF656AFB16AC9
:109B74000AFB02F201EB0208B8F80430981CFE2834
:109B84003FF673AE208803332B54238801339BB2F2
:109B9400238005F803B0238801339BB223808A5ABB
:109BA400EA54E918120A4A702088023080B22080F0
:109BB400B8F804205AB1D8F8081000298CD02844E9
:109BC40003F005FB2388B8F804201344238009F12B
:109BD4000109C5E7092155E7BB42FBD9ADF8087077
:109BE4004FE770B5C0B14AB116880024B44203D31C
:109BF40005196D789D4208D0A14201D800200BE0E0
:109C0400055D01352C44A4B2F0E7A142F6D9A31CAA
:109C14001380005D013880B270BD13B51346002275
:109C2400ADF806200DF106020446FFF7DAFF10B185
:109C3400BDF80630E01802B010BD72DF704773DF64
:109C4400704738B5012204460D46B0F83812D0F8F2
:109C54003402FFF7E2FF00B1057004F13C0204F5A1
:109C64000D7104F15400BDE83840FFF7E6BF80F8F9
:109C740030107047F8B504460F4600296DD000280F
:109C84006BD091F87A301BB191F89830002B66D1E3
:109C94004FF0000C84F802C007F178060FCE251DA2
:109CA4000FC50FCE0FC596E8070085E8070084F8B6
:109CB40030C0D7F8A4306363D7F8A830A3634FF655
:109CC400FF7504F50D73C4F84432A4F84852072212
:109CD400614604F24A2003F0A3FA23780BB984F80E
:109CE400545094F82430002B14BFEE231F2304F1A6
:109CF4005501C4F83412A4F8383204F50E7238460B
:109D0400FFF7A5FD40BB94F82430002B14BFEE23CD
:109D14001F2304F24311C4F83C12A4F8403204F5A2
:109D2400107207F13C00FFF792FDA8B9A369A4F8EB
:109D340048304FF480730125A4F8503063692064DF
:109D4400014684F83C50636404F13C0204F154007D
:109D5400FFF773FF00B92570F8BD0E20FCE707205C
:109D6400FAE7F8B5077804460D46002F00F007819E
:109D740000F24A26817007220021304603F050FA8F
:109D8400E38813B1A378012B04D0E3794BB1A37812
:109D9400022B06D1636B9BB1012284F85122082067
:109DA4009847324604F5147112F8013F5BB99142A9
:109DB400FAD16A1E032A52D8DFE802F0070D111403
:109DC40084F85132EDE73B46F3E7A2791AB194F8EF
:109DD400242002B95BB9E2790AB1002B41D1237A7C
:109DE400002B40D1637A002B0CBF00250425636B44
:109DF400A570002B39D0033D012D36D86279A2B36A
:109E040094F852228ABB84F85422012284F8532203
:109E14000720984704F13C0518220021284603F046
:109E2400FFF9E26A0123511E994284F83C3001D9BA
:109E3400042A1ED1D3B294F8242084F851301AB1E4
:109E4400CFB1A36A84F85230A178002384F850304B
:109E540004291FD8DFE801F07B1126395D000025B5
:109E6400C5E70225C3E70325C1E7002384F853327D
:109E7400D0E70027DFE70123E4E7C4E91063C4F86F
:109E840044320223012284F83C30802384F83120B8
:109E9400A4F84830A378002B5CD1636B002B6AD103
:109EA400002067E00223002A84F8313014BF07231E
:109EB400032384F83C302369A4F848300023C4F811
:109EC4004432E36826646364E4E763696364A36912
:109ED400A4F8483012B1062384F83C306379B3B156
:109EE40094F852329BB994F8543283B1022384F823
:109EF400503004212046FFF7A4FE0028CAD10523D0
:109F040084F8313004F50D73C4F84432C2E70323F6
:109F1400F6E7E3696364236AA4F8483012B10623C0
:109F240084F83C30637983B194F852326BB994F875
:109F3400543253B1022384F8503004212046FFF7F1
:109F440080FE0028A6D10623DAE70423D8E784F8A4
:109F540031309FE7D4F844122A4604F15400FFF745
:109F64006CFE38B994F8301094F85400FFF767FE8B
:109F7400002892D0F8BD94F83100984790E7082063
:109F8400F8E70388112B10B50C460AD0262B1FD0F6
:109F9400102B05D1C37B012B02D18388A1F8483251
:109FA40010BD0022838881F85222B1F848229A42D7
:109FB400F6D10B79002BF3D101212046FFF7D1FE16
:109FC4000028EDD0A36B002BEAD0BDE81040184761
:109FD400037A013B012BE3D8897805230131B1FBD6
:109FE400F3F303EB8303C91AC9B2E6E7704775DFDD
:109FF400704776DF70477ADF70477BDF7047000079
:10A00400034B1A8882420CBF18460020704700BFD9
:10A01400082E0020024B9B6903B11847704700BF0C
:10A02400EC2D002073B585B22846FFF7E9FF0446FE
:10A0340070B1164E027A337B9A420BD200F10A01B8
:10A044002846FFF7D4FFE8B1112801D0FFF7E2FF5B
:10A0540002B070BD00230372337C43B13B21284618
:10A06400FFF7C7FF30F0080301D0FFF7D3FF736990
:10A07400002BEDD000228DF80420ADF8065001A885
:10A084009847E5E7237A01332372E1E7EC2D0020BA
:10A0940037B50B46497A0F4A71B9D2E901141D7AD2
:10A0A4000246002D18BF21465868FCF7CFFF08B1BF
:10A0B400FFF7B0FF03B030BD002119725369002BC4
:10A0C400F8D00122ADF806008DF8042001A89847C5
:10A0D400F0E700BFEC2D00204B8802889A4213D889
:10A0E40042889A4210D380888A8840F2F3139842B7
:10A0F40094BF031AC31A934206D800F2F310904295
:10A1040034BF002001207047002070470388122BC1
:10A1140070B5014659D004D8102B1ED0112B44D051
:10A1240070BD502BFCD12F4BC288DB899A42F7D1EA
:10A13400038A022BF4D186883046FFF761FF054677
:10A144000028EDD001F1120000F0BBF938BB6868BB
:10A15400FCF7C4FF0028E3D009E0C37B012BDFD167
:10A164004FF6FF70FFF74CFF054620B90420BDE809
:10A174007040FFF74FBF1C4A8E880680002303728D
:10A184001368C0F80A305368C0F80E3010310A3032
:10A19400FFF7A2FF134B6872DB89002BC0D129465D
:10A1A4003046BDE87040FFF773BF8088FFF728FF93
:10A1B40004460028B4D04068FCF790FF08B1FFF7CC
:10A1C40029FF4FF6FF732380AAE786883046FFF7FE
:10A1D40017FF05460028A3D008310A30FFF77CFF9B
:10A1E4006872DCE7EC2D00201C2E0020F8B5064632
:10A1F40048B305460FCD154F3C460FC495E80700FC
:10A2040084E807003068124C3C60B0B1FFF7F3FEFD
:10A21400C0B9326813682360536863600D480E4AFE
:10A224004FF6FF7303800D4B40F8043F0021FCF709
:10A23400FBFE002818BF032004E02046FFF7DDFEE4
:10A244000028EBD0F8BD0E20FCE700BFEC2D002069
:10A254001C2E0020082E002029A00200242E0020FD
:10A26400F7B5174601900E4691B1019C6CB10025DB
:10A274002C46294601A8FDF756FD18B13946A8B267
:10A28400B04701340135142DF3D1204603B0F0BD9D
:10A294000C46FAE773B50191019C06466CB10025A2
:10A2A4002C46294601A8FDF73EFD18B106EB4403F0
:10A2B40001349D800135142DF3D13046346002B051
:10A2C40070BD00002DE9F04703888488112B8CB001
:10A2D40005463CD01A2B3FD0102B17D1284EB3681B
:10A2E400DB43009371686846FDF782FD009901A87D
:10A2F400FFF7D0FF0DF108094FF00008019B9845C6
:10A3040007D3132C13D90420FCF704FC0CB0BDE8CC
:10A31400F08739F802AB00270137514606EB870076
:10A32400FDF7F7FC1D2FF7D108F10108E6E7154802
:10A334002146FDF7D7FC14482146FDF7D3FCEB7BFF
:10A34400012BE3D011482146FDF7CCFCDEE70D4894
:10A354002146FDF7DEFCD9E7037A0D481F2B4FEAAF
:10A364001315214606D9FDF7BDFC022D09482146E7
:10A37400EAD1EEE7FDF7CDFC06482146E9E700BF48
:10A38400442E00204C2E0020482E0020502E002069
:10A39400542E0020582E00201328014602D80248CB
:10A3A400FDF7C1BC00207047482E002007B501907E
:10A3B400FFF7F2FF019930B10448FDF7B4FC00281F
:10A3C40014BF0220012003B05DF804FB502E0020CE
:10A3D40007B50190FFF7E0FF019928B1044803B0E5
:10A3E4005DF804EBFDF79FBC03B05DF804FB00BF10
:10A3F400542E002070B50A4E054630460C46FDF733
:10A4040092FC58B12846FFF7C7FF38B106342946F5
:10A4140006EB8400BDE87040FDF785BC002070BDEC
:10A42400442E0020F8B50D4C054620460E4617462E
:10A43400FDF779FC80B12846FFF7AEFF60B1B01D8F
:10A4440004EB800029461FB1BDE8F840FDF74ABC83
:10A45400BDE8F840FDF75DBCF8BD00BF442E002008
:10A4640073B50B4D019204460E4601462846FDF78E
:10A474005AFC50B1043405EB8404019AA0683146B7
:10A4840002B0BDE87040FFF7EBBE02B070BD00BF84
:10A49400442E0020AADF7047002301380B700428E3
:10A4A40006D8DFE800F00306080A0C0011230B703D
:10A4B40070472123FBE73123F9E71223F7E722232F
:10A4C400F5E7007800F001007047F0B58B7891B0A3
:10A4D400012B0C4638BF01238DF80E3005460B883E
:10A4E400ADF80C30002116466846032202F098FEAF
:10A4F400607C6946FFF7D0FFA07C0DF10101FFF7F6
:10A50400CBFFE27B237B217D43EAC203227C43EA27
:10A5140002139DF80220002922F0190203F0190306
:10A5240014BF02210121134361F342031C220021C1
:10A5340009A88DF8023002F073FE637B13F0300F2C
:10A5440015D002AF03220021384602F069FEE07CF8
:10A554000DF10901FFF7A0FF11238DF808309DF8D4
:10A564000A300E97012262F342038DF80A30637BAE
:10A574008DF824301422A37B8DF82530002104A803
:10A5840002F04EFE03AB0493A388ADF81C30A3681D
:10A59400CDF814D01BB1E288ADF818200893A36954
:10A5A400002B31D001AF03220021384602F038FEDF
:10A5B400A3691A88ADF82C205A88ADF82E205A6861
:10A5C4000D97187B0A923946FFF766FFA3690DF1D0
:10A5D4000501587BFFF760FFA269917A137A43EA79
:10A5E400C103D17A927B43EA01139DF80610002A35
:10A5F40003F0190321F0190114BF022201220B43B5
:10A6040062F342038DF80630E36903B10C933346D9
:10A6140004AA09A92846FFF73DFF11B0F0BDA0DF49
:10A62400704710B50446408800F06CFCA0802046BA
:10A63400BDE8104001F05CBC30B587B005460C465F
:10A6440018220021684602F0EBFD072368468DF8C6
:10A654000030ADF802500294FFF7E3FF07B030BDBD
:10A6640070B586B0054618220021684602F0D8FD70
:10A674004FF6FF739D42ADF802503FD0284600F0DC
:10A6840031FB1128044633D016D8D8B10B2820D07A
:10A694002046FDF749FF1A4E1A4902461A48361A4F
:10A6A400F608360446F001002B46FCF7DCF8214698
:10A6B4002846FFF7C1FF03E043F202039842E7D1C3
:10A6C400002216E00E238DF800306846FFF7A9FF3C
:10A6D400F6E70F238DF8003009480B4B0B49C01ADD
:10A6E400C00800042A4640F00200FCF7B3F8ECE787
:10A6F4000122074B28461978FFF794FE06B070BD77
:10A70400F0D302008CDD020088D302000CDD0200CD
:10A71400C12E0020FFF7A4BF024B03491878002282
:10A72400FFF79EBEC32E002065A7020013B50422C6
:10A7340004460021684602F073FD42F6A623ADF8F4
:10A74400003001238DF80230044B1868019001AAEF
:10A7540069462046FFF763FF02B010BDACDF02007C
:10A764002DE9F0412C4D86B029780446FFF742FECE
:10A77400A846064600284CD1204600F017FB1128B5
:10A78400054633D018D8062832D0082830D0F8B17E
:10A794002846FDF7C9FE214F2149024621483F1AA8
:10A7A400FF083F0447F001002346FCF75CF8294604
:10A7B4002046FFF741FF19E043F20203984215D007
:10A7C40043F201439842E3D12046FFF749FF0DE0ED
:10A7D40031461822684602F023FD102368468DF89E
:10A7E4000030ADF80240FFF71CFF0126012205E00E
:10A7F400204600F087FB00F005FB00220A4B2046B0
:10A804001978FFF70FFE98F8001032462046FFF73C
:10A8140009FE06B0BDE8F081C42E0020F0D302008A
:10A82400DDDD020088D30200C32E002013B50446E8
:10A8340000F068FB00236A46092100F07DFF05282B
:10A8440005D1044B012219782046FFF7EBFD02B035
:10A8540010BD00BFC02E002008B5084B0849187869
:10A864000022FFF7FDFD024630B9064B0649187871
:10A87400BDE80840FFF7F4BD08BD00BFC22E0020AC
:10A8840091A80200C02E002031A7020070B501215A
:10A8940086B006462A48FDF77CFA0446BFF35F8F6C
:10A8A400002849D1304600F0C1F9862805461ED05B
:10A8B40017D8A8B3112841D02846FDF735FE214CFE
:10A8C400214902462148241AE408240444F00100E2
:10A8D4003346FBF7C8FF29463046FFF7ADFE002498
:10A8E40003E043F202039842E6D122461AE02146ED
:10A8F4001822684602F094FC06238DF800301148B3
:10A90400124B1349ADF80260C01AC0080004324665
:10A9140040F00200FBF79EFF6846FFF782FEE4E783
:10A92400012402460B4B30461978FFF77BFD1CB916
:10A93400BFF35F8F024B1C6006B070BD0122F1E7CC
:10A94400BC2E0020F0D3020052DE020088D30200A5
:10A954001DDE0200C22E002038B503780446A3B9D8
:10A964004088FFF77DFE6588284600F00DFA28B17F
:10A97400064B012219782846FFF754FD6088FFF73B
:10A9840055FFBDE83840FFF767BF38BDC32E002030
:10A9940037B50378082B044630D1427A72BB057A66
:10A9A400072D1BD0082D2DD0012D27D180886A4674
:10A9B400294601F0F9F808BB019B1B78F3B1A08884
:10A9C40000F0CEFA4FF6FF73984217D0114B2A4687
:10A9D4001978FFF727FDFFF79FFE0FE0808800F04E
:10A9E400BFFA4FF6FF739842044607D00A4B012280
:10A9F4001978FFF717FD2046FFF718FFFFF72CFF24
:10AA040003B030BD054B19680129F7D1BFF35F8F3F
:10AA14001A60F3E7C32E0020C22E0020BC2E0020B3
:10AA240013B50123ADF800300923114A8DF8023023
:10AA3400104B0024A14214BF1946114601918DF810
:10AA4400034000F05FFA2246694600F0E1FE60B17F
:10AA5400FDF76AFD084B0949024609481B1ADB0841
:10AA64001B0443F00200FBF7F5FE02B010BD00BF6B
:10AA7400B0DF0200B4DF0200F0D302008FDE020078
:10AA840088D3020030B503888588522B87B00446EA
:10AA940031D00DD8352B45D0502B30D03C4B3D49CF
:10AAA40018780022FFF7DCFCFFF736FE07B030BD54
:10AAB400542BF3D118220021684602F0B1FB112374
:10AAC40028468DF80030ADF8025000F01BFAADF8BE
:10AAD400040000F097F9304B284619780022FFF75C
:10AAE400A1FC2E4B284619780022FFF79BFC6846F0
:10AAF400FFF797FDD2E72846FFF7B2FDCEE7037BC9
:10AB0400012BCBD1827A012AC8D1018942F60213E2
:10AB14009942C3D1224B28461978FFF783FCFFF7EB
:10AB24009BFEBBE71F4B002219782846FFF77AFCEF
:10AB3400E288B2F5857F0AD05AB11B481B4B1C49E9
:10AB4400C01AC008000440F00200FBF783FE002195
:10AB54001AE06289012A09D01348144B1549C01A16
:10AB6400C008000440F00200FBF774FEA289012A29
:10AB740006D00D480D4B1049C01AC0080004E2E786
:10AB8400A17B003918BF01212846FFF749FF85E75B
:10AB9400C12E002019A70200C42E0020C32E0020BD
:10ABA400C22E0020C02E0020F0D3020088D3020061
:10ABB400ECDE020026DF020060DF0200AFDF704738
:10ABC400B1DF7047B2DF7047B3DF704773B50F4B27
:10ABD4000F4C93E803006D4685E8030000222088AB
:10ABE400294600F015FE4FF6FF762388B34201D0C4
:10ABF400112801D102B070BD184600F06CFE00228D
:10AC04002946208000F004FEEFE700BF10E10200B7
:10AC1400C62E0020044B1A884FF6FF739A4201D0C7
:10AC2400FFF7D4BF704700BFC62E00202DE9F347BD
:10AC3400804600F067F94FF6FF739842074648D004
:10AC4400254E264BDFF898A0F61AF608360446F08F
:10AC540001064FF001094A466B460821384600F0C8
:10AC6400A7FF09F101091FFA89F9054660BB01999B
:10AC74000A46032342F8043B06314046FFF7A2FF8D
:10AC8400044648B93A460821384601F055F80446C6
:10AC9400204602B0BDE8F0870C2813D0052800D167
:10ACA4002C460821384600F0F5FF40B1FDF73CFC86
:10ACB4003A46034651463046FBF7D5FD0324002DA2
:10ACC400C9D1E5E70125ECE7072814BF04460C24A5
:10ACD400DEE743F20204DBE7F8D3020088D3020084
:10ACE400B8DF02002DE9F341054600F00BF94FF6F9
:10ACF400FF73984222D10024032627464FF001080F
:10AD04003346224639462846FFF75AFF04282BD0FB
:10AD1400082830D00B2828D116F0020319D1E7B93E
:10AD2400FCB91648164B17491B1ADB081B042A46A4
:10AD340043F00100FBF78EFD0B2019E06A46082161
:10AD440000F032FF0028D6D1019B9C881E689F1D0D
:10AD5400D4E701264FF00008D2E703261C461F461D
:10AD6400F8E703263C46F5E71120B8F1000FE3D0DD
:10AD740002B0BDE8F0810020F7E700BF88D30200ED
:10AD8400F8D3020037E002001FB50DF10703039367
:10AD940000F0B8F802AA012100F006FF20B9039BD5
:10ADA400187805B05DF804FB0020FAE770B5054695
:10ADB4001048FFF709FF70B90E4C43F203062188CF
:10ADC4004FF6FF722846FFF7F9FEB04211D12388EF
:10ADD40001332380F3E7FDF7A7FB074B074902463E
:10ADE40007481B1ADB081B0443F00100FBF732FD84
:10ADF400032070BDC82E0020F8D30200AFE002008B
:10AE040088D3020013B5074A044692E803006B4650
:10AE140083E8030000221946204600F0F9FC02B042
:10AE240010BD00BF18E1020046DF7047421E00F16A
:10AE34000F0312F8010F10B99A42FAD1704701209A
:10AE4400704708B570B171B103780A78534013F0B4
:10AE5400FE0F08D106220131013002F085F9B0FA63
:10AE640080F0400908BD0020FCE72DE9F04700F11F
:10AE740001084F1C06460D4600F1110901F1110AA3
:10AE840010223946404602F06FF90446D0B94046D4
:10AE9400FFF7CCFF18B13846FFF7C8FF0446514608
:10AEA4004846FFF7CEFF737C03F0FC03042B05D068
:10AEB4006B7C03F0FC03042B18BF044604F0010070
:10AEC400BDE8F0870024EAE730B585B004460D46B6
:10AED40000F068FC02AA0DF10601072000F06AFCEC
:10AEE40010B94FF6FF700BE0BDF80630AB42F1D05D
:10AEF40003992046FFF7B9FF0028EBD0BDF8060000
:10AF040005B030BD132810B5044602D94FF6FF70C2
:10AF140010BDFFF741FA0028F8D00A20014B444342
:10AF2400185BF5E7CA2E0020132838B504460D46F1
:10AF340002D943F2020038BDFFF72EFA0028F8D0F8
:10AF440006480A2303FB040050F8023F2B60838861
:10AF5400AB808379AB710020EDE700BFCA2E0020DF
:10AF64004FF6FF7398422DE9F04105460CD00C4F83
:10AF740000244FF00A0808FB04F3A6B2DB5BAB42E3
:10AF840005D00134142CF6D14FF6FF7604E0304698
:10AF9400FFF702FA0028F4D03046BDE8F08100BF84
:10AFA400CA2E0020038843B9821C00F10A0312F858
:10AFB400010B10B99A42FAD170470120704710B5BD
:10AFC4000446FFF7EFFF58B122880B889A4208D154
:10AFD40008220231A01C02F0C7F8B0FA80F0400940
:10AFE40010BD0020FCE71FB5044600F0DBFB02AAFD
:10AFF4000DF10601072000F0DDFB10B94FF6FF70DC
:10B0040007E0039920464631FFF7D9FF18B1BDF890
:10B01400060004B010BD039920462A31FFF7CFFF84
:10B024000028E4D0F3E7000013289FBF0A23584305
:10B03400014B1952704700BFCA2E002038B505468F
:10B04400FFF78EFF0446284600F02EFE38B9132C75
:10B0540005D80A235C43024B4FF6FF721A5338BDDE
:10B06400CA2E002070B58CB014466A460D4600F115
:10B074001003164613F8011D02F8011B9842F9D17A
:10B084000D22002104A802F0CBF82B788DF81F3094
:10B094006B788DF81E303046AB788DF81D30FFF795
:10B0A400C3FE9DF82F3023709DF82E3063709DF8F9
:10B0B4002D30A3700CB070BD30B5037803F0FE03DF
:10B0C400042B85B004460D4618D1411C032201A867
:10B0D40002F07DF80322211D03A802F078F802AAE9
:10B0E40003A92846FFF7BEFF032202A901A802F024
:10B0F4003BF8B0FA80F0400905B030BD0020FBE712
:10B1040030B50388102B93B04ED1041D0FCC07AD7E
:10B114000FC50FCC0FC594E807009DF8203003F04D
:10B12400FE03062B85E8070009D000F03BFB9DF8E1
:10B134002030032B4FEA530204D9022A3DD04FF6A4
:10B14400FF7310E001AA0DF10201072000F032FBA9
:10B154000028F4D0029908A81131FFF772FE0028E4
:10B16400F0D0BDF80230BDF81C4018480A226243F2
:10B17400811883529DF8262008980A724FF6FF72B0
:10B18400C1F802009342BDF82400C8800CD0ADF889
:10B19400083001A80023ADF806408DF8043000F013
:10B1A400A9FE01A8FFF7D8FB13B030BD029908A887
:10B1B4000131FFF781FF0028D3D101AA0DF102016B
:10B1C400072000F0F7FA0028F0D1B8E7CA2E0020D3
:10B1D40090DF7047A5DF7047B5DF70477FB51E4B22
:10B1E4001E4CE41AE40824040E4603460A460546A7
:10B1F4001B4944F00400FBF736FB00236A4602A90E
:10B204002846ADF80860ADF80A6003930093ADF8E2
:10B214000430FFF7DDFF0646D8B1FDF785F944F0A9
:10B22400010403460F492A462046FBF71CFBBDF8E0
:10B234000020BDF8023052EA030103D00A49204637
:10B24400FBF711FBBDF804201AB108492046FBF7AF
:10B2540001FB304604B070BD88D30200C0D30200A5
:10B2640038E1020067E10200B1E10200F0E102000E
:10B2740078B14FF0171303601B2303711723C380A6
:10B28400038141F61B320023016143818281184608
:10B2940070470E20704700002DE9F047868886B07D
:10B2A40005460C4626BB0388242B00F0CB8022D80D
:10B2B400112B00F09A80232B00F0FA80102B58D029
:10B2C400A37AABB1E1880020FFF784FF034600288E
:10B2D40040F001818848894D89492D1AED084FF4C1
:10B2E40080722D04628145F00400E288FBF7BBFA0A
:10B2F40006B0BDE8F0873A2B7FD0552BE0D17E4BCA
:10B304007E4DC7887F49ED1AED082D0445F00400F1
:10B314003B4632460390FBF7A6FAE3887A49039842
:10B32400A672172F3A4638BF17229A4228BF1A46E8
:10B3340022810096FBF7A1FAE1883046FFF74CFF23
:10B3440038B1FDF7F1F87149024645F00100FBF709
:10B3540081FAE37A002BB3D12369002BB0D040F6F5
:10B36400772204922289ADF8142004A92046984734
:10B37400A6E70B790B73C37B012B20D0022B21D0C2
:10B38400E2882389934212D25B4B5C4D6049ED1AEB
:10B39400ED082D0445F0040630460023FBF763FA5C
:10B3A400E1880020FFF716FF70B90123E372217BC7
:10B3B400637B8B4284D20020FFF710FF80E70B8869
:10B3C400E380DDE74B88FBE7112807D101235149CE
:10B3D400A37200223046FBF73DFAE8E7FDF7A4F834
:10B3E4004D49024645F00100F5E71723CB800B8158
:10B3F40041F61B334E818B8162E74289CB883F48FB
:10B404009A4228BF1A463C4BC01A172A4FEAD0006A
:10B4140038BF172200040A813346404940F0040033
:10B42400FBF721FA236953B1E27A42B140F677225D
:10B4340004922289ADF8142004A9204698470023D9
:10B4440063813DE7B0F80890B0F80AA08789B0F8A6
:10B454000E80027A284B29484A73C01AC008000497
:10B46400334640F004002E490390FBF7FCF92D49C4
:10B4740003985246FBF7EEF92B4903984A46FBF72B
:10B48400E9F92A4903984246FBF7E4F92849039865
:10B494003A46FBF7DFF92369002B3FF411AF4DF671
:10B4A4007A220492627B8DF815608DF814205CE793
:10B4B400077A114B11481F49C01AC008000440F014
:10B4C40004003B463246FBF7CEF9217BA888B942FB
:10B4D40028BF394670E711283FF40AAFFDF724F876
:10B4E400064B0D49024604481B1ADB081B0443F0B3
:10B4F4000100FBF7AFF9FBE688D30200C0D30200DA
:10B5040099E4020041E302007BE30200BAE3020093
:10B5140046E2020083E20200D5E2020006E30200F2
:10B52400E9E3020018E402002AE402003CE4020019
:10B534004CE402005CE40200B0DF704766DF704751
:10B5440010B5002104464088FFF7F8FF034608B908
:10B55400237210BD112801D10123F9E76368BDE806
:10B564001040184760B159B10378DE2B0AD00B683C
:10B574004360DE2303704FF6FF734380002070475F
:10B584000E2070470820704728B10378DE2B04D1C1
:10B594004180002070470E20704708207047F0B5A6
:10B5A400054685B00C46F1B1E8B10B78DE2B1AD113
:10B5B40082884B889A4204D10B7A13B10846FFF76C
:10B5C400BFFF2B88112B32D0512B0ED0012B0AD167
:10B5D4002B7A012B07D1A9886288914203D1237267
:10B5E4002046FFF7ADFF05B0F0BDAE886388B342D7
:10B5F400F9D1AF79022FF6D1AD7B2B1F022BF2D8F4
:10B6040000211022684601F00BFE052D14BF4FF4F3
:10B61400C0730023694630468DF80070ADF80430DD
:10B62400FFF78AFF0028DED063689847DBE763886A
:10B63400AA889A4204BF4FF6FF736380D3E70128B8
:10B6440004D0043805288CBF0020012070474FF631
:10B65400FF73438000F01ABA73B504460D461646CC
:10B6640000210822684601F0DBFDA5F58041A4F520
:10B6740080406B46324689B280B2FCF78FFA0028CC
:10B6840018BF052002B070BDF0B5274F8DB0002162
:10B69400082201A8397001F0C3FD4FF6FF7000F0D5
:10B6A400F7FB4FF6FF760446B44211D0A4F580456B
:10B6B400ADB201AA03A92846FCF78AFA0A2809D0E0
:10B6C4002846FCF745FA082806460BD101233B70AF
:10B6D4000DB0F0BD204600F07DFB204600F0D8FB05
:10B6E4000446E1E7002EF3D01048114D11492D1AFC
:10B6F400ED082D042346324645F00100FBF7B3F86C
:10B70400182200210DEB020001F08AFD07238DF8B9
:10B71400183006A80123ADF81C4008968DF8243093
:10B72400FFF795FFD4E700BF9C2F002088D30200C9
:10B7340018D40200EBE40200F0B5FF2887B00446F9
:10B744000E4615461F462BD80846FFF778FF38B338
:10B7540003AA2046FFF780FF18B10524204607B04E
:10B76400F0BD01A903A8FCF7A1F904460028F4D10F
:10B77400019BAE705E8802992E8027B9696003A888
:10B78400FCF7B8F9EAE73F886868B600B74228BF13
:10B7940037463A4601F01BFDBE42F0D90C24DDE7E2
:10B7A4000724DBE702480822002101F039BD00BF6D
:10B7B400942F0020F0B587B006460F461546FFF7D4
:10B7C4003EFF0446F8B1A6F58040104A03A980B2B2
:10B7D400FCF7F1F918B10024204607B0F0BD01A927
:10B7E40003A8FCF763F90028F5D1019BAE705A88D1
:10B7F4009B882A8003F58043029A6A6003A83B80F1
:10B80400FCF778F9E8E70124E6E700BF942F00206D
:10B8140070B5FF2886B006460B4615463FD8897892
:10B824000846FFF70CFF002839D0A6F58042ADF892
:10B834000020A1F58042ADF802205A6801921B88CD
:10B84400029303AA3046FFF707FF0528694603A8B9
:10B8540014D1FCF771F90728044622D011D8B0B1ED
:10B864001148124D12492D1AED082D042246334673
:10B8740045F00100FAF7F7FF03240DE0FCF760F947
:10B88400E9E7082801D00E28EAD1112404E01DB10B
:10B89400294603A8FCF7A9F9204606B070BD072481
:10B8A400FAE78624F8E700BF88D3020018D4020020
:10B8B40037E502004FF6FF7000F074BAFF2808B5B0
:10B8C40005D800F075FAFFF7DFFE002008BD072059
:10B8D400FCE700F095BA00F0C1BA00F0D9BA000054
:10B8E4000A68084B70B50C25032A01D9002006E02C
:10B8F40005FB02F4E65A864202D10A60181970BDAB
:10B904000132F1E7B02F002037B500230D4604467D
:10B91400019301A9FFF7E4FF38B18378AB4206D164
:10B92400837A9B0703D143680BB903B030BD019BF5
:10B934000133019301A92046ECE710B5044600F059
:10B9440069FB204601F032F92046FFF763F92046EF
:10B95400BDE81040FFF71CB870B50E4E0446002534
:10B96400237AAB420DD84FF6FF732380A3700023D4
:10B9740063604FF47F432381A37A23F00303A3720C
:10B9840070BD617A2944C9B2304600F0F8FB013534
:10B99400E6E700BFA02F002037B50023CDE9003330
:10B9A400417A83788DF802300446324800F0CEFBA9
:10B9B40060B93148314B627A3149C01AC008000479
:10B9C40040F00100FAF746FF032046E0237AA2780C
:10B9D4008DF8022003EB83039B00ADF80030531E67
:10B9E4000190072B08D8DFE803F022070707072296
:10B9F40004241423ADF800302246694632F8040BBF
:10BA0400FFF706FF11282AD017D810B3072824D02F
:10BA1400FCF78AFD184D23881A49024617482D1A47
:10BA2400ED082D0445F00100FAF71DFFCCE70123D2
:10BA3400E0E7838809339B08DCE78628E8D1A37A0A
:10BA440023F0030343F00103A3720F4B01221A7086
:10BA540003E0A37A23F00303A37203B030BDA37AF7
:10BA640023F0030343F00203A372074B01221A706D
:10BA74000020F2E7A02F002010D4020088D3020097
:10BA84009EE50200DEE502009D2F00202DE9F0472F
:10BA9400404FC16886B005463A4600233E4650688A
:10BAA40081421BD10C2000FB03602B78DFF8F4806B
:10BAB400092B1AD0132B4AD0082B4AD16C7A002CAC
:10BAC40047D1002847D0FFF747FF2846FFF735FF47
