:020000022000DC
:1060000000000420756302005D6302005F6302000C
:106010006163020063630200656302000000000028
:1060200000000000000000000000000067630200A4
:1060300069630200000000006B6302006D630200F0
:106040006F6302006F630200EDC002006F63020025
:106050006F6302006F6302006F6302006F630200F0
:106060006F6302006F6302006F6302006F630200E0
:106070006F6302006F6302006F6302006F630200D0
:106080006F630200D17602006F6302006F6302004B
:106090006D7702006F6302001DDA02006F63020079
:1060A0006F6302006F6302006F6302006F630200A0
:1060B0006F6302006F630200000000000000000038
:1060C0006F6302006F6302006F6302006F63020080
:1060D0006F6302006F6302006F6302006F63020070
:1060E0006F6302006F6302006F6302000000000034
:1060F000000000006F630200000000006F630200F8
:10610000000000000000000000000000000000008F
:10611000000000000000000000000000000000007F
:10612000000000000000000000000000000000006F
:10613000000000000000000000000000000000005F
:10614000000000000000000000000000000000004F
:10615000000000000000000000000000000000003F
:10616000000000000000000000000000000000002F
:10617000000000000000000000000000000000001F
:10618000000000000000000000000000000000000F
:1061900000000000000000000000000000000000FF
:1061A00000000000000000000000000000000000EF
:1061B00000000000000000000000000000000000DF
:1061C00000000000000000000000000000000000CF
:1061D00000000000000000000000000000000000BF
:1061E00000000000000000000000000000000000AF
:1061F000000000000000000000000000000000009F
:10620000354936480A1A02D0072291438D4634494F
:1062100034480A1A06D00722914381F309880222E2
:1062200082F3148830483149314A00F044F831484B
:106230003149324A00F03FF831483249324A00F0E1
:106240003AF832483249334A00F035F83248334997
:10625000334A00F030F833483349344A00F02BF821
:1062600033483449344A00F026F83448344900228F
:1062700000F02CF833483449002200F027F8334866
:106280003349091A082902DB002202604160314AC1
:1062900090471F481F49884205D00268043003B464
:1062A000904703BCF7E700208646EC46002000211B
:1062B000294A9047FEE7884207D0521A05D0037852
:1062C00001300B700131013AF9D17047884202D098
:1062D00002700130FAE770470000042000C003207C
:1062E0000000042000000420500D0300D4220020F0
:1062F000B4230020D4630200D4630200EEE3020062
:10630000500D0300D4220020D422002038E60200E1
:1063100038E6020038E6020038E6020038E60200FD
:1063200038E6020038E6020038E602004E0D0300AF
:10633000300E0300B4230020B4230020B423002037
:10634000B3310020B4310020B8310020B831002032
:10635000B83300209D630200C9D30200FEE7FEE7C8
:10636000FEE7FEE7FEE7FEE7FEE7FEE7FEE7FEE705
:10637000704700BF1048804710484FF0070188431E
:1063800085460F4880470F48016841F4700101605D
:10639000BFF34F8FBFF36F8FFFF732BF0A480B4930
:1063A0000B4A884207D0521A05D0037801300B708F
:1063B0000131013AF9D170477163020000000420F5
:1063C00079D6020088ED00E074E50200102200207A
:0463D000D4220020B3
:1063D40000487047AC310020F0B595B01D46164614
:1063E40008460C4605F052FB1A9B0D93CDE908654F
:1063F40000252B46082205A920460A958DF82C5025
:106404000C9505F060FB079B0293069B03939DF894
:1064140014308DF8115003F00302012A1DD1BDF888
:106424001420059DC3F3C203C2F383168DF8103004
:10643400B20008230EA9204605F045FBC5F39525B7
:1064440008AB0093324602AB0EA9284600F0C6FF03
:10645400204605F01FFB15B0F0BD022AF8D1BDF8A7
:106464001650C3F3C203C5F389158DF810300827FD
:10647400082D2E4628BF08263B4632460EA9204644
:1064840005F021FBAD1B08AB02AA31460EA8374428
:1064940001F008F8002DEBD1DAE70000014B0122EE
:1064A4001A707047F52300207047000070B5124D34
:1064B40006460FCD88B06C460FC495E80F00002E39
:1064C40084E80F004FF0FF334FF00602CDE90023BC
:1064D400CDE90233094A0A484FF0EB7308BF0022A2
:1064E4006946069305F0C2FD08B101F035F8054B85
:1064F4001E7008B070BD00BF38E60200A16402003F
:10650400D4220020B423002007B5044B0093044A8E
:106514004023FFF761FF03B05DF804FB2965020027
:10652400B523002038B50D4B0D4D002018700D48D3
:1065340004782D5DD2B21C4665B1043006F0DAFA57
:1065440008B101F009F8084B1A7812B12378002B2E
:10655400FBD038BD0C3006F025F8F1E7F523002018
:106564007C2C0020D4220020B423002008B5084845
:10657400084A0378D35C3BB1043006F067FABDE8FF
:1065840008400020FFF792BF0C3005F0B7FFF6E794
:10659400D42200207C2C002000230428CB604B60F4
:1065A40098BF044B044A98BF53F820308A600B60AC
:1065B400704700BF94EB020070EB0200CB6800222E
:1065C4005A717047C368DB6800225A717047CB6800
:1065D40001225A717047C368DB6801225A717047FF
:1065E4000D4A8A6070B50D4A0D4C0023121BCB6016
:1065F4004B600B6012091D469A4207D0E668367953
:10660400FF2E05D0854202D1A3680B6070BD013511
:1066140001331034F0E700BFA8EB02003CE50200B0
:106624001CE502002DE9F74F154D164C9846641BE6
:1066340052F8043C06468946174624094FF0000BDD
:106644005C4507D1104A0221304603B0BDE8F04F43
:1066540003F020B8A9680193184607F06FFEAA4614
:10666400103518B1019B0BF1010BE9E73B464A4693
:1066740051463046C44603B0BDE8F04F604700BF02
:106684001CE502003CE5020064E60200014BFFF752
:10669400C9BF00BF856C0200014BFFF7C3BF00BF39
:1066A400C1650200014BFFF7BDBF00BFD365020007
:1066B400014BFFF7B7BF00BFB16A0200037813F0C4
:1066C400040216D003F00303012B03D0022B09D0DC
:1066D400012070470A6800880232C0F38310024424
:1066E4000A60F5E70B684288023303EB92130B60F0
:1066F400EEE71046704700002DE9F04F87B0002305
:106704000446861C0DF107000F4615468DF8073028
:1067140001F022FA454801683960D0E90132134496
:1067240001335B1A824600F21C4700F5836900F2CC
:106734001448B3421CD30020002D73D004F00F037F
:106744009B0143F0050363F30F00DAF80020DAF845
:1067540008301340033316444AF823009DF8070019
:10676400CAF8006001F01CFA012007B0BDE8F08F00
:106774000121384602F08FFA484602F0A7FA404653
:1067840002F0A4FADAF80400DAF808B0029000EA99
:106794000B0003300AEB800002A9FFF78FFF029B76
:1067A40050BB0BEA03020AEB820203F1020CD2682B
:1067B4000392013303EA0B0B0AEB8B0B02F0030287
:1067C400012ADBF80C10CDF808C023D0022A16D019
:1067D4008346404602F07DFA10B1029BCAF80430A9
:1067E4005946384602F057FADAE901231344DAF835
:1067F400002001339B1A9CE70BEA0300C9E7BDF8AC
:106804000E30C3F3891303334FEA114B0CEB93039C
:106814000293DEE7BDF80C30C3F383134FEA114B48
:106824006344F5E7A40544F006008EE7C82400207D
:10683400012907B5034604D08168D1F83C118907C2
:1068440007D500221146184603B05DF804EB03F0A7
:1068540085BF53680193054B00931368044A0221D2
:1068640002F018FF03B05DF804FB00BF84E60200E9
:106874007AE602002DE9F3478368D3F83C31C3F389
:1068840040059B07074606D50022114602B0BDE825
:10689400F04703F063BF144E144CDFF85880DFF860
:1068A4005890DFF858A0A41B2409A54202D102B0D5
:1068B400BDE8F087F268B3681179FF2907D10C4A63
:1068C4000821384602F0E6FE01351036EDE752792C
:1068D400002A14BF42464A46CDE9002138465246B2
:1068E400082102F0D7FEEFE71CE502003CE50200B8
:1068F400AAE6020099E60200A1E60200C9E6020047
:1069040030B50A4B0A4A0B49D21AD20800239A42DC
:1069140001D1052006E031F823500468A54202D1D4
:106924000360002030BD0133F1E700BF9CE40200A6
:1069340014E502005C2200202DE9F84F224B234885
:10694400FF229A600022C3F81824C3E90022C3F886
:10695400142483F8202405F052F8814688B91C4891
:106964001C4E1D4CDFF87CA005F0F1F9A41BE408D3
:106974004D46A54208D10023184A19481946A34296
:106984001BD14846BDE8F88F4FF00008474606EB98
:10699400C50BBD420AD056F83710DBF800001422AC
:1069A40007F0DEFB0028C8BF08F101080137BC422C
:1069B400EFD12AF825800135DBE720F8231042F8CF
:1069C400041B0133DBE700BFC82400203CE50200C0
:1069D40064EB02009CE4020014E50200982200200B
:1069E4005E2200205C22002007B5019031B9019A93
:1069F400064B53F8320003B05DF804FB01A8FFF71F
:106A04007FFF0028F3D00020F5E700BF9CE40200DC
:106A1400002310B5CB604B60034B8B600C46012107
:106A2400FFF7E2FF206010BD70EB0200094B013953
:106A340003EBC000032909D8DFE801F00A020406C9
:106A440004207047007970474079704700207047F0
:106A5400022070479CE4020030B5124C00EB400069
:106A640054F8215002FA00F3072202FA00F06B40B6
:106A74000D4A03406B40C3F3821044F8213002EB0B
:106A84008101C3F3C202824238BF0246C3F34220EB
:106A9400824203F0070338BF0246934238BF1346CD
:106AA4004B8030BD982200205C2200202DE9F04F5D
:106AB400064685B01D461746002A51D0CB68286883
:106AC4004C4993F80490072207F04AFB0446C8B9DE
:106AD400012F07D1484A0221304605B0BDE8F04FE6
:106AE40002F0D8BDDFF82C8158F8041B68680A222C
:106AF40007F036FB002877D00134052CF4D16B68FD
:106B04003E4A15E03E492868082207F029FB04465E
:106B140060B9012F2DD04FF001083A4A3A4BDFF803
:106B2400F8A09B1ADB08CDE9013247E02B68374A0D
:106B34000221304605B0BDE8F04F02F0ABBD18F8B5
:106B44003530A3420FD200212846FFF74DFF5246AD
:106B540003460221304602F09DFD0135BD42EED1CF
:106B640005B0BDE8F08F224629464846FFF774FF7A
:106B7400F3E7244B244FDFF8A0A0FF1AFF080025F9
:106B840003F10608EAE7184600210393FFF72CFFF8
:106B94005946202207F0E4FA039B014608B1013369
:106BA40011E0029A02EBC3029279A24216D3224662
:106BB40019464846FFF750FF08F10108B845CFD2FF
:106BC40055F828B00023019A9A42DCD155F82830B0
:106BD4000F4A0221304602F05DFDEDE71846FFF74B
:106BE40003FF52460346F4E7022FE4B2C1D04FF04C
:106BF400020892E7EAE60200F1E602005CE702001E
:106C040008E702009CE4020014E5020010E7020019
:106C140048E7020080EB020025E7020013460A461B
:106C2400C168FFF743BF000013B504460191ABB13F
:106C34006AB90199104A04EB440052F82120072351
:106C44008340134023FA00F0C0B202B010BD01A883
:106C5400FFF756FE0028ECD00020F6E72AB9019A87
:106C6400064B03EBC2039879EFE701A8FFF748FE50
:106C74000028F1D1F3E700BF982200209CE4020031
:106C8400294B2A4A2DE9F04F9B1A4FEAD30ACB68C5
:106C94005B7985B005460E461BB9254A022102F0F0
:106CA400F9FC244B244ADFF8A4800821284602F08A
:106CB400F1FC224A0821284602F0ECFC0024544549
:106CC40002D105B0BDE8F08FF36893F80490012376
:106CD4001A4621464846FFF7A7FF002307462146E8
:106CE40001224846FFF7A0FF03280246814628BF39
:106CF4000322012120465FFA82FBFFF775FE104A4A
:106D040058F82B10034658F827000E4F0090D94529
:106D140098BF3A46CDE9011228460B4A082102F0F1
:106D2400B9FC0134CBE700BF14E502009CE4020087
:106D34007BE702008EE702009AE70200B8E7020050
:106D440079E702002BEF0200F5E7020080EB020076
:106D540013460A46C168FFF793BF0000034BD3E90B
:106D64000030C31A58425841704700BFC82400205D
:106D74002DE9F04786B0FFF7F1FF0646002840F002
:106D84001E81904DC5F81804BFF34F8F6B68AC6833
:106D940002932340033305EB830002A9FFF78EFC23
:106DA400029B18B1D5F81824002A69D004EA03021A
:106DB400991C013305EB8202234005EB8303D2685F
:106DC400DB68049302F00303022B039202916AD15D
:106DD400BDF80E307C489DF80C60C3F38918B8F1F7
:106DE400500FC14628BF4FF0500969F38F1309F1C2
:106DF4000801ADF80E3004F01AFEC6F3C2060746C9
:106E0400002800F0C38004F041FE0023082203A9F7
:106E1400384604F04EFE029924EA01020132B9EB2D
:106E2400820F4FEA820337D95FFA89F983B321408D
:106E3400DCB2A9EB040903315FFA89FAA146634C79
:106E440005EB810108234A46384604F032FE34B18A
:106E540009F1080352462146384604F02AFE029BF3
:106E640008F1030803EB98030293D5F81834002BB8
:106E740052D1D5F81044DFF868914FF0070870E05C
:106E84002A689A4285D86A60304606B0BDE8F08721
:106E94004E491C469A46D5E70C40E11C08234A4655
:106EA40005EB8101D8E7012B70D1BDF80C60464891
:106EB400C6F38311062928BF062161F3891602311E
:106EC4008900ADF80C6004F0B2FDC6F3C2060746B3
:106ED40000285BD004F0DAFD0023082203A9384619
:106EE40004F0E7FD4FF00008BDF80C20C2F3831254
:106EF4004FEA8803904503F10803B6D202994A1C6D
:106F040021400331029205EB81010422384604F04A
:106F1400D0FD08F10108E7E7384604F0BBFDFFF7B0
:106F24001DFF80F00100C6B2AEE7E3685A79B2B142
:106F34001B79BDF8101003EB430259F8211008FA2D
:106F440002F3052E03EA010323FA02F308BF032622
:106F5400B34204D3236839461B6820469847E36844
:106F64001C68002CE1D1384604F094FD0DF10700B3
:106F74008DF8074000F0F0FDD5F818340BB9029BEA
:106F84006B609DF8070000F00BFEC8E7D5F81044CD
:106F940074B90F4B5B88012BC1D90E4B0E480F49B6
:106FA400C01AC008000440F0020000F067F8B6E719
:106FB400236820469B689847E3681C68E8E7002636
:106FC40062E700BFC82400203CE50200D42400206E
:106FD400682200209CE40200B4E402000BE80200F2
:106FE400982200202DE9F74F224D04460F46924681
:106FF40001A901221846D5F808909B46FFF77CFBAF
:1070040020B3019E4FF00008B21CD84508EB0201E2
:1070140026D11948002101F0F7FD80F31000000487
:1070240040EA1440E400731C04F0380403EA090342
:1070340006EA090644F0010405EB8303033644EA37
:10704400881444EA8724D86045F8264095F820340B
:107054001BB1FFF78DFE0028FBD103B0BDE8F08F14
:1070640009EA010105EB81015AF82830CB6008F1E7
:107074000108CAE7C8240020E428002000231A4697
:10708400FFF7B0BF07B50123019201AAFFF7AAFFDA
:1070940003B05DF804FB07B5CDE9002302236A467B
:1070A400FFF7A0FF03B05DF804FB1FB5CDE9012392
:1070B400069B039301AA0323FFF794FF05B05DF831
:1070C40004FB00001C4A2DE9F843D2F810340546AD
:1070D40088460024194689B9E9680C71A3B9C2F835
:1070E40010540B60154B164EF61AF608002703F1E0
:1070F4000709B7420DD12046BDE8F883C96808796D
:10710400A04212D00968E6E7DB681A680A601D60CD
:10711400E8E719F83720EB6842453946187928BF63
:107124004246FFF799FC0137E3E701340A2CD1D139
:107134004FF0FF34DFE700BFC82400209CE40200C6
:1071440014E50200094A38B50123D2F8104482F844
:1071540020341D4604B938BDE3685D7123682046B8
:107164005B689847E3681C68F4E700BFC824002004
:1071740010B588B00023CDE90233CDE90033049380
:107184001E4B1F4A05931F4B06929B1A9B0807939D
:1071940002AA6B4643F2274141F26E0001F000FC63
:1071A400B0B905A902A801F0A5FB174B5B88022B17
:1071B40004460AD91548164B1649C01AC0080004DB
:1071C400224640F00300FFF75DFF204608B010BDE3
:1071D4000A2810D105A902A801F088FB0A4B5B8894
:1071E400022B0446F1D90948094B0B49C01AC008BF
:1071F40000042246E5E70324E7E700BF6E102734C6
:1072040098220020D422002068220020B4E4020046
:107214009CE402001CE802004DE8020010B58368FB
:10722400D3F83C319B07044605D50022BDE8104045
:10723400114603F093BAFFF79BFF30B9044A0821C3
:107244002046BDE8104002F025BA024A0221F7E7C1
:107254007EE8020096E8020000B589B00023CDE97B
:107264000533CDE90133079305AA01AB43F2274166
:1072740041F26E0001F094FB90B9CDE9030003A93B
:1072840005A801F0D5FA40B90F48104A0499121A1A
:1072940006F0D6FF05A801F007FB09B05DF804FB72
:1072A4000A280FD10A4B5B88012B09D909480A4BDC
:1072B4000A49C01AC008000440F00200FFF7DEFECD
:1072C4000520EAE70320E8E798220020D4220020E2
:1072D40068220020B4E402009CE40200BBE802003F
:1072E40010B58368D3F83C319B07044605D50022CA
:1072F400BDE81040114603F031BAFFF7ADFF30B9D5
:10730400044A08212046BDE8104002F0C3B9024AED
:107314000221F7E7E0E80200F8E8020007B50346B7
:107324000846197A052911D05B7A2BB1094A0A4912
:10733400019003F050FE01980849019003F04BFEC0
:10734400019803B05DF804EB03F03ABE002AF8D0CC
:10735400F2E700BFF0EC0200E3EF02008AEE020065
:1073640030B5C38885B004460D4633B1144A009243
:107374001449154A284603F02EFE217A05291DD00A
:10738400637A4BB1A088FFF751FB104B104953F8B7
:107394002020284603F01FFE227A0E4BA08853F8C3
:1073A400222003920021FFF71FFB039A0A49034698
:1073B400284605B0BDE8304003F00DBE05B030BD31
:1073C400F0EC0200FDEC0200F5EC020068ED0200B6
:1073D400E3EF02008CED020015ED02002DE9F0430D
:1073E40085B01F460C9D002395F80C902B73064620
:1073F4000C46904629463846FFF7B2FFB8F1060F0F
:1074040009D8DFE808F00412181F28334000314679
:10741400284603F0E0FD002229463846FFF77EFFA8
:1074240085F80C9005B0BDE8F08322683146284603
:1074340003F0D1FDEFE7D4E900233146284603F0F9
:10744400CAFDE8E7A36800933146D4E9002328463F
:1074540003F0C1FDDFE7E3680193A36800933146BD
:10746400D4E90023284603F0B6FDD4E72369029348
:10747400E3680193A36800933146D4E900232846C6
:1074840003F0A9FDC7E76369039323690293E368E3
:107494000193A36800933146D4E90023284603F0FE
:1074A4009AFDB8E708292DE9F74F80460E4617469E
:1074B4001C4639D8002593F80C901D7319461046C4
:1074C400FFF74EFFDFF880A0DFF880B0AE422ED980
:1074D40018F805205946204603F07DFD0135082D96
:1074E400F4D11849DFF868A0DFF868B0204603F04B
:1074F40072FD0025AE421FD918F8052001921046EE
:1075040006F082FC0028019A594608BF2E22204624
:1075140003F061FD0135082DECD1012221463846E6
:10752400FFF7FCFE84F80C9003B0BDE8F08F5146E1
:10753400204603F050FDD1E75146204603F04BFDB1
:10754400E8E700BF29ED020025ED02001FED02006F
:1075540027ED02002BED02001FB50021039001AAC4
:1075640044F20100CDE9011100F004F805B05DF822
:1075740004FB000010B572B6FFF7E4FDFFF7F8FB5B
:107584000028FBD1154C62884AB11548154B1649A1
:10759400C01AC008000440F00100FFF76FFD134B50
:1075A4001B68DB0700D500BE6388012B09D90C4892
:1075B4000C4B0F49C01AC008000440F00200FFF74A
:1075C4005DFDBFF34F8F0B490B4BCA6802F4E062B9
:1075D4001343CB60BFF34F8F00BFFDE76822002049
:1075E400B4E402009CE40200A0ED0200F0ED00E02F
:1075F400ACED020000ED00E00400FA05094A5378FE
:1076040091780133DBB2994208BF00231178994283
:107614001FBF03705078182303FB002014BF0430ED
:10762400002070478429002073B5054600240DF11D
:1076340007000E468DF8074000F08EFA0DF10600A3
:10764400FFF7DCFF90B10670094B9DF806204560FA
:107654005A709DF8070000F0A3FA24B9054B4FF4C3
:107664008012C3F80021204602B070BD0424F0E764
:107674008429002000E100E0024B4FF43C6043F019
:1076840001031847C0ED020038B50C4B0C4C4FF405
:107694000032C3F8802001254FF48033C4F8483306
:1076A400C4F808336560FFF7E7FF064BA5600024C4
:1076B4001C60FFF7E1FF044B1C7038BD00E100E0E3
:1076C40000100140A02A0020912A0020F8B51F4B89
:1076D4001F491B680025C1F84051C1F84451C1F845
:1076E4004851C1F84C51C1F80051C1F804514BB391
:1076F400D1F8044517490968641A24F07F442F46D9
:107704001A68A24209D8A41A15441A7CDE691AB16F
:10771400D3E905201F749047AEB90F4A0F4B117877
:107724001B788B4205D10133DBB2022B08BF002347
:10773400137012780A4B43F822500A4B4FF480120C
:10774400C3F80021F8BD3346DAE700BFA42A0020BD
:1077540000100140A02A00209D2A00209C2A00201D
:10776400942A002000E100E02DE9F04FA24AA34949
:1077740013780978A24D994285B03CD00133DBB22D
:10778400022B08BF002313709E4912789E4B0F688A
:1077940053F822003B1823F07F4300220B602B6830
:1077A40016461446944613B942B12B6006E0196894
:1077B40081420ED902B12B60091A196001272B6886
:1077C400DFF84CA201934FF00008BEB9DFF848B2CD
:1077D40062E0401A0C44D968D3F81CE0C3F800C036
:1077E40031B13A1922F07F42C3E90121DE611E461C
:1077F40073460122D7E700263746E0E73446F669A8
:10780400804A63681268DFF814C2A068991A21F0EC
:107814007F41614500F2A880014421600122227465
:107824002A680023C4E90133E361002A40F0A580FB
:107834002C60CAE79BF802105A1CD2B291428BF812
:10784400002004BF00228BF80020182202FB03B39F
:107854002A6819799C68022977D0032900F081806D
:10786400012919D1207CB8B9D3E90312A2605A695D
:10787400E2609A69654BA2611B78002B0CBF0B4632
:1078840003466360BCE78C4200F094808946C96972
:107894000029F8D1002323749BF800309BF80120C1
:1078A4009A42C7D12B68B8F1000F04D1019A9A42C9
:1078B40001D1002F43D0002B79D0D3F800A0544D30
:1078C400504BD5F804751C68DFF854813E1B98F8BA
:1078D400003026F07F4603369BB94FF48033C5F859
:1078E4004433C5F804334B4B4FF400324FF00109D5
:1078F400C3F880211A60C5F80090FFF7BDFE88F830
:107904000090B2452CBF5444A41924F07F44C5F818
:107914004045D5F80435DB1B23F07F43E41B0333D8
:1079240024F07F44A3420AD9D5F80435C5F840357C
:10793400FFF7A2FE374B4FF40032C3F80021334B5C
:1079440000221A7005B0BDE8F08F114691469FE7FA
:107954001174D2690123002AFAD1002B9CD02A6029
:107964009AE700231946F6E7D31A23F07F438342AC
:1079740034BFC31A0023236050E721681368994277
:1079840013D8591A1160E26152E7091AD8691A46E4
:1079940038B1034618688842F7D3401A186018466D
:1079A40013462160E061DC610FE71346F2E7FFF75D
:1079B4006BFEC4E74C4511D1D3692B6073B9DFF872
:1079C40044E00120CDE90212CAF80800CEF80030E4
:1079D4000E4B1870FFF750FEDDE902120B68C969FF
:1079E400C9F81C1011B1086803440B602B6893425A
:1079F40018BF4FF001084DE79C2A00209D2A002063
:107A0400A42A0020A02A0020942A0020902A0020E2
:107A14000010014000E100E084290020FEFF7F0007
:107A2400912A002008B5FFF72FFE104B00200B22EF
:107A340018809A700E4B18600E4B18700E4B18700D
:107A44000E4B4FF48012C021C3F8802183F8141325
:107A54001A6002F18042A2F56F22C2F8080583F889
:107A64001113074BD2F804251A6008BD842900209D
:107A7400A42A00209C2A00209D2A002000E100E086
:107A8400A02A0020074B9B784BB132B128B1036880
:107A9400187C20B959745A61704707207047082030
:107AA400704700BF842900202DE9F743DFF8848064
:107AB40098F8023005460E461746ABB3A0B3042926
:107AC40030D9436983B3437C0024012B0DF10700B3
:107AD4000CBF8946A1468DF8074000F03DF80DF132
:107AE4000600FFF78BFDD8B1012303700F4B4560EF
:107AF400D3F80435C0E90497C0E902369DF806308E
:107B040088F801309DF8070000F04AF824B9084BC2
:107B14004FF48012C3F80021204603B0BDE8F0837F
:107B24000424EFE70724F7E70824F5E700100140F1
:107B340000E100E084290020064A92783AB130B18D
:107B4400426922B1002202740221FFF76DBD0820B0
:107B5400704700BF8429002070B5EFF3108672B619
:107B64000C4A946801239CB993600B4B0B4DD3F8DA
:107B7400801029401160C3F88050D3F884105160FC
:107B84004FF0FF32C3F88420047006B962B670BDAA
:107B94000370FAE7A82A002000E100E0FC06FFBD1C
:107BA400084B9A6810B55AB150B9EFF3108172B608
:107BB400054A1C6814605C685460986001B962B638
:107BC40010BD00BFA82A002000E100E010B5044663
:107BD40022B1108821448C4203D110BD4FF6FF70AE
:107BE400F8E743BA14F8010B9BB24340C3F3031202
:107BF400534083EA03335A0102F4FF529BB283EAEF
:107C04000200E8E770B5064D0646002455F8043B2B
:107C14000BB1304698470134042CF7D170BD00BF36
:107C2400C02A0020033080B240F2FD33984230B5C0
:107C34001FD8124B1A783AB91C895D892C44044424
:107C4400A4B2B4F5806F0AD31A7DA2B99A8BDC8BE7
:107C54002244024492B2B2F5806F0CD201220A800F
:107C64001446142202FB04335A891044588100201C
:107C740030BD0920FCE70720FAE700BFF42A002002
:107C84000B4A0C4B5188142000FB0131CB6833B9EB
:107C94000420496810700122074803F05DBC0749BD
:107CA4000523137002238B80012209680023F3E764
:107CB400D82A0020F42A002048220020AC2B0020DF
:107CC40007B5002305490093054A096805480823B8
:107CD40003F082FB03B05DF804FB00BFAC2B002073
:107CE400E4ED02004822002007B50023014600937A
:107CF400034A0448082303F06FFB03B05DF804FB58
:107D0400DCED02004822002013B500230C4600934A
:107D14000146084A0848042303F05EFB38B90749C2
:107D2400142303FB04140123237402B010BD0E209A
:107D3400FBE700BFD8ED020048220020F42A00200F
:107D440037B50A480A4B42689C881968538803254A
:107D5400033305709BB2002000909B0001EB84016B
:107D6400044803F039FB03B030BD00BFD82A00201B
:107D7400AC2B00204822002010B50146044800F036
:107D8400CEFE1C220446002106F083FA204610BDD4
:107D9400F022002068B10268084B9A4209D1406879
:107DA400074B984207D00133984214BF03200120A7
:107DB4007047032070470020704700BFDEC0ADDE6F
:107DC400FE011EF14388033300EB8303994209D378
:107DD40082884FF6FF739A4206D00088B0FA80F08A
:107DE4004009704702207047012070472DE9F04197
:107DF4000D460223154F2B80164600F5805100F1E5
:107E040008044FF001088C420ED2236801330BD0D2
:107E14002046FFF7D7FF48B10EB186F8008002284C
:107E240009D14FF480632B80BDE8F081A3683A68E0
:107E3400934200D93B602B886288033313442B8020
:107E44006388033304EB8304DDE700BFEC2A0020DE
:107E540038B5144B14220D4602FB00302B684468DD
:107E640004F58051A3B15C88033403EB84048C4291
:107E740015D22368013312D02046FFF7A3FF01284F
:107E840008D002280BD00028F1D12C60012038BD85
:107E94000834ECE76388033304EB8304E7E700204A
:107EA400F5E700BFF42A0020426873B504460D4686
:107EB40062B3234BD9688A4228D31B699A4225D8D6
:107EC40012F0030322D11F490089098988421DD178
:107ED40020689168884219D11B494868824203D9B5
:107EE40000F5805082420DD389698A420CD901F58C
:107EF40080518A4208D201222A80B3FA83F04009D1
:107F040002B070BD1A46F7E70A23F6E700232B8078
:107F14001E460196288801A9FFF79AFF30B92B88DD
:107F240001339BB2012B2B80F3D9E9E7019B226833
:107F340099689142EED16360024B1B892381DFE78C
:107F440048220020D82A0020F42A00202DE9F843F2
:107F54001C461C4B1B7806460F4615466BB372B382
:107F64006CB3DFF868804FF01409A388012B01D9A2
:107F74000A2020E009FB03F318F803302BB9A0888A
:107F84002146FFF765FF20B92060A3880133A38051
:107F9400EBE723681EB1998832889142EFD11FB173
:107FA40019883A889142EAD19A68C5E90023064BB8
:107FB4001B892B810020BDE8F8830220FBE7052004
:107FC400F9E700BFD02A0020D82A0020F42A002094
:107FD40008B5074B5888191DFFF73AFF18B1BDE8DB
:107FE4000840FFF7ADBEBDE80840FFF749BE00BF3B
:107FF400D82A00202DE9F04FA14FDFF8A89289B0CC
:108004000646B8463B6823B99E48494600F0C1FD80
:108014003860D8F8005029784B1E052B07D8DFE8C4
:1080240013F0210079007900090109015E010F2490
:108034001422002103A806F02CF941F61D539C429A
:1080440008BF0024D8F8003004941A78013A052AAD
:1080540000F2EF81DFE812F0DB01DF01FF010F0224
:108064001B02250226B1884B00225A600124DFE757
:108074002B79032B1DD8DFE803F015022A35834939
:108084000B78022B084619D00B7D022B4FF001030D
:1080940016D114225343C2180020C8545068FFF765
:1080A40023FE03E001232B71FFF70AFE002800F0F2
:1080B400BC80754B00225A600E24B9E70023E8E720
:1080C400714A13700023536041F61D54B0E77049A0
:1080D4007048002302222B718A800968012203F070
:1080E4003BFAE3E76A4C00262E712068674DFFF7E0
:1080F400FBFD694BD4F800C05A8814235343EA1893
:10810400EE5451682160A188C2F804C01181022292
:10811400A280CBE7B5F814A0AA7DDFF870B1AEB1A8
:10812400022AEB8806D9142101FB0AB1DA1C08895A
:1081340002440A81142202FB0ABAC3F57F43BAF847
:108144000A20FD331344AAF80A308FE7142303FBF3
:108154000AB318895C6804EB8004062A68D8DFE84F
:1081640002F0274D35431D59040041F61D54AA7DE4
:10817400EB88022A06D9142101FB0AB1DA1C08890A
:1081840002440A81142202FB0ABAC3F57F43BAF8F7
:108194000A20FD331344AAF80A3049E73F4840490E
:1081A40000234360AB690360FFF77EFE002859D0CB
:1081B4000223AB75002300930423EA1821463548B3
:1081C40003F00AF9002830D00E24D0E72B69002BE5
:1081D40014BF03230123AB750023009305F10C02A4
:1081E400042304F10801EAE70123AB750022EB88BC
:1081F40000922A699B0004F10C01E0E703290CBFFB
:1082040005230623AB7500230093042305F108021C
:10821400E118D4E70623AB75214B19881F4B586826
:10822400FFF772FD04460028A1D109B0BDE8F08F24
:108234000F249CE7002E7FF419AF2B79012B33D048
:10824400022B3FF441AF002B7FF4F1AE02232B71DC
:108254000DF10A01EB68039303A8CDE90466FFF767
:1082640023FE08B90A24E3E60498BDF80A108388BB
:10827400EB8003882B81FFF747FD044625E000BF10
:10828400F02A0020F0220020D02A0020F42A002026
:10829400AC2B002048220020D82A0020B42A002039
:1082A400B82B0020E82A00207F4B03AA3146A81DE2
:1082B400FFF74CFE7C4B044658B999880498FFF7A5
:1082C40023FD04460A2C3FF4FFAE002C7FF4B0AE2D
:1082D400ABE708223146184605F0DBFFF2E7002E33
:1082E4007FF4C4AE714B1A7BB2B11E731A78013A93
:1082F400062A3FF69CAE01A151F822F0A7830200A2
:10830400CD830200EB830200F1830200338002007C
:10831400F7830200098402001A78072AE6D801A12B
:1083240051F822F049830200F1820200F182020036
:108334006F83020083830200A3830200A3830200ED
:108344006B8302001A895A4901321A8100225A8029
:108354001A730A78B2FA82F252099A720A7DB2FA50
:1083640082F25209DA72012207E0524958688A8877
:108374004088033202448A8002221A70B6E74C4CC9
:108384005A884C49142505FB024208685468506019
:108394008888108102228A800C600622EDE7072279
:1083A400EBE79A7A32B9DA7A8AB900221A705A80DB
:1083B4005A6089E63E4900229A72CA68002AF2D1BC
:1083C400097C0029EFD05A80FFF702FE55E700220E
:1083D400DA72374A116A0029E7D192F82420002A78
:1083E400E3D00122EFE7FFF7ABFC46E7FFF748FCD9
:1083F40043E72F4A5B88142101FB03235868FFF7E6
:1084040073FC3AE700225A60FFF75AFC35E7002371
:108414008DF80C300DE001228DF80C201A89ADF88E
:1084240018209A88DB680593ADF81A2000238DF88C
:108434001C3003A8FFF7E6FB002649461E48C8F88F
:10844400006000F0D1FB1D48012100F030FC002841
:108454007FF4D8ADE9E602228DF80C201A89ADF834
:1084640018209A88ADF81A20DA689B7D05929A1F25
:1084740053425341DBE703228DF80C20DA88ADF830
:1084840018201A89DB68ADF81A200593D1E7042275
:108494008DF80C20DB88ADF818300023ADF81A30C5
:1084A400F3E70523B4E700BFBC2B0020D82A002043
:1084B400F42A0020AC2B0020F0220020A82B00205E
:1084C4004068FFF797BD000008B50548012100F09A
:1084D400D6FB18B9BDE80840FFF78CBD08BD00BF46
:1084E400A82B00202DE9F34198460023ADF8023073
:1084F4003F4B1B7806460D46002B70D0002970D0E8
:1085040009884FF6FF7399426DD06B88002B6AD0AF
:108514006B689B0769D142B92F8969463846FFF7D2
:1085240081FB30B102B0BDE8F08113885788ADF803
:10853400003001A8FFF720FC044658B9BDF800300C
:108544002C4A142101FB032358890338C01B58818A
:108554000820E7E780F8008000238375BDF8003029
:1085640083826B6803610121234800F094FB2B880C
:108574002381B8F1030F6B88A38001BF0423A37583
:108584003368A361E06000220621E780201DFFF725
:108594001DFB0DF10202ADF80200042104F10C00F0
:1085A400FFF714FBA968ADF80200890068680DF1B3
:1085B4000202FFF70BFB01A9ADF8020060810F482E
:1085C40000F0D7FA3EB10023E2687360B3720C4B3B
:1085D40032601B893381FFF777FF0020A2E7022076
:1085E400A0E705209EE704209CE703209AE700BF4C
:1085F400D02A0020F42A0020EC2A0020F0220020B7
:10860400D82A002008B5034607480268042A08D07F
:108614000168064A42F82130012100F03CFB0020A9
:1086240008BD0C20FCE700BFB42B0020C02A0020AA
:108634002DE9F04F14228BB000210DEB020005F060
:1086440028FE724A137803F0FF01CDE901123BB111
:1086540005A8FFF7D7FA002630460BB0BDE8F08F27
:10866400029B181D00F02FFB0028F4D14FF01023BB
:108674004FF080525B6911695269654C581C08BF00
:1086840002FB01F323616349A3F540530022204612
:10869400E36002F065FE039406460028DCD15E49DF
:1086A4005E48DFF88491DFF884811C238C2200F07B
:1086B40001FAB24635464FF0030B3446039BDF689C
:1086C400574438463946FFF765FB01284AD003284A
:1086D40015D0002835D11421614308EB010208F8B4
:1086E4000100576001F11002083142444144384608
:1086F400FFF77CFB45F002050134A4B221E007F545
:1087040080520868013074D104319142F9D1D9F80A
:1087140000203AB902220123C9F80070A9F8042004
:1087240001930CE014226243022008EB020108F8D2
:1087340002003B4A4F60548001340881A4B245F0E2
:1087440001050AF5805ABAF5405FB7D1BBF1010FB4
:1087540098BF0025EDB2022D02D0062D20D045BBD6
:108764000B2679E7019B63B11422624308EB0201F3
:10877400022008F802000134D9F800204A60088178
:10878400A4B200222749C9F800703846FFF72EFB2F
:10879400B9F80420022A0CBF042208221543D0E7AA
:1087A400029A0123137005A800235360FFF72AFAE5
:1087B40052E704A8FFF7E0FAC8B10123013D0370B2
:1087C4000A2D09D8DFE805F0060806080708070897
:1087D4000F110F000023037104A9104800F0C9F918
:1087E400FFF772FE38E70323F5E70223F3E70826D1
:1087F40032E70BF1FF321FFA82FB1422624308EBCB
:1088040002014F60032108F8021075E7D02A002006
:108814004822002020F702001C2B0020F022002018
:10882400D82A0020B02B0020AC2B0020F42A0020F2
:108834002DE9F3410D46044668B361B301A9FFF77E
:1088440033FB50B36668002206213046B6F8068032
:108854007788FFF7BBF9791CADF806000DF1060225
:10886400890006F10800FFF7B1F9804517D10D4BD7
:10887400BDF80400142202FB003001210C3000F08A
:108884000AFA63682E600C336B600123A372002024
:1088940002B0BDE8F0810520FAE70A20F8E70D20D0
:1088A400F6E700BFF42A002013B50446A8B10DF181
:1088B4000601FFF7F9FA90B10B4ABDF8063014210E
:1088C40001FB0323DA6862B1A27A52B1DA680020AC
:1088D400013ADA60A07202B010BD0520FBE70A205D
:1088E400F9E70620F7E700BFF42A0020022300225C
:1088F400FFF7F8BD18B103230022FFF7F3BD0520ED
:10890400704700000F4B1B7837B505469BB1A0B1EB
:1089140001A8FFF731FA90B1042303702B68C360F8
:108924000024047101A9084800F023F9FFF7CCFDE5
:10893400204603B030BD0220FBE70520F9E70820FC
:10894400F7E700BFD02A0020F02200200E4B1B784E
:1089540007B5A3B101A8FFF70FFA90B1062303707E
:1089640001A90A4800F005F9094B1A780AB1012255
:108974001A73FFF7A9FD002003B05DF804FB022081
:10898400FAE70820F8E700BFD02A0020F0220020F0
:10899400D82A00200B46002102460846FFF7D6BA23
:1089A40007B5ADF80600ADF804100DF1060001A9F5
:1089B400FFF7CCFA03B05DF804FB00002DE9F84F93
:1089C4003A4B1B780446002B6CD000286CD0DFF89F
:1089D400E0A01222002105F05CFC032323804FF069
:1089E400000BD04614274FF00109DAF80410BAF846
:1089F4000A50BAF808600846FFF7CCF9032808BF04
:108A04002388628804BF03F1FF33238007FB0B83B1
:108A14002E44DB681344638023891D4463892581C4
:108A2400B6B233446381C6F58066A389B6B2B34255
:108A340001F1080538BFA68101F58051A94229D961
:108A44002B68013326D02846FFF7BCF901280AD049
:108A5400022815D00028F1D1A3880133A3800AE0AD
:108A64004FF0010BC1E7E3880133E380E3896A88AF
:108A740003331344E3816B88033305EB8305DDE79C
:108A8400E38884F810900133E380E389491B03EB06
:108A9400A101E1810AF1140ABBF1000FE0D000202A
:108AA400BDE8F88F0220FBE70520F9E7D02A002073
:108AB400F42A002010B561B1B2FBF3F403FB1424D3
:108AC400A4B244B9C0E9001484608281C381204601
:108AD40010BD0E20FCE70920FAE782B050E8022F0F
:108AE400C188B2EB324F4FF0000317BF92B241EA94
:108AF400014142EA014104E04268B2EB324F08BF4F
:108B0400012340E80212002AE8D18DF807309DF8CD
:108B14000730002B0CBF1120002002B0704737B57E
:108B240050E8013F9DB2C48925448489A54228BFE9
:108B34002D1B0489A54202BFBFF32F8F002207E03B
:108B4400C5EA030540E80154002CE9D14FF00102C5
:108B54008DF803200193019B9DF803200B6002F024
:108B6400FF0322B10B880068184403B030BD1846D7
:108B7400FBE70A884B889A4209D150E8012FC2EAE0
:108B8400024240E80123002BF7D101207047002066
:108B9400704737B550E8023F1FFAA3F5C488A542D1
:108BA40002BFBFF32F8F00220DE0C48925448489BE
:108BB400A54228BF2D1BC3EA054540E80254002CFA
:108BC400E8D14FF001028DF803200193019B9DF839
:108BD40003200B6002F0FF0322B14B8800681844A5
:108BE40003B030BD1846FBE70A884B889A4209D186
:108BF40050E8022FC2EA224240E80223002BF7D1B8
:108C0400012070470020704710B5034653E8000F59
:108C14000A4643E8002494F0000FF7D110BD10B5C4
:108C2400034653E8000F40EA010243E8002494F0AD
:108C3400000FF6D110BD10B5034653E8002F42EAE9
:108C4400010043E8000494F0000FF6D110BD10B504
:108C5400034653E8000F00EA010243E8002494F0BD
:108C6400000FF6D110BD10B5034653E8002F02EAF9
:108C7400010043E8000494F0000FF6D110BD10B5D4
:108C8400034653E8000F00EB010243E8002494F08C
:108C9400000FF6D110BD10B5034653E8002F02EBC8
:108CA400010043E8000494F0000FF6D110BD10B5A4
:108CB400034653E8002FA2EB010043E8000494F0BC
:108CC400000FF6D110BD0121FFF7A9BF0121FFF765
:108CD400B2BF0021FFF7BBBF0021FFF7C4BF0000F4
:108CE4002DE9F0478368D3F83C31C3F340059B0773
:108CF40088B0074606D50022114608B0BDE8F04703
:108D040001F02CBD012906D91E4A022108B0BDE894
:108D1400F04700F0BFBC1C4C1C4EDFF874A04FF0B1
:108D24006408A946361B1C23B6FBF3F6AE4204F1D5
:108D34001C0402D108B0BDE8F08754F81C0C54E9B7
:108D44000623017900689A1A1B1ADBB2039308FB05
:108D540003F3B3FBF2F3CDE9019334F8043C00933D
:108D6400CDE9061254F8083C11FB08F13846B1FB72
:108D7400F2F1CDE904215246082100F08BFC0135C3
:108D8400D4E700BFECED02003CE5020074E502000C
:108D9400FFED020010B590B1D0E9012301689B1AE0
:108DA400DBB20A60013BDBB2FF2B026802D1002078
:108DB400107110BD11684C1C14600B70F2E70E208A
:108DC400F7E737B5054600240DF107008DF8074095
:108DD400FEF7C2FE2A686B68116899420ED9481ED4
:108DE400106011F8014CEB68298B01FB0434AB686B
:108DF40011791B1ADBB2994238BF13719DF8070031
:108E0400FEF7CEFE204603B030BD37B5054600233D
:108E14000DF107000C468DF80730FEF79DFE2A6819
:108E24001368591C1160E968641A298BB4FBF1F4C6
:108E34001C709DF80700FEF7B3FE03B030BD30B1DF
:108E44008A6892F83C3143F0200382F83C31704741
:108E5400436810B59C686068036801219B68984763
:108E6400A36810B903221A7010BD0422FBE7096835
:108E7400006805F063BA08B105F087BA704738B5E1
:108E8400836804460068DD7CFFF7F5FFA3685A7B1E
:108E94002844B0FBF2F302FB1300B0FA80F040095F
:108EA40038BD10B584680068FFF7E5FFE37C627B9A
:108EB400A07353FA80F3B3FBF2F102FB11330133D5
:108EC4002372A37C53FA80F00131B0FBF2F302FB6E
:108ED4001300A1720130591C6072E17204F10800A0
:108EE40010BD38B58368044600689D7CFFF7C3FF56
:108EF400A3685A7B2844B0FBF2F302FB1300B0FAD8
:108F040080F0400938BD00002DE9F843089E1C4656
:108F14000D46E9B9194E1A4B9B1BB2EBD30F4FEA1E
:108F2400D30804D2174F07EB8207A84501D10023C9
:108F340009E073683868196805F000FAB146083624
:108F440020B9D9F804302360BDE8F8830135ECE793
:108F54000028ECD00178436839B13146104698476F
:108F64003368002BE3D02660EEE7110103EB021215
:108F74005B58002BDBD02260E6E700BFF0E3020081
:108F840060E402001022002030B50368D3F83451A5
:108F940085B00446EDB10023092201A9284602F058
:108FA40092FD2368029AC3F834210021092201A802
:108FB40005F06FF90023092201A9284602F079FD82
:108FC400284602F01EFD2368D3F8340118B9C3F80B
:108FD400300105B030BD01A90023092202F073FD60
:108FE40020680023D0F834010193092201A902F07A
:108FF40060FDEEE707B58368B9B1DA7B8A4211D028
:109004000B4A009233228DF8042001F12F028DF8CF
:1090140005206D22ADF80620D9736A46054900691A
:1090240001F0D9FF03B05DF804FB034AD973F5E7F7
:109034001B5B313BE3EF02006BF3020007B583686F
:109044001A7C8A4213D045F61B32ADF80020342234
:109054008DF8022001F12F0219748DF803206D227E
:10906400ADF80420034900696A4601F0B4FF03B077
:109074005DF804FBE3EF0200014A024901F0ABBFD3
:1090840068F30200E3EF02000A460068014901F0B8
:10909400A2BF00BF10EF020009B1FFF7F5BF704790
:1090A400014A024901F097BF5EF30200E3EF0200B8
:1090B4002DE9F743002506460F461446056020783F
:1090C40040B104F09CFE68B1002304F8013B33680E
:1090D4000B2BF4D933680022284647F8232003B029
:1090E400BDE8F08333685A1C326047F823400546D4
:1090F40094F80080B8F1000FE9D0002D77D1B8F1D1
:10910400270F05D0B8F15C0F79D0B8F1220F66D1E2
:109114002046FFF7B0FE611C0246204604F0F2FE32
:109124004546E5E72046FFF7A6FE611C02462046B9
:1091340004F0E8FE0025DBE7302826D102234FF0B7
:109144000008E05CA0F13001C9B207295FFA83F995
:1091540018D8013341EAC801052B5FFA81F8F0D130
:10916400994609F1FF31214420460191FFF783FE1E
:109174000230A0EB09020199204604F0C3FE04F872
:10918400018BB5E7B9F1020FEBD178282DD102217B
:109194004FF00008635CA3F13002D2B2092AC8B2CE
:1091A4000AD842EA081303295FFA83F802D14FF080
:1091B4000409D6E70321EDE7A3F16102052A03D8E8
:1091C400573B43EA0813EEE7A3F14102052A01D80D
:1091D400373BF6E7022808D04FF00309C1E74046C1
:1091E40004F00DFE00287FF472AF013480E7A84537
:1091F40098D0B8F15C0FF8D1607885429CD12046B4
:10920400FFF739FE04F1010802464146204604F006
:1092140079FE44466CE72DE9F34105460F461446B2
:10922400002614B902B0BDE8F081686803682246DC
:10923400D3F80C80B91901ABC047019B1E44E41A52
:10924400002BEED1AB681A78032AEAD0D3F83C217C
:109254009206FBD593F83C216FF3451283F83C2129
:10926400DFE72DE9F04F2DED028B044683B09046E5
:109274000E46002973D00025705D04F0C0FD50BB7C
:1092840004F1100308EE103A5FFA88FB3046FFF74A
:10929400F2FDA36893F80D90401BA9EB080906EBB7
:1092A400050A484553464FF0000717D913F8010B38
:1092B400CDE9003304F0A3FD009B20B113F8012C89
:1092C4000A2A34D0B946A268507B08EB07029042C0
:1092D4002CD90137EAE70135CEE70137B84219D076
:1092E40013F8012B0A2A05EB0709F6D1206901F0CE
:1092F40067FE3A46274651462046FFF78CFF57F84B
:10930400100FFFF7B9FE5FFA88F1384609F101053D
:10931400FFF7C2FE2069711901F05DFE206903B0F8
:10932400BDEC028BBDE8F04FFFF7A6BE4F462069A7
:1093340001F046FE3A4651462046FFF76CFF3D4495
:10934400705D04F05CFD40B92069FFF795FE18EEEE
:10935400100A5946FFF7A0FE98E70135F0E703B07D
:10936400BDEC028BBDE8F08F0A4619B102490068D2
:1093740001F031BE704700BF16EF02000A4619B172
:109384000249006801F027BE704700BF1CEF0200CD
:1093940037B50546FFF785FD837902788178013377
:1093A4009A42044601D1012915D0012905F1100082
:1093B40005D90139C9B20190FFF7E0FF019823787C
:1093C400A1798B4209D9013B591AC9B2FFF7CCFFE5
:1093D400AB680022DA7403B030BD0131C91AC9B2D6
:1093E400FFF75AFEF4E7F7B50546FFF75AFD87780D
:1093F400C67804462846FFF742FD78B12869FFF78E
:109404003BFEB74205F110000ED161782378C91AEA
:10941400C9B203B0BDE8F040FFF7A6BF2846FFF786
:1094240060FD0028EAD1ECE7A378E1780190C91A3D
:10943400C9B2FFF7A3FF2378617801988B42E6D97C
:10944400591AC9B203B0BDE8F040FFF725BE0000C9
:109454002DE9F34105468068424F002480222146CD
:1094640094308DF8034004F014FF3F49286901F05B
:10947400B2FD286901F0A4FD4FF47A7647F00107A4
:10948400686803680122D3F810800DF1030101AB71
:10949400C047019B5BB94FF6C010B847019B002B36
:1094A400EED1013EB6B2002EEAD10D2035E09DF892
:1094B4000330AA681B2B48D092F894101B29EDD1D5
:1094C400522B42D11444002384F8943092F895101E
:1094D4005B291FD102F1960602211D4616F8010BE5
:1094E4004C1C3B28E1B264B21AD1002C20DB01F100
:1094F40094041444002314F8010BD8B9FA2B28BFA0
:10950400FA23FA2D13722B4628BFFA23937282F89A
:10951400940002E082F894300B2002B0BDE8F081A0
:1095240005EB850300EB4303303B80299DB2D5D185
:109534000C20F2E703EB830300EB43004E1C3038AE
:1095440083B23006F1B2F3D4D5E711190134E4B291
:10955400092C81F89430A1D9002382F89430042096
:10956400DBE700BF90F3020086F3020038B505463E
:10957400FFF797FC027843789A4204468378C278CE
:1095840001D1934214D09A4205D9D21A0B492869C1
:10959400D2B201F020FD237861788B4205F11000EE
:1095A40007D9591AC9B2FFF7DFFEAB689A7CDA749F
:1095B40038BDC91AC9B2FFF76FFDF6E722EF020002
:1095C400F8B51E46C3685B68054698604068036842
:1095D40017461C68294A2B46A0470446002844D154
:1095E400686902F00CFA044600283ED1A8684FF4DA
:1095F400A0722146C0E94C4404F04BFEA9682048FF
:1096040091F83C311F4A43F0200381F83C3191F832
:109614003C3167F3820381F83C3191F83C3143F0EB
:10962400080381F83C3101230B7045F218038B8148
:10963400121A154B4FEAD20C21460430614516D15B
:10964400072A04D9114B1048042204F078FC66B1AF
:109654009DF81810E868FDF735FD0028A1BFEB68F8
:10966400DB6801225A71B8BF04242046F8BD50F8C3
:1096740031703F6843F8047B0131DFE7438E020019
:10968400F0E3020060E4020010220020738E020066
:10969400FFF7C1BD0CB473B506AB0D4653F8046BAC
:1096A40081680193D1F83C315B07044620D5CB7B1C
:1096B400AB421DD002220F31684604F0C1FD294699
:1096C4002046FFF797FC206901AA314601F0FAFC15
:1096D4009DF800102046FFF78DFC9DF8011011B194
:1096E4002046FFF7ABFC02B0BDE8704002B0704703
:1096F400206901AA314601F0E5FCF4E78268002103
:10970400518211750368024A0321FFF7C3BF00BFEA
:10971400E3EF020070B583681E78012E04461AD167
:109724004068036800219B689847054688B908216A
:109734002046FFF75FFC31462046FFF77FFC206997
:10974400064901F048FCA36802221A702046FFF77C
:10975400D5FF284670BD0825FBE700BF28EF0200AF
:10976400F8B504468068867CB3187F2B0F461546EF
:109774003ADC002A38D0C37CF61A03F114011344EE
:109784001433F6B20144721C184404F0BBFBA06805
:10979400C37C14332A463946184404F0B3FBA0684A
:1097A4001430FFF768FBA268D37C9074143313441D
:1097B40020460E4A0821FFF76DFFA368DA7C1544A2
:1097C400DD742046FFF75BFB40B12069FFF754FCD2
:1097D40056B12046BDE8F840FFF705BE2046FFF726
:1097E40080FB0028F1D1F3E7F8BD00BFE3EF0200EE
:1097F4002DE9F04104468068D0F83C61827CC37C4A
:10980400C6F30008D51A16F001060F46EDB23DD195
:109814007E2A3FD83DB103F11401153301442A4691
:10982400184404F06FFBA368DA7C1A441775002E01
:1098340072D19A7C0132D2B29A74134483F81480A0
:10984400002D71D02046FFF72CFB8278C3789A4212
:1098540004F1100720D1A268D37C143313440821E7
:109864002046344AFFF716FFA91BC9B23846FFF752
:109874007BFDA268D37C0133D3742046FFF7FFFA43
:1098840010B32069BDE8F041FFF7F6BB7E2ACAD9C0
:10989400002DC8D1BDE8F0812069274A254901F08F
:1098A4009AFBA268D37C143313442046214A08212E
:1098B400FFF7F0FE2069214A1E4901F08CFB0121CB
:1098C4003846FFF7E1FBD4E72046FFF70AFB002800
:1098D400E0D02046FFF7E5FAC2788378013AD21A3D
:1098E40012F0FF02054604F1100603D01449206962
:1098F40001F071FB2069FFF7BFFBE978AB78C91A67
:109904003046C9B2FFF73AFD297801393046C9B269
:10991400BDE8F041FFF7C0BB002D93D19A7C013222
:10992400D2B29A7413441D75064920693A4601F06F
:1099340052FB9EE7E3EF020062F3020065F30200CC
:1099440022EF02002BED02007FB583680025CDE9EC
:109954000155D3F838218DF80C5004460E460029E1
:1099640040D1002A3AD0FFF713FDA0683346D0F85F
:109974003801092201A902F0A6F8A068029B857C9F
:10998400C0F83831002B4DD19430FFF774FAA36836
:1099940030B303F1940103F1140004F0ADFCA068AA
:1099A4001430FFF768FA8DF80C009DF80C30A268AB
:1099B400AB42D374937402D22069FFF771FBA3689E
:1099C4002D4A204614330821FFF764FE2046FFF792
:1099D40056FA002849D02069FFF74EFB04B070BD49
:1099E4001875DCE7D3F834119142F7D0D3F830314D
:1099F400002BF3D0FFF7CCFCA368D3F8380140BBAD
:109A040003F11400FFF737FAA36810F0FF05D3F849
:109A14003021C3F8382119D003F1140103F1940063
:109A240004F06AFCA06801A9D0F8380100230922D7
:109A340002F049F8A0689DF80C2000F114010923F4
:109A4400D0F83801013202F03EF8AEE783F89450C2
:109A5400E8E72B46092201A902F035F8A368019A28
:109A64009DF80C50C3F83821DCE72046FFF739FA9B
:109A74000028B0D1B2E700BFE3EF020038B50446D6
:109A84008068C37C857CED1A15F0FF0540D003F196
:109A94001501143301442A46184404F033FAA26829
:109AA400937C013B93742046FFF7FBF98278C378DB
:109AB4009A4215D1A268D37C143313442046154A24
:109AC4000821FFF7E7FD54F8100F1249124A01F07C
:109AD40082FA691E2046C9B2BDE83840FFF744BC8B
:109AE4000E4A0C49206901F076FA2069FFF7D8FA8A
:109AF400A268D37C143313442046064A0821FFF796
:109B0400C9FD2069064A0349BDE8384001F063BA3B
:109B140038BD00BFE3EF02006FF3020062F30200FE
:109B240065F302002DE9F041C3685B6890B0044618
:109B34000D461868002203A902F0BDF8002840F081
:109B44008C808DB1039801F0A5FFA268D2F82C3166
:109B54000133C2F82C3103F00703012B04D0012593
:109B6400284610B0BDE8F0812046FFF79AF98178C5
:109B74000129064605D90139C9B204F11000FFF7DD
:109B8400FDFB3178012905D90139C9B204F110006E
:109B9400FFF7EAFB2069FFF783FA2DB1304A02216F
:109BA4002046FFF777FDDBE700230822039804A98A
:109BB40001F089FF069B0793059B08939DF81030DD
:109BC4008DF8255003F00302012A25D1BDF8102099
:109BD400049E0398C3F3C203C2F383178DF82430A1
:109BE400BA0008230AA901F06EFFC6F3952623697B
:109BF40000933A4607AB0AA93046FDF7EFFB0398FA
:109C040001F048FFE3685B680022186803A902F0CA
:109C140052F80028C8D0A2E7022AF0D1BDF8126099
:109C2400C3F3C203C6F389168DF824304FF0080835
:109C3400082E374628BF0827434603983A460AA900
:109C440001F041FFF61B236907AA39460AA8B84464
:109C5400FDF728FC002EEBD1D1E7002580E700BFFB
:109C64002CEF020013B5436801A918689C68002210
:109C740002F021F8014610B92046FFF753FF02B065
:109C840010BDF7B547680191BD68AB681E78042E16
:109C94000ED0386801A901F039FF044650B9019883
:109CA40001F0F4FE032E03D121462846FFF73AFFC4
:109CB40003B0F0BDF11E18BF01212846FFF732FFA3
:109CC400E7E700002DE9F04F2DED028B8246806816
:109CD400A3B0102100F59E70FEF7ADFFDAF808304E
:109CE4001B78022B4FD100230993DAF80400036890
:109CF40001221C690DF1230109ABA047099B3BB369
:109D04009DF92330002BF0DB01F0E7FEDAF8083090
:109D14005C78012C00F04384022C00F04784002C72
:109D240040F004859DF823009AF81820824240F000
:109D3400C9819A7CC2BBC3F83821DAF81000FFF756
:109D44009BF9DAF8083002221A705046FFF7D6FC65
:109D540000215046FFF7E6FEA8B1DAF80030B74A12
:109D640003215046FFF796FCDAF80830D3F83C217B
:109D7400120708D55046B14A14330821FFF78AFC6C
:109D84005046FFF730FBDAF8100001F019F9DAF861
:109D940008006FF0100100F59E70FEF764FF23B019
:109DA400BDEC028BBDE8F08F1B7D002B64D1DAF88B
:109DB40008001430FFF75FF8DAF80830002510F0D7
:109DC400FF04C3F8385125D0D3F83001002800F03F
:109DD40093802B46092215A901F075FE9DF85C308D
:109DE4009C4240F08980DAF80800092300F19401CC
:109DF400621CD0F8300101F066FEDAF8080000F1C8
:109E04009401143004F09AFADAF80830002871D179
:109E140083F894005046FFF7A9FB5046FFF72FF84C
:109E240018B9DAF81000FFF727F9DAF8082015A9AD
:109E340014320CA8FFF73CF90C9A0346002A3FF4AD
:109E44007CAF002840F0A3807D4E7E4DAD1BED0815
:109E54000446A542159B40F0A0807B4A0092022153
:109E64007A4A5046FFF716FC6BE70134B4F5807F5D
:109E740002D100221A759AE7DAF808302344E5B2D1
:109E8400187D03F0BCFFDAF808300028EDD175B175
:109E94009A7C03F114000132121B011904F032F808
:109EA400DAF80820937C5B1BDBB29374D374DAF882
:109EB4000840A37C13331C44E7B2A046E6B2BD1BA2
:109EC40098F80000EDB2013C03F099FF0028F4D1AA
:109ED400DAF80820937C03F11301114488453FF418
:109EE40066AF5D1BF61B15443344DBB228759374CF
:109EF400D3745CE783F89450082604F10A050AEB4E
:109F04000607DAF81400294601F091FD04460028FA
:109F140037D0DAF80830D3F83001B0B9C3E94C448B
:109F2400CDE915009B7C8DF85C3015A920460023F3
:109F3400092201F0BEFDDAF808108A7C09230132F7
:109F44001431204601F0B5FD64E70023092215A968
:109F540001F0B9FDDAF80800169400230922D0F8BC
:109F6400300115A901F0A5FD00231693DAF8083095
:109F7400D3F8302115929A7C8DF85C20C3F83041D7
:109F8400D3E73846FFF700F8013EBAD142E7304A3A
:109F940002215046FFF77EFBD3E67268184611682B
:109FA40004F0CCF93746083618B10134A542BFF4A1
:109FB40050AF00230D937B68DA68029212B1DAF88D
:109FC400082053600024D3F80890A04626460125B3
:109FD40027460C9BAB4211D922AB03EB850B1D49E1
:109FE4005BF8340C04F0AAF9002835D1DAF808201B
:109FF40092F83C3143F0020382F83C31002C56D0F5
:10A0040011AB009342460DAB31462046FEF77CFF70
:10A014000D9BDAF808200C99536015AADB6802EB53
:10A024008602891B50469847DAF8082092F83C319A
:10A034006FF3410382F83C3183E600BFE3EF020093
:10A04400F0E3020060E4020070EF020004E80200A2
:10A054005BEF020084EF0200A5495BF8340C04F0C6
:10A064006DF90028C2D07B1C039311AB00933A46D0
:10A074000DAB29464846FEF747FF7B1C002BBDD09D
:10A084000D9B002BBAD019685BF8340C04F056F918
:10A0940058B90D9B0390DA68002A18BF4C46D3F8D0
:10A0A40008901CBF2E46B8460135039F91E7029BDA
:10A0B40013B10C9915AAB5E78E4A02215046FFF751
:10A0C400E9FAB1E7092835D024D800283FF40DAEC9
:10A0D400082800F0038203F097FE00283FF405AE41
:10A0E400DAF808309DF82310D3F83C211007C2F3A6
:10A0F400C00500F15A81987C7E283FF6F6ADDC7CE1
:10A10400621CD2B2DA741C441A44013021751575EC
:10A114009874EAE51B280AD07F28DCD1D3F83C31B7
:10A124001C077FF5E2AD5046FFF7A8FCDDE50122F0
:10A134005A70DAE5D3F83C2117077FF5D6AD9D7C3C
:10A14400C5F17F0515F0FF0202923FF4CEAD03F195
:10A154001401DA7C03F1940004F072F8DAF80830A0
:10A16400DA7C13442546D87C83F8944003F047FEF8
:10A17400DAF808200590B0F1000BC2F8384115A9AF
:10A1840002F194020AA818BF4FF0010BFEF790FFEA
:10A194001598FEF770FECDE90B44CDE903445FFA50
:10A1A40080F826460A9B23B1013B5B44A34200F29C
:10A1B4008980059B002B36D122AB03EB840353F833
:10A1C400340CFEF758FE5FFA80F822AB03EB8403ED
:10A1D4004FF00009079309F1010306930DAB0093B7
:10A1E4004A460BAB21463046FEF78EFE0B9B002BF6
:10A1F40000F0D6801968079B424653F8340C03F0EC
:10A20400AFFF0C9B0746B0B193B1002E00F0CA809B
:10A214000B9B002B00F084800A9B0134E4B25B4466
:10A224009C42BFD37CE04FF00008CEE7CDF81090FD
:10A23400DDF81890CFE70B9A106863B9FEF71BFEA0
:10A24400029AC5B2A5EB08039A4201DDDBB2029380
:10A25400CDF80C901EE0FEF70EFE029BC0B28542C4
:10A2640038BF0546B3B111AB009330460CAB049A2A
:10A274002146FEF749FE0B9B18680C9BD3F800C0DF
:10A2840008EB0701FBB2425C92B9029A9A4228BFDA
:10A294001A4602920B9B0C93069B002BC6D1164ABE
:10A2A40004215046FFF7F6F94FF0FF330493ACE76F
:10A2B4001CF801109142E8D10137B7F5807FDFD156
:10A2C400FF23E2E722AB4FF0000903EB84070DAB59
:10A2D40000934A460BAB21463046FEF715FEB9F112
:10A2E400FF3F0BD1044A04215046FFF7D3F9FCE4A5
:10A2F40087EF02008EEF0200ADEF02000B9B002BF4
:10A304003FF4F3AC196857F8340C04F017F809F16A
:10A3140001090028DBD10B9B9E68002E7FF47CAFE3
:10A324000C9B002B3FF4E1ACDDE9032393425FD1A6
:10A3340033783BB10DAB0093049A0CAB2146304605
:10A34400FEF7E2FD0C9B1868FEF795FD404506D02C
:10A354000C9B029A196850464144FFF701FADAF857
:10A364000830DA7C1344187D03F049FDDAF808302C
:10A37400F8B9D3F83C21D60716D593F83C2160F3FD
:10A38400000283F83C2120215046FFF731FADAF825
:10A39400082092F83C3143F0010382F83C31A4E4F4
:10A3A400002EBDD10026BBE720215046FFF720FA3E
:10A3B4009BE4DA7C9B7C9A42BFF497AC5046FEF750
:10A3C40070FDDAF808208478D37C0133D3745046C6
:10A3D400FEF767FD8378A34205D101210AF110003D
:10A3E400FEF752FE81E4DAF81000FEF745FE7CE445
:10A3F400DAF80830DFF8609300225A74DDE90323A9
:10A40400934219D2DAF80030C94A50460321FFF7C3
:10A4140041F9DAF80830C74A143308215046FFF7E7
:10A4240039F95046FEF7DFFF0C9B029A1968504633
:10A434004144FFF795F958E40DAB0093039A0BAB35
:10A4440021463046FEF760FD0B9B1B6833B9DAF8F2
:10A4540008205374039B01330393CFE748460593C5
:10A46400FEF709FDDAF8082028445FFA80FB484625
:10A47400577BFEF700FD059B06901846FEF7FBFC94
:10A48400ABEB0000C3B2DAF80800069A417CBF1AAD
:10A49400B7FBFBFB5FFA8BFBB1FBFBF20BFB121B65
:10A4A40001F1010C1BF0FF0F08EE103A80F811C007
:10A4B400059B0DD10093A04A4B4607215046FFF758
:10A4C400E9F818EE101A0AF11000FEF7E5FDC1E7ED
:10A4D400984A07215046FFF7DDF8F2E7D3F83C210C
:10A4E40015077FF502AC9C7C002C3FF4FEABD87CB6
:10A4F40000283FF4FAAB241A00F11401E4B213303B
:10A50400621C1944184403F0FDFCDAF80830DA7CC4
:10A51400013ADA749A7C013A9A74002C3DD00822EC
:10A524008649DAF8100000F056FD5046FEF7B9FCF3
:10A534008278C3789A4214D1DAF80820D37C55463D
:10A544001433134408217B4A5046FFF7A3F855F807
:10A55400100FFEF7A5FD21462846FEF705FFFFF77D
:10A56400C4BB774A7349DAF8100000F034FDDAF816
:10A574001000FEF795FDDAF80820D37C1433134459
:10A5840008216C4A5046FFF785F86E4A6949DAF8A3
:10A59400100000F020FDFFF7A8BB6B4AF6E79DF81A
:10A5A40023205B2A40F0C2800222C1E500225A70B7
:10A5B400DAF80830D3F83C2111077FF5C9AB9DF8D0
:10A5C4002320313A1B2A3FF690AB01A151F822F027
:10A5D400F9A6020007A7020027A70200EBA60200C3
:10A5E400EF9C0200EF9C0200EF9C0200EF9C020033
:10A5F400EF9C0200EF9C0200EF9C0200EF9C020023
:10A60400EF9C0200EF9C0200EF9C0200EF9C020012
:10A6140045A6020051A6020055A60200A5A6020006
:10A62400EF9C0200EFA60200EF9C0200FDA60200D0
:10A63400EF9C0200EF9C0200EF9C02000BA70200BB
:10A6440001215046FFF780F9FFF74FBB0021F8E7DF
:10A654005046FEF726FC037842789A42044604D119
:10A664008178C27891423FF440AB62799A420AF110
:10A67400100510D13549DAF81000012200F0ABFCC6
:10A6840061792846FEF770FEDAF80820D37C01339E
:10A69400D374FFF72ABB01212846FEF7F5FCF3E744
:10A6A4005046FEF7FEFB8379027801339A42044652
:10A6B40003D18378012B3FF418AB012ADAF8100098
:10A6C4000CD1234900F087FC61790AF11000FEF7F0
:10A6D400E3FCDAF80820D37C013BD9E71D490122C9
:10A6E40000F079FCF5E703225A705046FEF73EFF6E
:10A6F400FFF7FBBA03225A705046FEF749FEFFF7F4
:10A70400F4BA03225A70D3F83C2193F83C1102F0B6
:10A71400010282F0010262F3000183F83C11FFF7A9
:10A72400E4BA03225A70DAF80830F7E40022FFE4AE
:10A73400E1EF0200E3EF0200DAEF02002BED02008A
:10A7440062F3020065F3020082F3020022EF0200CA
:10A754001CEF020016EF020026ED02002DE9F04F77
:10A7640007468BB08148DFF8248291460D4603F0FA
:10A774000CFE06467E4803F008FEBB687D4A5B6813
:10A78400CDF80080301A08211B6886B23846FEF7DF
:10A7940081FFBB685B681868FEF76DFB04464046A2
:10A7A40003F0F3FDBB685B68204482B25968384605
:10A7B400FEF757FD704A08213846FEF76BFFB9F1E2
:10A7C400000F07D035B14FF00C08AA4608FB095812
:10A7D400C2452AD1664803F0D8FD841C3444A4B28F
:10A7E400624B664A009304F1030808213846234665
:10A7F4001FFA88F8FEF74EFF614942463846FEF7D5
:10A8040030FD45B10C2606FB0956DFF884B1DFF8AC
:10A814006C91AE4223D1BB685B68D3F80880B8F171
:10A82400000F5AD10BB0BDE8F08FDAF80400FEF740
:10A8340022FB0446DAF80000FEF71DFB2044B04278
:10A844000AD9DAF80400FEF716FB0446DAF8000029
:10A85400FEF711FB204486B20AF10C0AB8E7D5E9E9
:10A86400002393B34AB30192414A009208215A4605
:10A874003846FEF70FFF6868FEF7FDFA0390286874
:10A88400FEF7F9FA82463A4803F07FFD039AA21ACA
:10A89400A2EB0A03181AC1B207F11000FEF7FCFB81
:10A8A400384938693A2200F096FBA96889B14246D2
:10A8B4003846FEF7D6FC0C35ABE7009323464A46F0
:10A8C40008213846FEF7E6FEEFE7002AEDD00092B5
:10A8D400F4E73869FEF7D0FBEDE70022059216464F
:10A8E40006AD009505AB0121404602F10109FEF7D2
:10A8F4000BFB059C5CB12068FEF7BDFAB04204D99D
:10A90400059B1868FEF7B7FA86B24A46E9E7B9F13B
:10A91400010F87D01C4ADFF864A008213846FEF7EF
:10A92400B9FE2246B41CA4B205AB009501214046F1
:10A9340002F10109FEF7E8FA059B002B3FF472AF20
:10A944001B6800930821234652463846FEF7A2FEB0
:10A95400059B596831B1721D92B23846FEF781FCED
:10A964004A46E1E73869FEF787FBF9E796F3020008
:10A9740008F50200DCEF0200E6EF0200F1EF02004E
:10A98400F9EF02002BED020015F002008BF3020038
:10A994000CF0020000221146FFF7E0BE022910B5B8
:10A9A400044608D18368D3F83C319B0703D5BDE83E
:10A9B4001040FFF7EFBF2069054A064900F00BFB82
:10A9C4002069054A0349BDE8104000F004BB00BFFC
:10A9D40073F30200E3EF020077F30200012906D0CB
:10A9E400022906D18368D3F83C319B0701D5FFF7D0
:10A9F400D1BF024A0221FEF74DBE00BF8EEF020016
:10AA040038B58368D3F83C21C2F3400592070C465D
:10AA140006D500221146FFF7A1FE2C46204638BD7C
:10AA24000029FBD05B68034A1B680221FEF732FE53
:10AA3400F4E700BF24F00200012937B505461446A7
:10AA440004D103B0BDE83040FFF7A4BF023918BFFA
:10AA54000121FFF7D5FF48B963680193044B0093C4
:10AA6400044A236802212846FEF714FE03B030BDD1
:10AA740084E602007AE60200012907B504D103B096
:10AA84005DF804EBFFF786BF02290AD153680193EE
:10AA9400084B00931368084AFEF7FCFD03B05DF809
:10AAA40004FB8CBF0121002103B05DF804EBFFF728
:10AAB400A7BF00BF84E602007AE60200013910B5A0
:10AAC40018BF01210446FFF79BFF40B9044A05491A
:10AAD400206900F080FAA36845F218029A8110BD3B
:10AAE4007CF30200E3EF020001292DE9F34104465F
:10AAF400154637D18668FEF7ABFC38BBA36804F172
:10AB04001005FA21284693F808809F7AFEF7BCFACC
:10AB140020691E49FA2200F05EFA2046FEF798FCEE
:10AB2400A0B9A368197A7173A368A1EB08019B7A91
:10AB340033732846C9B2FEF717FC317BC91BC9B26F
:10AB4400284602B0BDE8F041FEF718BCA36845F200
:10AB540018029A810E4A0421204602B0BDE8F04151
:10AB6400FEF798BD022994BF00210121FFF748FF99
:10AB740048B96B680193074B00932B68064A02217E
:10AB84002046FEF787FD02B0BDE8F08122EF020007
:10AB940040F0020084E602007AE602002DE9F0416A
:10ABA400013986B018BF01210546FFF729FF40BBD4
:10ABB400AB68DFF85480D3F834610446EEB1082C56
:10ABC4001BD030460023092203A900F07CFF9DF826
:10ABD4001420A968304609230132943100F073FF30
:10ABE400AB68049E94330093671C234642460821B5
:10ABF4002846FEF74FFD3C46E0E7AB68002283F8A9
:10AC0400942006B0BDE8F0817BF00200013910B554
:10AC140018BF01210446FFF7F3FE30B9A26892F889
:10AC24003C3160F3820382F83C3110BD013910B528
:10AC340018BF01210446FFF7E3FE30B9A26892F879
:10AC44003C3143F0040382F83C3110BD013910B5A6
:10AC540018BF01210446FFF7D3FE30B9A26892F869
:10AC64003C3160F3C30382F83C3110BD013910B5A7
:10AC740018BF01210446FFF7C3FE30B9A26892F859
:10AC84003C3143F0080382F83C3110BD022973B50E
:10AC94000D4694BF0021012104461646FFF7B0FE7D
:10ACA40058B9022D0BD1736801930D4B00930D4AD3
:10ACB400336829462046FEF7EDFC02B070BDA36858
:10ACC400094AD3F83C3113F0080F084B18BF134658
:10ACD400074A0821204602B0BDE87040FEF7DABCFE
:10ACE40084E602007AE602006B05030086F00200A7
:10ACF4008AF00200013910B518BF01210446FFF79C
:10AD04007FFE48B9A368C3F82C01E3685B68BDE81B
:10AD14001040186801F017B810BD000030B50139B3
:10AD240085B018BF01210446FFF76AFEB8B9E3688D
:10AD34005B681D68284601F003F8AA68A168C0B2E0
:10AD4400CDE9010264234343B3FBF2F3DBB2009386
:10AD5400D1F82C31034A08212046FEF79BFC05B0AC
:10AD640030BD00BF9CF002001A60C0681A4601F0B2
:10AD7400BBB8000010B4074C0378E35C23B15DF862
:10AD8400044B043001F0B6BE5DF8044B0C3001F006
:10AD940009BC00BF7C2C00204069054A0378D35CC1
:10ADA40013B1043001F060BF0C3001F0C5BC00BF2A
:10ADB4007C2C00200378044AD35C13B1043001F0E6
:10ADC40045BE0C3001F09ABB7C2C002010B5044623
:10ADD4004069FFF7EFFFA368BDE810401868FCF76F
:10ADE400ABBE000037B51A6005461A46006901F08B
:10ADF40006F8044608BB6869134A0378D35CFBB1C0
:10AE0400043001F0B9FEC0B9FF230193286901237E
:10AE140001AA694601F031F878B99DF80420009937
:10AE24006869FFF7A7FF6B6893F82930044623B1DC
:10AE340018B90199286901F096F8204603B030BD8D
:10AE44000C3001F0F5FBDEE77C2C002037B5FF2346
:10AE540004460093C06801236A4601A900F080FFFC
:10AE640098B9009888B163690B4D0199C2B21878FA
:10AE7400285C60B1181D01F08BFE30B9A36822462E
:10AE8400186840F6CD41FCF70FFE03B030BD03F166
:10AE94000C0001F0D9FBF0E77C2C002073B503789B
:10AEA400FF26012B05460C46019623D0022B18D011
:10AEB400F3B9017A206901F056F801AA20690196D4
:10AEC4000123694600F0D9FF019A22B10099606913
:10AED400D2B2FFF74FFF63680120D3E90021904706
:10AEE40006E0017AE06800F073FF2046FFF7AEFF4A
:10AEF40002B070BD017AE06800F06AFF2B7A002B83
:10AF0400F3D063680020D3E900219047EDE7000007
:10AF140038B5436893F8283004460D460BB383686C
:10AF24001868FCF709FE30F008030ED175B16069AA
:10AF3400FFF740FF616860690022083101F096F86C
:10AF440068B96368012283F8292038BD636893F8DF
:10AF5400283043B12046BDE83840FFF777BF0620CC
:10AF6400F3E70029E3D1064AA0680021FCF78AFD33
:10AF74006368012283F828200028EBD0E5E700BFAE
:10AF84009DAD020038B5044640680D46C0E9002373
:10AF9400002303852022083003F052F92C6129464E
:10AFA400064A606901F062F8054628B9E06800F0D5
:10AFB400CEFE206900F0CBFE284638BDA1AE0200CB
:10AFC400826810B504462AB143690168006998474C
:10AFD4000023A36010BD0EB403B5039921B104ABE3
:10AFE40001AA019300F06EF802B05DF804EB03B01F
:10AFF4007047826830B40468551C8560A154D0E958
:10B0040001329A4202D330BCFFF7DABF30BC70473A
:10B014002DE9F84F9846DDE90A43154682460F4666
:10B024000A464FF00109AA420FD2C14538BFC146B2
:10B0340013F0010B01D16CB900240126B8F1010F02
:10B044001BD908F1FF386E43F8E709F10109B2FB97
:10B05400F5F2E8E79B070ED5B8F1000F0CBF3026D8
:10B064002026A145E9D2013C31465046FFF7C1FFF5
:10B07400002CF6D1E0E72026F3E7B7FBF6F39D4278
:10B08400E1D9DFF83C80B7FBF6F3504618F803101B
:10B0940006FB1377FFF7ADFF3346AB42B6FBF5F67D
:10B0A400F1D2BBF1000F02D00CB1A14501D3BDE830
:10B0B400F88F20215046013CFFF79BFFF4E700BFC7
:10B0C40028F502002DE9F74F054617468846002962
:10B0D40000F0428118F8011B49B92B7B002B00F0CA
:10B0E4003B81284603B0BDE8F04FFFF769BF25292F
:10B0F40040F0B780002698F800302D2B424608F126
:10B10400010823D0302B24D02B2B25D000242A2B2C
:10B1140002F1010123D13B681A1D1B683A601C44EB
:10B124000A4613782E2B26D101324FF0000A10461E
:10B1340010F8011BA1F1300CBCF1090F1DD80A2332
:10B1440003FB0A13A3F1300A0246F0E746F00106B6
:10B15400D1E746F00206CEE746F00406CBE711F845
:10B16400013CA3F130000928DBD80A2202FB043495
:10B17400303C0A46CBE74FF0000A12F8011B01F0FD
:10B18400FB0068289046F8D0782909D86F290CD894
:10B19400632962D022D8252963D0582900F08880F9
:10B1A40098F80030002B95D197E770390829F7D823
:10B1B40001A353F821F000BF37B30200A5B1020088
:10B1C400A5B10200C5B20200A5B10200A3B20200FB
:10B1D400A5B10200A5B10200B5B20200642901D0F4
:10B1E4006929DDD13A68D2F80090111D89EAE97223
:10B1F4003960A2EBE9724FF0010B092A35DCD34523
:10B2040038BFD3462CB1B9F1000F01DB720700D56A
:10B21400013CB30702D5BAF1000F03D0F00701D403
:10B224004CBB0024B9F1000F2DDAC9F100092D211E
:10B234002846FFF7DEFE06F00302022A04D1BAF123
:10B24400000F01D11CBB0024CDE9004653460A225D
:10B2540049462846FFF7DCFEA2E73B681A1D197829
:10B264003A602846FFF7C5FE9AE70A230BF1010B63
:10B27400B2FBF3F2C1E7A345D4D220212846013C16
:10B28400FFF7B7FECCE77107D5D52B21D0E7A3454F
:10B29400DAD230212846013CFFF7ABFED2E7396809
:10B2A400CDE900460A1D3A6053460A220968D0E7F0
:10B2B40039680A1D3A60CDE9004653461022F5E785
:10B2C4003B681A1D3A6016F00106D3F8009028D1A5
:10B2D400B9F1000F03D0484603F057F80646B442CC
:10B2E40000D904BB09F1FF3919F8011F00293FF403
:10B2F40057AF2846FFF77DFEF6E728460136FFF7ED
:10B3040078FE19F806100029F7D1A642BFF448AF19
:10B31400002C3FF445AF20212846013CFFF769FE8D
:10B32400F3E70026EDE720212846013CFFF761FE04
:10B33400D5E73B681A1D3A60302128461C68FFF7A0
:10B3440058FE78212846FFF754FE00220823CDE951
:10B354000032214610227CE703B0BDE8F08F00BF25
:10B3640013B50B46114698B9144B5B886BB1144B5B
:10B374001448154AC01A0E23C0080093134B000446
:10B38400134940F00100FBF790FE0E2002B010BDFF
:10B394006BB90A4B5B88002BF7D0094B09480D4A5F
:10B3A400C01AC0080E2300930004084BE8E70360AA
:10B3B4001B6802B0BDE81040184700BF802200207F
:10B3C4009CE40200E4E4020038F50200CEF6020038
:10B3D4003DF502006CF502002DE9F341B0B9514B83
:10B3E4005B88002B00F095804F4B5048504AC01AA0
:10B3F400C0080E244F4B009400044F4940F0010054
:10B40400FBF753FE204602B0BDE8F0816AB9454B14
:10B414005B88002B7DD0444B4448484AC01AC0087E
:10B424000E24444B00940004E7E7D0F800E0BEF19A
:10B43400000F0DD13B4B5B88002B6CD03A4B3B4843
:10B444003F4AC01AC00808243A4B00940004D4E7C9
:10B454006BB9344B5B88002B5FD0334B3348394A8C
:10B46400C01AC0080924334B00940004C5E745689A
:10B47400D5F80480B3FBF8F508FB15356DB1294BFD
:10B484005B88002B49D0284B28482F4AC01AC00893
:10B494000924284B00940004AFE78D070DD0214BFD
:10B4A4005B88002B3BD0204B2048284AC01AC00898
:10B4B4001024204B009400049FE712F0030F0CD0DB
:10B4C400184B5B885BB3184B1848214AC01AC00854
:10B4D4001024184B009400048FE7C568A9420BD3CD
:10B4E4004D1EEC180569AC4206D8DEF80C40A446A3
:10B4F40002B0BDE8F04160470A4B5B887BB10A4B60
:10B504000A48144AC01AC00810240A4B00940004C4
:10B5140073E70E2476E7082474E7092472E71024FD
:10B5240070E700BF802200209CE40200E4E40200F3
:10B5340038F50200E0F602003DF50200BAF502001B
:10B5440066F5020079F50200C0F50200EAF5020092
:10B5540002F6020025F60200F7B5A0B9374B5B8866
:10B56400002B63D0364B3748374AC01AC0080E2424
:10B57400364B00940004364940F00100FBF795FD7A
:10B58400204603B0F0BDD0F800C0BCF1000F0DD1CF
:10B594002A4B5B88002B4BD0294B2A482D4AC01AD2
:10B5A400C0080824294B00940004E4E76AB9234B3B
:10B5B4005B88002B3ED0224B2248274AC01AC00881
:10B5C4000924224B00940004D5E74768D7F800E02B
:10B5D4000EF1FF370F420CD0184B5B8863B3184B46
:10B5E40018481E4AC01AC0081024184B00940004BE
:10B5F400C1E7C768B9420CD304694D1E0EFB02555E
:10B60400A54206D8DCF81040A44603B0BDE8F040DB
:10B6140060470A4B5B887BB1094B0A48104AC01A41
:10B62400C0081024094B00940004A4E70E24A7E7E3
:10B634000824A5E70924A3E71024A1E78022002019
:10B644009CE40200E4E4020038F50200F3F6020090
:10B654003DF5020066F5020079F502004CF60200A1
:10B6640072F6020029DF704728DF704770B503685F
:10B674009E6886B004460D466EB1142200216846C9
:10B6840002F007FEA3680593237901952BB1012BE2
:10B694000DD06846B04706B070BD01238DF8003068
:10B6A40023690293E368039363690493F1E7022334
:10B6B4008DF80030E3681B030293F5E708467047F2
:10B6C40000207047024B187A003818BF01207047D9
:10B6D400502C0020034B187A0122B0FA80F05A74DF
:10B6E40040097047502C002008B510461A4602F055
:10B6F400A7FD002008BD000008B51422002104485D
:10B7040002F0C7FD0348FDF7E8F9002008BD00BFBB
:10B71400502C00200423002010B5094C094B436031
:10B724002046FDF7D0FA40B902F05CF906492074CE
:10B734001C2306488C22FDF7BDF9002010BD00BF74
:10B74400502C002014F70200C42B002004230020F6
:10B7540070B5244C244E237A25463BB9234924480A
:10B76400FDF717FA306008B9606070BD02233468D1
:10B774002B72237973B1012B24D020460321FFF7C8
:10B7840075FF00232B726B6018491948BDE870409F
:10B79400FDF72ABAD4E90523D21AB2F5805FD4E9B9
:10B7A400031028BF4FF480529208012A38BF0122A7
:10B7B40019441844FFF756FF50B11128DDD1012375
:10B7C4002B72D2E7D4E903031844FFF74DFFF3E7E4
:10B7D4002B7C002BC9D10146BDE87040022000F04B
:10B7E40009B800BF502C0020682C0020642C0020D5
:10B7F4000423002038B5831E012B45D8234C237A1B
:10B80400002B41D0022B09D1032830D0204B002239
:10B814001B68E2601A793AB1012A22D0637C7BBBAF
:10B82400BDE83840FFF794BFD3E905128D1AB5F58A
:10B83400805F94BF521902F580529A619142EDD112
:10B8440002284FF0000308BF19462372104B18BF9B
:10B854000D211868FFF70AFF0E490F48FDF7C4F9D8
:10B86400DCE71A6901321A615B699A42E7E7E36827
:10B874000133082B01D8E360D0E70023E360DFE75E
:10B88400BDE8384002F09EB838BD00BF502C0020FF
:10B89400682C0020642C00200423002000F0FD0309
:10B8A400012B08D1044B00225A74421E50425041CD
:10B8B4001874FFF74DBF7047502C002010B5064C8C
:10B8C400201DFDF700FA28B9637C1BB9BDE81040C0
:10B8D400FFF73EBF10BD00BF502C00202DE9F341FF
:10B8E40080460D460F4801A916461F46FDF717F975
:10B8F4000446A8B11C22002102F0CBFC2D0B01232D
:10B90400237101A90748C4F80080A760E560666157
:10B91400FDF72FF9FFF7D2FF002002B0BDE8F08158
:10B924000420FAE7042300202DE9F74381468846E2
:10B93400104801A917461E46FDF7F1F80446B0B1B8
:10B944001C22002102F0A5FC00250A9BA36001A98A
:10B95400C4E9037807482571C4F800906661FDF7CF
:10B9640008F9FFF7ABFF284603B0BDE8F0830420D5
:10B97400FAE700BF042300202DE9F84FB0F806A031
:10B984004579D2F800B09DF828900AFB05F5043DEE
:10B9940088460BEB0301A94203F1040488BFA5EB1D
:10B9A400030BB4FBFAF607460AFB1644C2F800B0D0
:10B9B4004EB9AAEB04055D4528BF5D46BBF1000FF7
:10B9C40004D1BDE8F88F3F68013EF1E7043408EB89
:10B9D40006003C442A46B9F1000F0DD02146ABEBDA
:10B9E400050B02F02DFCDA452E443F6855464FF016
:10B9F400000428BF5D46E1E701462046EFE7FDF776
:10BA0400C9B9F8B546790146721E0546002393422A
:10BA14002D6803D30024A64202D8F8BD0133F6E70B
:10BA24000F682846FDF7F1F901343946F3E72DE9AB
:10BA3400F843068BCD1C0746FDF7C3F9043E354495
:10BA44000446B5FBF6F5F0B14FF48073EDB2838094
:10BA5400C680013D076081464FF00008A84512D218
:10BA64003846FDF7AEF9064648B163790133637190
:10BA740008F10108C9F8000007608146EEE7204696
:10BA8400FFF7BFFF34462046BDE8F88301210430A8
:10BA9400FDF701B910B5012104460430FDF707F99B
:10BAA40010F0FF0F04D12046BDE81040FFF7A9BFF6
:10BAB40010BD1FB503920022009203AAFFF75CFF9A
:10BAC40005B05DF804FB1FB503920122009203AA9E
