:020000022000DC
:10600000000004205D630200456302004763020054
:10601000496302004B6302004D6302000000000070
:106020000000000000000000000000004F630200BC
:106030005163020000000000536302005563020038
:10604000F982020057630200A98702005763020029
:106050005763020057630200FD8502005763020088
:106060005763020057630200576302005763020040
:106070005763020057630200576302005763020030
:106080005763020011710200576302005763020058
:10609000AD7102005763020015A6020057630200AB
:1060A0005763020057630200576302005763020000
:1060B0005763020057630200000000000000000068
:1060C00057630200576302005763020057630200E0
:1060D00057630200576302005763020057630200D0
:1060E000576302005763020057630200000000007C
:1060F0000000000057630200000000005763020028
:10610000000000000000000000000000000000008F
:10611000000000000000000000000000000000007F
:10612000000000000000000000000000000000006F
:10613000000000000000000000000000000000005F
:10614000000000000000000000000000000000004F
:10615000000000000000000000000000000000003F
:10616000000000000000000000000000000000002F
:10617000000000000000000000000000000000001F
:10618000000000000000000000000000000000000F
:1061900000000000000000000000000000000000FF
:1061A00000000000000000000000000000000000EF
:1061B00000000000000000000000000000000000DF
:1061C00000000000000000000000000000000000CF
:1061D00000000000000000000000000000000000BF
:1061E00000000000000000000000000000000000AF
:1061F000000000000000000000000000000000009F
:10620000314932480A1A02D0072291438D4630495B
:1062100030480A1A06D00722914381F309880222E6
:1062200082F314882C482D492D4A00F03CF82D4863
:106230002D492E4A00F037F82D482E492E4A00F0FD
:1062400032F82E482E492F4A00F02DF82E482F49BB
:106250002F4A00F028F82F482F49304A00F023F841
:106260002F483049304A00F01EF8304830490022AB
:1062700000F024F82F483049002200F01FF82F4A80
:1062800090471F481F49884205D00268043003B474
:10629000904703BCF7E700208646EC46002000212B
:1062A000274A9047FEE7884207D0521A05D0037864
:1062B00001300B700131013AF9D17047884202D0A8
:1062C00002700130FAE770470000042000E003206C
:1062D00000000420000004207CBA0200701D002091
:1062E00078200020BC630200BC63020036AB0200D1
:1062F0007CBA0200701D0020701D00202CAC020032
:106300002CAC02002CAC02002CAC02002CAC020025
:106310002CAC02002CAC02002CAC02007ABA0200B9
:1063200084BD020078200020782000207820002002
:106330009C2D00209C2D00209C2D002085630200B8
:10634000E5930200FEE7FEE7FEE7FEE7FEE7FEE775
:10635000FEE7FEE7FEE7FEE7704700BF1048804714
:1063600010484FF00701884385460F4880470F4883
:10637000016841F470010160BFF34F8FBFF36F8F6D
:10638000FFF73EBF0A480B490B4A884207D0521A12
:1063900005D0037801300B700131013AF9D1704713
:1063A0005963020000000420BD7D020088ED00E07A
:0C63B0002CAC0200701D0020701D0020AD
:1063BC00F0B595B01D46164608460C4601F03AFC61
:1063CC001A9B0D93CDE9086500252B46082205A9DB
:1063DC0020460A958DF82C500C9501F048FC079B33
:1063EC000293069B03939DF814308DF8115003F023
:1063FC000302012A1DD1BDF81420059DC3F3C2036D
:10640C00C2F383168DF81030B20008230EA9204673
:10641C0001F02DFCC5F3952508AB0093324602AB79
:10642C000EA9284600F0D8FB204601F007FC15B059
:10643C00F0BD022AF8D1BDF81650C3F3C203C5F360
:10644C0089158DF810300827082D2E4628BF0826F0
:10645C003B4632460EA9204601F009FCAD1B08ABA9
:10646C0002AA31460EA8374400F01AFC002DEBD1DD
:10647C00DAE70000014B01221A707047B9200020A6
:10648C007047000070B5124D06460FCD88B06C46B3
:10649C000FC495E80F00002E84E80F004FF0FF3377
:1064AC004FF00602CDE90023CDE90233094A0A4830
:1064BC004FF0EB7308BF00226946069301F0A2FE71
:1064CC0008B100F071FD054B1E7008B070BD00BF27
:1064DC002CAC020081640200701D0020782000208A
:1064EC0007B5044B0093044A4023FFF761FF03B048
:1064FC005DF804FB096502007920002038B50D4BCE
:10650C000D4D002018700D4804782D5DD2B21C463C
:10651C0065B1043002F0ACFD08B100F045FD084B4C
:10652C001A7812B12378002BFBD038BD0C3002F056
:10653C0083FBF1E7B9200020E8270020701D002024
:10654C007820002008B50848084A0378D35C3BB192
:10655C00043002F039FDBDE808400020FFF792BF7F
:10656C000C3002F015FBF6E7701D0020E827002028
:10657C000120FFF787BF000008B5FFF7F9FF0448BB
:10658C00042100F091FA034B01225A7108BD00BF9F
:10659C001CAC0200841D0020037813F0040216D0FA
:1065AC0003F00303012B03D0022B09D00120704709
:1065BC000A6800880232C0F3831002440A60F5E7CF
:1065CC000B684288023303EB92130B60EEE7104624
:1065DC00704700002DE9F04F87B000230446861C5D
:1065EC000DF107000F4615468DF8073000F0D0FF6F
:1065FC00454801683960D0E90132134401335B1A14
:10660C00824600F21C4700F5836900F21448B3423D
:10661C001CD30020002D73D004F00F039B0143F01A
:10662C00050363F30F00DAF80020DAF808301340A2
:10663C00033316444AF823009DF80700CAF800609B
:10664C0000F0CAFF012007B0BDE8F08F01213846E9
:10665C0001F023F8484601F038F8404601F035F8CF
:10666C00DAF80400DAF808B0029000EA0B00033004
:10667C000AEB800002A9FFF78FFF029B50BB0BEACD
:10668C0003020AEB820203F1020CD268039201337B
:10669C0003EA0B0B0AEB8B0B02F00302012ADBF86B
:1066AC000C10CDF808C023D0022A16D083464046E1
:1066BC0001F00EF810B1029BCAF804305946384666
:1066CC0000F0EBFFDAE901231344DAF80020013380
:1066DC009B1A9CE70BEA0300C9E7BDF80E30C3F325
:1066EC00891303334FEA114B0CEB93030293DEE750
:1066FC00BDF80C30C3F383134FEA114B6344F5E739
:10670C00A40544F006008EE78C2100200B4B0C48AE
:10671C00FF2210B59A600022C3F81824C3E90022A6
:10672C00C3F8142483F8202401F03DFA044610B970
:10673C00044801F0E5FA204610BD00BF8C21002072
:10674C00F0AB020080AC020030B50A4C71B10A4AC1
:10675C000A49121BD20800239A4201D1002030BDF5
:10676C0031F82350854202D00133F5E7034654F843
:10677C003300F4E778AB0200F0AB0200701D002090
:10678C00094B013903EBC000032909D8DFE801F0FC
:10679C000A0204060420704700797047407970475C
:1067AC00002070470220704778AB0200034BD3E9FE
:1067BC000030C31A58425841704700BF8C2100204A
:1067CC002DE9F04387B0FFF7F1FF0646002840F0B3
:1067DC00F9807D4DC5F81804BFF34F8F6B68AC681A
:1067EC0002932340033305EB830002A9FFF7D4FE89
:1067FC00029B18B1D5F81824002A5FD004EA0302D2
:10680C00991C013305EB8202234005EB8303D2680C
:10681C00DB68049302F00303022B0392029160D114
:10682C00BDF80E306948C3F38917502FB84628BFFE
:10683C004FF0500868F38F1308F10801ADF80E30D3
:10684C0001F0C9F90646002800F0A78001F0F2F922
:10685C000023082203A9304601F0FFF9029924EA2B
:10686C0001020132B8EB820F4FEA820332D95FFA90
:10687C0088F85BB32140DCB2A8EB040803315FFA63
:10688C0088F9A046524C05EB81010823424630465C
:10689C0001F0E3F934B108F108034A4621463046C9
:1068AC0001F0DBF9029B033703EB97070297D5F84E
:1068BC001834002B49D1D5F8104459E02A689A4273
:1068CC008FD86A60304607B0BDE8F08340491C465B
:1068DC009946DAE70C40E11C0823424605EB81019E
:1068EC00DDE7012B59D1BDF80C303848C3F38311C7
:1068FC00062928BF062161F3891302318900ADF8FE
:10690C000C3001F068F90646002846D001F092F9E7
:10691C000023082203A9304601F09FF90027BDF897
:10692C000C20C2F38312BB00974203F10803BED2C2
:10693C0002994A1C21400331029205EB8101042289
:10694C00304601F08AF90137E9E7304601F076F973
:10695C00FFF72CFF80F00100C6B2B3E7E3685B7968
:10696C0023B1236831461B6820469847E3681C68AE
:10697C00002CF3D1304601F061F90DF107008DF8D0
:10698C00074000F005FED5F818340BB9029B6B607C
:10699C009DF8070000F020FEDAE7D5F8104454B952
:1069AC000C4B0D480D49C01AC008000440F0020001
:1069BC0000F062F8CCE7236820469B689847E368B0
:1069CC001C68ECE700267DE78C210020F0AB020070
:1069DC009821002078AB0200A0AB020069AC020049
:1069EC002DE9F74F224D04460F46924601A901228C
:1069FC001846D5F808909B46FFF7ECFD20B3019E96
:106A0C004FF00008B21CD84508EB020126D11948FA
:106A1C00002100F013FE80F31000000440EA144043
:106A2C00E400731C04F0380403EA090306EA0906BF
:106A3C0044F0010405EB8303033644EA881444EA6A
:106A4C008724D86045F8264095F820341BB1FFF711
:106A5C00B7FE0028FBD103B0BDE8F08F09EA0101B5
:106A6C0005EB81015AF82830CB6008F10108CAE720
:106A7C008C210020A825002000231A46FFF7B0BF68
:106A8C0007B50123019201AAFFF7AAFF03B05DF835
:106A9C0004FB07B5CDE9002302236A46FFF7A0FFEC
:106AAC0003B05DF804FB000030B50F49D1F8102499
:106ABC0003460020144634B9DC6820714AB9C1F889
:106ACC001034226030BDE4682579854206D02468F4
:106ADC00F1E7D268116821601360F3E701300A28EE
:106AEC00E8D14FF0FF30EDE78C210020094A38B592
:106AFC000123D2F8104482F820341D4604B938BD65
:106B0C00E3685D71236820465B689847E3681C68FE
:106B1C00F4E700BF8C21002007B503460846197A1C
:106B2C00052911D05B7A2BB1094A0A49019000F072
:106B3C0032FE01980849019000F02DFE019803B037
:106B4C005DF804EB00F01CBE002AF8D0F2E700BFA1
:106B5C008CAC020091AC0200B1AC020030B5C38821
:106B6C0085B004460D4633B1144A00921449154AB7
:106B7C00284600F010FE217A05291DD0637A4BB10E
:106B8C00A088FFF7FDFD104B104953F82020284634
:106B9C0000F001FE227A0E4BA08853F822200392BB
:106BAC000021FFF7D1FD039A0A490346284605B098
:106BBC00BDE8304000F0EFBD05B030BD8CAC02003C
:106BCC009CAC020094AC020018AD020091AC020027
:106BDC003CAD0200B4AC02002DE9F04385B01F4679
:106BEC000C9D002395F80C902B7306460C46904692
:106BFC0029463846FFF7B2FFB8F1060F09D8DFE88F
:106C0C0008F00412181F283340003146284600F0C3
:106C1C00C2FD002229463846FFF77EFF85F80C900E
:106C2C0005B0BDE8F08322683146284600F0B3FD7C
:106C3C00EFE7D4E900233146284600F0ACFDE8E745
:106C4C00A36800933146D4E90023284600F0A3FD45
:106C5C00DFE7E3680193A36800933146D4E900238E
:106C6C00284600F098FDD4E723690293E36801936A
:106C7C00A36800933146D4E90023284600F08BFD2D
:106C8C00C7E76369039323690293E3680193A368DD
:106C9C0000933146D4E90023284600F07CFDB8E788
:106CAC0008292DE9F74F80460E4617461C4639D861
:106CBC00002593F80C901D7319461046FFF74EFFF4
:106CCC00DFF880A0DFF880B0AE422ED918F805208E
:106CDC005946204600F05FFD0135082DF4D11849C6
:106CEC00DFF868A0DFF868B0204600F054FD0025FE
:106CFC00AE421FD918F805200192104603F02AFE67
:106D0C000028019A594608BF2E22204600F043FD68
:106D1C000135082DECD1012221463846FFF7FCFE47
:106D2C0084F80C9003B0BDE8F08F5146204600F07B
:106D3C0032FDD1E75146204600F02DFDE8E700BFBB
:106D4C00C8AC0200C4AC0200BEAC0200C6AC02006F
:106D5C00CAAC02002DE9F04F364E87B04FF0000957
:106D6C00354B1B785FFA89F5AB4202D807B0BDE80A
:106D7C00F08F324BD3F800A01AF835000124D6E975
:106D8C00001EA0F12002C0F1200304FA02F224FA42
:106D9C0003F3134304FA00FC059301EA0C0300937C
:106DAC00059B0EEA03030193DDE9002313430AEB71
:106DBC00C50B3BD0059B21EA0C012EEA0303C6E967
:106DCC00001301F007FC01461AF835001C4DA0F128
:106DDC002002C0F1200304FA02F224FA03F3134355
:106DEC00D5E900C28440134004EA0C040393A0F1DB
:106DFC002002C0F1200321FA03F3029401FA02F8F5
:106E0C0048EA0308DDE9023401FA00F7444508BFFB
:106E1C00BB420BD1DBF8043043B19BF80120541E6C
:106E2C0062426241551A69426941984709F1010968
:106E3C0096E700BF782600204826002080260020F8
:106E4C0070260020F8B506461E4800F091FBC0BB2A
:106E5C000125A6F12004C6F1200325FA03F305FA57
:106E6C0004F41C43184BD3E900C2B5400CEA0500EE
:106E7C0002EA040101431F461DD1304601F0AAFB72
:106E8C00124BD3E9001288B129432243C3E9001203
:106E9C00D7E900231C430E4B0A4819681543C7E970
:106EAC0000540022BDE8F84000F01ABB21EA0501AD
:106EBC0022EA0402EAE72CEA050522EA0404C3E903
:106ECC000054F8BD502600207826002070260020A3
:106EDC004C260020042A2DE9F34105460C461646A3
:106EEC0039D901F0A7FAD8B11C4B1D491D601D4BB7
:106EFC00DFF884801C701C4B00221E600023C1E94B
:106F0C0000231A49C1E90023013CE4B200260327FF
:106F1C00FF2C0CD1164A1748002100F0CFFA03E0E1
:106F2C0001F04EFA0028DFD002B0BDE8F08105EB8D
:106F3C00C40315F834009B788DF80660424601A90D
:106F4C008DF804708DF8053001F07EFA013CE4B246
:106F5C000028DDD0E8E70720E6E700BF8026002008
:106F6C0070260020482600204C2600207826002081
:106F7C00616D020050AD0200516E020070B5084DFB
:106F8C00084E00242B789C4201D3002070BD33683E
:106F9C00012113F8340001F0D3FA0134F2E700BFF9
:106FAC0048260020802600201FB50021039001AA4E
:106FBC0044F20100CDE9011100F004F805B05DF8D0
:106FCC0004FB000010B572B6FFF790FDFFF7F8FB5D
:106FDC000028FBD1104B114C1149E41AE40824048D
:106FEC0044F00100FFF748FD0E4B1B68DB0700D592
:106FFC0000BE0D4944F00200FFF73EFDBFF34F8F7A
:10700C000A490B4BCA6802F4E0621343CB60BFF32E
:10701C004F8F00BFFDE700BF78AB0200A0AB0200B2
:10702C0054AD0200F0ED00E060AD020000ED00E0B8
:10703C000400FA05094A537891780133DBB299427E
:10704C0008BF0023117899421FBF03705078182392
:10705C0003FB002014BF043000207047842600205E
:10706C0073B5054600240DF107000E468DF8074058
:10707C0000F08EFA0DF10600FFF7DCFF90B1067000
:10708C00094B9DF8062045605A709DF8070000F0EA
:10709C00A3FA24B9054B4FF48012C3F80021204603
:1070AC0002B070BD0424F0E78426002000E100E06B
:1070BC00024B4FF43C6043F00103184770AD0200E3
:1070CC0038B50C4B0C4C4FF40032C3F88020012522
:1070DC004FF48033C4F84833C4F808336560FFF7C5
:1070EC00E7FF064BA56000241C60FFF7E1FF044B93
:1070FC001C7038BD00E100E000100140A02700200A
:10710C0091270020F8B51F4B1F491B680025C1F8BB
:10711C004051C1F84451C1F84851C1F84C51C1F823
:10712C000051C1F804514BB3D1F804451749096813
:10713C00641A24F07F442F461A68A24209D8A41A74
:10714C0015441A7CDE691AB1D3E905201F749047E7
:10715C00AEB90F4A0F4B11781B788B4205D1013316
:10716C00DBB2022B08BF0023137012780A4B43F8D2
:10717C0022500A4B4FF48012C3F80021F8BD33465D
:10718C00DAE700BFA427002000100140A027002050
:10719C009D2700209C2700209427002000E100E080
:1071AC002DE9F04FA24AA34913780978A24D9942D0
:1071BC0085B03CD00133DBB2022B08BF0023137027
:1071CC009E4912789E4B0F6853F822003B1823F00F
:1071DC007F4300220B602B6816461446944613B965
:1071EC0042B12B6006E0196881420ED902B12B60C6
:1071FC00091A196001272B68DFF84CA201934FF094
:10720C000008BEB9DFF848B262E0401A0C44D968F5
:10721C00D3F81CE0C3F800C031B13A1922F07F4218
:10722C00C3E90121DE611E4673460122D7E7002621
:10723C003746E0E73446F669804A63681268DFF83F
:10724C0014C2A068991A21F07F41614500F2A88010
:10725C0001442160012222742A680023C4E901330D
:10726C00E361002A40F0A5802C60CAE79BF802106D
:10727C005A1CD2B291428BF8002004BF00228BF82A
:10728C000020182202FB03B32A6819799C68022992
:10729C0077D0032900F08180012919D1207CB8B95D
:1072AC00D3E90312A2605A69E2609A69654BA26144
:1072BC001B78002B0CBF0B4603466360BCE78C426B
:1072CC0000F094808946C9690029F8D10023237401
:1072DC009BF800309BF801209A42C7D12B68B8F17B
:1072EC00000F04D1019A9A4201D1002F43D0002BF8
:1072FC0079D0D3F800A0544D504BD5F804751C68C8
:10730C00DFF854813E1B98F8003026F07F46033698
:10731C009BB94FF48033C5F84433C5F804334B4B59
:10732C004FF400324FF00109C3F880211A60C5F800
:10733C000090FFF7BDFE88F80090B2452CBF544476
:10734C00A41924F07F44C5F84045D5F80435DB1B5F
:10735C0023F07F43E41B033324F07F44A3420AD978
:10736C00D5F80435C5F84035FFF7A2FE374B4FF47E
:10737C000032C3F80021334B00221A7005B0BDE86F
:10738C00F08F114691469FE71174D2690123002AB0
:10739C00FAD1002B9CD02A609AE700231946F6E715
:1073AC00D31A23F07F43834234BFC31A00232360D4
:1073BC0050E721681368994213D8591A1160E26199
:1073CC0052E7091AD8691A4638B103461868884238
:1073DC00F7D3401A1860184613462160E061DC614F
:1073EC000FE71346F2E7FFF76BFEC4E74C4511D1EC
:1073FC00D3692B6073B9DFF844E00120CDE90212A8
:10740C00CAF80800CEF800300E4B1870FFF750FE8B
:10741C00DDE902120B68C969C9F81C1011B10868C2
:10742C0003440B602B68934218BF4FF001084DE7E3
:10743C009C2700209D270020A4270020A0270020A7
:10744C0094270020902700200010014000E100E06C
:10745C0084260020FEFF7F009127002008B5FFF74F
:10746C002FFE104B00200B2218809A700E4B1860C8
:10747C000E4B18700E4B18700E4B4FF48012C0212F
:10748C00C3F8802183F814131A6002F18042A2F52C
:10749C006F22C2F8080583F81113074BD2F80425A4
:1074AC001A6008BD84260020A42700209C270020F9
:1074BC009D27002000E100E0A0270020074B9B78CF
:1074CC004BB132B128B10368187C20B959745A6198
:1074DC007047072070470820704700BF84260020A3
:1074EC002DE9F743DFF8848098F8023005460E4604
:1074FC001746ABB3A0B3042930D9436983B3437C9B
:10750C000024012B0DF107000CBF8946A1468DF814
:10751C00074000F03DF80DF10600FFF78BFDD8B1E8
:10752C00012303700F4B4560D3F80435C0E9049771
:10753C00C0E902369DF8063088F801309DF8070046
:10754C0000F04AF824B9084B4FF48012C3F800211C
:10755C00204603B0BDE8F0830424EFE70724F7E7E7
:10756C000824F5E70010014000E100E0842600202B
:10757C00064A92783AB130B1426922B100220274C3
:10758C000221FFF76DBD0820704700BF8426002044
:10759C0070B5EFF3108672B60C4A946801239CB94F
:1075AC0093600B4B0B4DD3F8801029401160C3F83E
:1075BC008050D3F8841051604FF0FF32C3F8842010
:1075CC00047006B962B670BD0370FAE7A8270020F4
:1075DC0000E100E0FC06FFBD084B9A6810B55AB1FB
:1075EC0050B9EFF3108172B6054A1C6814605C68E0
:1075FC005460986001B962B610BD00BFA827002086
:10760C0000E100E001F01F024B090121914000EB69
:10761C00830000F01EB801F01F0301229A404B09B1
:10762C0000EB8300D14300F02CB84B0901F01F0193
:10763C0050F82300C84000F00100704710B5034615
:10764C0053E8000F0A4643E8002494F0000FF7D1EA
:10765C0010BD10B5034653E8002F42EA010043E881
:10766C00000494F0000FF6D110BD10B5034653E89A
:10767C00000F00EA010243E8002494F0000FF6D159
:10768C0010BD10B5034653E8002F02EA010043E891
:10769C00000494F0000FF6D110BD10B5034653E86A
:1076AC00002F02EB010043E8000494F0000FF6D128
:1076BC0010BD10B5034653E8002FA2EB010043E8C0
:1076CC00000494F0000FF6D110BD0121FFF7C1BFEB
:1076DC000021FFF7CABF10B590B1D0E901230168B2
:1076EC009B1ADBB20A60013BDBB2FF2B026802D1B2
:1076FC000020107110BD11684C1C14600B70F2E767
:10770C000E20F7E737B5054600240DF107008DF87C
:10771C000740FFF73DFF2A686B68116899420ED944
:10772C00481E106011F8014CEB68298A01FB0434E7
:10773C00AB6811791B1ADBB2994238BF13719DF8F3
:10774C000700FFF749FF204603B030BD37B50546AB
:10775C0000230DF107000C468DF80730FFF718FFDA
:10776C002A681368591C1160E968641A298AB4FBE9
:10777C00F1F41C709DF80700FFF72EFF03B030BD2D
:10778C00826810B504462AB14369016800699847BC
:10779C000023A36010BD0EB403B5039921B104AB53
:1077AC0001AA019300F06EF802B05DF804EB03B08F
:1077BC007047826830B40468551C8560A154D0E9C8
:1077CC0001329A4202D330BCFFF7DABF30BC7047AB
:1077DC002DE9F84F9846DDE90A43154682460F46D7
:1077EC000A464FF00109AA420FD2C14538BFC14623
:1077FC0013F0010B01D16CB900240126B8F1010F73
:10780C001BD908F1FF386E43F8E709F10109B2FB07
:10781C00F5F2E8E79B070ED5B8F1000F0CBF302648
:10782C002026A145E9D2013C31465046FFF7C1FF65
:10783C00002CF6D1E0E72026F3E7B7FBF6F39D42E8
:10784C00E1D9DFF83C80B7FBF6F3504618F803108B
:10785C0006FB1377FFF7ADFF3346AB42B6FBF5F6ED
:10786C00F1D2BBF1000F02D00CB1A14501D3BDE8A0
:10787C00F88F20215046013CFFF79BFFF4E700BF37
:10788C0076AD02002DE9F74F0546174688460029CC
:10789C0000F0428118F8011B49B92B7B002B00F03A
:1078AC003B81284603B0BDE8F04FFFF769BF25299F
:1078BC0040F0B780002698F800302D2B424608F196
:1078CC00010823D0302B24D02B2B25D000242A2B9D
:1078DC0002F1010123D13B681A1D1B683A601C445C
:1078EC000A4613782E2B26D101324FF0000A10468F
:1078FC0010F8011BA1F1300CBCF1090F1DD80A23A3
:10790C0003FB0A13A3F1300A0246F0E746F0010626
:10791C00D1E746F00206CEE746F00406CBE711F8B5
:10792C00013CA3F130000928DBD80A2202FB043405
:10793C00303C0A46CBE74FF0000A12F8011B01F06D
:10794C00FB0068289046F8D0782909D86F290CD804
:10795C00632962D022D8252963D0582900F0888069
:10796C0098F80030002B95D197E770390829F7D893
:10797C0001A353F821F000BFFF7A02006D790200D9
:10798C006D7902008D7A02006D7902006B7A02002B
:10799C006D7902006D7902007D7A0200642901D0B4
:1079AC006929DDD13A68D2F80090111D89EAE97293
:1079BC003960A2EBE9724FF0010B092A35DCD34593
:1079CC0038BFD3462CB1B9F1000F01DB720700D5DB
:1079DC00013CB30702D5BAF1000F03D0F00701D474
:1079EC004CBB0024B9F1000F2DDAC9F100092D218F
:1079FC002846FFF7DEFE06F00302022A04D1BAF194
:107A0C00000F01D11CBB0024CDE9004653460A22CD
:107A1C0049462846FFF7DCFEA2E73B681A1D197899
:107A2C003A602846FFF7C5FE9AE70A230BF1010BD3
:107A3C00B2FBF3F2C1E7A345D4D220212846013C86
:107A4C00FFF7B7FECCE77107D5D52B21D0E7A345BF
:107A5C00DAD230212846013CFFF7ABFED2E7396879
:107A6C00CDE900460A1D3A6053460A220968D0E760
:107A7C0039680A1D3A60CDE9004653461022F5E7F5
:107A8C003B681A1D3A6016F00106D3F8009028D115
:107A9C00B9F1000F03D0484603F017F80646B4427C
:107AAC0000D904BB09F1FF3919F8011F00293FF473
:107ABC0057AF2846FFF77DFEF6E728460136FFF75D
:107ACC0078FE19F806100029F7D1A642BFF448AF8A
:107ADC00002C3FF445AF20212846013CFFF769FEFE
:107AEC00F3E70026EDE720212846013CFFF761FE75
:107AFC00D5E73B681A1D3A60302128461C68FFF711
:107B0C0058FE78212846FFF754FE00220823CDE9C1
:107B1C000032214610227CE703B0BDE8F08F00BF95
:107B2C002DE9F84FB0F806A04579D2F800B09DF8D1
:107B3C0028900AFB05F5043D88460BEB0301A9428E
:107B4C0003F1040488BFA5EB030BB4FBFAF607465C
:107B5C000AFB1644C2F800B04EB9AAEB04055D4509
:107B6C0028BF5D46BBF1000F04D1BDE8F88F3F681C
:107B7C00013EF1E7043408EB06003C442A46B9F117
:107B8C00000F0DD02146ABEB050B02F01BFFDA45C5
:107B9C002E443F6855464FF0000428BF5D46E1E790
:107BAC0001462046EFE7FFF796BDF8B5467901464A
:107BBC00721E0546002393422D6803D30024A6426F
:107BCC0002D8F8BD0133F6E70F682846FFF7BEFD73
:107BDC0001343946F3E72DE9F843068ACD1C0746F4
:107BEC00FFF790FD043E35440446B5FBF6F5F0B1C5
:107BFC004FF48073EDB28380C680013D07608146EF
:107C0C004FF00008A84512D23846FFF77BFD064618
:107C1C0048B163790133637108F10108C9F80000B8
:107C2C0007608146EEE72046FFF7BFFF344620464B
:107C3C00BDE8F88301210430FFF72FBD10B50121F9
:107C4C0004460430FFF735FD10F0FF0F04D1204639
:107C5C00BDE81040FFF7A9BF10BD1FB5039200226D
:107C6C00009203AAFFF75CFF05B05DF804FB1FB59B
:107C7C0003920122009203AAFFF752FF05B05DF8B0
:107C8C0004FB41DF70470000064B10B500241C704C
:107C9C00054B1C60BFF35F8F0449054800F039F8B1
:107CAC00204610BDBC270020C027002090AD02004C
:107CBC00B427002007B500230DF107008DF807301D
:107CCC00FFF766FCF1EE103A23F09F03E1EE103A59
:107CDC00BFF35F8F094B4022C3F884219DF8070046
:107CEC00FFF77AFC02F076FC20B1FFF7CAFF03B075
:107CFC005DF804FB20BF40BF20BFF8E700E100E0C7
:107D0C00836800225A60C3E904229A60DA601A6020
:107D1C0070470B684A684360934208BF00230160B8
:107D2C0008BF43607047436843B10268916852686A
:107D3C000B449342436004BF002343607047000030
:107D4C0010B50D49A1F59472914201D800200FE0B5
:107D5C008C1AE30F03EBE4035B1002EBC30452F841
:107D6C003330834205D802D204F10802ECE7606894
:107D7C0010BD2146E8E700BF94B2020008B5FFF73A
:107D8C00DFFF024B002808BF184608BD56B10200A1
:107D9C00054B1B68082B01BF044B1868B0FA80F028
:107DAC00400918BF0020704730010010340100104A
:107DBC0008B54FF080430022C3F80C21C3F8102102
:107DCC00C3F838254FF0805203F54043D2F8041421
:107DDC00C3F82015D2F80814C3F82415D2F80C14E3
:107DEC00C3F82815D2F81014C3F82C15D2F81414B3
:107DFC00C3F83015D2F81814C3F83415D2F81C1483
:107E0C00C3F84015D2F82014C3F84415D2F8241442
:107E1C00C3F84815D2F82814C3F84C15D2F82C1412
:107E2C00C3F85015D2F83014C3F85415D2F83414E2
:107E3C00C3F86015D2F83814C3F86415D2F83C14A2
:107E4C00C3F86815D2F84014C3F86C15D2F8442462
:107E5C00C3F87025FFF79CFF10B1384B384A1A60F5
:107E6C00FFF796FF18B1374BFB22C3F81825FFF725
:107E7C008FFF48B13449354B0A681B6822F00F025A
:107E8C0003F00F0313430B60FFF782FF18B1304B65
:107E9C004FF400721A604FF08043D3F80024D207DD
:107EAC0044BF6FF00102C3F800242A4AD2F888308C
:107EBC0043F47003C2F88830BFF34F8FBFF36F8F5A
:107ECC004FF01023D3F80022002A03DBD3F804323E
:107EDC00002B2FDA204B0122C3F80425D3F8002401
:107EEC00002AFBD04FF010221221C2F80012D3F856
:107EFC000024002AFBD04FF010231222C3F80422D6
:107F0C00154B1A46D3F800140029FBD00021C3F8F6
:107F1C000415D2F80034002BFBD0BFF34F8F0D4962
:107F2C000E4BCA6802F4E0621343CB60BFF34F8F71
:107F3C0000BFFDE70A4B0B4A1A6008BD8C56004087
:107F4C004881030000F00040E40E0040580200108D
:107F5C004096024000ED00E000E001400400FA050C
:107F6C008C1D00200090D003074B1B5C1F2B86BF81
:107F7C00064903F01F034FF0A041012202FA03F35C
:107F8C00C1F80C35704700BF94B2020000030050DA
:107F9C00074B1B5C1F2B86BF064903F01F034FF0DA
:107FAC00A041012202FA03F3C1F80835704700BF63
:107FBC0094B202000003005008B50020FFF7E8FF60
:107FCC000120FFF7E5FF0220FFF7E2FFBDE80840C4
:107FDC000320FFF7DDBF0000C10710B5044642D5F2
:107FEC004FF08043D3F84036DA072ED54FF01023EC
:107FFC00D3F8043303F00703072B26D11D4B0122C2
:10800C00C3F80425D3F80024002AFBD04FF010212C
:10801C00D1F8042322F0070242F00402C1F8042331
:10802C000022C3F80425134AD2F80034002BFBD0ED
:10803C00BFF34F8F1049114BCA6802F4E06213432F
:10804C00CB60BFF34F8F00BFFDE74FF0A0420C4950
:10805C000323C2F81837C2F82037C1F82437C2F806
:10806C003037FFF7A9FFA30742BF054B0C22C3F81B
:10807C00182710BD00E0014000ED00E00400FA05F7
:10808C000003005038B5074C051E04F1080318BF57
:10809C001C4623682BB11A6822605B6828469847F7
:1080AC00F7E738BDCC27002020B9054B01225A70C8
:1080BC00FFF7E8BF012802D1014A9070F8E770473A
:1080CC00C427002020B9034B01225A70FFF7DABFF6
:1080DC00704700BFC427002038B50B4C237883B9F8
:1080EC000A486360A3602361E36000F0D3F805469F
:1080FC0002F070FA08B900F0D9F801232370284671
:10810C0038BD8525FBE700BFC4270020B5800200E1
:10811C0037B50B4C00230DF107008DF80730FFF736
:10812C0037FAE368013BE360E56815B900F0D2F873
:10813C00A5709DF80700FFF74FFA03B030BD00BFE4
:10814C00C4270020012813B508D003281CD018B967
:10815C00104B0122C3F8802002B010BD0E4C00233E
:10816C000DF107008DF80730FFF712FA23780BB9E1
:10817C00FFF7B2FFE3689DF807000133E3600123CA
:10818C00A370FFF729FAE7E700F090F8FFF7C0FFBC
:10819C00E2E700BF00E100E0C42700201FB5037830
:1081AC008DF8003043680193037A8DF80830C3686A
:1081BC00054A0393054B684653F8213052F82110B9
:1081CC00984705B05DF804FBD8270020E027002075
:1081DC001FB503788DF800304368019383688DF8E0
:1081EC000830C368054A0393054B684653F82130A1
:1081FC0052F82110984705B05DF804FBD8270020F1
:10820C00E0270020F0B5194B90F800C0DFF86CE0C7
:10821C0043F82C20164B16460A6943F82C204B7F4A
:10822C000EF80C300C4607460FCC89B06D460FC5C6
:10823C0094E80F0085E80F001EF80C30CDF810C044
:10824C004BB1002E0B4A694608BF3246381D00F070
:10825C00D7FD09B0F0BD002E074A694608BF32466B
:10826C0007F10C0000F0B8FBF3E700BFE02700209B
:10827C00D8270020A9810200DD810200E827002018
:10828C0000F18040002382B0036003680193019BDE
:10829C0002B07047044A137923B901211060918010
:1082AC001846704785207047EC270020084B1A6849
:1082BC00D20706D4C02283F800230122C3F8802100
:1082CC001A604FF080430122C3F81825704700BF95
:1082DC0000E100E0044B01221A604FF08042D2F81A
:1082EC001834DB03FBD470470C000040124B1B68A6
:1082FC0010B573B14FF48070FFF7C2FF4FF080439D
:10830C000122C3F808230D4B587910B95A711B6818
:10831C0098470B4B1B6873B14FF48270FFF7B0FF9B
:10832C004FF080430222C3F80823044BBDE81040F1
:10833C001B680120184710BD00010040EC270020ED
:10834C000401004000F1804000F5C040002382B0E1
:10835C00036003680193019B02B0704703681F2BF5
:10836C0083BF03F01F03036001484FF0A040704728
:10837C000003005007B5019001A8FFF7EFFF019B28
:10838C0000EB8300D0F8003723F44033C0F80037FB
:10839C00D0F8003743EA0141C0F8001703B05DF88C
:1083AC0004FB0000054B4FF0FF32072843F8202058
:1083BC0084BFC01880F85820704700BFF4270020F5
:1083CC0010B5184C94F86A3053BB04F130033021CB
:1083DC00FF22013911F0FF0103F8012BF9D1C8B2CA
:1083EC00FFF7E0FF01310C29F9D1062200210E48DC
:1083FC0002F011FB0D4BC02283F806234022C3F878
:10840C0080214FF4BE701A60FFF79CFF084B4FF0B1
:10841C000042C3F80423012384F86A30002010BD05
:10842C000820FCE7F42700205828002000E100E099
:10843C0000600040034B93F86A00003818BF01201D
:10844C00704700BFF4270020F7B53B4E33180546A4
:10845C0093F93030002B6CDA8B78C3F34003002B8C
:10846C000BBF082400240C200820844202D10420D5
:10847C0003B0F0BD56F82470013743D1701946F89B
:10848C00242080F8304013B9331983F858508B7876
:10849C005A0717D4D80737D501A80195FFF75EFF07
:1084AC00019B00EB8300D0F8003723F00203C0F8E7
:1084BC0000372248EA0805F007070123BB40875C18
:1084CC003B4383548B780A7813F0020328D0A40022
:1084DC0004F1804404F5C0442D02D4F8103523F483
:1084EC004F3323F44073C4F810351204D4F810350C
:1084FC0005F47C5502F4403215431D43C4F8105565
:10850C000020B5E70134B0E701A84A780195FFF7E0
:10851C0025FF019B03F5E073920040F82320C8E788
:10852C00083C344494F8605045EA821284F8602088
:10853C00E6E708209CE700BFF4270020582800201D
:10854C0073B5224C2618054696F93020072A1ADDF9
:10855C00224492F858309B09032B0FD1019001A8AB
:10856C00FFF7FCFE019BD0F81015D94001F001017A
:10857C0002312846FFF7FEFE02B070BD012B0CBF86
:10858C0002210321F5E7D3B2072BF5D8930003F1B1
:10859C00804303F5C043D3F8100540F00100C3F845
:1085AC00100502F14000800080B2FFF7CBFE0029DD
:1085BC00E2D096F9303054F82330002BDCD0012374
:1085CC0003FA02F2024BC3F80423D5E7F427002088
:1085DC000060004007B5019001A8FFF7BFFE019BAA
:1085EC00D0F81005D84000F0010003B05DF804FB92
:1085FC002DE9F04F002489B0CDE90244624D4FF4CF
:10860C008072012102F1804303F5C04390B21B68D4
:10861C00012B06D1D5F804330B4202D0FFF792FEA2
:10862C000C430432B2F5907F4FEA4101EAD1574B2B
:10863C001B68012B0ED14FF4BE70FFF783FE4FF079
:10864C00A04344F00044D3F810350293504BD3F8B8
:10865C001035039314F0FF0F1AD04E4F002501264E
:10866C00344210D0AB0003F1804303F5C043D3F880
:10867C001005D3F8101557F8253023B1C1F301417B
:10868C00C0F3052098470135082D4FEA4606E7D17F
:10869C00002C75DA04AF002304937B604FF0FF339A
:1086AC00CDE90633DFF8EC90DFF8EC800026354698
:1086BC0018F9012B531C4AD0C2F3C2000123D4B2C7
:1086CC0002F03F0B02F0070203FA02F208AB191892
:1086DC0011F8083C13423AD009EB0B03A40993F9A7
:1086EC00303059F823A0BAF1000F08D1032C2ED149
:1086FC0017F800C04CEA020C07F800C001E0032C8C
:10870C00F6D001A8CDF804B0FFF728FE019B11F8B4
:10871C00181C03F5E07C114250F82C00C0F301400A
:10872C0005D0022813D1032C0BD1214604E00328D9
:10873C000DD1032C05D102215846FFF71BFE013544
:10874C00EDB2BAF1000F02D021465846D04701369F
:10875C00042EADD1A5B14FF0A0430299D3F810254A
:10876C0003F540739142D3F8103502D10399994225
:10877C0006D002920393049A059B0692079393E703
:10878C0009B0BDE8F08F00BF006000407C61004084
:10879C0000030050F427002054280020014B1B68D4
:1087AC00184700BF602800200E4B984237B50C4686
:1087BC0002D0002003B030BD00230DF107008DF86E
:1087CC000730FEF7E5FE084B1D7915B901221C6038
:1087DC001A719DF80700FEF7FFFE002DE9D011205D
:1087EC00E8E700BF0020004060280020034B9842BF
:1087FC0001BF034B00221A601A7170470020004021
:10880C00602800200023435082B043580193019B01
:10881C0002B070470A4610B54FF48E71FFF7F2FFA5
:10882C00136A9168C95C136A01331362C0F81C1592
:10883C0010BD8B690A4610B54FF4847123B9FFF74C
:10884C00E1FFD0F8183510BDFFF7DCFF536AD16893
:10885C00D0F81805C854536A01335362F3E700008B
:10886C001FB501238DF80030044BCDE90110D3E97D
:10887C0000126846904705B05DF804FB682800209C
:10888C0030B54B48D0F8043313F4007F85B005465F
:10889C004DD0D0F82431002B49D04FF49271FFF712
:1088AC00B1FF4FF40173C0F80833424B93F8292001
:1088BC000AB9012242603E4902228DF80020D1F80B
:1088CC008024C1F8802403929A690292DA6801929A
:1088DC000022C3E906226846D3E9001290473448C7
:1088EC00D0F81C315BB133490A6A4B699A420A468B
:1088FC004AD291F82830002B46D1FFF78BFF2C4839
:10890C00D0F844318BB14FF4A271FFF77BFF294BA8
:10891C0093F829200AB1012202609A692AB1002237
:10892C00586AD9689A61FFF79BFF05B030BDD5F83E
:10893C0004335B07D3D5D5F80831002BCFD01D4CB1
:10894C001B482146FFF775FF636AA2699A422346CA
:10895C00C5D1E269E1684AB12369E3600023606A2A
:10896C00A261E3616362FFF77BFFB8E794F829200B
:10897C000AB901226A600E4A4FF40170C2F808036A
:10898C000022586A9A61EEE74FF48E710848FFF79F
:10899C0039FF51690029B2D00023029191688DF8FA
:1089AC000030019153616846D2E900139847A6E75D
:1089BC0000200040682800201F2886BF00F01F0000
:1089CC00044B4FF0A04300F5E070022243F8202046
:1089DC00704700BF000300502DE9F843674B057941
:1089EC0091462C2202FB0532064692F82A200C46B0
:1089FC009846002A40F0BD8061490068FFF7D4FE1C
:108A0C000746002840F0B78021684A1C10D01F2967
:108A1C0087BF5C4A01F01F030B464FF0A0420120B8
:108A2C00984003F5E073C2F80805032042F82300D0
:108A3C006068431C0DD01F288BBF00F01F0303463A
:108A4C00504A4FF0A04203F5E0734FF0000C42F88F
:108A5C0023C03368A269C3F8242594F814C0627D3E
:108A6C00BCF1010F4CEA0202C3F86C25C3F81405E3
:108A7C00C3F80C152BD1A168481C0DD01F298BBF36
:108A8C0001F01F020A463F484FF0A04002F5E07289
:108A9C004FF0000C40F822C0E068421C13D01F2895
:108AAC0087BF384A00F01F0C84464FF0A0424FF0AD
:108ABC00010E0EFA0CFE0CF5E07CC2F808E54FF046
:108ACC00030E42F82CE0C3F80805C3F810152C234C
:108ADC006B4308EB0302C2F80490226948F80320A8
:108AEC00B9F1000F32D03068227F4FF48E71FFF74E
:108AFC0089FE30684FF4A271FFF784FE3368224977
:108B0C00C3F80413190B43F30733002BA8BF03F16D
:108B1C0060404FEA5313BCBF01F00F041B484FEAEF
:108B2C004212A8BF00F561404FEA8303D2B203F1B1
:108B3C006043B4BF025580F8002303F5614301F094
:108B4C001F0101228A40C3F880211A603368042275
:108B5C00C3F800252C2303FB05830022C3E906225E
:108B6C0083F829205A61012283F82A203846BDE86F
:108B7C00F8830827FAE71127F8E700BF68280020D8
:108B8C008D880200000300508000020014ED00E00C
:108B9C002DE9F04103680479244D0022C3F8002527
:108BAC002C2202FB0452014652686AB1204AC3F8D7
:108BBC00082343F30732C3F3043652090120B040B3
:108BCC0020321C4E46F82200D3F80C05D3F814853D
:108BDC00D3F80865D3F810754FF0FF329042C3F804
:108BEC001425C3F80C25C3F80825C3F8102501D0AB
:108BFC00FFF7E2FEB8F1FF3F02D04046FFF7DCFE84
:108C0C007A1C02D03846FFF7D7FE731C02D03046D0
:108C1C00FFF7D2FE0868FFF7E9FD2C2303FB045491
:108C2C00002384F82A306360BDE8F08168280020B6
:108C3C008402020000E100E02DE9F843204B0779A3
:108C4C004FF02C0909FB0734054666699846002E3F
:108C5C0033D100686261A16026624FF48E7184F892
:108C6C002860FFF7CFFD2868012383602146FFF7BA
:108C7C00D1FD6368A14683B92868226A63699A4268
:108C8C0011D32B68D3F81C21002AFBD00122DA6007
:108C9C002C2303FB078300225A613046BDE8F8837E
:108CAC0094F828303BB9D0F81C31002BF8D0494649
:108CBC00FFF7B0FDE1E70F26EAE71126EDE700BF6D
:108CCC00682800200023435082B043580193019B35
:108CDC0002B070471FB501238DF80030054B8DF89D
:108CEC00080001916846D3E90012904705B05DF881
:108CFC0004FB00BF942800207FB5374AD2F82461CA
:108D0C00002E47D010464FF49271FFF7DBFF022381
:108D1C008DF80030D2F88034C2F880340393D2F846
:108D2C003C358DF808302D4BDA6801920022C3E9EE
:108D3C0006226846D3E9001290472748D0F8443100
:108D4C006BB14FF4A271FFF7BDFF244B9A6932B19E
:108D5C0000229A61D0F83C05D968FFF7BBFF1E488A
:108D6C00D0F82031A3B14FF49071FFF7ABFF1B4B40
:108D7C005A696AB1D0F84C158DF808100022996820
:108D8C008DF8002001915A616846D3E90012904792
:108D9C0004B070BDD2F81031002BCED04FF48871D6
:108DAC001046FFF78FFF0D4BD2F83C0599698842AE
:108DBC00C3D1DC69D96864B1D2F8005225F0200522
:108DCC00C2F800521A699C61DA60DE61FFF782FF1B
:108DDC00B3E79C61FAE700BF002000409428002014
:108DEC001F2886BF00F01F00044B4FF0A04300F576
:108DFC00E070022243F82020704700BF00030050AF
:108E0C002DE9F8436B4B06799146242202FB06327E
:108E1C00044692F820200D469846002A40F0C58062
:108E2C0065490068FFF7C0FC0746002840F0BF808A
:108E3C002868421C10D01F2887BF604A00F01F030F
:108E4C0003464FF0A0420121994003F5E073C2F8AC
:108E5C000815032142F8231069684B1C0DD01F29FB
:108E6C008BBF01F01F030B46544A4FF0A04203F591
:108E7C00E0734FF0000C42F823C02368AA69C3F8D2
:108E8C00242595F814C06A7DBCF1010F4CEA02024E
:108E9C00C3F86C25C3F80C05C3F814152BD1A968BD
:108EAC00481C0DD01F298BBF01F01F020A464348F6
:108EBC004FF0A04002F5E0724FF0000C40F822C0D9
:108ECC00E868421C13D01F2887BF3C4A00F01F0CD7
:108EDC0084464FF0A0424FF0010E0EFA0CFE0CF53A
:108EEC00E07CC2F808E54FF0030E42F82CE0C3F822
:108EFC000805C3F810152423734308EB0302C2F8CA
:108F0C0004902A6948F80320B9F1000F3CD020687E
:108F1C002A7F4FF48871FFF7D5FE20684FF49071CB
:108F2C00FFF7D0FE20684FF49271FFF7CBFE20685C
:108F3C004FF4A271FFF7C6FE23682149C3F804134E
:108F4C00190B43F30733002BA8BF03F160404FEA22
:108F5C005313BCBF01F00F051A484FEA4212A8BFC9
:108F6C0000F561404FEA8303D2B203F16043B4BF12
:108F7C00425580F8002303F5614301F01F010122E3
:108F8C008A40C3F880211A6023680822C3F80025A0
:108F9C00242303FB06830022C3E906225A61012223
:108FAC0083F820203846BDE8F8830827FAE7112714
:108FBC00F8E700BF94280020058D02000003005044
:108FCC001003020014ED00E02DE9F0410368047970
:108FDC00244D0022C3F80025242202FB0452014632
:108FEC0052686AB1204AC3F8082343F30732C3F32B
:108FFC00043652090120B04020321C4E46F82200A3
:10900C00D3F80C05D3F81485D3F80865D3F810758C
:10901C004FF0FF329042C3F80C25C3F81425C3F867
:10902C000825C3F8102501D0FFF7DAFEB8F1FF3F91
:10903C0002D04046FFF7D4FE7A1C02D03846FFF728
:10904C00CFFE731C02D03046FFF7CAFE0868FFF74C
:10905C00CDFB242303FB0454002384F820306360ED
:10906C00BDE8F081942800201003020000E100E02C
:10907C0001F06043B3F1005F2DE9F041064632D1B7
:10908C001B4B0779242505FB073598466C6964BB97
:10909C006A610068A9604FF49071FFF713FE4FF4FA
:1090AC00AC713068FFF70EFE33686A69A968C3F8C3
:1090BC004415C3F8482501229A606A6862B9D3F84E
:1090CC002021D3F8584152B9002CF8D00F24242376
:1090DC0003FB078700237B612046BDE8F081002C51
:1090EC0018BF0F24F3E71024F6E71124F4E700BFB0
:1090FC009428002038B9012A07D101290AD0024648
:10910C00022909D059B1072070470129F8D1054B24
:10911C001A7070470E22FAE7024B5A707047014BD7
:10912C009A707047B828002008B50122022100204F
:10913C00FFF7E0FF08B1072810D107220221012018
:10914C00FFF7D8FF08B1072808D100210A220846EA
:10915C00FFF7D0FF10B1072808BF002008BD0000A2
:10916C000388102B10B502D0112B1ED010BD1A4C39
:10917C002168B1B901220846FFF7BCFF08B10728E6
:10918C0024D1072202210120FFF7B4FF08B10728E0
:10919C001CD1042202210020FFF7ACFF08B10728E4
:1091AC0014D1236801332360E0E70B4A1368013BB9
:1091BC001360002BDAD1FFF7B7FF0028D6D0074B8E
:1091CC001B68002BD2D0BDE810401847034B1B681E
:1091DC00002BE6D09847E4E7C0280020BC280020EC
:1091EC0075DF704776DF70478FDF704701460148A7
:1091FC0001F048B8C428002008B5074800F02CFF3F
:10920C0008B1FDF7D1FE0120FEF7C2FEBDE8084013
:10921C000020FEF7A9BE00BFE82800200388212B00
:10922C0013B5044648D007D8112B2ED01F2B39D09C
:10923C00102B0AD002B010BD3B2B01D0562BF9D10C
:10924C00A0881321FFF7CEFF31E01F4B1F482049A8
:10925C00C01AC008000440F00300FDF70DFCA18803
:10926C001C48002201F022F908B1FDF79DFEA188EF
:10927C00194800F0BBFB08B1FDF796FE0120FEF784
:10928C0073FE0020FEF784FED4E70F4B0F48134902
:10929C00C01AC008000440F00300FDF7EDFBFFF717
:1092AC00ABFFC7E700F108018088FFF799FF0028A2
:1092BC00C0D0FDF779FEBDE7002301A98088ADF889
:1092CC000430FFF791FFF2E778AB0200A0AB02008D
:1092DC00BAB20200C4280020981D0020C5B20200BA
:1092EC000378062B03D1406808B1FDF75DBE7047CB
:1092FC00262807B50BD11048019101F0ABF8019A63
:10930C0050B143F20202904213D0082811D003B09E
:10931C005DF804EBFDF748BE084B09480949C01A33
:10932C00C008000440F0030003B05DF804EBFDF747
:10933C00A7BB03B05DF804FBC428002078AB020087
:10934C00A0AB0200D3B2020070B50D78012D064619
:10935C000C4602D0022D1ED070BD0A1D194849883A
:10936C0001F0A4F81848194B628819491B1ADB083C
:10937C001B0443F00300FDF783FBFDF7FFFD08B171
:10938C00FDF712FE304601F039F80028E4D0BDE8B4
:10939C007040FDF709BE0C4B0C480A790D49C01AF8
:1093AC00C008000440F00300FDF76AFB237928464F
:1093BC001BB1BDE87040FEF7D7BDBDE87040FEF7AD
:1093CC00E7BD00BFC428002078AB0200A0AB0200B0
:1093DC00EAB202001DB302001FB54FF40041002099
:1093EC00FDF794F908B1FDF7DFFDFDF7C5F8FEF7C1
:1093FC0035F808B1FDF7D8FD0120FEF7EDFD384832
:10940C0040F266620121FDF765FD08B1FDF7CCFD68
:10941C00FEF73AFC08B1FDF7C7FD01F09DF808B165
:10942C00FDF7C2FD002369460120009301F01CF9F1
:10943C0008B1FDF7B9FD684601F0C8F908B1FDF7B0
:10944C00B3FD10220021684601F0E5FA0123254AFC
:10945C0025488DF8043069468DF80C3000F0ACFDD1
:10946C0008B1FDF7A1FD20480022012100F08CFD80
:10947C0008B1FDF799FD1D4A1B48002100F056FD6F
:10948C0008B1FDF791FD1A48002100F045FC08B128
:10949C00FDF78AFD174800F06FFA08B1FDF784FD5F
:1094AC00154B16480093694600F040FF08B1FDF7D4
:1094BC007BFD134B13481449C01AC008000440F03C
:1094CC000300FDF7D9FAFFF797FE0020FEF74CFDDD
:1094DC00FDF776F90028FBD1FEF7ECFBF8E700BFAF
:1094EC00901D0020ED920200E828002063B30200DA
:1094FC00D4280020F991020055930200C4280020C2
:10950C0078AB0200A0AB020043B3020070B5C0B14F
:10951C004AB116880024B44203D305196D789D42D4
:10952C0008D0A14201D800200BE0055D01352C4488
:10953C00A4B2F0E7A142F6D9A31C1380005D013858
:10954C0080B270BDF7B500230646ADF80630144660
:10955C0012B9002003B0F0BD09230DF10602FFF78C
:10956C00D5FFBDF806700546002FF2D00028F0D0CC
:10957C00204601F0AAFAA8420246EAD1F119204687
:10958C0001F0EDF9B0FA80F04009E3E773B5019111
:10959C00019C06466CB100252C46294601A8FEF715
:1095AC0044F818B106EB440301349D800135142DA9
:1095BC00F3D13046346002B070BD00002DE9F047A5
:1095CC0003888488112B8CB005463CD01A2B3FD0D5
:1095DC00102B17D1284EB368DB4300937168684693
:1095EC00FEF74FF8009901A8FFF7D0FF0DF108091D
:1095FC004FF00008019B984507D3132C13D9042076
:10960C00FDF7D2FC0CB0BDE8F08739F802AB0027AF
:10961C000137514606EB8700FDF7FDFF1D2FF7D1F3
:10962C0008F10108E6E715482146FDF7EBFF144861
:10963C002146FDF7E7FFEB7B012BE3D011482146D8
:10964C00FDF7E0FFDEE70D482146FDF7E4FFD9E723
:10965C00037A0D481F2B4FEA1315214606D9FDF747
:10966C00D1FF022D09482146EAD1EEE7FDF7D3FFE1
:10967C0006482146E9E700BF502900205829002060
:10968C00542900205C290020602900206429002036
:10969C009BDF70479DDF70479EDF704730B50B4BEB
:1096AC0019680B4B0022914201D1002009E09D78F2
:1096BC008478A54206D11D880488A54202D1054BA9
:1096CC00186830BD01320433EDE700BFD02900200B
:1096DC00D82C0020C829002070B590F8C632164648
:1096EC007622A0B002FB03000D46FFF7D7FF04461D
:1096FC0060B17C22002101A801F08DF901238DF8C5
:10970C000430ADF80660029501A8A04720B070BDEA
:10971C002DE9F74F8A4690F8C612019193467622AE
:10972C00074601FB0200FFF7B9FF804670B3194EE4
:10973C003568052D2AD8184C019904EBC5197622E9
:10974C00EB0102FB0171A9F802B009F104000093CE
:10975C0001F038F9BAF1000F009BC9F87C8014BFF6
:10976C0000220222E2540D4B1A68013595423560F5
:10977C001D460BD10027E36F204698472B68013715
:10978C009F4204F18004F6D30023336003B0BDE89C
:10979C00F08F00BFD42C0020D4290020D029002029
:1097AC0037B50246084692F8C53292F8C642BBB1AC
:1097BC00013B7621DBB26143122505FB03131344F5
:1097CC005B8A01339BB2ADF80430762303FB042291
:1097DC0001A91389ADF80630FFF75CFF03B030BD6B
:1097EC00762303FB0423DB88EDE7000070B54FF410
:1097FC0033720E460021044601F00DF9114BA4F80A
:10980C00CA6200251D60104B84F8C9521B6884F88D
:10981C00C65284F8C5522360224601213046FFF718
:10982C0037FF112806D020B9012384F8C73284F8F9
:10983C00C80270BD012384F8C73284F8C8322846A8
:10984C00F7E700BFD42C0020D82C002070B5194AA3
:10985C0090F8C93212680133DBB2934204460D46CC
:10986C0080F8C9324FF0000621D290F8C63280F849
:10987C00C5620133DBB2762113FB01F180F8C632ED
:10988C0042180D4850F823306350284601211671B8
:10989C00FFF7FEFE014648B184F8C7622A4620460F
:1098AC00FFF71AFF054B03221A705D8070BD80F81C
:1098BC00C762F7E7D0290020D82C0020D42900203B
:1098CC002DE9F3470546762395F8C64295F8C5620F
:1098DC0014FB03F410462A1906EBC60392F804C0D5
:1098EC0004EB4303771C0A3367452B4413D005F173
:1098FC001C0A02F1220E0CF1FF384FF01209A2449F
:10990C00F4B2A4450BD9B0451C8919D11389A342D3
:10991C0025D100231CE01B891289934205D1012318
:10992C000B70002002B0BDE8F0870133ADF80430B5
:10993C00ADF8062000230B7001A9FFF7ADFEF1E78F
:10994C0009FB06F301343EF80370BC420DD15344BD
:10995C0095F8C542013485F8C5420136D0E701348B
:10996C00ADF80440ADF80630E4E7013FADF8044033
:10997C00ADF80670DEE7000058B1074A002313600B
:10998C00064A01211170064A1360064A10601846F7
:10999C0070470E20704700BFD0290020CC29002032
:1099AC00D42C0020C829002010B5044680B10C4BE3
:1099BC001B787BB1FFF772FE70B90A4A1368052B4E
:1099CC000CD80949246841F823400133136010BDB9
:1099DC000E20FCE70820FAE70020F8E70420F6E761
:1099EC00CC290020D0290020D82C002050B1084AC6
:1099FC0012784AB1074A126832B190F8C7322BB9C3
:109A0C00FFF7F4BE0E2070470820704711207047F6
:109A1C00CC290020D02900202DE9FF410C46054619
:109A2C00E0B1D9B1934B1B78C3B10388322B65D00D
:109A3C0017D8112B00F00E81302B30D094F8C8328F
:109A4C0063B12B88303B9BB21F2B07D8B4F8CA32BA
:109A5C00A988994202D12046FFF7C8FE04B0BDE8A0
:109A6C00F081332BEAD18288B1F8CA329342E5D126
:109A7C00C68891F8C6C291F8C572002E00F0AE806F
:109A8C00762101FB0C4C7B1C9CF8041000268B42AD
:109A9C008DF80F6000F0D28084F8C53293E0838893
:109AAC00B1F8CA229A42C9D1C388F3B991F8C63227
:109ABC00C068762113FB01F3E118E0502B69C1F863
:109ACC00063011462046FFF76BFE01460028B5D044
:109ADC00002384F8C732AA882046FFF7FDFD664BA9
:109AEC0003221A70AA885A80A8E700212046FFF7A3
:109AFC000FFEA9882046FFF7A9FE9FE78288B1F8E0
:109B0C00CA329A429AD1C388002B58D191F8C672A6
:109B1C00762317FB03F701EB0708837A98F80460A8
:109B2C003344062B26DC88F80430334603EBC3029F
:109B3C0007EB420205F10C062244002198F80400C0
:109B4C00834206F10A0602F1120227D31222013BCC
:109B5C0002FB034394F8C62276213B4401FB0242EC
:109B6C00598A138999422AD2062828D0A98884F8C0
:109B7C00C502A7E7062388F804304048404BCA5B6F
:109B8C004049C01AC008000440F002000190FCF7E4
:109B9C0077FF3D490198FCF76FFFC6E7304601336C
:109BAC0050F80ACD42F808CCD0F804C042F804CCE6
:109BBC000089108051809180D1801181BEE70026F0
:109BCC0084F8C562AA880DF10F012046FFF778FED4
:109BDC000146002838D084F8C7627CE7762303FB63
:109BEC000CF1122303FB0713B0F80AE0234476456B
:109BFC00BFF446AFC189A1F52451082908D8DFE884
:109C0C0001F014170507070707071A0081899982C5
:109C1C00998A39B1D98A29B1198B19B1598B002973
:109C2C007FF42EAF01360630E1E78189D982EFE768
:109C3C0081891983ECE781895983E9E701238DF840
:109C4C000F30AA88012151E79DF80F30002B3FF40B
:109C5C00F5AEF6E78288B1F8CA329A427FF4EEAEDE
:109C6C00002381F8C73281F8C8324FF6FF73A1F890
:109C7C00CA32E3E6CC290020D4290020A8AB02008C
:109C8C0078AB020071B30200B7B3020090DF7047EB
:109C9C00A5DF7047B5DF70477FB50023ADF808101E
:109CAC00ADF80A106A4602A9064603930093ADF874
:109CBC000430FFF7EBFF054600B3124B124CE41ACD
:109CCC00E408FEF75BF8240444F0010403460F4952
:109CDC0032462046FCF7DDFEBDF80020BDF8023010
:109CEC0052EA030103D00A492046FCF7D2FEBDF824
:109CFC0004201AB107492046FCF7C2FE284604B0DE
:109D0C0070BD00BF78AB0200C8AB02001DB40200EE
:109D1C0067B40200A6B4020078B14FF017130360C9
:109D2C001B2303711723C380038141F61B320023CD
:109D3C00016143818281184670470E2070470000F4
:109D4C0013B5034680880C46B8B91A88242A00F04B
:109D5C00958014D8112A71D0232A00F09D80102AE6
:109D6C003BD0A37A4BB1E1880020FFF791FF00288C
:109D7C0040F098804FF48073638102B010BD3A2A92
:109D8C0064D0552AEDD1DB88C988A072172B38BF57
:109D9C0017238B4228BF0B462381FFF77BFF60B153
:109DAC00FDF7ECFF484B4949024649481B1ADB08B2
:109DBC001B0443F00100FCF763FEE37A002BD0D1C7
:109DCC002369002BCDD040F6772200922289ADF882
:109DDC000420694620469847C3E7DB7B0A790A735F
:109DEC00012B13D0022B14D0E18823898B4205D28E
:109DFC000020FFF74DFF70B90123E372217B637BD9
:109E0C008B42AED20020FFF747FFAAE70B88E38016
:109E1C00EAE74B88FBE7112802D10123A372EDE797
:109E2C00FDF7ACFF284B2B49024629481B1ADB08CF
:109E3C001B0443F00100FCF723FEDFE71723CB8064
:109E4C000B8141F61B3348818B818AE75B89CA8879
:109E5C00934228BF1346172B0A6938BF17230B816F
:109E6C004AB1C97A39B140F677210091ADF8043086
:109E7C006946204690470023638172E71A7A0B6982
:109E8C004A73002B3FF46DAF4DF67A218DF8050027
:109E9C0000918DF804209CE7197A237B994228BF06
:109EAC001946B0E711283FF468AFFDF767FF064B82
:109EBC000849024606481B1ADB081B0443F0010044
:109ECC00FCF7DEFD59E700BFC8AB02002DB5020060
:109EDC0078AB0200FCB402008ADF70478BDF70475E
:109EEC008CDF704730B590F8233089B004460D46AE
:109EFC00D3B190F82C300193FFF7F0FF142200211E
:109F0C0003A800F088FD019B04F1240204F12E014A
:109F1C00A81CFFF7E5FF06238DF80C30049018B150
:109F2C00E36B0BB103A8984709B030BD70B515466B
:109F3C00044618B312B319BB104600F0C6FD013825
:109F4C00C0B21F281ED894F820600EB1042014E073
:109F5C002946204600F092FD78B194F82000431C6D
:109F6C0084F8203004EB4014284600F0AEFD29465E
:109F7C000246204600F026FD304670BD0E20FCE760
:109F8C000720FAE70C20F8E768B1CB060DD011F0EA
:109F9C00010116BF012380F8211080F8213080F8D0
:109FAC002220002070470E2070470720704790F841
:109FBC002E00C0F3C000704738B50D46044600288B
:109FCC0043D0C2630021232200F025FD65B32B7919
:109FDC0084F823302B7B84F82C302B68D3B104F11C
:109FEC002E0203F10C0153F8040B42F8040B8B42C4
:109FFC00F9D11B881380AA680AB31068516804F160
:10A00C00240303C304F1400323661F23A4F8643024
:10A01C00002038BDE28DA38602F0E30242F4827286
:10A02C00E2850B4A2263E6E7E38DA58603F0E303A2
:10A03C0043F48273E385064B236384F82350054A6B
:10A04C004FF0C873C4E90923DCE70E20E1E700BF39
:10A05C00A00050000600180010B5044686B048B3A6
:10A06C001422002101A800F0D6FCFFF737FF204690
:10A07C00FFF79DFF30B1E36B23B101228DF8042073
:10A08C0001A8984704F1600104F12E00FFF724FFAA
:10A09C00044630F008000BD00748084B08491B1A3F
:10A0AC00DB081B0443F001002246FCF7E9FC2046C8
:10A0BC0006B010BD0E20FBE778AB0200B8AB020077
:10A0CC0069B502002DE9F04F054687B035F8083B1D
:10A0DC001D2B06460C4620D007D8102B00F095807F
:10A0EC001B2B7AD007B0BDE8F08F202BFAD11422AD
:10A0FC00002101A800F08FFCE26B002AF2D0286846
:10A10C00696805238DF8043002AB03C32E34297A19
:10A11C000594197001A89047E4E71422002101A8C6
:10A12C0000F079FC04F12E0320460593FFF73FFF66
:10A13C0004F1600878B102238DF8043001A8E36BB8
:10A14C000295984741460020FFF7C6FE2946204657
:10A15C00FFF7C8FEC6E794F8210094F8229088B364
:10A16C0094F820A0B6F824B0274604EB4A1A5745B9
:10A17C0018D10020034601220295B9F1000F24D01A
:10A18C009A4226D100238DF8043029462046FFF749
:10A19C00A9FEE36B0BB101A8984741460020FFF7DD
:10A1AC009BFE9FE73A46306A5946FFF7CBF92037BA
:10A1BC000028DCD09DF80C3043F001038DF80C30F6
:10A1CC000123D8E703460246D6E710B18DF8049078
:10A1DC00DBE703238DF80430DBE71422002101A810
:10A1EC0000F019FC327A012A7FF47CAFE36B002B70
:10A1FC003FF478AF04212E348DF8041005948DF8BB
:10A20C0008200DEB010098476CE71422002101A8EF
:10A21C0000F001FC07238DF80430B388ADF80C3046
:10A22C0004F12E030593E36B0295002B3FF45AAF18
:10A23C0001A8E8E7A1DF7047A3DF704762DF704732
:10A24C0070B50D4B0D4D1B682C689C420ED00C4903
:10A25C0014236343CE18C85AB27842B9B188FFF7B9
:10A26C00E9FF18B9013404F007042C6070BD083301
:10A27C001944FFF7E1FFF4E7942D0020902D002006
:10A28C00F02C00202DE9F0430A7885B00346002A13
:10A29C0039D18C8841F22350844234D18C79187B8B
:10A2AC00844230D101208DF8040091F808E04888F0
:10A2BC00BDF80C60BDF80A50BDF80840ADF80600BA
:10A2CC001746104641F2245841F2255986451DD8AF
:10A2DC000FB1ADF80C601AB1ADF80A50ADF80840EA
:10A2EC0019884FF6FF72914209D05A683AB95A88C8
:10A2FC002AB90298BDF80C20C3F80200DA809A68DB
:10A30C0001A91846904705B0BDE8F083B1F80EC01E
:10A31C00C44506D0CC4501D1CE8A0127013012317B
:10A32C00D4E7CD8A0C8B0122F8E70000F0B5174B6F
:10A33C0087B002AD04460A4603F1100C2F4618688C
:10A34C0059682E4603C6083363453546F7D1D4B158
:10A35C00CAB11368BBB14FF6FF710022C4E90012F9
:10A36C00A36004F10C013846FFF768FF48B9237B62
:10A37C008DF8063001A841F22353ADF80430FFF7F5
:10A38C0013FB07B0F0BD0E20FBE700BFA0B5020029
:10A39C001FB50346084639B333B31A88382A25D07B
:10A3AC00392A0BD0112A1FD19A880B889A4202BFE6
:10A3BC004FF6FF720023C1E9002315E009889A8843
:10A3CC008A4211D15C8981888C420DD1D9890129AD
:10A3DC000AD11B7C8DF8083002218DF8041083689B
:10A3EC00ADF8062001A9984704B010BD0A889B88D7
:10A3FC009A42F9D1FFF724FFF6E7000038B508B30D
:10A40C0005884FF6FF739D421ED0104A4488116890
:10A41C000F484B1C03F00703136014224A438318A4
:10A42C000221D981111D01445C8119610024012193
:10A43C0085529C81197219715C719970FFF700FF3C
:10A44C00204638BD0E20FCE70820FAE7942D0020AA
:10A45C00F02C0020F8B500B307884FF6FF739F422D
:10A46C001DD0104A104D1468C088631C03F00703FC
:10A47C00136014226243AB1801265881101D284426
:10A48C001861002402201872DE819C8119719E7063
:10A49C00AF52FFF7D5FE2046F8BD0E20FCE7082092
:10A4AC00FAE700BF942D0020F02C002040B1018071
:10A4BC0022B11368C0F802309388C3800020704723
:10A4CC000E20704710DF704713B5044609496846E3
:10A4DC00FDF71FFC019808B902B010BDD0E90021AE
:10A4EC002046904718B16846FDF71DFCF2E7112095
:10A4FC00F2E700BFBCB5020013B504460749684635
:10A50C00FDF707FC019B0BB902B010BD2046D3E947
:10A51C00002190476846FDF706FCF3E7D4B502002E
:10A52C000B4991F816335A09EC231341DB0706D576
:10A53C00084B9A683AB94FF480030B60704742F2AB
:10A54C000200FCF731BD1A6842F480021A607047B1
:10A55C0000E100E0A8270020F7B5194F3C7864BB58
:10A56C00184E012520463570FFF7AEFF112821D07B
:10A57C002046FFF7C1FF144B8DF80340186801907B
:10A58C000DF10300FDF704F8104901A8FFF79AFF3D
:10A59C000446B0FA80F0400938709DF80300FDF7CE
:10A5AC001BF83CB90A4B34701C70FFF7B9FF2846F6
:10A5BC00FFF7A2FF204603B0F0BD0824FAE700BF66
:10A5CC00992D0020982D0020B8B50200D16F020003
:10A5DC009A2D0020014B1878704700BF992D002050
:10A5EC0007B508496846FDF794FB019B13B903B006
:10A5FC005DF804FBD3E9002090476846FDF793FB18
:10A60C00F3E700BFC8B50200FFF7EABF60DF704791
:10A61C0069DF704761DF704730B5114B1B7891B023
:10A62C00E3B1104D34240DF1020103A8ADF8024042
:10A63C00FFF7F0FF70B9294601A8FDF76AFB029BF2
:10A64C00002BF0D003A8D3E90021904701A8FDF717
:10A65C006AFBF4E7052801D0FCF7A6FC11B030BD6D
:10A66C009B2D002018B8020030B5054685B00C466D
:10A67C00002900F099804D4B0B600C22002101A8A1
:10A68C0000F0C9F901238DF8063022688DF80450CA
:10A69C00062301A92020ADF80830FFF7B9FF60B1FF
:10A6AC00FDF76CFB424B4349024643481B1ADB083F
:10A6BC001B0443F00100FCF7E3F90C22002101A874
:10A6CC0000F0A9F900238DF80530226840F201133F
:10A6DC0001A94020ADF80630FFF79AFF60B1FDF7F5
:10A6EC004DFB334B3549024633481B1ADB081B0420
:10A6FC0043F00100FCF7C4F90C22002101A800F082
:10A70C008AF90A2322688DF8043001A90120FFF789
:10A71C007FFF60B1FDF732FB254B294902462648E5
:10A72C001B1ADB081B0443F00100FCF7A9F90C22EF
:10A73C00002101A800F06FF9F8232268019301A908
:10A74C00A120FFF765FF60B1FDF718FB184B1D4901
:10A75C00024619481B1ADB081B0443F00100FCF7E6
:10A76C008FF90C22002101A800F055F99DF8043056
:10A77C0022686FF3000301A9A0208DF80430FFF7C5
:10A78C0047FF034668B1FDF7F9FA094B0E4902463B
:10A79C0009481B1ADB081B0443F00100FCF770F995
:10A7AC000023184605B030BD0E23FAE7701D0020BB
:10A7BC00D8AB0200E0B5020078AB020026B602006E
:10A7CC0072B60200BEB602000FB7020073B50546A2
:10A7DC000668FFF71BFF2B68B34204461DD91A48C5
:10A7EC001A4B1B491B1ADB081B0443F00200019097
:10A7FC00FCF742F92B68174901983246FCF749F9E6
:10A80C004FF080532A68D3F80C31134901989B02FE
:10A81C0003F100539A1AFCF733F92CB90F4B0122B0
:10A82C001A70204602B070BD2046FDF7A7FA074B00
:10A83C000B49024604481B1ADB081B0443F00100B9
:10A84C00FCF71EF9EDE700BF78AB0200D8AB0200B5
:10A85C0062B7020091B70200C2B702009B2D002024
:10A86C00ECB702004BDF70471FB50D4C01A8FFF78A
:10A87C00F9FF70B9214602A8FDF74BFA039B002B98
:10A88C00F4D00198D3E90021904702A8FDF74BFAC8
:10A89C00F4E7052801D0FCF787FB04B010BD00BF1E
:10A8AC0030B802007F2805D8034B185C034B5B5C67
:10A8BC00184070470020704748B80200C8B8020022
:10A8CC00A0F16103192B98BF20387047A0F1410308
:10A8DC00192B98BF203070477F2805D8034B185C84
:10A8EC00034B5B5C184070470020704748B802006F
:10A8FC00C8B80200A0F16103192B98BF203870472B
:10A90C00A0F14103192B98BF203070477F299ABFC3
:10A91C00017001206FF02E0070475AB10A787F2A1F
:10A92C000AD800B10260002119605960501A18BF92
:10A93C0001207047002070476FF02E007047000018
:10A94C0008B5034B5B689B681B68984708BD00BF44
:10A95C006420002008B50921FFF7F2FF08BD7AB387
:10A96C0070B414460F2A15D902460B4640EA01056D
:10A97C0015F0030F01D0013C0EE0194610460432CD
:10A98C00043306680D68AE4204D110461946043CE7
:10A99C00042CF2D8013C0ED00A460346044411465E
:10A9AC0018460133013206780D78AE4203D11846B1
:10A9BC001146A342F3D100780B78C01A70BC7047D3
:10A9CC0000207047844640EA010313F0030F18D1AE
:10A9DC008446202A0BD32DE9F007B1E8F807A0E84C
:10A9EC00F807A2F12002202AF7D2BDE8F007042ACA
:10A9FC0007D351F8043B40F8043BA2F10402042AAB
:10AA0C00F7D2002A05D011F8013B00F8013B013ABE
:10AA1C00F9D1604670478446002A2DD010F0030F00
:10AA2C0004D000F8011B013A26D0F7E7C9B241EA7D
:10AA3C00012141EA0141202A12D3A2F120022DE981
:10AA4C00F0030B460C460D460E460F4688468946CB
:10AA5C00A0E8FA03203AFBD2BDE8F00320320BD079
:10AA6C00042A05D340F8041B043A05D0042AF9D271
:10AA7C0000F8011B013AFBD16046704710F0030F40
:10AA8C0019D111F0030F16D12DE970004FF00136DA
:10AA9C004FF0803350F8044B51F8045BAC4205D1B5
:10AAAC00A4EB060525EA04051D40F3D0A0F1040033
:10AABC00A1F1040170BC10F8012B11F8013BD21A62
:10AACC0001D1002BF7D11046704700F1010110F0B5
:10AADC00030F11D010F8012B002A23D010F0030F14
:10AAEC000AD010F8012B002A1CD010F0030F03D051
:10AAFC0010F8012B002A15D02DE970004FF001320F
:10AB0C004FF0803350F8044BA4EB020525EA040502
:10AB1C001D4000D1F6E7A0F1040070BC10F8012B29
:0AAB2C00002AFBD1A0EB01007047E6
:08AB3800D180020000000000C2
:10AB4000C9950200000000006D91020000000000A5
:10AB5000259A0200981D00204D9D0200D428002057
:10AB6000D1A00200E82800209DA30200C4280020F4
:08AB7000299202000000000020
:10AB78009EB2020000000000A4B202000000000023
:10AB8800ABB2020000000000AFB2020000000000FB
:10AB9800B4B20200000000007AAC02000000030317
:10ABA80011B402000000030396B50200000003037D
:10ABB8008DB502000000030398B2020000000000F7
:10ABC8005CB5020000000303B0B5020000000303F7
:10ABD80009B802000000030324B8020000000303C0
:08ABE80086AD02000000000030
:10ABF000BC200020842100208C210020C4200020C3
:04AC00001800000038
:10AC040025A602000000000075A802000000000054
:08AC1400518102000000000064
:10AC1C004CAC02000000000058AC0200841D002067
:10AC2C00FFFFFFFFFFFFFFFFFFFFFFFFFFFFFFFF28
:10AC3C0000000000000000000000D601060100002A
:10AC4C00ED640200516502008D640200756172743E
:10AC5C005F6C6F675F6261636B656E64004261631A
:10AC6C006B656E647320666C7573686564006170E7
:10AC7C0070000000B02500207F000000302600206E
:10AC8C001B5B306D002573001B5B313B33316D005A
:10AC9C0025734C6F67732064726F70706564202825
:10ACAC0025642925730D0A003C25733E2025733A33
:10ACBC002000202530327800202020007C002563E5
:10ACCC00001B5B313B33306D001B5B313B33326D12
:10ACDC00001B5B313B33336D001B5B313B33346DFD
:10ACEC00001B5B313B33356D001B5B313B33366DE9
:10ACFC00001B5B313B33376D007761726E696E6799
:10AD0C0000696E666F006465627567008CAC02004A
:10AD1C00CDAC020094AC0200D5AC0200DDAC02005C
:10AD2C00E5AC0200EDAC0200F5AC0200FDAC02009B
:10AD3C00000000005AAD020005AD02000DAD02008E
:10AD4C0012AD020050260020466174616C206572C1
:10AD5C00726F720053797374656D207265736574CC
:10AD6C00000000000338FDD87047303132333435E1
:10AD7C00363738394142434445467077725F6D67C8
:10AD8C006D74000078AB020078AB02000400000088
:10AD9C004E52465F53554343455353004E52465F04
:10ADAC004552524F525F5356435F48414E444C45B7
:10ADBC00525F4D495353494E47004E52465F4552E0
:10ADCC00524F525F534F46544445564943455F4E8C
:10ADDC004F545F454E41424C4544004E52465F45F0
:10ADEC0052524F525F494E5445524E414C004E52B6
:10ADFC00465F4552524F525F4E4F5F4D454D004E90
:10AE0C0052465F4552524F525F4E4F545F464F551C
:10AE1C004E44004E52465F4552524F525F4E4F5475
:10AE2C005F535550504F52544544004E52465F4567
:10AE3C0052524F525F494E56414C49445F50415219
:10AE4C00414D004E52465F4552524F525F494E564D
:10AE5C00414C49445F5354415445004E52465F4562
:10AE6C0052524F525F494E56414C49445F4C454EED
:10AE7C00475448004E52465F4552524F525F494E1E
:10AE8C0056414C49445F464C414753004E52465F35
:10AE9C004552524F525F494E56414C49445F4441D2
:10AEAC005441004E52465F4552524F525F444154FA
:10AEBC00415F53495A45004E52465F4552524F52DC
:10AECC005F54494D454F5554004E52465F455252C2
:10AEDC004F525F4E554C4C004E52465F4552524FAE
:10AEEC00525F464F5242494444454E004E52465FD3
:10AEFC004552524F525F494E56414C49445F414472
:10AF0C004452004E52465F4552524F525F42555387
:10AF1C0059004E52465F4552524F525F434F4E4E70
:10AF2C005F434F554E54004E52465F4552524F525E
:10AF3C005F5245534F5552434553004E52465F4561
:10AF4C0052524F525F4D4F44554C455F4E4F545FDC
:10AF5C00494E495449414C495A4544004E52465F6A
:10AF6C004552524F525F4D555445585F494E4954C6
:10AF7C005F4641494C4544004E52465F4552524F44
:10AF8C00525F4D555445585F4C4F434B5F464149BA
:10AF9C004C4544004E52465F4552524F525F4D5500
:10AFAC005445585F554E4C4F434B5F4641494C45B9
:10AFBC0044004E52465F4552524F525F4D555445D8
:10AFCC00585F434F4E445F494E49545F4641494C8C
:10AFDC004544004E52465F4552524F525F4D4F44CE
:10AFEC00554C455F414C52454144595F494E49547B
:10AFFC0049414C495A4544004E52465F4552524FC6
:10B00C00525F53544F524147455F46554C4C004E8E
:10B01C0052465F4552524F525F4150495F4E4F541A
:10B02C005F494D504C454D454E544544004E52469B
:10B03C005F4552524F525F464541545552455F4E03
:10B04C004F545F454E41424C4544004E52465F457D
:10B05C0052524F525F494F5F50454E44494E470044
:10B06C004E52465F4552524F525F4452565F5457B0
:10B07C00495F4552525F4F56455252554E004E5203
:10B08C00465F4552524F525F4452565F5457495F88
:10B09C004552525F414E41434B004E52465F455222
:10B0AC00524F525F4452565F5457495F4552525F5C
:10B0BC00444E41434B004E52465F4552524F525FF5
:10B0CC00424C455F495053505F52585F504B545F50
:10B0DC005452554E4341544544004E52465F4552DE
:10B0EC00524F525F424C455F495053505F43484169
:10B0FC004E4E454C5F414C52454144595F45584971
:10B10C00535453004E52465F4552524F525F424C7D
:10B11C00455F495053505F4C494E4B5F4449534334
:10B12C004F4E4E4543544544004E52465F45525295
:10B13C004F525F424C455F495053505F504545520A
:10B14C005F52454A454354454400556E6B6E6F77CC
:10B15C006E206572726F7220636F64650000000070
:10B16C00000000009CAD020001000000A8AD020030
:10B17C0002000000C6AD020003000000E7AD0200B3
:10B18C0004000000FAAD0200050000000BAE020046
:10B19C00060000001FAE02000700000037AE0200E0
:10B1AC00080000004FAE02000900000067AE02006C
:10B1BC000A00000080AE02000B00000098AE0200F6
:10B1CC000C000000AFAE02000D000000C3AE020088
:10B1DC000E000000D5AE02000F000000E4AE02002D
:10B1EC0010000000F8AE0200110000000FAF0200CA
:10B1FC00120000001EAF02001300000033AF02006B
:10B20C008000000047AF02008100000068AF020020
:10B21C008200000084AF020083000000A0AF020097
:10B22C0084000000BEAF020085000000DFAF02000A
:10B23C008600000004B00200900000001BB0020069
:10B24C009100000039B002009200000057B00200DB
:10B25C00008200006CB00200018200008AB0020083
:10B26C0002820000A6B0020000840000C2B00200FE
:10B27C0001840000E6B002000284000010B102005C
:10B28C000384000035B102000608290C636C6F635F
:10B29C006B00434C4F434B004750494F54450050B3
:10B2AC005253005541525400554152544500436F7E
:10B2BC006E6E65637465642E00446973636F6E6EA5
:10B2CC0065637465642E004C425320777269746513
:10B2DC00204C4544207374617465202564004C45F2
:10B2EC004420427574746F6E207365727669636561
:10B2FC0020646973636F7665726564206F6E20637A
:10B30C006F6E6E5F68616E646C6520307825782E88
:10B31C0000427574746F6E20737461746520636879
:10B32C00616E676564206F6E207065657220746F46
:10B33C0020307825782E00426C696E6B792043455D
:10B34C004E5452414C206578616D706C652073745D
:10B35C0061727465642E004E6F726469635F426C37
:10B36C00696E6B79004E6F7420656E6F756768201F
:10B37C00737061636520666F7220636861726163CC
:10B38C00746572697374696373206173736F636935
:10B39C00617465642077697468207365727669637B
:10B3AC006520307825303458202100496E63726551
:10B3BC0061736520424C455F474154545F44425F82
:10B3CC004D41585F434841525320746F20626520B1
:10B3DC0061626C6520746F2073746F7265206D6F81
:10B3EC0072652063686172616374657269737469F4
:10B3FC00637320666F722065616368207365727673
:10B40C006963652100626C655F64625F6469736384
:10B41C000073645F626C655F6761705F6461746127
:10B42C005F6C656E6774685F7570646174652829FC
:10B43C0020287265717565737429206F6E20636F97
:10B44C006E6E656374696F6E203078257820726536
:10B45C007475726E65642025732E005468652072B5
:10B46C0065717565737465642054582F525820703B
:10B47C0061636B6574206C656E67746820697320FA
:10B48C00746F6F206C6F6E672062792025752F2585
:10B49C0075206F63746574732E0054686520726533
:10B4AC007175657374656420636F6D62696E617428
:10B4BC00696F6E206F6620545820616E642052585C
:10B4CC00207061636B6574206C656E6774687320A3
:10B4DC00697320746F6F206C6F6E67206279202502
:10B4EC0075206D6963726F7365636F6E64732E0084
:10B4FC0073645F626C655F67617474635F657863C6
:10B50C0068616E67655F6D74755F72657175657383
:10B51C007428292072657475726E65642025732EEB
:10B52C000073645F626C655F67617474735F6578E8
:10B53C006368616E67655F6D74755F7265706C7959
:10B54C0028292072657475726E65642025732E002F
:10B55C006E72665F626C655F676174740073645FC2
:10B56C00626C655F6761705F7363616E5F7374615A
:10B57C0072742072657475726E65642030782578EB
:10B58C0000626C655F7363616E00626C655F6C6218
:10B59C00735F630023D1BCEA5F782315DEEF1212D0
:10B5AC00000000006E72665F7364680001000007A3
:10B5BC0014AC020014AC02000800000004AC020041
:10B5CC0014AC02000800000014AC02001CAC020019
:10B5DC000800000073645F626C655F6366675F738D
:10B5EC00657428292072657475726E6564202573E4
:10B5FC00207768656E20617474656D7074696E6710
:10B60C0020746F2073657420424C455F434F4E4E3F
:10B61C005F4346475F4741502E0073645F626C6521
:10B62C005F6366675F736574282920726574757231
:10B63C006E6564202573207768656E20617474656F
:10B64C006D7074696E6720746F2073657420424C42
:10B65C00455F4741505F4346475F524F4C455F4300
:10B66C004F554E542E0073645F626C655F63666762
:10B67C005F73657428292072657475726E65642019
:10B68C002573207768656E20617474656D707469BC
:10B69C006E6720746F2073657420424C455F434F76
:10B6AC004D4D4F4E5F4346475F56535F555549448A
:10B6BC002E0073645F626C655F6366675F736574AD
:10B6CC0028292072657475726E6564202573207745
:10B6DC0068656E20617474656D7074696E67207432
:10B6EC006F2073657420424C455F47415454535F3F
:10B6FC004346475F415454525F5441425F53495A49
:10B70C00452E0073645F626C655F6366675F73658B
:10B71C007428292072657475726E656420257320F7
:10B72C007768656E20617474656D7074696E6720DE
:10B73C00746F2073657420424C455F4741545453D9
:10B74C005F4346475F534552564943455F43484123
:10B75C004E4745442E00496E73756666696369658C
:10B76C006E742052414D20616C6C6F636174656422
:10B77C0020666F722074686520536F66744465761A
:10B78C006963652E004368616E6765207468652087
:10B79C0052414D207374617274206C6F63617469D3
:10B7AC006F6E2066726F6D203078257820746F2054
:10B7BC00307825782E004D6178696D756D20524179
:10B7CC004D2073697A6520666F72206170706C69A8
:10B7DC00636174696F6E20697320307825782E0050
:10B7EC0073645F626C655F656E61626C65282920AD
:10B7FC0072657475726E65642025732E006E7266A8
:10B80C005F7364685F626C650000000040AB02000F
:10B81C0078AB0200080000006E72665F7364685FAC
:10B82C00736F630038AB020040AB020008000000ED
:10B83C0043000000504F53495800000020202020A6
:10B84C002020202020682828282820202020202084
:10B85C0020202020202020202020202048101010E4
:10B86C0010101010101010101010101084848484FC
:10B87C0084848484848410101010101010818181B1
:10B88C00818181010101010101010101010101011C
:10B89C0001010101010101101010101010828282AF
:10B8AC0082828202020202020202020202020202EC
:10B8BC0002020202020202101010102000070320E4
:10B8CC000417020108571040800000003CB8020029
:10B8DC0040B9020054BA020053756E004D6F6E00F1
:10B8EC0054756500576564005468750046726900AC
:10B8FC0053617400000000004A616E0046656200EE
:10B90C004D617200417072004D6179004A756E0094
:10B91C004A756C0041756700536570004F63740085
:10B92C004E6F76004465630000000000414D0050EE
:10B93C004D00000078BA020074BA020074BA02001A
:10B94C0074BA020074BA020074BA020074BA02002B
:10B95C0074BA020074BA020074BA0200FFFFFFFF4F
:10B96C00FFFFFFFFFFFFFFFFFFFF0000B4B9020066
:10B97C00E4B80200F0B9020004B9020038B90200C0
:10B98C0098B9020048BA0200A4B90200256D2F250F
:10B99C00642F257900000000256120256220256593
:10B9AC00202554202559000053756E646179004D93
:10B9BC006F6E6461790054756573646179005765C5
:10B9CC00646E65736461790054687572736461792F
:10B9DC0000467269646179005361747572646179AF
:10B9EC00000000004A616E756172790046656272F2
:10B9FC0075617279004D6172636800417072696C97
:10BA0C00004D6179004A756E65004A756C7900418C
:10BA1C0075677573740053657074656D626572003B
:10BA2C004F63746F626572004E6F76656D626572FE
:10BA3C0000446563656D62657200000025483A2517
:10BA4C004D3A255300000000B1A80200CDA8020019
:10BA5C00D9A80200E5A8020001A902000DA9020064
:0EBA6C0019A9020027A90200000000002E0008
:10BA7C0000000000002000400000000000200040FA
:10BA8C000000000000000000FF0000000090D00348
:10BA9C0026000300FD9202000000000000000000E0
:10BAAC00000000000000000000000000000000008A
:10BABC00000000000000000000000000000000007A
